:1000000000000420750300005D03000009410000AA
:1000100061030000630300006503000000000000AE
:100020000000000000000000000000006703000066
:1000300069030000000000006B0300006D03000076
:10004000F10900006F030000890A0000590A00004E
:10005000650A00006F030000910500009D0D00007F
:10006000211000003510000049100000650D00004F
:100070006F030000890C00006F0300006F03000095
:10008000FD220000F5360000A50B00007D0A0000EF
:10009000AD0F0000B30F0000B90F0000BF0F00004C
:1000A000C50F0000CB0F00005D10000071100000B4
:1000B000650B000035080000000000000000000093
:1000C0006F030000750B0000850B0000710A000033
:1000D000750D00000D0700006F0300007D22000079
:1000E0006F030000650C0000B56F00000000000009
:1000F00000000000950B000000000000790F0000D8
:1001000000000000000000000000000000000000EF
:1001100000000000000000000000000000000000DF
:1001200000000000000000000000000000000000CF
:1001300000000000000000000000000000000000BF
:1001400000000000000000000000000000000000AF
:10015000000000000000000000000000000000009F
:10016000000000000000000000000000000000008F
:10017000000000000000000000000000000000007F
:10018000000000000000000000000000000000006F
:10019000000000000000000000000000000000005F
:1001A000000000000000000000000000000000004F
:1001B000000000000000000000000000000000003F
:1001C000000000000000000000000000000000002F
:1001D000000000000000000000000000000000001F
:1001E000000000000000000000000000000000000F
:1001F00000000000000000000000000000000000FF
:10020000354936480A1A02D0072291438D463449AF
:1002100034480A1A06D00722914381F30988022242
:1002200082F3148830483149314A00F044F83148AB
:100230003149324A00F03FF831483249324A00F041
:100240003AF832483249334A00F035F832483349F7
:10025000334A00F030F833483349344A00F02BF881
:1002600033483449344A00F026F8344834490022EF
:1002700000F02CF833483449002200F027F83348C6
:100280003349091A082902DB002202604160314A21
:1002900090471F481F49884205D00268043003B4C4
:1002A000904703BCF7E700208646EC46002000217B
:1002B000294A9047FEE7884207D0521A05D00378B2
:1002C00001300B700131013AF9D17047884202D0F8
:1002D00002700130FAE770470000042000E00320BC
:1002E0000000042000000420C49A0000EC0100205B
:1002F00034020020D0030000D00300008C76000000
:10030000C49A0000EC010020EC010020C07A00003B
:10031000C07A0000C07A0000C07A0000C07A0000F5
:10032000C07A0000C07A0000C07A0000C49A0000C1
:100330000C9B000034020020340200203402002014
:100340001C3500201C3500201C3500201C350020E9
:100350001C5500209D03000029230000FEE7FEE756
:10036000FEE7FEE7FEE7FEE7FEE7FEE7FEE7FEE765
:1003700000F002B8FFF7FCBF0F484FF007018843B9
:1003800085460E4880470E48016841F470010160BF
:10039000BFF34F8FBFF36F8FFFF732BF09480A4992
:1003A0000A4A884207D0521A05D0037801300B70F0
:1003B0000131013AF9D1704700000420395A000098
:1003C00088ED00E0D478000000000020EC0100205F
:1003D0001FB503788DF800304368019383688DF86A
:1003E0000830C368054A0393054B684653F821302B
:1003F00052F82110984705B05DF804FB84020020F4
:100400008C0200201FB503788DF8003043680193FB
:1004100083688DF80830C368054A0393054B684626
:1004200053F8213052F82110984705B05DF804FBCD
:10043000840200208C020020F0B5194B90F800C017
:10044000DFF86CE043F82C20164B16460A6943F897
:100450002C204B7F0EF80C300C4607460FCC89B091
:100460006D460FC594E80F0085E80F003B78CDF886
:1004700010C01EF803304BB1002E0B4A694608BF6E
:100480003246381D01F028F909B0F0BD002E074AA8
:10049000694608BF324607F10C0000F0E1FEF3E7C1
:1004A0008C02002084020020D1030000050400001B
:1004B0009402002010B5034653E8000F00EA010241
:1004C00043E8002494F0000FF6D110BD00F1804005
:1004D000002382B0036003680193019B02B0704760
:1004E0004FF0804110B5D1F8003163B14FF4807006
:1004F000FFF7ECFF0D4B58790122C1F8082310B922
:100500005A711B6898474FF08042D2F8043163B1AA
:100510004FF48270FFF7DAFF0223C2F80833034B6F
:10052000BDE810401B680120184710BD980200204C
:1005300000F1804000F5C040002382B003600368F2
:100540000193019B02B0704703681F2B83BF03F028
:100550001F03036001484FF0A040704700030050A4
:1005600007B5019001A8FFF7EFFF019B00EB8300A7
:10057000D0F8003723F44033C0F80037D0F8003704
:1005800043EA0141C0F8001703B05DF804FB000026
:100590002DE9FF470024CDE90244584D4FF4807205
:1005A000012102F1804303F5C04390B21B68012B87
:1005B00006D1D5F804330B4202D0FFF7B9FF0C4344
:1005C0000432B2F5907F4FEA4101EAD14B4BD3F8A8
:1005D0007C31012B11D14FF4BE70FFF7A9FF4FF012
:1005E000A04344F00044D3F820250292C3F820250C
:1005F000D3F820280392C3F82028E3B2D3B1404FA8
:1006000000250126344210D0AB0003F1804303F5EE
:10061000C043D3F81005D3F8101557F8253023B18F
:10062000C1F30141C0F3052098470135082D4FEA79
:100630004606E7D1002C59DA314D324C324E4FF09C
:100640000008012716F9013B5A1C3CD0C3F3C20134
:10065000103169445FFA83F911F8081C03F03F0276
:1006600003F0070307FA03F319422CD001A8019203
:10067000FFF76AFF019B03F5E07350F82330C3F3E3
:10068000014ABAF1020F0CBF032102211046FFF705
:1006900067FF01A80192FFF757FF019B07FA03F3D9
:1006A000C0F82035AB1893F9303055F8233053B1EA
:1006B0004FEA9911032904D0BAF1020F19D1012987
:1006C00001D11046984708F10108B8F1040FB9D1DB
:1006D0004FF0A043D3F820250292C3F82025D4F888
:1006E00020350393C4F820351343A7D104B0BDE8E7
:1006F000F087BAF1030FE6D10229E1E7006000407C
:10070000A00200200003005000030020F0B53F4B82
:100710003F4CD3F8142185B08AB10022C3F81421CC
:10072000D3F814310093009B637943F0080303F07E
:100730001202122A637104BF43F020036371334B2A
:10074000D3F804218AB10022C3F80421D3F804317C
:100750000193019B637943F0040303F01102112A12
:10076000637104BF43F020036371284BD3F8082161
:10077000BAB10025C3F80851D3F808210292029AB1
:1007800024480422C3F808232946C3F800552368E7
:10079000984723682048294698470123237105B0CC
:1007A000F0BD637903F00F020F2A08D0D80701D4F7
:1007B000190704D462799207F1D45B07EFD5627907
:1007C000276802F0F30312F020020BD023F030036D
:1007D00043F010036371012100203B4605B0BDE8E2
:1007E000F04018470B4D95E8030002AE86E8030081
:1007F00015E9030043F0100385E80300C4E9022271
:10080000637101213046B847C9E700BF005002407C
:100810000C0300201C0300201403002000F1804082
:1008200000F5E830002382B0036003680193019B68
:1008300002B070471FB53C493C4CD1F80021002A5A
:1008400047D04FF48070FFF7E9FFA37CDA4302F052
:10085000010204EB8201496811B9617C02292DD1A2
:10086000607C022818BF04EB83034FF000010BBF2C
:1008700001235868637459604FF001038DF80C1020
:10088000E1740EBF02910290A2748DF804302368C7
:1008900001A89847637C022B01D101236374237D57
:1008A00053B101238DF80430002302938DF80C30EE
:1008B000237501A82368984704B010BDE37C002B82
:1008C000E8D18DF80430029301238DF80C30E374E5
:1008D000DDE7D1F80431002BE1D04FF48270FFF74F
:1008E0009DFFC1F80025A37C627404EB83038DF89F
:1008F0000C2059688DF8042021B15A6002912368B8
:1009000001A89847A37CDB4303F0010304EB8303B6
:100910005A682AB1029200225A6001A823689847B7
:100920000023A374BBE700BF00D0014024030020D4
:1009300000F1804382B01A68002A14BF0120002011
:1009400004D000221A601B680193019B02B070471B
:100950004FF0804310B5D3F80443620707D54FF436
:100960008470FFF7E5FF10B11E4B1B689847A30684
:1009700008D54FF48A70FFF7DBFF18B11A4B00203F
:100980001B689847600608D54FF48C70FFF7D0FFBE
:1009900018B1154B01201B689847210608D54FF464
:1009A0008E70FFF7C5FF18B1104B00201B689847E9
:1009B000E20508D54FF49070FFF7BAFF18B10B4B62
:1009C00001201B689847A3050AD54FF49270FFF7E2
:1009D000AFFF28B1054BBDE810401B680220184747
:1009E00010BD00BF3C030020400300204403002052
:1009F00008B5FFF7ADFFBDE80840FFF771BD000087
:100A00000E4B9842024610D0B0F1402F0FD003F5A4
:100A1000003398420DD0A3F5803398420BD008499B
:100A200008488A4218BF00207047074870470748A7
:100A30007047074870470748704700BF00300040C4
:100A400000200040680300204803002050030020DD
:100A50005803002060030020014B1B68184700BFAB
:100A600048030020014B1B68184700BF50030020BB
:100A7000014B1B68184700BF58030020014B1B683F
:100A8000184700BF60030020014B1B68184700BFD8
:100A90006803002070B50D46FFF7B2FF044608B9A1
:100AA000002070BD002002F021FE267916B9012336
:100AB00025602371002002F01BFE002EF0D01120D3
:100AC000EFE708B5FFF79CFF10B100230360037147
:100AD00008BD0023435082B043580193019B02B0EC
:100AE0007047D0F8103170B505460C4653B14FF43D
:100AF0008871FFF7EEFF63795A0703D523680BB1BE
:100B000001209847D5F814315BB14FF48A7128461B
:100B1000FFF7DFFF63791B0703D523680BB10220C2
:100B20009847D5F81C315BB128464FF48E71FFF71A
:100B3000D0FF607910F0100002D1236803B198470C
:100B4000D5F8043163B14FF482712846FFF7C1FF35
:100B50000123237123681BB1BDE8704003201847AF
:100B600070BD000001490248FFF7BBBF70030020C1
:100B700000C0014001490248FFF7B3BF78030020DD
:100B80000010024001490248FFF7ABBF800300207C
:100B90000020024001490248FFF7A3BF880300205C
:100BA00000D0024010B52D4CD4F8003186B0C3B14E
:100BB000D4F80433D90714D50023C4F80031D4F88D
:100BC00000310193019B4FF48073ADF81030D4F8DD
:100BD0000C358DF81230224B06AA12E903001B686F
:100BE0009847D4F80431E3B1D4F804339A0718D500
:100BF0000023C4F80431D4F804310293029B4FF46B
:100C00008273ADF81030D4F81835ADF81230D4F83E
:100C10004835ADF81430124B06AA12E903001B68E0
:100C20009847D4F80831BBB1D4F804335B0713D527
:100C30000023C4F80831D4F808310393039B4FF420
:100C40008473ADF8103006AA054B12E903001B6847
:100C500006B0BDE81040184706B010BD00200140A6
:100C600090030020064AD2F800313BB1054B00202A
:100C700058719968C2F800011A681047704700BFA0
:100C80000090024094030020074B0022C3F800218B
:100C900082B0D3F800210192019AD3F80805034BE2
:100CA0001B68C0B202B0184700D00040A00300206B
:100CB0000023435082B043580193019B02B0704718
:100CC0002DE9F047DFF8988004460D46914600F57F
:100CD000A07A4FF480370026D4F80433B10001F530
:100CE000A0713B4289B20DD0DAF8003053B1C4F89C
:100CF00048732046C4F80873FFF7DAFF58F8253028
:100D0000F0B298470136B1454FEA47070AF1040AA5
:100D1000E2D1D4F80433DA070CD5D4F800314BB162
:100D200020464FF48071FFF7C3FF0D4B042053F8AA
:100D300025309847D4F804339B070ED5D4F80431F6
:100D40005BB120464FF48271FFF7B2FF044B0520E0
:100D500053F82530BDE8F0471847BDE8F08700BFDD
:100D6000A4030020024803220021FFF7A9BF00BF0F
:100D700000B00040024804220121FFF7A1BF00BFDC
:100D80000040024000F1804000F5E040002382B0C6
:100D9000036003680193019B02B07047F0B5524BAA
:100DA000524CD3F8043185B0002B3DD094F82E205E
:100DB0004FF48270FFF7E6FF2AB394F82F3013BB8D
:100DC000494AD2F80031002B32D04FF48070FFF73F
:100DD000D9FF638B94F82D00834250D921891B1AC7
:100DE0009BB289B26383CB1A616801EB4303C2F8FB
:100DF0002C36C2F830064FF48270FFF7C3FF3A4B2F
:100E000001225A6014E0636802932389ADF80C3024
:100E1000E36800218DF8041033BB2374236801A814
:100E20009847002384F82F3094F82E30002BC7D138
:100E30002D4BD3F810315BB14FF48870FFF7A2FF50
:100E40000023237402238DF8043001A823689847F7
:100E5000254BD3F81431EBB14FF48A70FFF792FFB2
:100E60000023237405B0F0BD208B60836360208174
:100E7000E160002AD2D11C4B01221A60CEE7BAD120
:100E8000E368012184F82F1013B100216183AEE7DC
:100E90006383B0E766694FF000470125002EE1D07B
:100EA000B6FA86F227FA02F34632920026EA0306E1
:100EB00002F1804303F5E0431B68002BEED010469F
:100EC000A2F58C72FFF75EFFD30882F00402C2F332
:100ED00080028DF808308DF8045023688DF80920C1
:100EE00001A89847DAE700BF00700040AC0300207B
:100EF0001F2886BF054A00F01F004FF0A0420123C3
:100F000003FA00F0C2F80C05704700BF0003005060
:100F10001F2886BF054A00F01F004FF0A0420123A2
:100F200003FA00F0C2F80805704700BF0003005044
:100F3000D0F8183107B5DBB10023C0F81831D0F86C
:100F40001831C87F0193FF28019B03D08B7F63B1C9
:100F5000FFF7CEFF002308460B724B7750F8083B93
:100F6000496803B05DF804EB1847FFF7D1FFF1E7DC
:100F700003B05DF804FB000001490248FFF7D8BF49
:100F80004804002000F0024030B4064A52F82040E5
:100F9000054A002532F8101022F81050234630BCC4
:100FA000184700BF780400206C0400200020FFF7E1
:100FB000EBBF0120FFF7E8BF0220FFF7E5BF0320EA
:100FC000FFF7E2BF0420FFF7DFBF0520FFF7DCBF1C
:100FD0002DE9F347002406460F46904600F5A0751C
:100FE0004FF48039A2462B688BB1D6F8043309FA46
:100FF00004F21A420BD0C5F800A02B680193A000A0
:10100000019B00F5A07398B2D7E9003198470134ED
:10101000444505F10405E6D102B0BDE8F0870000C3
:10102000024903480422FFF7D3BF00BF9004002009
:1010300000800040024903480422FFF7C9BF00BFF7
:101040009C04002000900040024903480422FFF75E
:10105000BFBF00BFA804002000A000400249034811
:101060000622FFF7B5BF00BFB404002000A0014076
:10107000024903480622FFF7ABBF00BFC0040020AF
:1010800000B001400023435082B043580193019BBC
:1010900002B070470A4610B54FF48E71FFF7F2FFA9
:1010A000136A9168C95C136A01331362C0F81C1596
:1010B00010BD8B690A4610B54FF4847123B9FFF750
:1010C000E1FFD0F8183510BDFFF7DCFF536AD16897
:1010D000D0F81805C854536A01335362F3E700008F
:1010E0001FB501238DF80030044BCDE90110D3E981
:1010F00000126846904705B05DF804FBCC04002060
:1011000030B54D4DD5F804339A0585B051D5D5F895
:101110002431002B4DD04FF492712846FFF7B2FFD7
:101120004FF40173C5F80833444B93F829200AB9EA
:1011300001226A60404902228DF80020D1F8802403
:10114000C1F8802403929A690292DA68019200221F
:10115000C3E906226846D3E9001290473648D0F822
:101160001C315BB1354A5169136A99424DD992F8E5
:101170002830002B49D11146FFF78CFF2E48D0F8BC
:101180004431002B56D04FF4A271FFF77BFF2B4B5D
:1011900093F829200AB1012202609A69002A49D0F5
:1011A000586AD96800229A6105B0BDE83040FFF75F
:1011B00097BFD5F804335B07D0D5D5F80831002B9D
:1011C000CCD01E4C1C482146FFF773FF636AA2690E
:1011D0009A42C3D1E369E1684BB1A3612369E3603B
:1011E0000023606AE3616362FFF77AFFB6E794F871
:1011F00029300BB901236B600F4B4FF40172C3F818
:1012000008230023606AA361EEE70B484FF48E7158
:10121000FFF738FF5369002BB0D0516902910023CA
:1012200091688DF80030019153616846D2E900134E
:101230009847A3E705B030BD00200040CC04002053
:101240001F2886BF00F01F00044B4FF0A04300F59D
:10125000E070022243F82020704700BF00030050D6
:101260002DE9F843604D90F804802C2303FB0853CC
:10127000064693F82A300C469146002B40F0AF808A
:101280005A490068FFF706FC0746002840F0A9808D
:101290002268531C10D01F2A87BF554902F01F0334
:1012A00013464FF0A0410120984003F5E073C1F8C8
:1012B0000805032041F823006168481C0DD01F2950
:1012C0008BBF01F01F030B4649484FF0A04003F5C8
:1012D000E0734FF0000C40F823C03068A369C0F8F9
:1012E000243594F814C0637DBCF1010F4CEA03036C
:1012F000C0F86C35C0F81415C0F80C252BD1A368C4
:10130000591C0DD01F2B8BBF03F01F021A46384902
:101310004FF0A04102F5E0724FF0000C41F822C0FE
:10132000E1684A1C13D01F2987BF314A01F01F0C06
:101330008C464FF0A0424FF0010E0EFA0CFE0CF559
:10134000E07CC2F808E54FF0030E42F82CE0C0F84C
:101350000815C0F810352C2202FB08F2AB18C3F8B0
:1013600004902369AB50B9F1000F20D04FF48E7177
:10137000247FFFF787FE4FF4A2713068FFF782FEEB
:1013800032681C4BC2F80433130B42F3073261017D
:10139000002AC9B21EDB1848841884F80013012102
:1013A000520903F01F0301FA03F340F822303368B7
:1013B0000422C3F800252C2303FB08530022C3E9B1
:1013C000062283F829205A61012283F82A20384610
:1013D000BDE8F883094A03F00F03D154E7E7082773
:1013E000F5E71127F3E700BFCC040020011100004E
:1013F000000300508000020000E100E014ED00E076
:101400002DE9F04103680579284C0022C3F8002536
:101410002C2202FB054201465268A2B1244AC3F8BD
:1014200008231A0B43F30733002B0CDB02F01F00D9
:101430005B090122824020331E4840F82320BFF37D
:101440004F8FBFF36F8F0B68D3F80C05D3F814855B
:10145000D3F80865D3F810754FF0FF329042C3F807
:101460001425C3F80C25C3F80825C3F8102501D0AE
:10147000FFF7E6FEB8F1FF3F02D04046FFF7E0FE7F
:101480007A1C02D03846FFF7DBFE731C02D03046D0
:10149000FFF7D6FE0868FFF714FB2C2303FB054477
:1014A000002384F82A306360BDE8F081CC0400207A
:1014B0008402020000E100E00279044B2C2101FBD0
:1014C00002335869003818BF01207047CC0400204F
:1014D0002DE9F84F064690F8048089469246FFF7BA
:1014E000EBFF044600283CD1204F2C2508FB057B50
:1014F0004FF48E71CBF814A0CBF80890CBF82000F5
:101500008BF828003068FFF7BDFD30680123836049
:101510005946FFF7BFFDDBF804305D461BBB306862
:10152000DBF814402B6A9C4211D83368D3F81C2195
:10153000002AFBD00122DA6000202C2303FB08776D
:1015400000237B61BDE8F88F95F828303BB9D0F8CF
:101550001C31002BF8D05946FFF79CFDE2E70F2025
:10156000EBE71120EEE72046ECE700BFCC040020BB
:101570000023435082B043580193019B02B070474F
:101580001FB501238DF80030044BCDE90110D3E9DC
:1015900000126846904705B05DF804FBF80400208F
:1015A0007FB5434AD2F82461002E60D010464FF434
:1015B0009271FFF7DDFF02238DF80030D2F88034FE
:1015C000C2F880340393D2F83C350293394BDA6881
:1015D00001920022C3E906226846D3E9001290472F
:1015E0003348D0F8443173B14FF4A271FFF7C0FF14
:1015F000304B9A693AB10022C3E90622D968D0F883
:101600003C05FFF7BDFF2A48D0F82031ABB14FF4BD
:101610009071FFF7ADFF0123C360264B5A6962B199
:10162000D0F84C150291002299688DF800200191A4
:101630005A616846D3E9001290471D48D0F85831E6
:101640009BB14FF4AC71FFF793FF1A4B5A6962B12B
:10165000D0F84C150291002299688DF80020019174
:101660005A616846D3E90012904704B070BDD2F8C1
:101670001031002BB4D04FF488711046FFF778FF7B
:101680000C4BD2F83C0599698842A9D1DC69D9682C
:1016900064B1D2F8005225F02005C2F800521A6950
:1016A0009C61DA60DE61FFF76BFF99E79C61FAE706
:1016B00000200040F80400201F2886BF00F01F0013
:1016C000044B4FF0A04300F5E070022243F82020C5
:1016D000704700BF000300502DE9F843664E90F8B4
:1016E0000480242303FB0863044693F820300D464E
:1016F0009146002B40F0BC8060490068FFF7CAF9B2
:101700000746002840F0B68029684B1C10D01F29DE
:1017100087BF5B4A01F01F030B464FF0A042012038
:10172000984003F5E073C2F80805032042F823004F
:101730006A68501C0DD01F2A8BBF02F01F0313468E
:101740004F484FF0A04003F5E0734FF0000C40F815
:1017500023C02068AB69C0F8243595F814C06B7DB0
:10176000BCF1010F4CEA0303C0F86C35C0F80C154E
:10177000C0F814252BD1AB68591C0DD01F2B8BBF83
:1017800003F01F021A463E494FF0A04102F5E072F5
:101790004FF0000C41F822C0E9684A1C13D01F2901
:1017A00087BF374A01F01F0C8C464FF0A0424FF024
:1017B000010E0EFA0CFE0CF5E07CC2F808E54FF0C5
:1017C000030E42F82CE0C0F80815C0F810352422AA
:1017D00002FB08F2B318C3F804902B69B350B9F1B7
:1017E000000F2FD04FF488712A7FFFF7C1FE2068C9
:1017F0004FF49071FFF7BCFE20684FF49271FFF731
:10180000B7FE20684FF4A271FFF7B2FE4FF4AC713F
:101810002068FFF7ADFE23681A49C3F80413190BBB
:1018200043F307335201002BD2B21CDB1648C51814
:1018300085F8002301225B0901F01F0102FA01F182
:1018400040F8231023680822C3F80025242303FB53
:1018500008660023C6E906337361012386F8203049
:101860003846BDE8F883094B01F00F015A54E9E707
:101870000827F5E71127F3E7F8040020A115000079
:10188000000300501003420000E100E014ED00E00E
:101890002DE9F0413D4D06790468242303FB0653EE
:1018A00002465B68ABB13A4BC4F8083344F30733E4
:1018B000002B4FEA14310CDB01F01F005B09012102
:1018C00081402033334840F82310BFF34F8FBFF3DC
:1018D0006F8FD4F8003223F02003C4F800322423A1
:1018E00003FB06539B6933B14FF4A2712046FFF707
:1018F0003FFE012363604FF4AC712046FFF738FED2
:101900000123E360242303FB0653D4F85811002974
:10191000FBD0996919B1D4F844110029F5D00023FE
:10192000C4F800351368D3F80C05D3F81485D3F840
:101930000815D3F810754FF0FF329042C3F80C250C
:10194000C3F81425C3F80825C3F8102501D0FFF704
:10195000B3FEB8F1FF3F02D04046FFF7ADFE7A1C60
:1019600002D03846FFF7A8FE4B1C02D00846FFF70E
:10197000A3FE2046FFF7A5F8242303FB065500230A
:1019800085F820306B60BDE8F08100BFF8040020CE
:101990001003420000E100E00279044B242101FB26
:1019A00002335869003818BF01207047F80400203E
:1019B00001F06043B3F1005F2DE9F0470646884629
:1019C00092463BD190F80490FFF7E6FF04460028CA
:1019D00036D11D4F3068242505FB09754FF49071F1
:1019E000C5F814A0C5F80880FFF7C2FD4FF4AC712C
:1019F0003068FFF7BDFD33686A69A968C3F844150C
:101A0000C3F8482501229A606A68DAB9D3F8202120
:101A1000D3F858011AB90028F8D00F2007E00028A1
:101A2000FBD10122DA60D3F85821002AFBD024230D
:101A300003FB097700237B61BDE8F0871020FBE7FB
:101A40001120F9E72046F7E7F804002010F0080F0E
:101A5000074B06D0D3F8C00410F4803F18BF002015
:101A6000704700F00F0000F5947053F820007047A5
:101A7000007002404FF08053D3F83001A0F108030A
:101A80005842584170470000054B10F0800FA3F1F9
:101A9000900208BF134600F00F0003EB00107047E0
:101AA000B805002010F0800F14BF0023102300F0B1
:101AB0000F0018447047000008B5FFF7DBFF18B1AE
:101AC000034B0022C3F81C2C024B00221A7008BDE5
:101AD000007002401D05002007B5094A002313705D
:101AE000084AADF8053013708DF8073001238DF8E2
:101AF0000430054B01A81B68984703B05DF804FB50
:101B00001C0500204C0600204806002070470000FD
:101B100008B50146FFF7D0FF0846FFF7B5FF827B07
:101B2000032A0AD10846FFF7BDFF01218140BDE825
:101B300008400448C943FEF7BDBC0368002BF1D040
:101B400008BD00BF200500208720FFF7E1BF8620E9
:101B5000FFF7DEBF8520FFF7DBBF8420FFF7D8BF8C
:101B60008320FFF7D5BF8220FFF7D2BF8120FFF788
:101B7000CFBF000008B5FFF79FFF084B93F89E20EA
:101B8000032A06D1BDE8084005486FF00101FEF7C1
:101B900091BCD3F89030002BF4D008BD280500206C
:101BA00020050020012273B502FA01F51E491F4EDF
:101BB0000B6810F0800F43EA050304460B6027D042
:101BC00000F00F021A4B33F8123003F1804303F593
:101BD0001C331A684AB100221A60BFF36F8FBFF33B
:101BE0004F8F802811D0FFF793FF316829400AD129
:101BF00006238DF804308DF806408DF807100D4B44
:101C000001A81B68984702B070BDFFF7B3FFECE76F
:101C100033681D42F7D106238DF804308DF8060095
:101C20008DF80720EBE700BF2405002020050020E9
:101C3000447B00004806002008B5054B1A78104682
:101C4000FFF730FFBDE8084001461046FFF7AABF86
:101C50004C060020FFF78EBF07B500238DF8043037
:101C60000B4BD3F82025ADF80620D3F8C034094A31
:101C7000002B13680CBF4FF480714FF001210B4310
:101C80001360054B01A81B68984703B05DF804FB7F
:101C900000700240240500204806002007B5FFF729
:101CA0000BFF0D4B93F88E20032A11D0D3F8803010
:101CB00073B90A486FF08071FEF7FCFB06238DF8BC
:101CC00004300823ADF80630054B01A81B6898477F
:101CD00003B05DF804FB00BF2805002020050020AC
:101CE0004806002007B5FFF7E7FE114B93F81E21C9
:101CF000032A07D10F486FF4807103B05DF804EB3D
:101D0000FEF7D8BBD3F8103173B90A486FF480716D
:101D1000FEF7D0FB06238DF804308823ADF806309B
:101D2000054B01A81B68984703B05DF804FB00BF92
:101D30002805002020050020480600202DE9F04F4E
:101D40005D4E337885B0002B6DD15C4C5C4B1968CF
:101D50002368194067D011F0012367D093FAA3F1EB
:101D6000002966D0B1FA81F10F2964D9A1F11008D8
:101D70005FFA88F84046FFF787FE4FF0010B4FFAF5
:101D800088FA0BFA01F1BAF1000F81466FEA010BF4
:101D900054DA03688289416802A8984708B9C9F8EB
:101DA0000000FFF767FE18B1464B8222C3F81C2CD7
:101DB00001232168039A3370D9F8083001EA0B0136
:101DC0001344BAF1000F2160C9F8083008F0080088
:101DD00002993C4B08F00F085EDA002854D0C3F893
:101DE000A016C3F8A426042303EB880303F1804361
:101DF00003F51C3301221A60BFF36F8FBFF34F8FBF
:101E0000314B324A2F4913EA2A0338BF134633F8BD
:101E1000183003F1804303F51C331A681AB9D1F85E
:101E20000021002AF9D005B0BDE8F08F91FAA1F1A8
:101E300096E720219AE741F080089BE74046FFF7AC
:101E400005FEB9F80C20D9F80410D9F80050034663
:101E5000074602A8A847029A002A9FD0039A9742F1
:101E60009CD9022789F80E7059461548FEF722FBC7
:101E700006238DF80430164B8DF806801B688DF80C
:101E8000077001A8984761E7142000FB0833C3F8E6
:101E90000016C3F80426A6E728B1C3F8A017C3F8B4
:101EA000A4272823A0E7142000FB0833C3F8001759
:101EB000C3F80427F5E700BF1D0500202405002016
:101EC0002005002000700240447B0000567B00008B
:101ED0004806002037B50446FFF7EEFD2046FFF721
:101EE000D3FD837B032B0DD12046FFF7DBFD0121C2
:101EF0008140C9430F48FEF7DDFA03B0BDE830402A
:101F0000FFF71CBF0568002DF7D12046FFF7CAFD7B
:101F100001218140C9430748FEF7CCFA06238DF81A
:101F20000430054B8DF806401B688DF8075001A85A
:101F30009847E2E720050020480600200720FFF729
:101F4000C9BF0620FFF7C6BF0520FFF7C3BF0420A7
:101F5000FFF7C0BF0320FFF7BDBF0220FFF7BABFE6
:101F60000120FFF7B7BF000038B5134BD3F86C441E
:101F7000C3F86C44BFF36F8FBFF34F8F01251CB9BB
:101F8000BDE83840FFF7DABE94FAA4F171B1B1FAB6
:101F900081F30F2B19460BDDA1F11000C0B205FA39
:101FA00001F324EA0304FFF7FDFDE8E72021F3E74E
:101FB00043F08000F3E700BF00700240254B13B5EB
:101FC000D3F80044C3F80044BFF36F8FBFF34F8FC3
:101FD000BFF36F8FBFF34F8FE1050ED51E4B01226C
:101FE0001A700023ADF805308DF8073002238DF804
:101FF00004301A4B01A81B689847A2050DD5164A54
:1020000000231370ADF805308DF8073003238DF8E9
:102010000430124B01A81B689847630518D50E4A77
:102020001378ABB1002313700A4A0121C2F80815D6
:102030009165BFF36F8FBFF34F8FADF805308DF80B
:10204000073004238DF80430044B01A81B6898471F
:1020500002B010BD007002401C05002048060020A0
:10206000034B0122DA64BFF36F8FBFF34F8F7047CA
:102070000070024013B5FFF71FFD114B9A7B032A36
:1020800007D110486FF4803102B0BDE81040FEF770
:1020900011BA1C687CB96FF480310A48FEF70AFA5D
:1020A00006238DF80430084BADF806401B6801A8E4
:1020B000984702B010BD02B0BDE81040FFF7D0BF96
:1020C00028050020200500204806002010B5044601
:1020D000002001F00BFB2046FFF7E4FC0D49012234
:1020E0000B6802FA00F023EA000314F008020B6008
:1020F0000AD104F00F04084B04F5947443F824202B
:10210000BFF36F8FBFF34F8FBDE81040002001F089
:10211000EFBA00BF2405002000700240F7B5044666
:10212000002001F0E3FA2046FFF7AEFC054620460A
:10213000FFF7B8FC012214F0800F02FA00F22D48DC
:1021400018D1036832EA03010AD02046FFF7BEFF28
:102150000323AB73002003B0BDE8F04001F0C8BA20
:1021600023EA020329600360234B186820EA020077
:102170001860EDE7230715D4802C204B2ED004F0F7
:102180000F0101F2DA314900C3F80018D3F804183E
:10219000D3F80468C9B241F002013143C3F804180E
:1021A000D3F80438144E0168336861EA0307174214
:1021B000D0D0134321EA02013360002301602B6079
:1021C0000323AB738DF807300D4B8DF806400622C4
:1021D0001B688DF8042001A89847BBE740F2B47152
:1021E000C3F80018D3F80418D3F80468C9B241F052
:1021F0000401D2E7200500202405002000700240E1
:102200004806002073B5184B184CD3F88054236847
:10221000174EDA43174B31781B6892B208461A43BF
:10222000FFF740FC012303FA00F0104202D00846F9
:10223000FFF774FF6FF0011105F080050D48357050
:10224000FEF738F9236843F0010323600023ADF85B
:1022500005308DF8073005238DF80430064B01A8B2
:102260001B68984702B070BD007002402405002032
:102270004C06002020050020480600201C4BD3F807
:10228000041300232DE9F04101241D4671B9194FB3
:1022900003F4000623F400044FF00108D4B9FFF75B
:1022A0004DFD1EB3BDE8F041FFF7ACBF91FAA1F2BE
:1022B0001148B2FA82F29600304404FA02F206683B
:1022C0002EB10560BFF36F8FBFF34F8F134321EA29
:1022D0000201DBE794FAA4F5B5FA85F557F8253045
:1022E00008FA05F5984724EA0504D7E7BDE8F08128
:1022F00000700240687B00000071024013B5084C7A
:10230000D4F800314BB1074B1B6898470023C4F841
:102310000031D4F800310193019B02B010BD00BF21
:1023200000000140500600202DE9F8434FF48041A1
:10233000002000F093FA08B101F074F901F062F99D
:10234000144C154BDFF85C80E41AB8F80230E4084E
:102350002404022B44F0030403D91049204600F062
:102360000BFE0F4EDFF84090002546F00106B8F84E
:102370000230022B04D92A464946204600F000FECE
:102380004FF4FA774FF47A40B047013FFAD1013564
:10239000EDE700BF60770000A8760000D07B00006A
:1023A000007C000070000020EF7B0000002110B5D1
:1023B000084603F0CDFA044608B904F0D5FC2046DF
:1023C00010BD000008B5074B00221A60BFF35F8FF5
:1023D00004F096FC014618B9BDE8084003F0B8BA0D
:1023E000032008BD54060020002844D0A0F570004A
:1023F000A0F54060352839D8352837D8DFE800F017
:10240000211E362427272A3330363636361E361E0E
:102410003939393636363636363636363636363653
:10242000242A24271B2D362D3636363636363636B8
:10243000212A27361E1E48F21750704748F20350D3
:10244000704748F21350704748F21050704748F2F6
:102450001150704748F21450704748F201507047CD
:1024600048F20250704748F27150704748F21650D7
:10247000704748F27050704708B50121044801F0D8
:1024800076FFBFF35F8FB0FA80F0400908BD00BF50
:102490005406002013B502680C4B01919A42044681
:1024A0000FD0FFF7E9FF70B10199201D03F03EFF47
:1024B000FFF79AFFBFF35F8F054B00221A6002B04F
:1024C00010BD0020FBE748F20450F8E76169614D58
:1024D0005406002000230428CB604B6098BF044BB7
:1024E000044A98BF53F820308A600B60704700BFE1
:1024F000908100006C810000CB6800225A71704707
:10250000C368DB6800225A717047CB6801225A7198
:102510007047C368DB6801225A7170470D4A8A60B0
:1025200070B50D4A0D4C0023121BCB604B600B6045
:1025300012091D469A4207D0E6683679FF2E05D06B
:10254000854202D1A3680B6070BD013501331034A0
:10255000F0E700BFA4810000D4780000C478000038
:102560002DE9F3478368D3F84831C3F340059B074F
:10257000074606D50022114602B0BDE8F04702F03A
:1025800003BA144E144CDFF85880DFF85890DFF887
:1025900058A0A41B2409A54202D102B0BDE8F087CF
:1025A000F168B3680A79FF2A07D10C4A0821384636
:1025B00002F0BEF901351036EDE74879002814BF66
:1025C00041464946CDE9001238465246082102F0FC
:1025D000AFF9EFE7C4780000D4780000707C000009
:1025E0005F7C0000677C00008F7C00002DE9F74FC6
:1025F000154D164C9946641B52F8043C0646884615
:10260000174624094FF0000B5C4507D1104A022100
:10261000304603B0BDE8F04F02F08AB9A9680193D3
:10262000184603F0D9FBAA46019B103540B93B463A
:10263000424651463046CC4603B0BDE8F04F6047B5
:102640000BF1010BE0E700BFC4780000D478000074
:10265000B07C0000014BFFF7C9BF00BF0D2A00008E
:10266000014BFFF7C3BF00BFF9240000014BFFF788
:10267000BDBF00BF0B250000014BFFF7B7BF00BF78
:10268000E92A0000037813F0040216D003F00303D4
:10269000012B03D0022B09D0012070470A68008863
:1026A0000232C0F3831002440A60F5E70B684288E7
:1026B000023303EB92130B60EEE710467047000005
:1026C0002DE9F04FDFF810A10F4685B00446861CB7
:1026D0000020154601F00AF8DAF804203A60DAF82A
:1026E000083003F580739B1A0AF21C470AF58369C8
:1026F0000AF21448B34219D30020002D68D004F028
:102700000F039B0143F0050363F30F00DAF8043075
:10271000DAB2033233444AF822000020CAF8043007
:1027200000F0E6FF012005B0BDE8F08F012138463A
:1027300001F04CFE484601F061FE404601F05EFEAD
:10274000DAF808000090C0B203300AEB8000694656
:10275000FFF798FF009B30BBDAB20AEB8202D16828
:1027600001919A1C0133DBB20AEB83030092D3F888
:102770000CB001F00303012B22D0022B15D08346AD
:10278000404601F03EFE10B1009BCAF808305946A1
:10279000384601F01BFEDAF80830DAF8042003F5B9
:1027A00080739B1AA6E7D8B2CEE7BDF80630C3F314
:1027B000891303334FEA1B4B02EB93030093DFE7CC
:1027C000BDF80430C3F383134FEA1B4B1344F5E702
:1027D000A40544F0060099E728070020012907B561
:1027E000034604D08168D1F84811890707D5002233
:1027F0001146184603B05DF804EB02F0C5B8536803
:102800000193054B00931368044A022102F090F8EB
:1028100003B05DF804FB00BFD07C0000C67C000064
:1028200030B599B10A4B0B4A0B49D21AD208002392
:102830009A4201D1052006E031F823500468A542F0
:1028400002D10360002030BD0133F1E70846FAE70A
:10285000A876000060780000140000202DE9F84FF1
:102860001E4B1F4801221A7002F0C3FE814690BB26
:102870001C48DFF880801C4CDFF87CA002F0A9FF28
:10288000A4EB0804E4084D46A54208D10023174AEA
:1028900019469C421AD022F823100133F9E7002789
:1028A0003E4608EBC50BB54209D058F83610DBF8A8
:1028B0000000142203F016FA0028C8BF01370136C1
:1028C000B442F0D12AF825700135DDE70848A200AE
:1028D000002103F04EFA4846BDE8F88F2807002093
:1028E0006078000060810000607800001600002021
:1028F000F0000020A87600001400002007B5019029
:1029000001A8FFF78DFF30B9019A044B53F832004C
:1029100003B05DF804FB0020FAE700BFA8760000D2
:10292000002310B5CB604B60034B8B600C4601213C
:10293000FFF7E4FF206010BD6C810000094B0139F6
:1029400003EBC000032909D8DFE801F00A020406FE
:102950000420704700797047407970470020704725
:1029600002207047A876000030B5124C00EB400002
:1029700054F8215002FA00F3072202FA00F06B40EB
:102980000D4A03406B40C3F3821044F8213002EB40
:102990008101C3F3C202824238BF0246C3F3422020
:1029A000824203F0070338BF0246934238BF134602
:1029B0004B8030BDF00000201400002013B5044609
:1029C000019101A8114693B1FFF72AFF10B1002031
:1029D00002B010BD01990B4A04EB440052F82120CB
:1029E00007238340134023FA00F0C0B2F0E7FFF75B
:1029F00017FF0028EBD1019A034B03EBC203987930
:102A0000E6E700BFF0000020A8760000294B2A4A24
:102A10002DE9F04F9B1A4FEAD30ACB685B7985B05A
:102A200005460E461BB9254A022101F081FF244BC1
:102A3000244ADFF8A4800821284601F079FF224AC1
:102A40000821284601F074FF0024544502D105B046
:102A5000BDE8F08FF36893F8049001231A462146ED
:102A60004846FFF7ABFF00230746012221464846B0
:102A7000FFF7A4FF0121032881468346204628BF93
:102A80004FF00309FFF73AFF5FFA89F90F4A58F848
:102A90002910034658F827000D4F0090CB4598BFEA
:102AA0001746CDE901170B4A0821284601F040FFDF
:102AB0000134CAE760780000A8760000E77C0000D7
:102AC000FA7C0000067D0000247D0000F28B0000EF
:102AD000E57C0000617D00007C81000013460A4611
:102AE000C168FFF793BF00002DE9F04F2DED028B79
:102AF000054683B09B461646002A5DD0DBF8007081
:102B0000CB68554993F804A0384603F065F90446AC
:102B1000F0B9012E09D1514A0221284603B0BDEC7B
:102B2000028BBDE8F04F01F003BFDBF804304C4FDF
:102B300057F8041B00930A22184603F0D3F8002824
:102B400000F083800134052C009BF1D1454A15E04B
:102B50004549384603F040F9044668B9012E36D09D
:102B60004FF00108414B424AA3EB02094FEAD90357
:102B70000093DFF808914FE03E4A3B460221284689
:102B800003B0BDEC028BBDE8F04F01F0D1BE0023D5
:102B90001A4631465046FFF711FFA04211D20021DC
:102BA0003046FFF7ABFE424603460221284601F0BD
:102BB000BFFE0136BE42EAD103B0BDEC028BBDE8D8
:102BC000F08F224631465046FFF7CEFEF1E7274F01
:102BD000274BDFF8A480FF1AFF080026EAE7002150
:102BE0003846FFF78BFE18EE101A202203F07AF811
:102BF000034608B1013716E00246019039465046B7
:102C0000FFF7DCFEA042019B18D32246394650460E
:102C1000FFF7AAFE08F10108B045CDD25BF82830D5
:102C200008EE103A0027009BBB42D8D15BF8283051
:102C30004A460221284601F07BFEEBE7194638465A
:102C4000FFF75CFE0C4A0346F3E7022EE4B2BED067
:102C50004FF0020886E700BF777D00007E7D000010
:102C60007C810000E97D0000957D00006078000017
:102C7000A87600009D7D0000B27D0000D57D00009B
:102C800013460A46C168FFF72FBF0000034BD3E984
:102C90000130C31A58425841704700BF280700202E
:102CA0002DE9F04385B0FFF7F1FF0546002840F01D
:102CB0000A81864CC4F81804BFF34F8FA3680093B1
:102CC000DBB2033304EB83006946FFF7DBFC009BB8
:102CD00018B1D4F81824002A63D0DAB2991C013351
:102CE00004EB8202DBB204EB8303D268DB6802935D
:102CF00002F00303022B019200915DD1BDF8063072
:102D000073489DF80450C3F389184746502F28BFD5
:102D1000502707F1080167F38F13C1F30901ADF8DC
:102D2000063002F07EFCC5F3C2050646002800F01E
:102D3000B18002F0A5FC0023082201A9304602F070
:102D4000B1FC0099CB43DBB20133C9B20331B7EB1D
:102D5000830F4FEA830204EB81012AD95FFA82F9DB
:102D60000823A7EB0907304602F09CFCFFB209F1EB
:102D70000803584903F0FC033A46304602F092FC3F
:102D8000009B08F1030803EB98030093D4F8183470
:102D9000002B49D1D4F81074DFF84C914FF007089C
:102DA00067E062689A428BD8A260284605B0BDE809
:102DB000F08308233A46E0E7012B6BD1BDF80450BD
:102DC0004348C5F38311062928BF062161F38915FD
:102DD000023101F00F018900ADF8045002F021FC2E
:102DE000C5F3C2050646002854D002F049FC002372
:102DF000082201A9304602F055FC0027BDF8042046
:102E0000C2F38312BB00974203F10803BED20099BC
:102E10004A1CC9B20331009204EB810104223046FE
:102E200002F040FC0137E9E7304602F02DFCFFF7E5
:102E30002DFF80F00100C5B2B7E7FB685A79B2B147
:102E40001B79BDF8081003EB430259F8211008FA6A
:102E500002F3052D03EA010323FA02F308BF032559
:102E6000AB4204D33B6831461B6838469847FB6841
:102E70001F68002FE1D1304602F006FC384600F012
:102E800035FCD4F818340BB9009BA360002000F087
:102E90002FFCCCE7D4F8104474B90F4B5B88012B9E
:102EA000C5D90E4B0E480F49C01AC008000440F0A7
:102EB000020000F061F8BAE7236820469B68984753
:102EC000E3681C68E8E700256FE700BF28070020DB
:102ED000607800003407002070000020A876000011
:102EE00060770000067E0000F00000202DE9F34727
:102EF00004460E46924601A9012218469946FFF75C
:102F0000DFFB1B4F10B3019D4FF00008AA1CC84502
:102F100008EB020123D11748002101F028FA80F3C1
:102F20001000000440EA1440E4006B1C04F0380474
:102F3000DBB2EDB244F0010407EB8303033544EA4E
:102F4000881444EA8624D86047F825403B781BB1B2
:102F5000FFF7A6FE0028FBD102B0BDE8F087C9B29A
:102F600007EB81015AF82830CB6008F10108CEE761
:102F700028070020440B002000231A46FFF7B6BFA5
:102F800007B50123019201AAFFF7B0FF03B05DF876
:102F900004FB1FB5CDE90123069B039301AA03237C
:102FA000FFF7A4FF05B05DF804FB1FB5CDE90023D2
:102FB000069B0293079B03936A460423FFF796FF41
:102FC00005B05DF804FB00002DE9F84388461B4975
:102FD000D1F81034054600241A468AB9EA681471FB
:102FE000A3B9C1F810541360154B164EF61AF60823
:102FF000002703F10709B7420DD12046BDE8F88349
:10300000D2681079A04212D01268E6E7DB6819682E
:1030100011601D60E8E719F83720EB684245394632
:10302000187928BF4246FFF79FFC0137E3E70134D8
:103030000A2CD1D14FF0FF34DFE700BF2807002072
:10304000A87600006078000038B5084B0125D3F859
:1030500010441D7004B938BDE3685D7123682046D3
:103060005B689847E3681C68F4E700BF2807002006
:1030700010B588B00023CDE90233CDE900330493C5
:103080001F4B204A0593204B06929B1A9B080793DF
:1030900002AA6B4643F2274141F26E0001F026F886
:1030A000B0B905A902A801F019F8184B5B88022BEA
:1030B00004460AD91648174B1749C01AC00800041D
:1030C000224640F00300FFF75BFF204608B010BD2A
:1030D00048F20963984210D105A902A800F0FAFF4E
:1030E0000A4B5B88022B0446EFD90948094B0B4970
:1030F000C01AC00800042246E3E70324E5E700BF46
:103100006E102734F0000020CC0100207000002059
:1031100060770000A8760000177E0000487E00005F
:1031200010B58368D3F848319B07044605D50022C3
:10313000BDE81040114601F027BCFFF799FF30B9F8
:10314000044A08212046BDE8104001F0F1BB024AC4
:103150000221F7E7797E0000917E000000B589B07A
:103160000023CDE90533CDE90133079305AA01AB6F
:1031700043F2274141F26E0000F0B8FF90B9CDE96B
:10318000030003A905A800F05BFF40B91048114AED
:103190000499121A02F0C4FD05A800F077FF09B0E7
:1031A0005DF804FB48F2096398420FD10A4B5B8833
:1031B000012B09D909480A4B0A49C01AC008000462
:1031C00040F00200FFF7D8FE0520E8E70320E6E71D
:1031D000F0000020CC01002070000020607700008B
:1031E000A8760000B67E000010B58368D3F8483199
:1031F0009B07044605D50022BDE81040114601F0AA
:10320000C3BBFFF7ABFF30B9044A08212046BDE835
:10321000104001F08DBB024A0221F7E7DB7E00007F
:10322000F37E000030B5C38885B004460D4633B147
:10323000144A00921449154A284601F084FE217A66
:1032400005291DD0637A4BB1A088FFF777FB104B9F
:10325000104953F82020284601F075FE227A0E4BC3
:10326000A08853F8222003920021FFF747FB039A1E
:103270000A490346284605B0BDE8304001F063BE68
:1032800005B030BD0C830000F4820000EC82000029
:10329000648300000F8D000088830000118300000C
:1032A00007B503460846197A052911D05B7A2BB178
:1032B000094A0A49019001F046FE01980849019027
:1032C00001F041FE019803B05DF804EB01F030BE5F
:1032D000002AF8D0F2E700BF0C8300000F8D000039
:1032E000F08B00002DE9F04385B01F460C9D0023B4
:1032F00095F80C902B7306460C46904629463846A6
:10330000FFF790FFB8F1060F09D8DFE808F00412C4
:10331000181F283340003146284601F014FE0022D1
:1033200029463846FFF7BCFF85F80C9005B0BDE88C
:10333000F08322683146284601F005FEEFE7D4E924
:1033400000233146284601F0FEFDE8E7A36800931C
:103350003146D4E90023284601F0F5FDDFE7E368B4
:103360000193A36800933146D4E90023284601F075
:10337000EAFDD4E723690293E3680193A36800930D
:103380003146D4E90023284601F0DDFDC7E7636933
:10339000039323690293E3680193A3680093314682
:1033A000D4E90023284601F0CEFDB8E708292DE92D
:1033B000F74F80460E4617461C463DD800251B7B1E
:1033C0002573214610460193FFF72CFFDFF88CA0F0
:1033D000DFF88CB0AE4232D918F8052059462046A5
:1033E00001F0B1FD0135082DF4D11B49DFF874A0BF
:1033F000DFF874B0204601F0A6FD4FF000094E45FD
:1034000024D918F809507E2D1ED8284602F065FCF4
:10341000002814BF2A462E225946204601F093FD6B
:1034200009F10109B9F1080FE9D101222146384615
:10343000FFF736FF019B237303B0BDE8F08F5146C1
:10344000204601F080FDCDE72E22E5E751462046DB
:1034500001F079FDE4E700BF25830000218300002F
:103460001B8300002383000027830000F0B595B084
:103470001D46164608460C4602F002F91A9B0D93AB
:10348000CDE9086500252B46082205A920460A95A6
:103490008DF82C500C9502F00FF9079B0293069BB8
:1034A00003939DF814308DF8115003F00302012AA4
:1034B0001DD1BDF81420059DC3F3C203C2F38316CA
:1034C0008DF81030B20008230EA9204602F0F4F85F
:1034D000C5F3952508AB0093324602AB0EA92846EA
:1034E000FFF700FF204602F0CFF815B0F0BD022A2A
:1034F000F8D1BDF81650C3F3C203C5F389158DF892
:1035000010300827082D2E4628BF08263B46324695
:103510000EA9204602F0D0F8AD1B08AB02AA314636
:103520000EA83744FFF742FF002DEBD1DAE77047D2
:1035300007B5044B0093044A4023FFF797FF03B0FD
:103540005DF804FB8D350000E10B002030B50C4D1B
:103550000FCD89B06C460FC495E80F0084E80F00CA
:1035600006230848009300226946FCF765FF08B16E
:1035700000F058F8044B00221A7009B030BD00BFAB
:103580009C830000EC010020E00B002038B50D48C2
:103590000D4C0E4D002323700378EB5CD2B263B167
:1035A0000430FEF705FA08B100F03CF8084B1A7831
:1035B00012B12378002BFBD038BD0C30FDF788FF0B
:1035C000F1E700BFEC010020210C00209402002054
:1035D000E00B002008B50848084A0378D35C33B1F3
:1035E0000430FEF755F9BDE80840FFF7AFBF0C30D7
:1035F000FDF706FFF7E700BFEC0100209402002072
:10360000FFF7A4BF08B5FFF7FBFF04480421FFF74D
:10361000DBFC034B01225A7108BD00BFC4780000D7
:10362000000200201FB50021039001AA44F201000E
:10363000CDE9011100F004F805B05DF804FB0000CD
:1036400010B572B6FFF700FDFFF72AFB0028FBD18B
:10365000164C63884BB11648164B1749C01AC00860
:10366000000440F00100FFF787FC144BD3F8F03062
:10367000DB0700D500BE6388012B09D90C480D4B30
:103680000F49C01AC008000440F00200FFF774FCA4
:10369000BFF34F8F09490B4BCA6802F4E062134332
:1036A000CB60BFF34F8F00BFFDE700BF700000206D
:1036B00060770000A87600002184000000ED00E0A3
:1036C0002D8400000400FA0572B6024A1368013323
:1036D00013607047240C0020034A1368013B1360F9
:1036E00003B962B6704700BF240C0020FFF7ECBF9F
:1036F000FFF7F2BF024B034A1B681068184700BF70
:10370000300C0020280C002070B5064D0646002421
:1037100055F8043B0BB1304698470134042CF7D1DF
:1037200070BD00BF400C00204388033300EB8303CF
:1037300099420BD382884FF6FF739A4208D00388D0
:1037400033B18068431C584258417047022070478B
:1037500001207047033080B240F2FE33984230B50A
:103760001FD8134B1A783AB91C895D892C4404443C
:10377000A4B2B4F5806F0AD91A7DAAB99A8BDC8BF2
:103780002244024492B2B2F5806F0DD801220A8021
:103790001446142202FB04335A8910445881002035
:1037A00030BD48F20860FBE748F20660F8E700BF6A
:1037B000740C00200B4A0C495388142000FB0311A1
:1037C000CB6833B90420496810700122074801F022
:1037D00047BE07490523137002238B800122096825
:1037E0000023F3E7580C0020740C00200000002098
:1037F000A00C002007B5002305490093054A09687D
:103800000548082301F068FD03B05DF804FB00BF24
:10381000A00C0020B08400000000002007B50023A9
:1038200001460093034A0448082301F055FD03B004
:103830005DF804FBA88400000000002013B50023FD
:103840000C4600930146084A0848042301F044FD51
:1038500038B9074B142101FB043101230B7402B06A
:1038600010BD48F20D60FAE7A484000000000020BB
:10387000740C002037B50A480A4B42689C881968C6
:1038800053880325033305709BB2002000909B00F2
:1038900001EB8401044801F01FFD03B030BD00BFFF
:1038A000580C0020A00C00200000002010B501469C
:1038B000044800F0E7FC1C220446002102F059FAFB
:1038C000204610BD0802002038B5144B14220D46C6
:1038D00002FB00302B68446804F58051A3B15C887A
:1038E000033403EB84048C4215D22368013312D0D5
:1038F0002046FFF719FF012808D002280BD0002826
:10390000F1D12C60012038BD0834ECE76388033323
:1039100004EB8304E7E70020F5E700BF740C002008
:10392000426873B504460D466AB3234BD9688A4290
:1039300029D31B699A4226D812F0030323D11F49C9
:103940000089098988421ED12068916888421AD16D
:103950001B4841688A4203D901F580518A420DD340
:1039600081698A420CD901F580518A4208D201222C
:103970002A80B3FA83F0400902B070BD1A46F7E717
:1039800048F20963F5E700262E800196288801A9F0
:10399000FFF79AFF30B92B8801339BB2012B2B80A4
:1039A000F3D9E9E7019B226899689142EED16360FF
:1039B000024B1B892381DFE700000020580C002008
:1039C000740C00202DE9F8431C461D4B1B7806465D
:1039D0000F46154673B382B37CB3DFF86C804FF0AB
:1039E0001409A388012B02D948F2096020E009FBE1
:1039F00003F318F803302BB9A0882146FFF764FFC2
:103A000020B92060A3880133A380EAE723681EB1B0
:103A1000998832889142EFD11FB119883A88914232
:103A2000EAD19A68C5E90023064B1B892B81002047
:103A3000BDE8F88348F20160FAE748F20460F7E76E
:103A4000500C0020580C0020740C002008B5074BC7
:103A50005888191DFFF738FF18B1BDE80840FFF777
:103A600009BFBDE80840FFF7A5BE00BF580C002005
:103A70002DE9F0479F4FDFF8A08288B006463B68EB
:103A800023B99D48414600F037FC38603D682978ED
:103A90004B1E052B07D8DFE813F0200074007400DC
:103AA000060106015D0148F20E641422002103A8FC
:103AB00002F05FF941F61D539C4208BF00243B68A9
:103AC00004941A78023A042A00F2FC81DFE812F02A
:103AD000DD01E9010B0213021A022EB1874B00220D
:103AE0005A604FF40644E0E72B79032B1CD8DFE83B
:103AF00003F014022A35824A1378022B1AD0137D60
:103B0000022B4FF0010317D114214B43D118002091
:103B1000D0544868FFF782FE03E001232B71FFF7C2
:103B200069FE002800F0B980744B00225A6048F208
:103B30000D64BAE70023E7E7704A1370002353606F
:103B400041F61D54B1E76F496F48002302222B71E3
:103B50008A800968012201F083FCE2E76B4B684C24
:103B60005B88684A14214B43E11800262E714D688A
:103B700010681560958848600D810221E654918097
:103B8000C8E7B5F814A0AA7DDFF87491AEB1022A97
:103B9000EB8806D9142101FB0A91DA1C088902443A
:103BA0000A81142202FB0A99C3F57F43B9F80A205F
:103BB000FD331344A9F80A3093E7142303FB0A9357
:103BC00018895C6804EB8004062A69D8DFE802F0F3
:103BD000274E36441D5A040041F61D54AA7DEB8839
:103BE000022A06D9142101FB0A91DA1C0889024431
:103BF0000A81142202FB0A99C3F57F43B9F80A200F
:103C0000FD331344A9F80A304FE7414841490023E6
:103C10004360AB690360FFF783FE00285BD002239B
:103C2000AB75002300930423EA182146364801F0BF
:103C300053FB002831D048F20D64CFE72B69002BED
:103C400014BF03230123AB750023009305F10C027D
:103C5000042304F10801E9E70123AB750022EB8896
:103C600000922A699B0004F10C01DFE703290CBFD5
:103C700005230623AB7500230093042305F10802F6
:103C8000E118D3E70623AB75224B1988204B5868FF
:103C9000FFF7D4FD04460028A0D108B0BDE8F087A6
:103CA00048F20E649AE7002E7FF41BAF2B79012BAC
:103CB00034D0022B3FF444AF002B7FF4F4AE022348
:103CC0002B710DF10A01EB68039303A8CDE904669B
:103CD000FFF726FE10B948F20964E6E60498BDF83D
:103CE0000A108388EB8003882B81FFF7A7FD044629
:103CF00029E000BF700C002008020020500C0020BA
:103D0000740C0020A00C002000000020580C0020A3
:103D1000340C0020A80C0020680C0020DFF8009272
:103D200003AA4B463146A81DFFF74CFE044670B966
:103D3000B9F804100498FFF781FD044648F20963BE
:103D40009C423FF4FDAE002C7FF4AFAEA5E7C9E97D
:103D50000066F3E7002E7FF4C4AE6C4B1A7BBAB159
:103D60001E731A78013A062A3FF69DAE01A151F85A
:103D700022F000BF1F3E0000453E0000633E0000F1
:103D8000693E0000A73A00006F3E0000813E00003F
:103D90001A78072AE5D801A151F822F0BD3D0000AC
:103DA000633D0000633D0000E33D0000F73D00007F
:103DB0001B3E00001B3E0000DF3D00001A895449F5
:103DC00001321A8100225A801A730A78B2FA82F2FA
:103DD00052099A720A7DB2FA82F25209DA7201220B
:103DE00007E04C4958688A884088033202448A8038
:103DF00002221A70B5E75C88454A4649142505FB3E
:103E000004220868546850608888108102200C6081
:103E10008880002111740622EBE70722E9E79A7AED
:103E200032B9DA7A8AB900221A705A805A6087E663
:103E3000374900229A72CA68002AF2D1097C002907
:103E4000EFD05A80FFF702FE51E70022DA72304AC3
:103E5000116A0029E7D192F82420002AE3D0012238
:103E6000EFE7FFF707FD42E7FFF7A4FC3FE75A88BB
:103E7000274B142101FB02335868FFF7CFFC36E7CC
:103E800000225A60FFF7B6FC31E701228DF80C20C2
:103E90001A89ADF818209A88DB68ADF81A200593C6
:103EA00010E002228DF80C201A89ADF818209A88AB
:103EB000ADF81A20DA689B7D05929A1F5342534150
:103EC0008DF81C3003A8FFF71FFC0026414612485E
:103ED0003E6000F03CFA1148012100F083FA00280E
:103EE0007FF4CDADD9E603228DF80C20DA88ADF849
:103EF00018201A89D0E704228DF80C20DB88ADF851
:103F00001830DFE705238DF80C30DBE7580C002074
:103F1000740C0020A00C0020080200209C0C002043
:103F2000AC0C00204068FFF7A3BD000008B50548B1
:103F3000012100F03FFA18B9BDE80840FFF798BD2D
:103F400008BD00BF9C0C00202DE9F3419846374B7B
:103F50001B7806460D46002B5CD000295DD00988F1
:103F60004FF6FF7399425BD06B88002B58D06B687B
:103F70009B0758D14AB92F890DF102013846FFF746
:103F8000E9FB30B102B0BDE8F08113885788ADF885
:103F9000023001A8FFF78AFC044660B9BDF8022090
:103FA000234B142101FB023358890338C01B58816D
:103FB00048F20760E6E780F8008000238375BDF8CB
:103FC000023083826B68036101211A4800F0FEF918
:103FD0002B882381B8F1030F6B88A38004BF0423CF
:103FE000A3754FF0000508BF3368E06008BFA36108
:103FF0001148E780658101A900F06EF936B1E368E8
:1040000033600E4B75601B89B5723381FFF78EFFED
:104010000020B7E748F20160B4E748F20460B1E776
:1040200048F20360AEE748F20260ABE7500C0020B4
:10403000740C00206C0C002008020020580C00209A
:1040400073B50D460446C8B1C1B10DF10601FFF7C5
:1040500067FCB0B1BDF806300B486668142202FB5D
:10406000030001210C3000F0B1F963682E600C33BD
:104070006B600123A372002002B070BD48F204609F
:10408000FAE748F20960F7E7740C002013B504461C
:10409000A8B10DF10601FFF743FC98B1BDF8062069
:1040A0000B4B142101FB0233DA6872B1A27A62B1C0
:1040B000DA680020013ADA60A07202B010BD48F25E
:1040C0000460FAE748F20960F7E748F20560F4E7B0
:1040D000740C002002230022FFF736BF18B103231F
:1040E0000022FFF731BF48F20460704707B5ADF812
:1040F0000600ADF804100DF1060001A9FFF762FCFF
:1041000003B05DF804FB00001EF0040F1CBFEFF3CA
:1041100009800AE0EFF308800549064A884201D881
:10412000904202D88D464FF00000034B1847000024
:104130000000042000E0032061410000BFF34F8F26
:104140000549064BCA6802F4E0621343CB60BFF333
:104150004F8F00BFFDE700BF00ED00E00400FA054F
:104160002DE9F74F0546FEF76FFFFEF799FD002892
:10417000FBD1374C3748384B384E9F6A7388241A26
:10418000E408240444F00104002D59D0D3B1AA69F5
:1041900033492046FEF7F4FE73889BB1EB68019328
:1041A000AB6800932F49D5E900232046FEF7FDFEBA
:1041B00073883BB1EB6900932B49D5E90423204672
:1041C000FEF7E7FE244BDB6A990705D573881BB120
:1041D00026492046FEF7D0FEDFF8A0A0DFF8A0B009
:1041E0004FF000084FF0010909FA08F33B4208D0EC
:1041F0005AF828202AB173881BB159462046FEF789
:10420000BFFE08F10108B8F11A0FEDD13A0607D543
:1042100073882BB1104B16495A6B2046FEF7B0FE3F
:104220003B0407D573882BB10B4B12499A6B204680
:10423000FEF7A6FE2846FFF781FF03B0BDE8F08F2A
:10424000002BBFD00C492046FEF796FEBAE700BF10
:1042500000780000A876000000ED00E0C00000201B
:10426000B8840000CD840000028500005D85000058
:10427000AC850000CC8500002A850000A88A0000DB
:10428000A185000037B550E8013F9DB2C48925449F
:104290008489A54228BF2D1B0489A54202BFBFF314
:1042A0002F8F002207E0C5EA030540E80154002CE7
:1042B000E9D14FF001028DF803200193019A0A60C1
:1042C0009DF8031001F0FF0321B1006810FA82F09D
:1042D00003B030BD1846FBE70A884B889A4209D1E3
:1042E00050E8012FC2EA024240E80123002BF7D137
:1042F000012070470020704737B550E8023F1FFA91
:10430000A3F5C488A54202BFBFF32F8F00220DE0A2
:10431000C48925448489A54228BF2D1BC3EA0545CD
:1043200040E80254002CE8D14FF001028DF8032040
:104330000193019A0A609DF8031001F0FF0321B177
:10434000006800EB124003B030BD1846FBE70A8856
:104350004B889A4209D150E8022FC2EA224240E833
:104360000223002BF7D1012070470020704710B5C1
:10437000034653E8000F0A4643E8002494F0000F78
:10438000F7D110BD10B5034653E8002F42EA0100F3
:1043900043E8000494F0000FF6D110BD10B50346B9
:1043A00053E8000F00EA010243E8002494F0000FF4
:1043B000F6D110BD10B5034653E8000F00EB010223
:1043C00043E8002494F0000FF6D110BD10B5034669
:1043D00053E8002F02EB010043E8000494F0000FC3
:1043E000F6D110BD10B5034653E8002FA2EB010033
:1043F00043E8000494F0000FF6D110BD0121FFF74F
:10440000C1BF0021FFF7CABF2DE9F0478368D3F889
:104410004831C3F340059B0788B0074606D5002204
:10442000114608B0BDE8F04700F0AEBA012906D940
:104430001E4A022108B0BDE8F04700F079BA1C4CD2
:104440001C4EDFF874A04FF06408A946361B1C23ED
:10445000B6FBF3F6AE4204F11C0402D108B0BDE88D
:10446000F08754F81C0C54E90623017900689A1A65
:104470001B1ADBB2039308FB03F3B3FBF2F3CDE9A2
:10448000019334F8043C0093CDE9061254F8083C3B
:1044900011FB08F13846B1FBF2F1CDE90421524697
:1044A000082100F045FA0135D4E700BF528B000027
:1044B000607800007C780000658B000010B590B13A
:1044C000D0E9012301689B1ADBB20A60013BDBB231
:1044D000FF2B026802D10020107110BD11684C1C26
:1044E00014600B70F2E70E20F7E738B504460020A1
:1044F000FFF7FCF8226863681168994213D9481ED7
:10450000106011F8013CE568218B01FB0355A3689D
:1045100011791B1ADBB2994200D213710020FFF708
:10452000E7F8284638BD0025F8E738B505460020ED
:104530000C46FFF7DBF82A681368591C1160E9681C
:10454000641A298BB4FBF1F41C70BDE838400020DC
:10455000FFF7CEB82DE9F843089E1D460C46F1B989
:10456000194E1A49891BB2EBD10F4FEAD10905D276
:10457000174F043607EB8207A14502D100232B60B9
:1045800009E056F834803868D8F8001001F024FCAF
:1045900018B9C5F80080BDE8F8830134ECE70028BD
:1045A000ECD00178436839B13146104698473368FA
:1045B000002BE3D02E60EEE7110103EB02125B58F3
:1045C000002BDBD02A60E6E784780000C478000086
:1045D000CC01002008B101F026BC704707B5836804
:1045E000DA7E8A421ED01B228DF800205B228DF8D5
:1045F000012031228DF802203B228DF80320332246
:104600008DF8042001F12F028DF805206D22D97656
:104610008DF8062000228DF80720044900696A46BB
:1046200000F091FC03B05DF804FB00BF0F8D0000AB
:104630000A4609B1FFF7D2BF8168CA760069024A0B
:10464000024900F080BC00BF919000000F8D000077
:1046500007B583681A7F8A4218D01B228DF8002084
:104660005B228DF8012034228DF8022001F12F0207
:104670008DF803206D2219778DF8042000228DF823
:104680000520044900696A4600F05DFC03B05DF84E
:1046900004FB00BF0F8D00002DE9F34105460F46D6
:1046A0001446002614B902B0BDE8F08168680368BA
:1046B0002246D3F80C80B91901ABC047019B1E44B8
:1046C000E41A002BEED1AB681A78032AEAD0D3F8AB
:1046D00048219206FBD5B3F848216FF34512A3F8A1
:1046E0004821DFE70A46014900F02DBC748C000028
:1046F00011B10069FFF7F6BF70470000014900F0F3
:1047000022BC00BFF18B00000A4619B102490069C2
:1047100000F019BC704700BF7A8C00000A4619B13E
:104720000249006900F00FBC704700BF808C000098
:104730002DE9F04F044685B00E4690460025705D89
:1047400001F0C6FA20BB5FFA88FA3046FFF742FF55
:10475000A3685B7E401BA3EB080B584506EB0509DD
:1047600018D94A46002712F8011B03930846029203
:10477000019101F0ADFADDE9022318B101990A298E
:1047800031D0BB4608EB07018B422BD90137EAE752
:104790000135D4E74B460027B84217D013F8012B58
:1047A0000A2A05EB070A1BD1206900F0C1FB494624
:1047B0003A462046FFF770FF2069FFF79FFF5FFA38
:1047C00088F120460AF10105FFF792FF206971196F
:1047D00000F0B9FB206905B0BDE8F04FFFF78EBFD0
:1047E0000137D9E75F46206900F0A2FB3A46494607
:1047F0002046FFF751FF3D44705D01F069FA38B97A
:104800002069FFF77BFF51462046FFF771FF9CE7C9
:104810000135F1E72DE9F34105468068424F002458
:1048200080222146A0308DF8034001F0A2FA3F49D2
:10483000286900F088FB286900F07AFB4FF47A764B
:1048400047F00107686803680122D3F810800DF172
:10485000030101ABC047019B5BB94FF6C010B847DD
:10486000019B002BEED1013EB6B2002EEAD10D2005
:1048700035E09DF80330AA681B2B48D092F8A010B1
:104880001B29EDD1522B42D11444002384F8A030CF
:1048900092F8A1105B291FD102F1A20602211D4648
:1048A00016F8010B4C1C3B28E1B264B21AD1002C63
:1048B00020DB01F1A0041444002314F8010BD8B943
:1048C000FA2B28BFFA23FA2D13752B4628BFFA239B
:1048D000937582F8A00002E082F8A0300B2002B0AD
:1048E000BDE8F08105EB850300EB4303303B8029F5
:1048F0009DB2D5D10C20F2E703EB830300EB43001C
:104900004E1C303883B23006F1B2F3D4D5E711191A
:104910000134E4B2092C81F8A030A1D9002382F837
:10492000A0300420DBE700BFB09000009E900000A4
:104930000CB473B506AB044653F8046B019383685B
:10494000D3F848516D0719D5DD7E8D4216D0B3F8E6
:104950001B50FFF76DFE206901AA314600F072FB83
:10496000E9B22046FFF764FE290A02D02046FFF78D
:104970006FFE02B0BDE8704002B07047206901AA26
:10498000314600F05FFBF4E72DE9F04F8BB0836810
:1049900017466C4A009204466B4A5B680D46082134
:1049A000FFF7C6FFA6687068FFF714FEB168033012
:1049B00082B211B12046FFF7BBFE644A00212046B7
:1049C000FFF7B6FF002F3DD0002D3BD04FF00C0A73
:1049D000A9460AFB075A0826D9F80400FFF7FAFD92
:1049E0008046D9F80000FFF7F5FD4044B04209F1D8
:1049F0000C0988BF86B2CA45EED106F10408544BB3
:104A0000544A00931FFA88F806F107090821204646
:104A100043461FFA89F9FFF78BFF4F494A46204664
:104A2000FFF786FE2DB1DFF82CB14FF0000ABA4532
:104A30000AD1A368D3F80C80B8F1000F3ED10BB0B7
:104A4000BDE8F08F0826D8E7D5E9002373B32AB371
:104A50000192424A00920821414A2046FFF768FF2E
:104A60006868FFF7B7FD03902868FFF7B3FD039967
:104A7000B31C591A091AC9B22046FFF739FE394941
:104A800020693A2200F05FFAA96899B14A462046A7
:104A9000FFF74EFE0AF1010A0C35C8E700934346C2
:104AA0005A4608212046FFF743FFEDE7002AEBD0E6
:104AB0000092F4E72069FFF721FEEBE70022059260
:104AC000174606AE009605AB0121404602F10109EA
:104AD000FFF740FD059D3DB12868FFF77BFDB8421B
:104AE00000D987B24A46EDE7B9F1010FA7D01E4AB7
:104AF000DFF860A029462046FFF71AFF2A46BD1CB2
:104B0000ADB205AB00960121404602F10109FFF765
:104B100021FD059B002B92D01B68009308212B469A
:104B200052462046FFF704FF059B596831B17A1DB4
:104B300092B22046FFF7FCFD4A46E2E72069FFF704
:104B4000DDFDF9E7A3900000098D0000128D000043
:104B5000B69000001C8D0000248D00001C92000007
:104B6000378D000027830000408D00000022114691
:104B7000FFF70ABF022910B5044608D18368D3F8AD
:104B800048319B0703D5BDE81040FFF7EFBF206910
:104B9000054A064900F0D7F92069054A0349BDE8EE
:104BA000104000F0D0B900BF9A9000000F8D0000B7
:104BB00095900000012906D0022906D18368D3F818
:104BC00048319B0701D5FFF7D1BF024A0221FFF709
:104BD000AFBE00BFBE8C000038B58368D3F8482153
:104BE000C2F3400592070C4606D500221146FFF796
:104BF000CBFE2C46204638BD0029FBD05B68024A1C
:104C00000221FFF795FEF5E74E8D0000012937B52B
:104C10000546144604D103B0BDE83040FFF7A6BFF7
:104C2000023918BF0121FFF7D7FF48B96368019324
:104C3000044B0093044A236802212846FFF778FEBC
:104C400003B030BDD07C0000698D0000012907B59C
:104C500004D103B05DF804EBFFF788BF02290AD145
:104C600053680193084B00931368084AFFF760FEEE
:104C700003B05DF804FB8CBF0121002103B05DF897
:104C800004EBFFF7A9BF00BFD07C0000698D0000D6
:104C9000013910B518BF01210446FFF79DFF40B947
:104CA000044A0549206900F04EF9A36845F218024C
:104CB0001A8310BD8B9000000F8D00000129F7B5FD
:104CC0000446154633D18568FFF7A4FD18BBA368D9
:104CD00020691F7D9E7DFA21FFF704FD20691D4993
:104CE000FA2200F030F92046FFF794FD98B9A36846
:104CF000197D6976A368C91B9B7D2B762046C9B2B6
:104D0000FFF70CFD297E891BC9B2204603B0BDE820
:104D1000F040FFF7F9BCA36845F218021A830E4A67
:104D20000421204603B0BDE8F040FFF701BE022990
:104D300094BF00210121FFF74FFF48B96B68019331
:104D4000064B00932B68064A02212046FFF7F0FD30
:104D500003B0F0BD868C0000728D0000D07C000096
:104D6000698D00002DE9F041013986B018BF01219D
:104D70000546FFF731FF40BBAB68DFF85480D3F83E
:104D800040610446EEB1082C1BD0304600230922B6
:104D900003A900F091FC9DF81420A968304609236E
:104DA0000132A03100F088FCAB68049EA033009370
:104DB000671C2346424600212846FFF7B9FD3C46C2
:104DC000E0E7AB68002283F8A02006B0BDE8F081E0
:104DD000AC8D0000013910B518BF01210446FFF762
:104DE000FBFE30B9A368B3F8482160F38202A3F850
:104DF000482110BD013910B518BF01210446FFF745
:104E0000EBFE30B9A268B2F8483143F00403A2F8CF
:104E1000483110BD013910B518BF01210446FFF714
:104E2000DBFE30B9A368B3F8482160F3C302A3F8EE
:104E3000482110BD013910B518BF01210446FFF704
:104E4000CBFE30B9A268B2F8483143F00803A2F8AB
:104E5000483110BD022973B50D4694BF00210121D0
:104E600004461646FFF7B8FE014658B9022D0BD18D
:104E7000736801930C4B00930C4A33682946204613
:104E8000FFF756FD02B070BDA368094AD3F8483158
:104E900013F0080F074B18BF1346074A204602B00D
:104EA000BDE87040FFF744BDD07C0000698D000074
:104EB0007C860000B68D0000BA8D0000013910B567
:104EC00018BF01210446FFF787FE48B9A368C3F85D
:104ED0003801E3685B68BDE81040186800F075BCF5
:104EE00010BD00007FB5013918BF01210446FFF74E
:104EF00073FE0546B8B9E3685B681E68304600F08B
:104F000061FCB268A168C3B2CDE9013264204343B9
:104F1000B3FBF2F3DBB20093D1F83831034A2946F0
:104F20002046FFF705FD04B070BD00BFCB8D00002B
:104F3000826810B504462AB1436901680069984740
:104F40000023A36010BD0EB403B5039921B104ABD7
:104F500001AA019300F076F802B05DF804EB03B00B
:104F600070470A2938B504460D4602D10D21FFF7D6
:104F7000F8FFA3682268591CA160D554D4E9013216
:104F80009A4204D32046BDE83840FFF7D1BF38BD70
:104F90002DE9F84F9846DDE90A43154682460F464B
:104FA0000A464FF00109AA420FD2C14538BFC14697
:104FB00013F0010B01D16CB900240126B8F1010FE7
:104FC0001BD908F1FF386E43F8E709F10109B2FB7C
:104FD000F5F2E8E79B070ED5B8F1000F0CBF3026BD
:104FE0002026A145E9D2013C31465046FFF7B9FFE2
:104FF000002CF6D1E0E72026F3E7B7FBF6F39D425D
:10500000E1D9DFF83C80B7FBF6F3504618F80310FF
:1050100006FB1377FFF7A5FF3346AB42B6FBF5F669
:10502000F1D2BBF1000F02D00CB1A14501D3BDE814
:10503000F88F20215046013CFFF793FFF4E700BFB3
:10504000439200002DE9F74F054617468846002990
:1050500000F03E8118F8011B49B92B7B002B00F0B2
:105060003781284603B0BDE8F04FFFF761BF25291F
:1050700040F0B780002698F800302D2B424608F10A
:10508000010823D0302B24D02B2B25D000242A2B11
:1050900002F1010123D13B681A1D1B683A601C44D0
:1050A0000A4613782E2B26D101324FF0000A104603
:1050B00010F8011BA1F1300CBCF1090F1DD80A2317
:1050C00003FB0A13A3F1300A0246F0E746F001069B
:1050D000D1E746F00206CEE746F00406CBE711F82A
:1050E000013CA3F130000928DBD80A2202FB04347A
:1050F000303C0A46CBE74FF0000A12F8011B01F0E2
:10510000FB0068289046F8D0782909D86F290CD878
:10511000632962D022D8252963D0582900F08880DD
:1051200098F80030002B95D197E770390829F7D807
:1051300001A353F821F000BFAB5200002151000041
:105140002151000041520000215100001F52000077
:10515000215100002151000031520000642901D08A
:105160006929DDD13A68D2F80090111D89EAE97207
:105170003960A2EBE9724FF0010B092A35DCD34507
:1051800038BFD3462CB1B9F1000F01DB720700D54F
:10519000013CB30702D5BAF1000F03D0F00701D4E8
:1051A0004CBB0024B9F1000F2DDAC9F100092D2103
:1051B0002846FFF7D6FE06F00302022A04D1BAF110
:1051C000000F01D11CBB0024CDE9004653460A2242
:1051D00049462846FFF7DCFEA2E73B681A1D19780E
:1051E0003A602846FFF7BDFE9AE70A230BF1010B50
:1051F000B2FBF3F2C1E7A345D4D220212846013CFB
:10520000FFF7AFFECCE77107D5D52B21D0E7A3453B
:10521000DAD230212846013CFFF7A3FED2E73968F5
:10522000CDE900460A1D3A6053460A220968D0E7D4
:1052300039680A1D3A60CDE9004653461022F5E769
:105240003B681A1D3A6016F00106D3F8009024D18D
:10525000B9F1000F03D0484600F0E5FD0646B44220
:105260001DD809F1FF3919F8011F00293FF458AF83
:105270002846FFF776FEF6E728460136FFF771FE6F
:1052800019F806100029F7D1A642BFF449AF202132
:105290002846013CFFF765FEF6E70026F0E72021EF
:1052A0002846013CFFF75DFED9E73B681A1D3A60CE
:1052B000302128461C68FFF754FE78212846FFF766
:1052C00050FE00220823CDE900322146102280E75B
:1052D00003B0BDE8F08F00BF2DE9F743DDF828806B
:1052E000B0B9524B5B88002B00F09780504B51486F
:1052F000514AC01AC0080E24504B00940004504973
:1053000040F00100FDF745FE204603B0BDE8F08304
:105310006AB9464B5B88002B7FD0454B4548494ACC
:10532000C01AC0080E24454B00940004E7E7D0F8EB
:1053300000E0BEF1000F0DD13C4B5B88002B6ED01E
:105340003B4B3C48404AC01AC00808243B4B0094E1
:105350000004D4E76BB9354B5B88002B61D0344B2C
:1053600034483A4AC01AC0080924344B0094000457
:10537000C5E74568D5F80490B3FBF9F509FB153589
:105380006DB12A4B5B88002B4BD0294B2948304A02
:10539000C01AC0080924294B00940004AFE78D0708
:1053A0000DD0224B5B88002B3DD0214B2148294A50
:1053B000C01AC0081024214B009400049FE712F08B
:1053C000030F0CD0194B5B886BB3194B1948224A59
:1053D000C01AC0081024194B009400048FE7C56858
:1053E000A9420DD34D1EEC180569AC4208D8CDF882
:1053F0002880DEF80C40A44603B0BDE8F0436047C7
:105400000A4B5B887BB10A4B0A48144AC01AC00891
:1054100010240A4B0094000471E70E2474E708245A
:1054200072E7092470E710246EE700BFC80000206F
:10543000A87600001078000053920000FC93000052
:1054400058920000D59200008192000094920000D2
:10545000DB920000059300001D93000040930000C4
:10546000F7B5A0B9374B5B88002B63D0364B374874
:10547000374AC01AC0080E24364B0094000436493F
:1054800040F00100FDF785FD204603B0F0BDD0F8E7
:1054900000C0BCF1000F0DD12A4B5B88002B4BD014
:1054A000294B2A482D4AC01AC0080824294B0094C9
:1054B0000004E4E76AB9234B5B88002B3ED0224B03
:1054C0002248274AC01AC0080924224B009400042D
:1054D000D5E74568D5F800E00EF1FF350D420CD058
:1054E000184B5B8863B3184B18481E4AC01AC00893
:1054F0001024184B00940004C1E7C568A9420CD3DE
:105500004D1E0EFB02540569AC4206D8DCF8104073
:10551000A44603B0BDE8F04060470A4B5B887BB10E
:10552000094B0A48104AC01AC0081024094B0094BD
:105530000004A4E70E24A7E70824A5E70924A3E7AD
:105540001024A1E7C8000020A87600001078000011
:1055500053920000E99300005892000081920000ED
:1055600094920000679300008D9300002DE9F84F9E
:10557000B0F806A04579D2F800B09DF828900AFB53
:1055800005F5043D88460BEB0301A94203F1040431
:1055900088BFA5EB030BB4FBFAF607460AFB1644DB
:1055A000C2F800B04EB9AAEB04055D4528BF5D46C0
:1055B000BBF1000F04D1BDE8F88F3F68013EF1E771
:1055C000043408EB06003C442A46B9F1000F0DD024
:1055D0002146ABEB050B00F0A3FBDA452E443F68F8
:1055E00055464FF0000428BF5D46E1E701462046DE
:1055F000EFE7FEF763BFF8B546790146721E054630
:10560000002393422D6803D30024A64202D8F8BD9C
:105610000133F6E70F682846FEF787FF0134394665
:10562000F3E72DE9F843068BCD1C0746FEF75DFF37
:10563000043E35440446B5FBF6F5F0B14FF48073F3
:10564000EDB28380C680013D076081464FF00008BF
:10565000A84512D23846FEF748FF064648B163799E
:105660000133637108F10108C9F800000760814641
:10567000EEE72046FFF7BFFF34462046BDE8F8833B
:1056800001210430FEF7A2BE10B50121044604300A
:10569000FEF7A8FEC0B220B92046BDE81040FFF7D3
:1056A000AABF10BD1FB503920022009203AAFFF704
:1056B0005DFF05B05DF804FB1FB503920122009267
:1056C00003AAFFF753FF05B05DF804FB02681368F7
:1056D0005268934291BFD01A80680130801888BF09
:1056E000C01A704710B504460020FDF7FFFF2046A2
:1056F000FFF7ECFF04460020FDF7FAFF204610BD3F
:105700002DE9F04F8368D3F84831C3F340059B0778
:105710008BB0064606D5002211460BB0BDE8F04F0F
:10572000FFF732B9012906D9204A02210BB0BDE8A2
:10573000F04FFFF7FDB81E4C1E4BDFF88090DFF8EE
:1057400080A01B1B1C22B3FBF2F8A84502D10BB0B2
:10575000BDE8F08FE36809932368A768D3F808B021
:105760002046FFF7BFFF94F810E0134A642303FBC1
:1057700000F1BEF1000F18BF4A4603FB0BF3B3FB69
:10578000F7F3CDE9043BB1FBF7F1099B0191CDE9BA
:105790000672CDE90207009352466369082130463C
:1057A000FFF7C6F801351C34CFE700BF528B00006D
:1057B0008C760000A87600001C9400002594000060
:1057C00031940000036898687047036800229A606B
:1057D0007047836800225A60C3E904229A60DA6045
:1057E0001A6070474FF4A06300FB0330084B1A188F
:1057F000A0F5806030B50344064C03F58061934208
:10580000A1EB030003D253F8045BA542F7D030BDEF
:10581000000D00200ED0ADDE2DE9F04FDFF8FC903A
:10582000DFF80881DFF808B185B0054600260020C2
:10583000FDF75CFFD9F800705FFA86FA2FB1D9F84E
:1058400004702E4B002F08BF1F460020FDF750FFAD
:10585000002F3FD05046FFF7C5FF33465A46082178
:1058600004462846FFF764F83B46254A08212846A7
:10587000FFF75EF808F2FF33002C35D04FF480625A
:105880006420CDE902424443A40ACDE900341D4A14
:10589000434608212846FFF74BF81B4B1B7853451E
:1058A0002AD01A4B1A684FF00043F3401342184AAB
:1058B000184B08BF1346184A08212846FFF738F846
:1058C000164A0C2303FB062308219B68144A28462A
:1058D000FFF72EF80136032E09F10C0908F5A06830
:1058E000A5D105B0BDE8F08F00930E4A43460821CC
:1058F0002846FFF71DF8D0E70B4BDCE711950000B9
:105900003E9500004C950000B40C0020B80C00201F
:1059100029950000209500009E950000001C0020A5
:10592000AB9500008695000018950000000E002041
:1059300033950000054B1A78022A04D01878431ECC
:105940005842584170470120704700BF241C002076
:1059500070B506460D466A461A4B9A4205D3FFF7C4
:10596000E9FF90B94FF4054070BD174B5B884BB110
:105970001648174B1749C01AC008000440F0010030
:10598000FDF7FAFA48F21950EEE7134C236823B1F9
:10599000124B1A68124B9A420FD086B97DB9114842
:1059A00011492060FCF776FD0028DDD10B4B0C4A35
:1059B0001A6023680D4A1A60D6E70020D4E748F23F
:1059C0001750D1E700E0032070000020607700004E
:1059D000A876000028960000F4340020101D002056
:1059E0006572E54B281C0020141D00206169614D83
:1059F0004FF08053D3F83001A0F1080358425841CA
:105A0000704700004FF08053D3F83021082A06D1A8
:105A1000D3F83431052B02D8024AD05C70470020FD
:105A2000704700BF47960000024AD2F80034002BAE
:105A3000FBD0704700E0014010B5FFF7D9FF40B13F
:105A40004FF080430022C3F80C21C3F81021C3F8A3
:105A50003825FFF7CDFF002846D04FF08052654B28
:105A6000D2F80414C3F82015D2F80814C3F824158A
:105A7000D2F80C14C3F82815D2F81014C3F82C155A
:105A8000D2F81414C3F83015D2F81814C3F834152A
:105A9000D2F81C14C3F84015D2F82014C3F84415EA
:105AA000D2F82414C3F84815D2F82814C3F84C15BA
:105AB000D2F82C14C3F85015D2F83014C3F854158A
:105AC000D2F83414C3F86015D2F83814C3F864154A
:105AD000D2F83C14C3F86815D2F84014C3F86C151A
