:02000002F0000C
:1080000000000420BD820F00E5820F00E7820F0010
:10801000E9820F00EB820F00ED820F0000000000EC
:1080200000000000000000000000000031990F0077
:10803000F1820F0000000000F3820F00F5820F00B4
:10804000F7820F00F7820F00F7820F00F7820F0010
:10805000F7820F00F7820F00F7820F00F7820F0000
:10806000F7820F00F7820F00F7820F00F7820F00F0
:10807000F7820F00F7820F00F7820F00F7820F00E0
:1080800055A00F00F7820F00F7820F00F7820F0054
:10809000F7820F00F7820F002D930F00F7820F0079
:1080A000F7820F00F7820F00F7820F00F7820F00B0
:1080B000F7820F00F7820F000000000000000000B0
:1080C000F7820F00F7820F00F7820F00F7820F0090
:1080D0001D9D0F00F7820F00F7820F00F7820F003F
:1080E000F7820F00F7820F009DD70F0000000000FD
:1080F00000000000F7820F0000000000F7820F0070
:10810000000000000000000000000000000000006F
:10811000000000000000000000000000000000005F
:10812000000000000000000000000000000000004F
:10813000000000000000000000000000000000003F
:10814000000000000000000000000000000000002F
:10815000000000000000000000000000000000001F
:10816000000000000000000000000000000000000F
:1081700000000000000000000000000000000000FF
:1081800000000000000000000000000000000000EF
:1081900000000000000000000000000000000000DF
:1081A00000000000000000000000000000000000CF
:1081B00000000000000000000000000000000000BF
:1081C00000000000000000000000000000000000AF
:1081D000000000000000000000000000000000009F
:1081E000000000000000000000000000000000008F
:1081F000000000000000000000000000000000007F
:1082000010B5054C237833B9044B13B10448AFF3D0
:1082100000800123237010BD2C5A002000000000B4
:10822000D0DC0F0008B5034B1BB103490348AFF383
:10823000008008BD00000000305A0020D0DC0F0094
:10824000A3F5803A704700BF174B002B08BF134BB4
:108250009D46FFF7F5FF00218B460F461348144A51
:10826000121A05F003FB0E4B002B00D098470D4B64
:10827000002B00D098470020002104000D000D487D
:10828000002802D00C48AFF3008005F0ADFA2000C2
:10829000290001F0C9FA05F093FA00BF00000800B8
:1082A0000000000000000000000004202C5A002004
:1082B0000490002000000000000000000649074A6A
:1082C000074B9B1A03DD043BC858D050FBDC00F081
:1082D000BFFCFFF7B9FF00003CDD0F00785900201C
:1082E0002C5A0020FEE7FEE7FEE7FEE7FEE7FEE78A
:1082F000FEE7FEE7FEE7FEE74B1C30B5DB00044679
:1083000012F003009BB20DD1074D2A601A44074BAF
:108310001A60074B1870074B1870074B1C80074BEF
:10832000198030BD0720FCE7505A00204C5A00202D
:10833000485A0020585A0020545A0020565A00200B
:108340002DE9F347DFF8C080B8F800308B420646CD
:108350000D4617464CD300240DF107008DF8074059
:1083600000F084F8244B254A25481B78008892F8B1
:1083700000C084455FFA8CF138BF4C1CDBB238BFBB
:10838000E4B2A3422ED014781178CBB2884286BFD3
:108390000133DBB2002313709DF8070000F08AF868
:1083A0004FF6FF739C4225D0DFF86090D9F800208B
:1083B0004FEAC40A42F8347002EBC403AEB1A5B16F
:1083C000104BB8F800001B682A4604FB0030314609
:1083D00005F03EFAD9F80030534400209D8002B0E9
:1083E000BDE8F0874FF6FF74D6E700209880F6E7E7
:1083F0000920F4E70420F2E7585A0020485A0020E8
:10840000565A00204C5A0020545A0020505A00203E
:1084100070B5104C104D22782B789A4200D170BD67
:108420000E480F4A2378126806880E4802EBC301F3
:10843000006852F83320898803FB060090470A49F8
:1084400022780988D3B2914286BF0133DBB2002380
:108450002370E0E7585A0020485A0020545A002060
:10846000505A00204C5A0020565A002070B5EFF3A5
:10847000108672B60C4A946801239CB993600B4B2A
:108480000B4DD3F8801029401160C3F88050D3F809
:10849000841051604FF0FF32C3F88420047006B995
:1084A00062B670BD0370FAE75C5A002000E100E09C
:1084B000FC06FFBD10B5084B9A685AB150B9EFF3EE
:1084C000108172B6054A1C6814605C68546098603C
:1084D00001B962B610BD00BF5C5A002000E100E0A7
:1084E00030B53AB11368DB430A4D0144814204D1EF
:1084F000D84330BD4FF0FF33F6E710F8012B53405F
:10850000082213F0010418BF2C46013A84EA5303F1
:10851000F7D1EBE72083B8ED10B561B1B2FBF3F40E
:1085200003FB1424A4B244B9C0E90014846082811E
:10853000C381204610BD0E20FCE70920FAE782B077
:1085400050E8022FC188B2EB324F4FF0000317BF43
:1085500092B241EA014142EA014104E04268B2EBD1
:10856000324F08BF012340E80212002AE8D18DF8FB
:1085700007309DF80730002B0CBF1120002002B0FF
:10858000704737B550E8013F9DB2C48925448489BE
:10859000A54228BF2D1B0489A54202BFBFF32F8F20
:1085A000002207E0C5EA030540E80154002CE9D1A8
:1085B0004FF001028DF803200193019A0A609DF8A3
:1085C000031001F0FF0321B1006810FA82F003B03C
:1085D00030BD1846FBE70A884B889A4209D150E81B
:1085E000012FC2EA024240E80123002BF7D101200B
:1085F00070470020704737B550E8023F1FFAA3F5D7
:10860000C488A54202BFBFF32F8F00220DE0C489AA
:1086100025448489A54228BF2D1BC3EA054540E8AF
:108620000254002CE8D14FF001028DF80320019391
:10863000019A0A609DF8031001F0FF0321B1006860
:1086400000EB124003B030BD1846FBE70A884B88A8
:108650009A4209D150E8022FC2EA224240E802239E
:10866000002BF7D1012070470020704710B503465A
:1086700053E8000F0A4643E8002494F0000FF7D1B6
:1086800010BD10B5034653E8000F40EA010243E86D
:10869000002494F0000FF6D110BD10B5034653E846
:1086A000002F02EA010043E8000494F0000FF6D125
:1086B00010BD0121FFF7E5BF0021FFF7EEBF10B5A8
:1086C00090B1D0E9012301689B1ADBB20A60013B3B
:1086D000DBB2FF2B026802D10020107110BD1168BF
:1086E0004C1C14600B70F2E70E20F7E737B5044618
:1086F00000250DF107008DF80750FFF7B7FE22683F
:10870000616813688B4210D9591E116013F8013C3F
:10871000228AE56802FB03552268A36811685B1A88
:108720001179DBB2994238BF13719DF80700FFF74A
:10873000C1FE284603B030BD37B5054600230DF114
:1087400007000C468DF80730FFF790FE2A68136883
:10875000591C1160E968641A298AB4FBF1F41C7091
:108760009DF80700FFF7A6FE03B030BD01600B685F
:108770001146184710B40468E468A4465DF8044B39
:10878000604710B404682469A4465DF8044B604750
:1087900070B550B90E4D0F4C0026641B1423B4FB6A
:1087A000F3F4B44208D1002010E00368002BF1D0AC
:1087B000BDE87040DB6918472B6813B901361435E2
:1087C000EFE7DB69284698470028F7D070BD00BF67
:1087D000185A00202C5A0020014B4360002070479B
:1087E000A8D80F000846704700207047024B186851
:1087F000003818BF01207047685A002008B50248A9
:10880000FFF75AFF002008BD685A002008B510463F
:108810001A4605F01DF8002008BD00002DE9F041C2
:10882000804686B011480F4616461D46FFF741FFA9
:108830000446C8B9AA083146384600F085FE0B4800
:10884000FFF73AFFD8F8083053B101228DF8002025
:108850000C9A0592CDE90147CDE903656846984732
:10886000204606B0BDE8F0811124F9E7685A0020DF
:108870002DE9F043814687B014480E4615469846C8
:10888000FFF717FF0446F0B90746BD4215D10F4860
:10889000FFF712FFD9F808305BB102228DF80020F3
:1088A0000022CDE90126CDE90325CDF814806846E4
:1088B0009847204607B0BDE8F08306EB073000F08C
:1088C00015FE0137E1E71124F3E700BF685A0020E5
:1088D00029DF704728DF704770B50668B36886B037
:1088E00004460D4673B114220021684604F0BEFF11
:1088F000A36805932379019533B1012B0ED0B3689A
:108900006846984706B070BD01238DF80030236992
:108910000293E368039363690493F0E702238DF8FD
:108920000030E3681B030293F5E708467047002018
:1089300070470000024B187A003818BF01207047BA
:10894000585C0020034B187A0122B0FA80F05A7468
:1089500040097047585C002008B510461A4604F0DC
:1089600077FF002008BD000008B51422002104484C
:1089700004F07CFF0348FFF7E2FD002008BD00BFC4
:10898000585C0020485C002010B5094C094B43603E
:108990002046FFF78EFE48B900F0AEFC0649207471
:1089A0001C2306484FF4EE72FFF7B6FD002010BD01
:1089B000585C0020D4D80F006C5A0020485C00207E
:1089C00038B5224D224C2B7A3BB922492248FFF779
:1089D00012FE206008B9686038BD022324682B723B
:1089E000237973B1012B22D020460321FFF774FFB6
:1089F00000232B726B6017491748BDE83840FFF71A
:108A000025BED4E90523D21A142AD4E9031028BFBD
:108A100014229208012A38BF012219441844FFF792
:108A200057FF50B11128DFD101232B72D4E7D4E9CD
:108A300003031844FFF74EFFF3E72B7C002BCBD149
:108A4000BDE83840022000F009B800BF585C0020A3
:108A5000705C00206C5C0020485C002038B5224C23
:108A6000237A002B3FD0022B09D103282ED01F4B95
:108A700000221B68E2601A793AB1012A20D0637C97
:108A80006BBBBDE83840FFF79BBFD3E905128D1AD9
:108A9000142D94BF521914329A619142EFD10228D9
:108AA0004FF0000308BF19462372104B18BF0D2169
:108AB0001868FFF711FF0E490E48FFF7C7FDDEE704
:108AC0001A6901321A615B699A42E7E7E368013388
:108AD000082B01D8E360D2E70023E360DFE7BDE8BD
:108AE000384000F0F9BB38BD585C0020705C0020B5
:108AF0006C5C0020485C0020831E012B01D8FFF72E
:108B0000ADBF704700F0FD03012B08D1044B0022DC
:108B10005A74421E504250411874FFF751BF7047BB
:108B2000585C002010B5064C201DFFF7C2FD28B987
:108B3000637C1BB9BDE81040FFF742BF10BD00BF0A
:108B4000585C00202DE9F34180460D460F4801A9ED
:108B500016461F46FFF715FD0446A8B11C2200214A
:108B600004F084FE2D0B0123237101A90748C4F8EA
:108B70000080A760E5606661FFF72DFDFFF7D2FF7B
:108B8000002002B0BDE8F0810420FAE7485C002034
:108B90002DE9F74381468846104801A917461E462D
:108BA000FFF7EFFC0446B0B11C22002104F05EFE8A
:108BB00000250A9BA36001A9C4E903780748257131
:108BC000C4F800906661FFF706FDFFF7ABFF28468B
:108BD00003B0BDE8F0830420FAE700BF485C002042
:108BE00001600B6843604A68934204BF00234360FE
:108BF0007047436843B1026891680B444360526810
:108C0000934204BF0023436070474FF08053D3F872
:108C10003001A0F108035842584170474FF080538B
:108C2000D3F83021082A06D1D3F83431052B02D8E5
:108C3000024AD05C70470020704700BF06D90F0081
:108C4000024AD2F80034002BFBD0704700E001400C
:108C500010B5FFF7DAFF40B14FF080430022C3F8B0
:108C60000C21C3F81021C3F83825FFF7CEFF0028E8
:108C700046D04FF08052654BD2F80414C3F820154B
:108C8000D2F80814C3F82415D2F80C14C3F8281528
:108C9000D2F81014C3F82C15D2F81414C3F83015F8
:108CA000D2F81814C3F83415D2F81C14C3F84015C0
:108CB000D2F82014C3F84415D2F82414C3F8481588
:108CC000D2F82814C3F84C15D2F82C14C3F8501558
:108CD000D2F83014C3F85415D2F83414C3F8601520
:108CE000D2F83814C3F86415D2F83C14C3F86815E8
:108CF000D2F84014C3F86C15D2F84424C3F8702598
:108D0000FFF78CFF18B1424B424AC3F88C26FFF79D
:108D100085FF18B1404BFB22C3F81825FFF77EFFF3
:108D200070B14FF080414FF08053D1F8E42ED3F86A
:108D3000583222F00F0203F00F031343C1F8E43E50
:108D4000FFF76CFF20B1354B4FF40072C3F840269B
:108D5000FFF75BFF48B14FF08043D3F80024D20700
:108D600044BF6FF00102C3F800242D4AD2F88830C6
:108D700043F47003C2F88830BFF34F8FBFF36F8F97
:108D80004FF08053D3F83021082A0ED1D3F8343174
:108D9000052B02D8234AD35C3BB14FF01023D3F804
:108DA00008224FF08043C3F858254FF01023D3F822
:108DB0000022002A03DBD3F80432002B22DA1A49FE
:108DC00001234FF01020C1F804351224FFF738FFBB
:108DD000C0F80042FFF734FFC0F80442FFF730FF4D
:108DE0000023C1F80435FFF72BFFBFF34F8F0C4969
:108DF0000E4BCA6802F4E0621343CB60BFF34F8F9F
:108E000000BFFDE70A4B0B4A1A6010BD00C00040CE
:108E1000005000404881030000F0004000900240F4
:108E200000ED00E000D90F0000E001400400FA0569
:108E3000785900200090D00338B52022044608302D
:108E40000D4604F005FD2022A91804F1280004F0C5
:108E5000FFFC002038BD00002DE9F743DFF86C80EF
:108E60009946184B036004460E46404601211746BA
:108E7000FFF7FCFB0546BFF35F8FF8B900F0E6F89B
:108E80000A9ACDF800903B4606F10801204603F00F
:108E900029FB044600F0E8F8BFF35F8FC8F80050E4
:108EA00044B1094948F2165248F242538C4214BF69
:108EB00014461C46204603B0BDE8F08348F2045433
:108EC000F8E700BFDD55AABB8408F000746C0020F1
:108ED0000E4B984214D00AD8B8B10D4948F2165238
:108EE00048F20153884214BF104618467047094B98
:108EF000984208D0084948F2165248F20353F1E765
:108F000048F20350704748F2025070470102F000E7
:108F10000002F0000202F0000F02F00008B5083075
:108F200003F04AFBBDE80840FFF7D2BF13681F2BD0
:108F30002DE9F34106460F46144620D9DFF84C8050
:108F400001214046FFF792FB0546BFF35F8FC8B98A
:108F500000F07CF8394606F1080003F099FB019017
:108F600000F082F8BFF35F8F0198C8F80050FFF758
:108F7000AFFF08B92023236002B0BDE8F08148F2BA
:108F80001450F9E748F20450F6E700BF746C002073
:108F90002DE9F04105460E46194801211446FFF718
:108FA00065FBBFF35F8F38BB00F050F8DFF85480EB
:108FB0000835B4F5805F274628BF4FF48057314607
:108FC0003A46404604F044FC3A464146284603F0FF
:108FD0000DFBE41B3E4468B9002CEAD100F044F8D4
:108FE000BFF35F8F064B00221A602046BDE8F041B8
:108FF000FFF76EBF0446F1E748F20450BDE8F08188
:10900000746C0020745C0020024B0020C3F8000543
:10901000704700BF00A0025038B50A4B00251D6004
:10902000BFF35F8F084C0123C4F8003503F060FBE9
:10903000C4F8005520B1052848F2035018BF03209A
:1090400038BD00BF746C002000A00250044B012208
:10905000C3F80025034B4FF480625A60704700BF8D
:1090600000A0025000E100E0064B0022C3F80025FA
:10907000054B4FF48062C3F88420BFF34F8FBFF3DA
:109080006F8F704700A0025000E100E0074B1B5CAF
:109090001F2B86BF064903F01F034FF0A04101229A
:1090A00002FA03F3C1F80C35704700BF30D90F0046
:1090B00000030050074B1B5C1F2B86BF064903F0C3
:1090C0001F034FF0A041012202FA03F3C1F8083553
:1090D000704700BF30D90F000003005008B50020D2
:1090E000FFF7E8FF0120FFF7E5FF0220FFF7E2FFAF
:1090F000BDE808400320FFF7DDBFC20710B50446F6
:109100000CD54FF0A0430322C3F83427C3F8382707
:10911000C3F83C27C3F84027FFF7E0FFA3070AD5B1
:109120004FF0A0430C22C3F82C27C3F83027C3F814
:109130006027C3F8642710BD10DF704711DF704748
:1091400013B5044609496846FFF74AFD019808B976
:1091500002B010BDD0E900212046904718B1684602
:10916000FFF747FDF2E71120F2E700BF38D90F0003
:1091700013B5044607496846FFF732FD019B0BB95A
:1091800002B010BD2046D3E9002190476846FFF7A2
:1091900030FDF3E750D90F00084B9A6822B11A68E6
:1091A00022F480021A607047054B4FF48002C3F826
:1091B0008020BFF34F8FBFF36F8F70475C5A002042
:1091C00000E100E00B4991F816335A09EC231341F2
:1091D000DB0706D5084B9A683AB94FF480030B6059
:1091E000704742F2020000F01CBB1A6842F4800291
:1091F0001A60704700E100E05C5A0020F7B5194F93
:109200003C7864BB184E012520463570FFF798FF67
:10921000112821D02046FFF7ABFF144B8DF80340F7
:10922000186801900DF10300FFF720F9104901A81B
:10923000FFF782FF0446B0FA80F0400938709DF8CD
:109240000300FFF737F93CB90A4B34701C70FFF785
:10925000B9FF2846FFF78CFF204603B0F0BD082475
:10926000FAE700BF796C0020786C002034D90F0039
:109270001D980F007A6C0020F7B5154F3B781BB393
:10928000144E01203070FFF75BFF11284FF00005EE
:109290001CD00220FFF76CFF0DF107008DF807507E
:1092A000FFF7E4F8FFF74AFF04469DF807003D701A
:1092B000FFF700F92CB903203470FFF76DFFFFF7BB
:1092C00057FF204603B0F0BD0824FAE72C46F8E724
:1092D000796C0020786C0020054B1B7833B1054B6E
:1092E0001B780BB1FFF7C8BFFFF788BF0820704796
:1092F000786C0020796C0020014B1878704700BF13
:10930000796C002007B508496846FFF769FC019BA6
:1093100013B903B05DF804FBD3E900209047684619
:10932000FFF767FCF3E700BF44D90F00FFF7EABF80
:1093300060DF704769DF704761DF704730B5134DFC
:10934000ADF5017D4FF4FA740DF1020103A8ADF8FB
:109350000240FFF7F1FF70B9294601A8FFF740FC72
:10936000029B002BF0D003A8D3E90021904701A86D
:10937000FFF73FFCF4E7052805D00DF5017DBDE8BA
:10938000304000F04EBA0DF5017D30BD5CD90F00C4
:10939000024B1B780BB1FFF7D1BF70477B6C0020ED
:1093A00018B1034B0360002070470E20704700BFC8
:1093B00078590020F0B5074685B00D4600295DD0EC
:1093C0002F4B0B600C22002101A804F04FFA01265C
:1093D00006232A68ADF8083001A920208DF8047012
:1093E0008DF80660FFF7A6FF0C22002101A804F00B
:1093F0003DFA00242A688DF8056001A94020ADF8E7
:109400000640FFF797FF0C22214601A804F02EFA30
:10941000F7232A68ADF8063001A923208DF80470DF
:10942000FFF788FF0C22214601A804F01FFA2A68E2
:109430008DF8046001A93046FFF77CFF0C2221461D
:1094400001A804F013FA4FF4B0632A68019301A94C
:10945000A120FFF76FFF0C22214601A804F006FAB5
:109460009DF804302A6864F3000301A9A0208DF858
:109470000430FFF75FFF204605B0F0BD0E20FBE78C
:109480007859002008B5FFF753FF10B9014B0122AE
:109490001A7008BD7B6C00204BDF70471FB50E4C67
:1094A00001A8FFF7F9FF70B9214602A8FFF798FB62
:1094B000039B002BF4D00198D3E90021904702A828
:1094C000FFF797FBF4E7052804D004B0BDE810408F
:1094D00000F0A7B904B010BD68D90F00024AD2F855
:1094E0000034002BFBD0704700E001400A4908B56A
:1094F0000223C1F80435BFF36F8FBFF34F8FC1F85C
:109500000805FFF7EBFF0023C1F80435BFF36F8FA9
:10951000BFF34F8F08BD00BF00E0014010B5094CFC
:109520000123C4F80435BFF36F8FBFF34F8F016081
:10953000FFF7D4FF0023C4F80435BFF36F8FBFF3E8
:109540004F8F10BD00E0014070B50E4E012315464F
:10955000C6F80435BFF36F8FBFF34F8F0024AC42C2
:1095600007D10023C6F80435BFF36F8FBFF34F8FC9
:1095700070BD51F8243040F82430FFF7AFFF0134BC
:10958000EDE700BF00E0014028B139B10023C1E997
:1095900000301846704748F21050704748F2135098
:1095A000704730B1036848F240508B4208BF00203A
:1095B000704748F21050704728B148F2115091425C
:1095C00008BF0020704748F21050704770B506463B
:1095D0000C461D46FFF7D8FF50B9B3794AB1AB42EC
:1095E0000AD111462046FFF727FC08B9044B236037
:1095F00070BD48F21050FBE748F21150F8E700BF89
:109600007052464D2DE9F0470C460546114920465B
:10961000DDE9088916461F46FFF7C3FFA8B963684E
:109620005A79494652004046FFF7C6FF68B956B11D
:109630006DB1CDF820803B46324621462846BDE834
:10964000F047FFF709BC48F21050BDE8F08748F238
:109650001550FAE77052464D10B5044638B149B17D
:1096600041600B68984708B9044B236010BD48F26D
:109670000150FBE748F21050F8E700BF6E52464831
:10968000F0B4134648B10768094EB7420AD161B138
:109690002AB14368F0BC5B68184748F2015318468A
:1096A000F0BC704748F20253F9E748F21053F6E76E
:1096B0006E524648F0B460B107680C4EB7420CD108
:1096C00071B143681568DC68A5420CD3F0BC9B6897
:1096D000184748F20150F0BC704748F20250FAE7D0
:1096E00048F21350F7E748F21450F4E76E52464838
:1096F000F7B50446DDE9086715460193FFF7ACFFAF
:1097000068B9019A29462046FFF7BAFF38B93A46A8
:109710003146204603B0BDE8F040FFF7CBBF03B0B1
:10972000F0BD0000F8B50A4F0A4C0B4EE41B0123B4
:10973000E40833700025A54203D1022333700020D2
:10974000F8BD57F8353098470028F9D10135F2E7D0
:10975000D4DC0F00DCDC0F007C6C002001390144FC
:10976000814200D2704703780A7800F8012B01F893
:109770000139F5E7013A02440139824200D27047CB
:1097800011F8013F02F80139F7E770B516460D46AA
:10979000FFF7F0FF3246A9193044BDE87040FFF7EB
:1097A000E9BF38B50D460446FFF7D8FF29466019D2
:1097B000BDE83840FFF7D2BFBFF34F8F0549064BD6
:1097C000CA6802F4E0621343CB60BFF34F8F00BF5F
:1097D000FDE700BF00ED00E00400FA0508B507282A
:1097E0001BD8DFE800F004121A1A1A041A04012028
:1097F000FFF783FC0020FFF749FC0120FFF746FC40
:10980000BDE808400220FFF755BC0120FFF752FCDD
:10981000BDE808400220FFF739BC08BD08B5FFF7D6
:10982000CBFF08B5FFF7C8FF08B500F0DDFB4FF42C
:109830008051002000F0B4F908B1FFF7BDFF0548E2
:10984000C0F57E2100F0ACF90028F6D1024800F006
:10985000CDF8F2E700800F00DD970F0038B1054B1F
:109860000360054B436001230372002070470E2004
:10987000704700BFA3980F007D980F0069B10B7867
:10988000022B0CD1022804D0032814BF0820112079
:10989000704703230B70002070470E20704708208C
:1098A000704710B50C4681B10B78012B06D00ED94C
:1098B000033B012B94BF0820112010BD02F000F8DB
:1098C0000028FAD102232370F7E70E20F5E70820DD
:1098D000F3E7000070B5144B144A0C21D21AB2FB06
:1098E000F1F2816911F8025C044635B90069002182
:1098F000914205D1012323600EE04FF0FF30F6E7DF
:109900001E68AE420CD1461C07D19D68D4E9000107
:10991000D4E90223A847206070BD5E688642F4D077
:1099200001310C33E4E700BFE4DC0F00F0DC0F0092
:109930001EF0040F0CBFEFF30880EFF30980FFF770
:10994000C9BF00BF008800F00100704741DF7047C9
:10995000014B01221A707047A0700020BFF34F8F97
:109960000549064BCA6802F4E0621343CB60BFF3BB
:109970004F8F00BFFDE700BF00ED00E00400FA05D7
:10998000024B034800221A7001F060BFA070002053
:109990005D990F00042810B5044609D8022811D893
:1099A00016D00D4B1B68B3B12046BDE810401847D8
:1099B000831F012BF5D8094B094800221A7001F0CA
:1099C00045FFEEE707494FF4701000F0EBF9E8E7C8
:1099D00001F088FEE5E710BDA4700020A070002013
:1099E0005D990F0081990F000020704738B5554BE5
:1099F000554A18604FF0A0430020C3F8642701F0D7
:109A00003BFF0446002840F0978000F097FA0128B9
:109A100000F08D80022800F09180002840F08C80BA
:109A20004FF08043D3F8004414F4803436D04FF420
:109A30008032C3F800240446444D2B6A012B3BD0EE
:109A40004FF4701400F014FB414A20211820FEF757
:109A500053FC08B1FFF7E5FE4FF08043D3F81C2517
:109A600002F0F902B12A02BFD3F81C2502F04E021F
:109A7000C3F81C25FFF7B8FF00285DD12046354903
:109A800000F090F9344800F0EFFF002854D100F0C6
:109A900015FBFEF7BDFCFFF759FFF8E7D3F82025CB
:109AA00002F0F902A92A03BFD3F8202502F05602DA
:109AB000C3F820250124BFE74FF440535A68274BD1
:109AC0009A4209D001F088FFAA69014694B124485E
:109AD00002F05EFA90B9B3E76A6B1CB995F8603290
:109AE000012BEFD01F484FF4805102F051FA0028AB
:109AF000E8D1A5E795F8A132012BE8D14FF0A043BA
:109B0000D3F810359B019BD54FF08043D3F81C351B
:109B100003F0F903B12B93D001F00AFF60B9124BA7
:109B20001870124801F092FE00F024F804E00E4B89
:109B30000F481C7001F08AFE032038BD4FF4A024AA
:109B400080E700BFA47000200C0003007488002090
:109B5000806C002081990F0095990F00DBE5B151D1
:109B6000158B0020D48A0020A070002051990F008E
:109B70005D990F0008B5074B4FF0FF32C3F8802006
:109B8000C3F8802101F0CCFBBDE808404FF48050C1
:109B900000F028B800E100E080F3088808470000E2
:109BA00070B50546C1F30B00A8B9B5F57F2F12D8E3
:109BB0000B4E3268072A10D8130103F1804404F5D4
:109BC000F0340132C4F80058C4F804180221C4F873
:109BD0000818326070BD0720FCE70420FAE700BFD8
:109BE000A870002010B504461448C0F57F21FFF787
:109BF000D7FF08B1FFF715FE01F0EEFE104B9B6991
:109C000003F6FF7323F47F6323F00F03191800207A
:109C1000FFF7C6FF08B1FFF704FEEFF3058300234B
:109C2000D4E9000183F3148883F3108883F3118847
:109C300083F31388BDE81040FFF7AEBF00800F002C
:109C4000748800201FB518490B7853BB4FF0804330
:109C5000A024D3F81824D2035CBF01229A60134BCE
:109C60000022C3F80021D3F8000103900398C3F841
:109C70004021D3F8400102900298C3F84421D3F860
:109C80004401019001980A4880F82443102444605C
:109C90000220C3F8082501229A601A60C3F8040361
:109CA0000A7004B010BD00BFB07000200040024038
:109CB00000E100E037B56FF07F42154C057BD4F82A
:109CC00004358A4228BF0A46891A13444A1E942A38
:109CD00023F07F4305F5A8729BBF963B9631416008
:109CE000416044F822300B4B4FF4F86043F001031D
:109CF0009847094BAA00134400221A601B6801937D
:109D0000019B4FF48033AB40C4F8043303B030BD43
:109D100000400240C0D90F00404102402DE9F3410C
:109D20001B4BD3F8042152B11A490A6801320A6068
:109D30000022C3F80421D3F804310093009B164C91
:109D4000164DDFF84C80164E00272B6873B12F603C
:109D50002B68227B0193019B4FF480339340C8F81A
:109D60000833616851B12046FFF7A4FF0435B542BE
:109D700004F11004E9D102B0BDE8F081A16811B18D
:109D80002046FFF797FF2368002BEFD09847EDE7B9
:109D900000400240AC7000207C590020404102404D
:109DA0004841024070B50B4B1D682A7B4FF480334D
:109DB0009340094A0E46C2F80833044640B1FFF703
:109DC00041FF2E6021462846BDE87040FFF772BF74
:109DD00070BD00BF9C5900200040024070B5074B89
:109DE0001D680E46A8600446FFF72CFF2E60214632
:109DF0002846BDE87040FFF75DBF00BFA0590020B6
:109E0000014B01221A707047B17000202DE9F74F05
:109E100006468846A8EB06052D0B02F6FF7714468A
:109E200000F026F9082D28BF08252B03DFF868B0BD
:109E300001933F0B0CB9234629E0BD422CBFBA4623
:109E4000AA464FF000025146304634BFDDF8049078
:109E5000A14601F02FFA0346C8B909F1030222F026
:109E600003024146304601F017FA034678B9DBF8A1
:109E700030304B44CBF8303001F0EEFCA7EB0A0752
:109E8000A4EB09044E44C84403460028D2D0184627
:109E900003B0BDE8F08F00BF7488002010B501F05A
:109EA000BFFD124A916C01F500535C68104B9C4257
:109EB00018D1D2E90C32934216D0884204D1BDE8C1
:109EC0001040002001F0C8BCD21A02F6FF7222F442
:109ED0007F6222F00F0219441844FFF797FF002811
:109EE000EDD010BD0320FCE70020FAE774880020C5
:109EF000DBE5B15138B50F4BDA6A5D6A9C6CAC2A70
:109F000010D15B6B1C44ED1A0B482A46214603F026
:109F10008FFC68B100F0D2F829462046BDE83840F1
:109F200001F0E0B9002CEFD101F06AFD0446EBE747
:109F300038BD00BF7488002000800F0070B5264C2B
:109F4000E36AAA2B37D005D8012B0BD0A52B2ED036
:109F5000002070BDAC2BFBD1FFF7A0FF48BBFFF783
:109F6000C9FF26E0A66C656A01F036FD864229D15C
:109F700001F032FD00222946FEF7B2FAA36A9842A8
:109F800002BF0123C4E90703A5610025134801F0BE
:109F900017FD134B134800221A7001F05DFC68B9DD
:109FA00075B1236A012B14BF01200220D1E7FFF70E
:109FB00075FF0125EAE7FFF79DFFE6E70320C8E705
:109FC0000120C6E7236BEA1AF1181844FFF71EFFB9
:109FD0000028DAD1CCE700BF7488002098880020E0
:109FE000B1700020019E0F0010B50024D4F8F83F96
:109FF000013304D1084940F6F870FFF78FFAD4F81E
:10A00000FC3F013307D1BDE810404FF47E2140F6FC
:10A01000FC70FFF783BA10BD00800F000A4AD2F827
:10A0200000347BB109480023D2F80815D940C9078C
:10A0300048BF03F5C07103F1010348BF42F8210096
:10A04000072BF1D1704700BF000001403546526E2A
:10A05000FFF7E4BF054B002282B0C3F80021D3F81C
:10A0600000310193019B02B0704700BF0000014026
:10A0700038B50E4D2B78BBB90D4BD3F800248AB1FF
:10A08000D3F80445FFF7CAFF40F61650A042B8BF08
:10A0900020460849A0F54860FFF7A0FE064B4FF4A4
:10A0A00080321A6001232B7038BD00BFB2700020CF
:10A0B0000000014051A00F0000E100E0034BD3F885
:10A0C00000340BB1FFF7AABF704700BF000001408A
:10A0D0000023C0E90232C0E900118B881A440261F2
:10A0E000B1F906301A4442610888003818BF0120CF
:10A0F000704710B5426811880346002939D002F133
:10A1000010014160148A2CB9C2680168FFF7E0FFB2
:10A11000204610BD9078118900F03004302C1BD1FE
:10A12000947C04F03004302C1DD190881969091AF0
:10A1300019610021907810F0300F02BF986801304B
:10A140009860908A0844196901441961B2F916208F
:10A15000114459610120DCE700F0F004202C02D109
:10A1600050894143E6E700F0C000802808BF042181
:10A17000E0E70846CDE770B5466804460D466368DB
:10A180001A88AA4204D19B7803F00F03082B07D149
:10A190002046FFF7AEFF6368B342F0D1002070BDE8
:10A1A0000120FCE743681A44426011B101399A4228
:10A1B00001D10120704713F8010B01F8010FF6E7F8
:10A1C00070B54268927802F00F01082986B0034604
:10A1D0001FD103691C6800260CB906B070BD236846
:10A1E00026739D68626829466846FFF771FF6368B9
:10A1F000049304F10C030593AB7803F0C003802BA8
:10A2000008BF231D684608BF0493FFF7D9FFA46861
:10A21000E2E712F0C00126D102F03000102810D180
:10A220005A6911705A6818699378D46803F00F035B
:10A23000072B0BD10146204606B0BDE8704000F068
:10A240001AB89006EED55B691980C6E712892146D7
:10A2500024B106B0BDE8704003F0FABA06B0BDE81C
:10A26000704003F003BB8029B7D10069002192063A
:10A270000160B2D5E7E77FB50A4601466846FFF7B9
:10A2800027FF30B16846FFF79BFF6846FFF731FFB5
:10A29000F7E707B05DF804FB10B5836804460BB917
:10A2A000002010BD0368012298470028F8D0A36859
:10A2B000013BA360F5E72DE9F3410F460DF10701DE
:10A2C0008046FFF7E9FF054620B90025284602B081
:10A2D000BDE8F0819DF907309DF80740002B13DAA7
:10A2E00004F07F0407260DF107014046FFF7D4FF75
:10A2F0000028EAD09DF8072002F07F03B3401C43FA
:10A30000130606F1070601D43C60DFE7232EEAD1ED
:10A31000DBE7000030B5044685B01546A9B90268F0
:10A32000114B9A4211D0102D06D82A466946204674
:10A33000FFF7F0FF05B030BD102269462046FFF759
:10A34000E9FF0028F6D0103DEDE7A368AB4201D24B
:10A350000020EFE723682A46204698470028F7D0D8
:10A36000A268521BA260E5E7A5A10F00F7B50E4653
:10A3700001A907461546FFF79EFFA0B1019A511C9F
:10A380004FF0000404D2B37803F0C003802B01D156
:10A39000204608E033898B42FAD329463846FFF736
:10A3A000B9FF019BEC5403B0F0BD73B50D4601A994
:10A3B00006461446FFF77FFF98B1019AB2F5803F39
:10A3C00011D2AB7803F0C003802B02F102010AD056
:10A3D0002B898B4207D32146304621F8022BFFF709
:10A3E00099FF02B070BD0020FBE7000010B5034CE0
:10A3F00082600022C0E90041C26010BDA5A10F002B
:10A400002DE9F341002580460E462F462C460DF1DE
:10A4100007014046FFF740FFC0B19DF807C0A4F117
:10A4200020030CF07F02C4F1200102FA03F322FAA8
:10A4300001F10B43A2401CF0800F45EA020547EAF8
:10A44000030704F1070404D1C6E9005702B0BDE8D0
:10A45000F081462CDBD10020F8E737B50D46694680
:10A460001446FFF7CDFF70B12B89082B0DD1DDE924
:10A470000032C4E90032DDE90001914208BF984290
:10A480000CBF0120002003B030BD042B03D1009B82
:10A4900023600022EFE7022B03D1009B23809BB2B5
:10A4A000F7E7012B04D1009B237003F0FF03F0E7D3
:10A4B0000020E8E737B50D4669461446FFF7A0FFD0
:10A4C00030B12B89082BDDE9001203D1C4E9001259
:10A4D00003B030BD042B4FEAE17009D121600B4677
:10A4E0000246824208BF8B420CBF01200020EFE7EA
:10A4F000022B03D10BB22380DA17F2E7012B02D132
:10A500004BB22370F8E70020E2E7F7B51F460023BF
:10A510003B700D460B70136001A904461646FFF709
:10A52000CAFE30B9A36813B901233B70002003B001
:10A53000F0BD019C002CF7D0E30804F00704336061
:10A540002C70F4E713B50446052925D8DFE801F09F
:10A55000030F17242422012201A92046FFF7DAFE67
:10A5600018B19DF90430002BF5DB02B010BD0822B4
:10A570000021204602B0BDE81040FFF7CBBE01A984
:10A58000FFF799FE0028F0D0019A00212046FFF73E
:10A59000C1FEEAE70422EBE70020E6E773B50D46CB
:10A5A00001A90446FFF787FE064618B90026304683
:10A5B00002B070BD94E80F0085E80F0001998A424F
:10A5C000F4D3A960A3685B1AA360F0E72DE9F04318
:10A5D0005768BB7813F0C00489B006468C46154610
:10A5E00003D0402C6CD000240CE003F00F02614932
:10A5F00003F03003202B51F8228028D006D8CBB1AD
:10A60000102B1ED0204609B0BDE8F083302BF9D1C5
:10A610006B6939881980072A0AD16B6828691A89F9
:10A62000214603F023F96B682969D868FFF723FEF8
:10A630002A6942E02A693946434609B0BDE8F04339
:10A6400018476B6901221A702A696968F4E7BCF13E
:10A65000020FD5F8149024D1042A22D804A9FFF7B8
:10A660009DFF04460028BED0069B2BB16968B9F84F
:10A6700000304A899A4205D8059B7360069B002BDF
:10A68000C0D0B0E708892A6903FB002204A8C047AC
:10A6900028B1B9F800300133A9F80030E4E70446E6
:10A6A000EAE7B9F800307A899A429CD92A6939894F
:10A6B000581CA9F8000003FB012269683046BBE77B
:10A6C000D2F81080474657F8043B23B909B0BDE8DB
:10A6D000F043FFF737BF022914D104A9FFF75EFF4B
:10A6E000002880D0D8F8003069683A4604A8984716
:10A6F000044600283FF477AF069B002BF2D1059B60
:10A7000073607FE7012926D005292CD000297FF42A
:10A710006AAF0C460DF1040901340B2C3FF463AF12
:10A72000012249463046FFF7F5FD00283FF45BAFB4
:10A7300019F9013B002BEFDB0F4B049301ABCDE983
:10A74000053400230793D8F8003069683A4604A816
:10A750009847044656E7082201A9FFF7DBFD0824C5
:10A760000028E9D13FE704220DEB0201FFF7D2FDFB
:10A770000424F5E7C8D90F00A5A10F002DE9F04F7B
:10A7800091B00446002604A8CDE90266FFF7A0FCBC
:10A79000A3683BBBDDE9053404A89D78FFF7A9FC5D
:10A7A0000028F7D115F0300F03D1059B1B8803B1AA
:10A7B0000134002C00F0A980630902A90022934211
:10A7C00040F09C8010AA02EB830304F01F0453F8AE
:10A7D000383CC4F120044FF0FF30E040C31A584227
:10A7E00058410DE00DF1030301AA0DF102012046CD
:10A7F000FFF78BFE38B99DF80330002BCAD100203B
:10A8000011B0BDE8F08F019904A8FFF7B4FC00284F
:10A8100050D1019BB3427DD3059D059A937803F0F7
:10A820000F03082B7FD004A8FFF763FC059B9D4214
:10A83000F3D14FF0FF36019FB7426BD3089B9DF8D1
:10A8400002A0D4F808801D684FF00109A368002D0C
:10A850005DD098459CD12B68D3F800B0BBF1000FB8
:10A8600008D053463A4629462046D8470028C6D045
:10A87000AD68EBE7D3F808B0BBF800309F42F7D1E2
:10A880006A6859460AA8FFF723FC6B680E9305F126
:10A890000C030F939BF8023003F0C003802B04BF1E
:10A8A0002B1D0E930AAA85F80C9051462046FFF7FF
:10A8B0008DFEDBE7059B9B7813F0300F0FD1069AD6
:10A8C0003F2A0CD8510910AB03EB810102F01F02A3
:10A8D0000123934051F8382C134341F8383CE56884
:10A8E0002DB19DF80220019904AB2046A8479DF8A0
:10A8F000021004AA2046FFF769FE10E051F8045B3D
:10A9000001357FF47DAF013259E7012078E79845A2
:10A910007FF43EAF9DF802102046FFF713FE00289B
:10A920007FF436AF6BE7168885E737B50C460546EA
:10A93000114620460192FFF79EFC019A21462846C7
:10A9400003B0BDE83040FFF719BF70B586B0CE68E0
:10A9500001920C4602A90546FFF720FE68B1E068A7
:10A9600058B1A378019A03F03003202B314602A896
:10A9700005D1FFF7DAFF039B6B6006B070BDFFF7F0
:10A98000FDFEF8E713B50C466946FFF739FD60B1E7
:10A99000DDE900134A0842EAC372C9074FEA5303CC
:10A9A00044BFD243DB43C4E9002302B010BD37B536
:10A9B0000D4669461446FFF7E5FF70B12B89082B59
:10A9C0000DD1DDE90032C4E90032DDE90001914238
:10A9D00008BF98420CBF0120002003B030BD042BFB
:10A9E00003D1009B2360DA17EFE7022B03D1BDF9F7
:10A9F00000302380F7E7012B03D19DF9003023704D
:10AA0000F1E70020E9E713B504220C460DEB020143
:10AA1000FFF780FC08B1019B236002B010BD114616
:10AA2000FFF7F1BF13B508220C466946FFF772FC29
:10AA300018B1DDE90023C4E9002302B010BD1146BE
:10AA4000FFF7F0BF831F012B10B5044602D800208A
:10AA500000F09EFF034B1B681BB12046BDE8104071
:10AA6000184710BDB470002008B5074B18600020CF
:10AA7000FFF7E8FF054800F073FF20B9BDE8084084
:10AA8000024800F0E3BD08BDB470002045AA0F00E5
:10AA90006CDF70476DDF704772DF704773DF7047A0
:10AAA00074DF704775DF704776DF70477ADF704775
:10AAB0007CDF70477DDF70477FDF704786DF704740
:10AAC0008FDF704790DF7047A8DF7047AADF7047BD
:10AAD000ADDF7047AEDF7047B0DF7047B1DF704762
:10AAE000B5DF704762DF704766DF704713DF70477E
:10AAF00001460148FDF720BEF0DC0F0070B51822BA
:10AB00008CB000210DEB020002F0B0FE2823089368
:10AB100016231E4CADF806300023CDE90333059310
:10AB20000223062223702371592301250926A270CE
:10AB300063710322FE236570E270A3710DF10601BB
:10AB4000A0198DF818508DF82D500294ADF80C60B6
:10AB5000FFF7B0FFB8B9BDF8063026725A19E27196
:10AB6000BDF80C200A4C134402A906AA2046ADF8F1
:10AB70000C30FFF791FF30B92078FFF791FF207874
:10AB80002946FFF78BFF0CB070BD00BF3681002057
:10AB9000A459002038B515490B68024613F001008E
:10ABA00022D0134882421ED0124A10884FF6FF72FC
:10ABB000904213D043F004030B601321FFF774FF9E
:10ABC00090B90D4DC82445F001054FF47A40A847CF
:10ABD000013CFAD1BDE83840FEF74EBB074B187870
:10ABE000FFF75EFFF6E7002038BD00BF5881002068
:10ABF000DCDC0F00A6590020C0DB0F00A4590020A8
:10AC0000F0B50388232B8BB0044635D80F2B04D81E
:10AC1000012B00F0F9800BB0F0BD103B132BFAD8DC
:10AC200001A252F823F000BFA9AC0F00C7AC0F007F
:10AC300017AC0F00A9AD0F00EDAE0F0017AC0F0061
:10AC400017AC0F0017AC0F0017AC0F0017AC0F00BC
:10AC5000FBAE0F0017AC0F0017AC0F0017AC0F00C6
:10AC600017AC0F00D3AD0F0017AC0F00E1AD0F0014
:10AC700017AC0F008FAD0F00503B9AB2062ACAD80E
:10AC8000062BC8D801A252F823F000BFF3AC0F0086
:10AC900015AE0F00FBAE0F0017AC0F0017AC0F0086
:10ACA0004BAD0F00F5AD0F00974D83882B80974B70
:10ACB0001B680BB101209847954928880BB0BDE867
:10ACC000F040FFF7EFBE904B4FF6FF721A80914BAA
:10ACD0001B685A0704D4FFF711FF08B1FEF7A1FD66
:10ACE0008A4B1B68002B96D002200BB0BDE8F040C9
:10ACF0001847894EE288B3889A428CD18748FDF77D
:10AD0000F5FC0546002886D0228A04F1120102F0E3
:10AD10009FFD1822002104A802F0A8FD08238DF849
:10AD200010307F4B06937F4B0596CDE9073504A87D
:10AD3000238AADF8243000F07FFC00283FF46BAF8D
:10AD400076482946FDF7F8FC65E7E188F6291CD826
:10AD5000CB1E9B070DD0CB1F9BB2013B5A4202F08A
:10AD6000030203F0030301F1FF3158BF5342C91A34
:10AD700089B2654B1888FFF7B3FE00283FF44BAF4C
:10AD80000BB0BDE8F040FEF74CBDF721F1E7002223
:10AD9000808804A9CDE90422FFF794FE00283FF43F
:10ADA0003AAFFEF73EFD36E7574C02230493208866
:10ADB00002AB04AA42F605210593FFF789FE08B10C
:10ADC000FEF72FFD002320881A468521FFF774FE29
:10ADD000E4E74D4B00F108011888FFF763FECCE76C
:10ADE000002304A980888DF810308DF81130FFF70A
:10ADF00067FED3E7A379002B7FF40DAF424B1321FD
:10AE00001888FFF751FEB8E73F4B00211888FFF77D
:10AE10006BFEB2E7A379002B3FF4FDAE022B7FF46B
:10AE2000FAAE3D4D2189AA8991427FF4F4AEA27B0E
:10AE3000012A7FF4F0AE4FF480320592228A324E1E
:10AE4000ADF81820628AADF81A2004F114020792B6
:10AE500001AF298A3088049302AA02930397FFF76F
:10AE600037FE60B93846FEF76DFD40B940F2FD137C
:10AE70003088ADF8143004A9FFF72EFECBE600238E
:10AE800004A93088ADF81430FFF726FE01460028EB
:10AE90007FF4C1AE182204A802F0E8FC237D204A0A
:10AEA0008DF81030022B0595069218D0062B10D085
:10AEB000012B10D11C4B1A881C4B1A80637DD4F8CF
:10AEC00016200893012B099205D1194800F060FD66
:10AED00001E0637D089304A800F0AEFB9BE6124AF4
:10AEE000B4F815301380114A1380F4E700231A4692
:10AEF00019468088FFF7E2FD3FE70023A0881A4645
:10AF00001946FFF7EBFD38E7A65900205C810020C9
:10AF1000C6DB0F005881002022810020F0DC0F00EA
:10AF200075AF0F00F1AA0F00608100206281002040
:10AF3000DCDC0F007FB50023CDF80B308DF80F302F
:10AF40000A4BADF806109B89ADF8083001238DF847
:10AF50000A300DF10603CDE90430054B02A918882B
:10AF6000FFF7B8FD07B05DF804FB00BF22810020A9
:10AF7000A659002010B5044686B000210D2202A873
:10AF8000019102F073FC2378082B0BD1364A374924
:10AF900013880988013B9BB21380D9B1D3B903232D
:10AFA00011802370627823788DF805306021012AA2
:10AFB0008DF804108DF806200ED00B2A12D100F067
:10AFC00087F98DF80700002000F07CF9042101A822
:10AFD000FFF7B0FF06B010BD062B05D0082B29D017
:10AFE000032B27D00321F2E7E1688DF80710D4E99D
:10AFF0000123080A8DF80800080C090E8DF80A10C4
:10B00000110A8DF80B208DF80C10110C120E8DF812
:10B010000E201A0A8DF80F308DF810201A0C1B0E16
:10B020008DF80D108DF809008DF811208DF8123073
:10B030000F21CCE7D4E90123110A8DF807208DF800
:10B040000810110C120E8DF80A201A0A8DF80B3018
:10B050008DF80C201A0C1B0E8DF809108DF80D20A0
:10B060008DF80E300B21B2E7628100206081002054
:10B070002DE9F0413E4B94B005464FF6FF721A8021
:10B0800001204FF659632A4602A98DF80A00ADF84F
:10B090000830FFF719FD0446002865D1354B04AA96
:10B0A00003F11007164618685968144603C408339C
:10B0B000BB422246F7D1A91C3046FFF713FD0446D8
:10B0C000002851D101461C220DA802F0CFFB9DF8AB
:10B0D00034308DF8044043F004038DF834300223FB
:10B0E000ADF80C30AB788DF80E3003238DF80630B8
:10B0F000F423CDE90A44ADF82C302B464FF011086B
:10B1000033F8040B0C9403AF01AE08AA0DA98DF817
:10B11000058008970996FFF7D9FC044620BB014635
:10B120001C220DA802F0A2FB18238DF83430012355
:10B13000ADF80C30AB788DF80E3013238DF8063057
:10B140001723CDE90A44ADF82C302B4608AA33F872
:10B150000C0B8DF804400DA90C94CDE908768DF800
:10B160000580FFF7B3FC0446204614B0BDE8F0812B
:10B17000A6590020A8DB0F0030B5334C236813F02C
:10B18000010585B05DD1314B18603148FDF797FA64
:10B19000029500F0B8F800284CD12E48FFF7A6FC25
:10B1A000002847D1FEF72AF8002843D102A8FEF76D
:10B1B000F7F800283ED102A90120FEF7FBF800288D
:10B1C00038D102A8FEF75EF9002833D100F0A0FBC9
:10B1D00030B1214800F090FB236843F00203236064
:10B1E000112302A88DF80430FFF754FC10BB9DF822
:10B1F000093002A801338DF80930FFF749FCC8B9BE
:10B2000023689B0718D514498869043182B201A8C4
:10B21000FFF74EFC70B91148FFF748FC50B91048D1
:10B22000FFF726FF30B9FFF769FC18B9236843F030
:10B230000103236005B030BD0A4802F01FFB094935
:10B24000E4E70020F6E700BF588100205C81002081
:10B25000F0DC0F0000800F00B8700020C6DB0F008C
:10B2600022810020A0DB0F0043690BB1C0681847A2
:10B270007047000010B40549054C0022904218BFE9
:10B28000214604485DF8044BFDF770BAB4D80F00AE
:10B29000E0D80F00185A002007B5009313460A465D
:10B2A00001460348FDF766FA03B05DF804FB00BFF2
:10B2B000185A002013460A4601460148FDF761BAB4
:10B2C000185A0020014B18700B2070476481002031
:10B2D000024B002218781A70704700BF648100206A
:10B2E00018DF704730B585B0054610220C46684619
:10B2F000002102F0BBFAA408684601950294FFF70A
:10B30000EFFF05B030BD1FB50023CDE90133039336
:10B31000684602230093FFF7E3FF05B05DF804FBE6
:10B320004FF000534FF480521A6000207047000025
:10B33000014B06201B681847708100200A2803D99A
:10B340000B38C0B2FFF7BEBF7047000010B504460F
:10B3500086B00020FDF71CFA014638B1174A1821C3
:10B36000204606B0BDE81040FCF7EABF1822684648
:10B3700002F07CFA0423124A8DF80030114B116D53
:10B380001B68994212D1104B186800F063FF8DF8CA
:10B390000100FFF7D3FFD4E901138DF801006846DF
:10B3A00098470A4800F058FA06B010BD01238DF8FE
:10B3B00001306846D4E901139847F5E74DB30F0013
:10B3C00074880020688100206C81002031B30F0058
:10B3D000F0B5044687B018220021684602F046FA0C
:10B3E00022788DF8002001238DF80130531E0B2B9D
:10B3F00000F21681DFE813F01D0010001D001D0093
:10B4000014011D0014011D001401140114010C008D
:10B41000844B07201B689847D4E901136846984776
:10B420009DF80130012B00F0F0807E4B05201B6859
:10B43000EAE0062A7C4901D0012A01D122690A707A
:10B440000A78012A04D0022A53D000230B7096E018
:10B45000072BE1D801A252F823F000BF7DB40F0002
:10B4600019B40F00E7B40F00BBB40F0019B40F00FC
:10B47000E1B40F0019B40F0095B40F00694B03201D
:10B480001B689847606900F0D1FCFFF757FF8DF803
:10B490000100C1E7A18A206900F0E0FCFFF74EFF40
:10B4A000624B8DF80100DA6B1B6C0293E36801922A
:10B4B000002BB1D020699847AEE75D495D4800F0A8
:10B4C0001BFDFFF73BFF01288DF80100A4D10020F0
:10B4D00000F0C2F900289FD00A238DF801309BE7C5
:10B4E0004FF400730393514BDA6B1B6C0192029380
:10B4F00092E7072B90D801A252F823F01DB50F0058
:10B5000019B40F00DBB50F00E5B50F0019B40F003B
:10B510000FB60F0019B40F0083B50F0000F0BEFC8A
:10B5200008B90823D9E762690AB90323D5E7C2F34A
:10B530000B0333B13D4B3E495B6D096813448B42AD
:10B54000F3D1B2F5805F01D90423C6E7374B384900
:10B55000586D096815188D42E3D85A64DA6C9A64FC
:10B5600018651863334B61691B6801F6FF7100228F
:10B57000090B1844FFF79EFE00283FF44DAF05234A
:10B58000ABE700F08BFC0028CBD0284DA18AD5E991
:10B5900014329B1A6A6C0B449342C6D8254B2F6B0E
:10B5A0001B68206905F148021F44FCF799FFE36816
:10B5B000A28A216906463846FFF76EFE08B1E368A5
:10B5C00078E7A28A2B6B029613442B63A38A2A6D19
:10B5D000AE6413442B6501931EE7144B9A6C0292E0
:10B5E0001B6DF8E7114BD3E91402596C821A8A4299
:10B5F00097D19A6C5865002120465964DA64FFF7A8
:10B60000A5FE084B1B680420984707B0F0BD074B08
:10B610009A6C1B6D01934FF4805302920393FBE6E7
:10B6200002235AE770810020A85900207488002066
:10B63000688100206C81002083681BB1024A1821B8
:10B64000FCF77EBE07207047D1B30F0038B5054622
:10B65000C0B10120FFF70EFE044648B900F0D8FB48
:10B6600000F01CFC30B9084B00201D60FFF72AFEDB
:10B67000204638BD0549064800F03EFC0128F2D0BE
:10B680000324F5E70724F3E7708100206881002098
:10B690006C8100202DE9F04115464FF4607206469A
:10B6A00088461F4602F0C4F828B915B90020BDE845
:10B6B000F081A847FAE7002201213046FFF7FAFDA2
:10B6C00070B94FF460724146384602F0C1F82B461B
:10B6D0004FF4607239463046FFF7DEFD0028E5D0B2
:10B6E0000320E4E72DE9F0413B4C236801335AD0B5
:10B6F00000225821201DFCF7F3FE27683A1A574212
:10B700005741DFF8F080354DD8F8006033680133D9
:10B710005ED000225821301DFCF7E2FE33688342E0
:10B7200043D17468012C0AD00022C32106F5187099
:10B73000FCF7D6FED6F85C42231A5C425C41B7B3F4
:10B74000254926484FF4607202F082F874B1D8F8A7
:10B75000001023485422043102F07AF8D8F800107F
:10B7600020484FF432725C3102F072F86C68012CA0
:10B770002CD11D49402201F5E47002F069F81B4903
:10B780001C2201F5E47002F063F8194985F8A14222
:10B790000023042201F2862085F8603285F8E23227
:10B7A00002F056F810E00027ABE70024C7E72CB101
:10B7B000D8F8001009484FF46072D5E707484FF4F5
:10B7C0006072002102F052F802236B60BDE8F08144
:10B7D000002FF3D00024B3E700F00F00748800209E
:10B7E00078880020D0880020D0890020108A00208E
:10B7F00090880020AC59002070B50C4C0546002202
:10B800005821201DFCF76CFE00222060C32104F5A6
:10B810001870FCF765FE2A46C4F85C022146044B0A
:10B820000448BDE87040FFF735BF00BF74880020B2
:10B83000F484002000F00F0002460248024B00682A
:10B84000FFF728BFAC590020748100200149FFF7A1
:10B85000F3BF00BF00F00F0038B505460020FFF72A
:10B86000CBFF044618B903492846FFF7E5FF2046F9
:10B8700038BD00BF7488002010B5FFF7FBFC0446FC
:10B8800028B9FFF72FFF2046FFF7E6FF00B103209E
:10B8900010BD000010B5084C4FF40072FF2104F1F8
:10B8A0005C0001F0E3FF2022002104F1380001F0E8
:10B8B000DDFF0023236310BD7488002029DF70475B
:10B8C00038B50C4D0446D5F8643378B101330FD147
:10B8D000002218210430FCF703FE2060214605F504
:10B8E00059700722BDE83840FFF7E8BF0E2038BD89
:10B8F0000820FCE700F00F0008B528B103491C221E
:10B9000001F0A6FF002008BD0E20FCE764F30F0045
:10B9100010B5064C002218212046FCF7E1FD54F832
:10B92000043C1B1A5842584110BD00BF68F30F0079
:10B9300010B50A4CD4F82433D4F8642313400133EF
:10B9400009D04FF47F20FDF7D1FDC92221464FF4E5
:10B950007F20FDF7F9FD002010BD00BF7488002096
:10B96000F8B5094F094CE41B0646E4080025A5423A
:10B9700001D10020F8BD57F83530304698470028EF
:10B98000F8D10135F3E700BFDCDC0F00E4DC0F0089
:10B99000F8B5094E094CA41B0746E40800250436F7
:10B9A000A54201D10020F8BD56F8353038469847F9
:10B9B0000028F8D10135F3E7DCDC0F00E4DC0F00F0
:10B9C00008B50C22002101F051FF024B00221A633E
:10B9D00008BD00BF748800204FF44053074A5968DF
:10B9E000914201BF986800F6FF7020F47F6020F05C
:10B9F0000F0018BF4FF48050704700BFDBE5B15116
:10BA000008B5FFF7E9FF054B9B69184400F6FF7086
:10BA100020F47F6020F00F0008BD00BF7488002074
:10BA20004FF48050704700002DE9F74F1F46244B1C
:10BA3000DFF894B01B6ADFF8949001910446154634
:10BA400000934FF000084FF4405AB8F1010F5FFA2D
:10BA500088F61AD0022E24D0FFF7D2FF9DB1009BAA
:10BA6000013B59425941A9EB0000A04201D3019B7F
:10BA7000EBB1D1B908F10108B8F1030FE5D1A0424B
:10BA800016D2042018E02946EDE7FFF7A5FF37B9E5
:10BA9000DAF80410B1EB0B0118BF0121E3E74146CE
:10BAA000E1E701214FF48050DDE7A042E9D316B170
:10BAB0000448FFF785FF002003B0BDE8F08F00BF0A
:10BAC000748800208C880020DBE5B15100500F0005
:10BAD00090F8552012F0FB0F07D190F8643023B195
:10BAE000836ECBB10B600120704712F0010303D0CD
:10BAF00090F8563003B1836D9207F2D590F85C2030
:10BB0000002AEED0054A006EC2F57E22904201D88E
:10BB10000344E6E7042070470F20704700800F00C1
:10BB20002DE9FF472F49304D8A6B304C304FDFF8FD
:10BB3000D490DFF8D4A06E465C313046FEF756FC58
:10BB400096E80F0085E80F0000212A4B39704FF46A
:10BB500047722046C9F80010CAF80010EB6001F0E7
:10BB600085FE254922462846FEF7DFFE20B900273C
:10BB7000384604B0BDE8F0873F78002FF7D094F83E
:10BB80006C3194F800801BB3B8F1000FEFD194F83A
:10BB90007231002BEBD0DAF80020D9F800103046D3
:10BBA000FEF724FC96E80F0085E80F004FF4B27210
:10BBB000414604F5BA7001F059FE104904F5BA7215
:10BBC0002846FEF7B2FE0028D1D004F5BA7406E08C
:10BBD000B8F1000FCBD0A379002BC8D00834084BA4
:10BBE0001C60C5E774880020408F0020248C002052
:10BBF000208C00200DBC0F0030DB0F007CDA0F0022
:10BC0000FC8F00201C8C0020188C002030B55B6855
:10BC1000DA680D4B9A4208D10C4C236813B90C49D1
:10BC20000B681BB10B4B00221A7030BDD0E90132FA
:10BC30001A4413F9015B002DA2EB0300F9DB23602A
:10BC40000860044B0122EFE77CDA0F001C8C002017
:10BC5000188C0020208C002010B54FF44053164C57
:10BC60005968A142024624D000F500535B68181BB6
:10BC700043424341A14218461AD102F500535A6883
:10BC80008A4215D14FF440521178142982BF50696D
:10BC90000A4AB0FBF2F01A7898BF0020142A83BF3A
:10BCA0005B69064AB3FBF2F30023C01A18BF0120F8
:10BCB00010BD0023DEE700BFDBE5B15140420F00BD
:10BCC00000B591B0FDF72EFD684608492022FDF72A
:10BCD0005CFD6A46064907484023FDF777FC064BA2
:10BCE00001221A7011B05DF804FB00BF74D90F0077
:10BCF000508F00200CD90F00F48B00202DE9F0416B
:10BD0000CCB003AE80460D46144600217C221F466F
:10BD100004A82023336001F0A9FDA422002123A858
:10BD200001F0A4FD1A4B1B780BB9FFF7C9FF4DB307
:10BD3000B8F1000F28D1DFF86880529B15490196B1
:10BD4000CDF800803A4604A8FDF7D2FCF0B9402CAB
:10BD50001CD1114F22462946384601F079FD202199
:10BD60003846FDF71EFDCDE900740C4933684246A4
:10BD700023A8FDF747FC00280CBF012005204CB08C
:10BD8000BDE8F0811320FAE71620F8E70A20F6E76D
:10BD9000F48B002018D90F00B88F0020508F00209E
:10BDA000988F0020F0B5ABB004460D4616461F46EE
:10BDB0007C22202300210BA8029301F057FD114B98
:10BDC0001B780BB9FFF77CFF2FB12146202203A877
:10BDD000FDF7D0FC03AC02AB0B4F01930B4900976E
:10BDE00033462A460BA8FDF783FC48B9202221469A
:10BDF000384601F01DFDB0FA80F040092BB0F0BDCF
:10BE00000020FBE7F48B0020F58B002018D90F00F1
:10BE100008B5044B986B08B1FFF782FE024B18700F
:10BE200008BD00BF74880020F88F002010B50446BC
:10BE300058B1B0F5007F0AD8064B00221A70FFF700
:10BE400029FD054B01209C6310BD0320FCE7042065
:10BE5000FAE700BFF88F00207488002070B50E4C00
:10BE60000646E06BA36B42189A420D4611D85C302F
:10BE70000A462044314601F0EBFCE36B04F140023A
:10BE80002B4429463046E363FCF72AFB206401205B
:10BE900070BD0320FCE700BF74880020014B1878B8
:10BEA000704700BFF88F002013B5104C94F86C2138
:10BEB000B2B194F8D802B4F8DA2204F5377104F577
:10BEC000B8740B4B1B6800930A4B1B68FFF716FFF7
:10BED000012809D1201D02B0BDE8104000F0BEB914
:10BEE000114610460434ECE702B010BD248C00204B
:10BEF000188C00201C8C00202DE9F0411F4BD3E949
:10BF00000E329A4206460D4633D1DFF8788098F813
:10BF100000704FB1FFF774FD194B30602946186867
:10BF2000BDE8F041FFF7D4BDFFF7FAFD18B3FFF706
:10BF3000BBFF0128376004462F6017D1104B2946FC
:10BF40001868FFF7C5FD012804460FD103463A469D
:10BF500028683946FFF768FD38B9FFF751FD88F8C2
:10BF6000004030602046BDE8F0810424FFF792FCD9
:10BF7000F8E70824F6E70524F4E700BF74880020FA
:10BF8000FC8F0020F88F002001237230FFF70ABFDA
:10BF900013B50446084623781146032B03D8DFE87F
:10BFA00003F021050F18002002B010BD0022D4F8C4
:10BFB0000140FCF795FA844214BF00200120F3E70A
:10BFC0000A4600230146601C02B0BDE81040FFF79E
:10BFD000E9BE009103464022611C0020FFF78EFE5F
:10BFE0000128E9E70120DFE72DE9F043A3B005468A
:10BFF0000E46144600217C221F4603A820239DF8EC
:10C00000AC800293DDF8A89001F030FC41220021C1
:10C01000284601F02BFCB6F89430A34282BF44239B
:10C0200003FB046393F8968085F80080B8F1030F52
:10C030001ED8DFE808F00902111F002249463846E1
:10C04000FCF74EFAC5F801004A4639462846FFF784
:10C050009FFF23B0BDE8F08302AB01936B1C0093FC
:10C060000A494B463A4603A8FDF742FB0028EBD0AD
:10C070000020EEE744214C4333199A34B3F898205A
:10C080003119681C01F0E4FBDEE700BF18D90F008E
:10C090002DE9F047684B1D68A4B004460F46904652
:10C0A0000A4601462846FFF76FFF002800F0C180CE
:10C0B00095F855601EBB4FF00109CDE90079234684
:10C0C0003246294613A8FFF78FFF002874D0B8F135
:10C0D000000F60D04122594813A901F0B9FB584B19
:10C0E000C3F82C901E626A689A6000223946204686
:10C0F000FCF7F6F9524B0125C3E9097094E041229F
:10C10000002102A801F0B2FB06F001094122002142
:10C1100013A806F0020601F0A9FBB9F1000F3ED00A
:10C1200004F50052474B5068984245D1D5F858A0C5
:10C130000AF5FF530AF6FF71C1F30B011F335B1AB7
:10C140009168994238D34FF44053596881420CD1D9
:10C150001978102988BF1969137898BF0021102B0E
:10C160008CBF13690023994226D12046FFF774FD46
:10C1700000B10EB30123CDE900A3002223462946D6
:10C1800002A8FFF731FFB8B1AA6DA318BA1A4EB9C9
:10C19000B8F1000F1AD12A4B01255D6112E03A4631
:10C1A0002346F4E70021CDE9002113A84A46294699
:10C1B000FFF71AFF0028EBD10525B8F1000F30D1A9
:10C1C000FFF768FB284624B0BDE8F087DFF87080F1
:10C1D000B9F1000F21D02046FFF73EFD18B108F15C
:10C1E0001800FFF7EDFB1848412202A901F030FBCF
:10C1F000002E14BFAC23A523C8F82C30AB6DC8F8B3
:10C200003430002E3FF471AF1048412213A901F0E1
:10C210001FFB6B68C8F80C3067E7AA23C8F82C30FE
:10C22000EFE70B48FFF7CCFBFFF734FB044B9C64B4
:10C23000C8E71725C1E700BFFC8F0020158B002041
:10C2400074880020DBE5B151D48A0020568B002091
:10C25000988800200122FFF71BBF0000F0B590F87E
:10C2600054200346002A4DD090F85500032849D8A1
:10C2700093F86E20032A43D11A7A002A42D0DA6852
:10C28000342A41D14FF4405520496C681A8A8C42B7
:10C290001FD142B15969A9B1D2B203F114040021EE
:10C2A000CEB2B24201D8122023E054F8047BAE890A
:10C2B000B74201F10101F3D11A788AB9012818BFF8
:10C2C0000F2016E010B9012AEDD1F5E70128F3D1CE
:10C2D000E9E712B15A69002AE5D11A78002AE2D0BA
:10C2E00001285B680A4A05D8906898428CBF1020E4
:10C2F0000120F0BDD068984234BF01201020F8E73B
:10C300001420F6E70F20F4E71120F2E7DBE5B15146
:10C310007488002030B10268034B04489A4208BF79
:10C320000020704702487047DD55AABB8208F00024
:10C330007108F00038B50D460446B0B1A0220021C6
:10C34000043000F049FD95B10822294604F164004B
:10C3500000F048FD082205F1200104F1840000F0FE
:10C3600041FD044B2360002038BD0348FCE703482F
:10C37000FAE700BFDD55AABB7108F0008308F000A2
:10C380002DE9F74305460E461F461146FFF7C2FF4B
:10C390000446002840F08280002E00F083800029AF
:10C3A00000F08280202F40F0818005F144040822B3
:10C3B00005F10409204600F015FD05F124080822C6
:10C3C0003146484600F00EFD06F1200108224046A5
:10C3D00000F008FD01A94FF48070019700F0A0FA69
:10C3E000002865D1334A4FF48073136001219360B4
:10C3F000314A082300F04AFB012108462F4A052351
:10C4000000F044FB08234A4601211C2000F03EFBBB
:10C41000082342460121032000F038FB224608236E
:10C420000121022000F032FB254A082301211A20B5
:10C4300000F02CFB234A052301211B2000F026FBE2
:10C44000214A08230121142000F020FB1F4A082361
:10C450000121152000F01AFB082305F164020121D7
:10C46000162000F013FB082305F184020121172098
:10C4700000F00CFB0823164A01210B2000F006FBFC
:10C4800000F062FB0446019800F0EEFA114B002C1C
:10C4900018BF1C46A421284600F0A0FC204603B08B
:10C4A000BDE8F0830C4CF9E70C4CF7E70C4CF5E7D2
:10C4B000084CEFE790B0025010DC0F0088DC0F0052
:10C4C000D0DB0F0074DC0F0034DC0F0054DC0F00F5
:10C4D000F0DB0F008408F0007608F0008008F00020
:10C4E0008108F00037B50193069B0093044615467A
:10C4F000FFF720FF40B9DDE900322946204603B0AE
:10C50000BDE83040FFF73CBF03B030BD0C4BC26903
:10C510001A60826943F8042C426943F8082C0269C6
:10C5200043F80C2CC26843F8102C826843F8142C92
:10C53000426843F8182C026843F81C2C704700BF6F
:10C540005CB602500C4B1B68C3610C4B1B688361CB
:10C550000B4B1B6843610B4B1B6803610A4B1B6849
:10C56000C3600A4B1B688360094B1B684360094B1F
:10C570001B680360704700BF5CB6025058B602509B
:10C5800054B6025050B602504CB6025048B6025053
:10C5900044B6025040B6025030B10268034B044822
:10C5A0009A4208BF0020704702487047DD55AABB79
:10C5B0000202F0000002F00013B5044670B104302E
:10C5C0007021019000F00AFC01980549202200F03A
:10C5D00001FC044B2360002002B010BD0248FBE7C1
:10C5E000ACDC0F00DD55AABB0002F0002DE9FF47CF
:10C5F000254B04460F4615460FCBE84688E80F004A
:10C6000025B90026304604B0BDE8F0872046FFF784
:10C61000C3FF06460028F5D1666A231D01938EBB31
:10C62000206FC0B1C0F14009A94528BFA94604F157
:10C63000300A4A463946504400F0CCFB226F4A4447
:10C64000402A4F442267A5EB090504D151464046D4
:10C6500000F0D6FB266705F03F0935F03F0505D011
:10C6600039462A46404600F0CBFB2F44B9F1000F73
:10C67000C7D04A46394604F1300000F0ABFBC4F89D
:10C680007090BFE7014EBDE79CDC0F000C02F0008C
:10C690002DE9FF41144B04460D460FCBE84688E8D0
:10C6A0000F002046FFF778FF0746B0B9CDB1636AA7
:10C6B000261D01963BB90123226F636204F130010C
:10C6C000404600F09DFB3346043D243453F8042BD0
:10C6D00012BAA34245F8042FF8D1384604B0BDE899
:10C6E000F081024FF9E700BF9CDC0F000502F0006B
:10C6F000084B1B681B0EF02B08D1074B1A68074B21
:10C700009A4205D1064B00201860704705207047FB
:10C710000620704728B9025024BA02500000E020D9
:10C720000CBA0250002230B549001346023840F6D8
:10C73000FC75940004F1A04404F52C34904202F1FD
:10C740000102CABF236025605B181E2AF1D1044A8A
:10C7500013600B445360034B034A1A6030BD00BFA3
:10C7600078B0025084B0025020F80F0030B51F4B53
:10C7700085B01A46196800910099CC07FAD500F1E6
:10C78000A05000F52C408000016813680193019BC4
:10C79000D807FAD5164B174C1B68174D13F11F001D
:10C7A00048BF03F13E0040110138002810DA002391
:10C7B0000130400153B1A0F120014FF0004213427B
:10C7C00004D1013888424FEA5202F8D105B030BD99
:10C7D00013680393039BDB07FAD5431823602B6888
:10C7E0000293029B002BE3D10138DEE7B4B0025084
:10C7F000ACB00250E4B00250DCB00250F0B51D689D
:10C8000085B001F01F040DB91F2C25D1154D2E4602
:10C810002F680197019FFF07FAD500F1A05000F59E
:10C820002C408000006835680395039DED07FAD51C
:10C830000D4D00EB611028600C48006802901F2C21
:10C8400018BFC94302980FBF106001F01F0100FA22
:10C8500001F111600021196010684300C00F1360DE
:10C8600005B0F0BDB4B00250E4B00250DCB00250EC
:10C870000C4B18603F3020F03F0089014030586079
:10C880009960D9601961596199610748D9611C3370
:10C8900082B002680192019AD207FAD5196002B0FB
:10C8A000704700BF90B00250B4B0025038B5A0F14C
:10C8B0002003B3F5426F05462CD88F2826D800F107
:10C8C000470300F16604DB064FEA541400D001343C
:10C8D00064013F34A409013411B18C421AD80C46CA
:10C8E000E3004FF48050B0FBF3F0202828BF202055
:10C8F00002B11060084B01221A602146FFF712FFB7
:10C9000028462146FFF7B4FF002038BD00F11F0480
:10C910006409DDE70148F8E71CB802502221F00065
:10C920000A460021FFF7C2BF2DE9F041484B88B00D
:10C930001C461D680195019DEF07FAD5454BDFF8B0
:10C9400020E1454F13449B000A181B681E2A88BF2C
:10C95000C0F11E011F330A185B095A43B2F5806FFC
:10C9600088BF4FF480614FF0000203F1010588BFDA
:10C97000B1FBF3F1944688BF091A25F00105800048
:10C98000914233DC22680492049AD207FAD5334AE2
:10C990001268216805910599CF07FAD530482E49CC
:10C9A0000260002215469A4246D15A1C2A4D194669
:10C9B00022F0010200268A4241D821680691069998
:10C9C000CE07FAD52749096825680795079DED0721
:10C9D000FAD50160002120480C46994232D11E4907
:10C9E00000209A4231D808B0BDE8F081266802964E
:10C9F000029EF607FAD500F1A04606F52C363668F9
:10CA0000D4F80080CDF80C80DDF80C8018F0010F10
:10CA1000F6D0CEF8006000269E4205D11E46B542F3
:10CA200006D801320430ABE7C7F800C00136F3E79F
:10CA3000C7F800C00136F2E70D600132B3E72E609F
:10CA40000131B8E704600131C7E708600133C8E786
:10CA5000B4B0025024AC0014D8B002507CB00250E4
:10CA6000D4B0025078B0025008B540B12028014639
:10CA70004FF0070228BF20210020FFF755FF024B8F
:10CA800000221A6008BD00BF1CB80250F0B52A4D44
:10CA900085B02C462E680096009EF707FAD500F167
:10CAA000A05000F52C408000056820680190019896
:10CAB000C607FAD5214E2248356002EB8307BA42F9
:10CAC0002BD15A1C1E4822F0010200279A4229D875
:10CAD00023680293029BD807FAD51A4B0B449B009C
:10CAE00018681F30B2EB501F4FEA501313D2216861
:10CAF00003910399C907FAD5154400219B1A104ADE
:10CB0000356008468B4210D85A1C0D4922F00102AC
:10CB100000209A420CD805B0F0BD52F804CBC0F802
:10CB200000C0CCE707600133D0E710600131E9E7CE
:10CB300008600133EDE700BFB4B00250D4B002503A
:10CB4000D8B0025024AC00142DE9F041834B1D688D
:10CB500098682033A0B01E461A680192019AD20745
:10CB6000FAD57F4C7F4B236033680293029BDF072B
:10CB7000FAD57D4B23607D4B1F461A680392039ABA
:10CB8000D107FAD57A4B1968C1F340213268049273
:10CB9000049AD207FAD5774A22603A680592059A34
:10CBA000D207FAD51A68C2F34022002900F0D180DA
:10CBB000002A00F0CE8032680692069AD107FAD594
:10CBC0006D4A22603A680792079AD207FAD51A6826
:10CBD000C2F34022316808910899C907FAD567491C
:10CBE0002160396809910999C907FAD51B68C3F30F
:10CBF0004023002A00F0AF80002B00F0AC803368A7
:10CC00000A930A9BDA07FAD5564B236033680B93D5
:10CC10000B9BDB07FAD55A4A226033680C930C9BB6
:10CC2000DF07FAD5574B236033680D930D9BD90767
:10CC3000FAD5554B236033680E930E9BDB07FAD56C
:10CC4000524B236033680F930F9BDF07FAD5504B8D
:10CC50002360504B1E46196810911099C907FAD5E8
:10CC60003F4C4D4B236033681193119BDB07FAD582
:10CC70004A4B236033681293129BDF07FAD5484B67
:10CC800023603A4B9846196813911399C907FAD54E
:10CC9000324F386033681493149BDB07FAD5226057
:10CCA00033681593159BD807FAD53E4B236033683C
:10CCB0001693169BD907FAD53B4B2360336817931D
:10CCC000179BDA07FAD5394B236033681893189B02
:10CCD000DB07FAD5364B236033681993199BD807C5
:10CCE000FAD5344B236033681A931A9BD907FAD5C7
:10CCF000314B236033681B931B9BDA07FAD52F4B0C
:10CD0000236000F033FC08BBD8F800301C931C9B58
:10CD1000DB07F9D53D6033681D931D9BD907FAD514
:10CD2000274B236033681E931E9BDA07FAD5254BE9
:10CD30002360D8F800301F931F9BDB07F9D50C4BFD
:10CD40001B6813F4805F204B08BF184620B0BDE875
:10CD5000F0811E48FAE71E48F8E700BF90B0025085
:10CD600080B0025000100251C01F7229B4B00250AE
:10CD700088B00250C0CF0129C01F0E29C03F002932
:10CD800040010249003184A800001649400108A171
:10CD900080440888B0B00250C044708880077A414F
:10CDA000C0077E4100006A498006164940006E496E
:10CDB0000002002100822021408220218082242143
:10CDC00040A161A100C861510308F1000108F10010
:10CDD0000208F10000F03CBD00F048BD0A46002109
:10CDE00000F044BD01EB820204388A4201D10020E8
:10CDF000704752F8043D1BBA40F8043FF5E70000C5
:10CE00002DE9F74F314B4468054691469A461A681A
:10CE1000002AFCD12E4B9B461A68002AFCD14FF009
:10CE2000FF30019100F094FC802000F097FC294E27
:10CE3000294ADFF8B880294F012307203360A2F583
:10CE40009E72C2F83C011360636AC8F80030A36A9E
:10CE50003B602B6842F8043CAB6820469847019938
:10CE6000DAF80030002BFBD1B9F1000F20D11C4BB8
:10CE700004221A60DAF80030002BFBD1DBF80090B6
:10CE8000B9F1000FFAD1EB6820469847D8F8003086
:10CE900063623B68A362134BC3F80090C3F84491EC
:10CEA000DAF80030002BFBD1336003B0BDE8F08F1F
:10CEB000236A012B04BF0B4A13600B4B40201960FF
:10CEC000C3F8049000F050FCD4E700BF10B9025042
:10CED00020BC025018B8025000B90250D0B702501E
:10CEE000C8B7025084B6025028BC0250CCB70250DA
:10CEF00010B5544B98B019461A680192019AD2079E
:10CF0000FAD5514B514A1A600A680292029AD40724
:10CF1000FAD54F4A1A600A680392039AD007FAD5E5
:10CF20004C4818600A680492049AD207FAD54A4A13
:10CF30001A600A680592059AD407FAD5474A1A601A
:10CF40000A680692069AD207FAD5454A1A600A6814
:10CF50000792079AD407FAD5424A1A600A680892DB
:10CF6000089AD207FAD5404A1A600A680992099AC3
:10CF7000D407FAD53D4A1A600A680A920A9AD2077B
:10CF8000FAD53B4A1A600A680B920B9AD407FAD575
:10CF9000384A1A600A680C920C9AD207FAD5364AB7
:10CFA0001A600A680D920D9AD407FAD5334A1A60AE
:10CFB0000A680E920E9AD207FAD5314A1A600A68A8
:10CFC0000F920F9AD407FAD52E4A1A600A68109267
:10CFD000109AD207FAD52C4A1A601A4B19461C68C7
:10CFE0001194119CE407FAD5174B18600868129049
:10CFF0001298C407FAD51A600A681392139AD007D8
:10D00000FAD5124A1A600A681492149AD207FAD50D
:10D010001E4A1A600A681592159AD407FAD51C4A56
:10D020001A600A681692169AD007FAD5194A1A6039
:10D030000A681792179AD207FAD5174A1A6018B0D9
:10D0400010BD00BFB0B0025080B002500093652107
:10D0500000043190409665900083612100C3302127
:10D0600000C364900081619000461021008111216D
:10D070000041442100C320290C4610C800863121FC
:10D0800000C3602140C128294096652100133190DA
:10D0900040962529594614C84004324910B5494BD9
:10D0A00094B019461A680092009AD207FAD5464BF6
:10D0B000464A1A600A680192019AD407FAD5444A8E
:10D0C0001A600A680292029AD007FAD5414818609D
:10D0D0000A680392039AD207FAD53F4A1A600A688F
:10D0E0000492049AD407FAD53C4A1A600A68059259
:10D0F000059AD207FAD53A4A1A600A680692069A41
:10D10000D407FAD5374A1A600A680792079AD207F5
:10D11000FAD5354A1A600A680892089AD407FAD5EF
:10D12000324A1A600A680992099AD207FAD5304A37
:10D130001A600A680A920A9AD407FAD52D4A1A6028
:10D140000A680B920B9AD207FAD52B4A1A600A6822
:10D150000C920C9AD407FAD5284A1A600A680D92E4
:10D160000D9AD207FAD5264A1A600A680E920E9ACC
:10D17000D407FAD5234A1A600A680F920F9AD20789
:10D18000FAD5214A1A600F4B19461C681094109C5E
:10D19000E407FAD50C4B1860086811901198C40781
:10D1A000FAD51A600A681292129AD007FAD5174A6D
:10D1B0001A600A681392139AD207FAD5144A1A60B1
:10D1C00014B010BDB0B0025080B002508090652104
:10D1D000000409904096659080806121802008219C
:10D1E000802064900081619000461021008111210F
:10D1F0000041442180202029024610C800860921D0
:10D2000080206021402128294096652140962529CB
:10D21000594614C810B5504B96B01C461A68019276
:10D22000019AD207FAD54D4B4D4A1A6022680292F4
:10D23000029AD207FAD54B4A1A604B4A42EA80401A
:10D2400022680392039AD207FAD5186022680492E2
:10D25000049AD007FAD5454A1A60A2F5800242EA3C
:10D26000814122680592059AD207FAD51960226891
:10D270000692069AD007FAD53D4A1A6022680792AC
:10D28000079AD107FAD53B4A1A6022680892089A91
:10D29000D207FAD5384A1A6022680992099AD0074B
:10D2A000FAD5364A1A6022680A920A9AD107FAD544
:10D2B000334A1A6022680B920B9AD207FAD5314A88
:10D2C0001A6022680C920C9AD007FAD52E4A1A607E
:10D2D00022680D920D9AD107FAD52C4A1A6022685D
:10D2E0000E920E9AD207FAD5294A1A6022680F9236
:10D2F0000F9AD007FAD5274A1A6021681091109921
:10D30000C907FAD51A60144B1A4619681191119978
:10D31000C807FAD5114B204919601168129112996A
:10D32000C907FAD51D491960116813911399CC07E3
:10D33000FAD50B491960116814911499C807FAD5E8
:10D3400017491960116815911599C907FAD5154A39
:10D350001A6016B010BD00BFB0B0025080B00250CD
:10D360004004419000862929D81001C840144190FA
:10D3700040142129401465210034409000310C9064
:10D38000C0400C90C030202940960D900041609024
:10D39000031645C80086112100416021594644C842
:10D3A0004014459040142D9070B5264888B005462D
:10D3B00004680094009CE607FAD52348234C0460D7
:10D3C000234C44EA83432C680194019CE407FAD57A
:10D3D0000360930143EA824242F0104444F4C044A3
:10D3E0002B680293029BDE07FAD504602B68039337
:10D3F000039BDB07FAD5174B03608B0143EA81419E
:10D4000041F0104343F4C0432E680496049EF6078F
:10D41000FAD503602B680593059BDE07FAD50460F7
:10D4200041F058412B680693069BDC07FAD5016052
:10D4300042F058422B680793079BDB07FAD502603E
:10D4400008B070BDB0B0025080B00250C0210229B7
:10D450008071009880611890354B8EB019461A681B
:10D460000092009AD207FAD5324B334A1A600A6802
:10D470000192019AD007FAD5304A1A600A680292DE
:10D48000029AD207FAD52E4A1A600A680392039AC2
:10D49000D007FAD52B4A1A600A680492049AD20778
:10D4A000FAD5294A1A600A680592059AD007FAD572
:10D4B000264A1A600A680692069AD207FAD5244AC2
:10D4C0001A600A680792079AD007FAD5214A1A60AB
:10D4D0000A680892089AD207FAD51F4A1A600A68A1
:10D4E0000992099AD007FAD51C4A1A600A680A926A
:10D4F0000A9AD207FAD51A4A1A6008680B900B9854
:10D50000C007FAD51A600A680C920C9AD007FAD5AF
:10D51000144A1A600A680D920D9AD207FAD5124A77
:10D520001A600E210D230F2200200EB0FFF73CBF22
:10D53000B0B0025080B002508043012940633921CD
:10D54000807001298020542100D13490C040349053
:10D55000C0302029C0530D9000413890832308C863
:10D5600080E3102100413821CF4308C82DE9F04164
:10D57000012392B0CDE90333624B1E461A6805922F
:10D58000059AD107FAD5604C604B2360604B194671
:10D590001A680692069AD207FAD55E4B1A68D70423
:10D5A00000F1A88032680792079AD507FAD55A4A3F
:10D5B00022600A680892089AD007FAD51B68DA0434
:10D5C000C3F3003700F198801220FFF7CFF805462B
:10D5D0001320FFF7CBF885428CBF12201320FFF7F2
:10D5E000C5F8451EFFF738FF03AB01AA29461220F4
:10D5F000FFF704F904AB804602AA29461320FFF77F
:10D60000FDF800EB4800022832D003283ED0012864
:10D6100074D133680993099BDB07FAD53F4B23602C
:10D6200033680A930A9BD807FAD53D4B23603368C9
:10D630000F930F9BD907FAD53A4B236033681093A9
:10D64000109BDA07FAD5384B236033681193119B8E
:10D65000DB07FAD5354B2360013D25D51023192270
:10D6600018210020FFF7A0FE384612B0BDE8F08177
:10D6700033680B930B9BD907FAD52D4B2360336886
:10D680000C930C9BDA07FAD52A4BCFE733680D933E
:10D690000D9BDB07FAD5284B236033680E930E9B56
:10D6A000D807FAD5254BC1E703AB01AA29461220BA
:10D6B000FFF7A4F804AB044602AA29461320FFF79B
:10D6C0009DF810EB440402D1FFF712FCC4E7FFF70A
:10D6D000E5FC022C08D0032C09D0012C10D1172115
:10D6E0001620FFF797FDB7E715211420F9E70F2162
:10D6F0000E20F6E7124FB7E7124FB5E7124FB3E728
:10D70000124FB1E7B0B0025080B0025000084A5149
:10D71000B4B0025088B0025000084E5100065A4979
:10D7200040065E49000442410014424940042E492B
:10D73000000652494006564900063A4940063E490D
:10D740000608F1000708F1000408F1000508F100DF
:10D75000014B1860704700BF08BA0250014B1860B7
:10D76000704700BF04BA0250094BC2431A60043B21
:10D7700082B01B680193074B019A024204D0064A0B
:10D780001060186802B0704720BF1A680192F3E772
:10D7900004BA02500090002008BA0250054B4FF026
:10D7A000FF321A6053F8042C034B1A601A68034BBB
:10D7B0001A60704704BA02500090002008BA025064
:10D7C00008B5074B044613B10021AFF30080054BA9
:10D7D0001868836A03B19847204600F057F800BFE5
:10D7E00000000000CCDC0F0070B50D4D0D4C641B2B
:10D7F000A4100026A64209D10B4D0C4C00F048F8AD
:10D80000641BA4100026A64205D170BD55F8043B48
:10D8100098470136EEE755F8043B98470136F2E7A2
:10D82000105A0020105A0020105A0020145A0020CC
:10D8300010B501390244904201D1002005E003787F
:10D8400011F8014FA34201D0181B10BD0130F2E7BF
:10D850000A44914200F1FF3300D1704710B511F82E
:10D86000014B03F8014F9142F9D110BD0244034628
:10D87000934200D1704703F8011BF9E7034613F800
:10D88000012B002AFBD1181A01387047FEE700BFB0
:10D89000F8B500BFF8BC08BC9E467047F8B500BF9D
:10D8A000F8BC08BC9E467047001000000400000051
:10D8B00001000000D9870F00FD870F000D880F00C1
:10D8C0001D880F0071880F00E5870F00E9870F00A2
:10D8D000ED870F00001000000400000001000000B0
:10D8E00089890F0069890F0059890F00918B0F00FA
:10D8F000458B0F002B890F002F890F0035890F00F2
:10D9000000000000010101000000000048000000CC
:10D9100000204000000000001D8F0F00918F0F00BD
:10D920002D8F0F002000000000000000000000000C
:10D930000D0E0F10010000070CDD0F0014DD0F00AD
:10D94000080000001CDD0F002CDD0F0008000000A7
:10D9500014DD0F001CDD0F000800000004DD0F00C7
:10D960000CDD0F00080000002CDD0F0034DD0F007F
:10D9700008000000C572C933B8982C9CFE28257F8A
:10D9800048F09CDA0598DBA600A9AEB381D8BC6B41
:10D990005A21D701AF0D3584F35F5B61FC1819E4A0
:10D9A000A5896C7317C7F3D50958EAF18DD07DF7B7
:10D9B0004AF27F3D0000000000000000000000006F
:10D9C0000338FDD870470000B5A40F005BA40F001A
:10D9D000AFA90F001FAA0F003FAA0F00ABA30F00B3
:10D9E0006DA30F004BA90F00000000000100010013
:10D9F000000000000100000000000000020005001F
:10DA000001000000420000000000000000000000D3
:10DA100000000000000000000000000001001100F4
:10DA20000100FFFF010000000000000002001700DD
:10DA30000200FEFF640100007CDA0F00000000001D
:10DA400000000000000000000000000001000100D4
:10DA500000000000010000000000000002000500BE
:10DA60000100000022000000000000000000000093
:10DA70000000000000000000000000000100110094
:10DA80000400FCFF04000000000000000200110080
:10DA90000400FCFF0400000000000000030021005F
:10DAA0000400FCFF0400100000000000040011004E
:10DAB0000100FFFF01000000000000000500110050
:10DAC0000200FEFF0400000000000000060011003C
:10DAD0000400FCFF0400000000000000070011002B
