:1000000000000420BD020000E5020000E70200003D
:10001000E9020000EB020000ED0200000000000019
:10002000000000000000000000000000EF020000DF
:10003000F102000000000000F3020000F5020000E1
:10004000F7020000F7020000F7020000F7020000CC
:10005000F7020000F7020000F7020000F7020000BC
:1000600061050000F7020000F7020000F70200003F
:10007000F7020000F7020000F7020000F70200009C
:10008000F7020000F7020000F7020000F70200008C
:10009000F7020000F7020000F7020000F70200007C
:1000A000F7020000F7020000F7020000F70200006C
:1000B000F7020000F702000000000000000000004E
:1000C000F7020000F7020000F7020000F70200004C
:1000D000F7020000F7020000F7020000F70200003C
:1000E000F7020000F7020000F70200000000000025
:1000F00000000000F702000000000000F70200000E
:1001000000000000000000000000000000000000EF
:1001100000000000000000000000000000000000DF
:1001200000000000000000000000000000000000CF
:1001300000000000000000000000000000000000BF
:1001400000000000000000000000000000000000AF
:10015000000000000000000000000000000000009F
:10016000000000000000000000000000000000008F
:10017000000000000000000000000000000000007F
:10018000000000000000000000000000000000006F
:10019000000000000000000000000000000000005F
:1001A000000000000000000000000000000000004F
:1001B000000000000000000000000000000000003F
:1001C000000000000000000000000000000000002F
:1001D000000000000000000000000000000000001F
:1001E000000000000000000000000000000000000F
:1001F00000000000000000000000000000000000FF
:1002000010B5054C237833B9044B13B10448AFF350
:1002100000800123237010BD6C000020000000004E
:100220005809000008B5034B1BB103490348AFF35D
:10023000008008BD00000000700000205809000088
:10024000A3F5803A704700BF174B002B08BF134B34
:100250009D46FFF7F5FF00218B460F461348144AD1
:10026000121A00F04FFB0E4B002B00D098470D4B9D
:10027000002B00D098470020002104000D000D48FD
:10028000002802D00C48AFF3008000F017FB2000DC
:10029000290000F0A1F900F0FDFA00BF00000800FD
:1002A0000000000000000000000004206C0000209E
:1002B0009800002000000000000000000649074AE6
:1002C000074B9B1A03DD043BC858D050FBDC00F001
:1002D000B3F9FFF7B9FF0000640900000000002037
:1002E0006C000020FEE7FEE7FEE7FEE7FEE7FEE724
:1002F000FEE7FEE7FEE7FEE70A4B185C1F288ABF11
:1003000009494FF0A04100F01F00D1F80435012247
:10031000824022EA03001340C1F80805C1F80C35F9
:10032000704700BF3009000000030050C20710B43E
:100330000FD483070AD54FF0A0430C22C3F82C2713
:10034000C3F83027C3F86027C3F864275DF8044B6F
:1003500070474FF0A04303224FF40051C3F83427F5
:100360004FF48044C3F83827C3F83C27C3F840272C
:10037000C3F808154FF480324FF40041C3F8084524
:10038000C3F80815C3F80825D3E700BF00B585B04A
:100390000346002101AA44F20100CDE901110393B3
:1003A00000F004F805B05DF804FB00BF72B6094B1D
:1003B000D3F8F030DB0700D500BEBFF34F8F0549FF
:1003C000054BCA6802F4E0621343CB60BFF34F8F62
:1003D00000BFFDE700ED00E00400FA052DE9F04163
:1003E00090F804E03B4F0EEB4E0307EB83059C00B7
:1003F0002B7A82B0002B68D13A514A686A60427900
:100400004FEA4E0882B11A461E469B00046803F567
:10041000A07C013244F80C6054F80C5044790195EA
:10042000D3B29C42019DF0D80268CB7842F30734E6
:10043000002C4FEA123241DB04F160445B0104F509
:100440006144DBB284F80033026842F30733002BC7
:100450004FEA123409DB204D5B09012204F01F042E
:1004600002FA04F445F823400268D2F804554B78A8
:1004700025F0030503F003032B43C2F80435056898
:100480008B78D5F8082503F0030322F00302134309
:10049000C5F8083500680B78D0F81025C64422F05E
:1004A0000F0203F00F0307EB8E0713430124C0F87C
:1004B000103500203C7202B0BDE8F081074C02F01C
:1004C0000F025B01DBB2A354BEE7082002B0BDE817
:1004D000F08100BF8800002000E100E014ED00E0A2
:1004E0000368054A01211960037903EB430302EB1A
:1004F000830302211972704788000020F0B4056858
:1005000040F2011404FA01FCD5F8004224EA0C047C
:10051000C5F80042056882B0D5F800729DF81860F1
:100520004FF480343B438C40C5F800329EB18B00C1
:10053000056803F5A0730026EE50EB58019303689D
:10054000019DC3F80443036801F5A87143F8212015
:1005500002B0F0BC70470368C3F80843F3E700BF7C
:100560002DE9F041114D124FDFF8488082B0002490
:100570004FF480362B6806FA04F201347BB1D7F8C9
:100580000433A5F500401A424FF0000180B206D0B6
:1005900029602B680193D8E90031019A9847042C0F
:1005A00005F10405E6D102B0BDE8F08140810040CC
:1005B0000080004088000020064B1A68B0F5A07F3C
:1005C00002F10101196000D0704702F00300FFF74B
:1005D00093BE00BF9400002000B5012085B0FFF756
:1005E000A5FE104A92E8030002AB83E803000E4A1E
:1005F0000E481946FFF7F2FE88B90D4B0D49D3F8A6
:1006000010250A480123D2B221FA02F200930021F8
:10061000FFF774FF0548FFF763FF30BFFDE7FFF703
:10062000B5FEEAE734090000B90500003C09000006
:100630000080004000127A0010B44FF08053D3F8CD
:100640003021082A23D0844AD2F8883043F470033A
:10065000C2F88830BFF34F8FBFF36F8F4FF08053D6
:10066000D3F83021082A00F0B3804FF01023D3F8DC
:100670000022002AC0F2BF80D3F80432002BC0F25F
:10068000BA80764B764A1A605DF8044B70474FF09B
:1006900080410020C1F80C01724AC1F81001C1F874
:1006A0003805D3F80414C2F82015D3F80814C2F89A
:1006B0002415D3F80C14C2F82815D3F81014C2F876
:1006C0002C15D3F81414C2F83015D3F81814C2F846
:1006D0003415D3F81C14C2F84015D3F82014C2F80E
:1006E0004415D3F82414C2F84815D3F82814C2F8D6
:1006F0004C15D3F82C14C2F85015D3F83014C2F8A6
:100700005415D3F83414C2F86015D3F83814C2F86D
:100710006415D3F83C14C2F86815D3F84014C2F835
:100720006C15D3F83411D3F84434C2F87035052968
:1007300042D84D4B5B5C1BB14C4B4D4AC3F88C26E9
:100740004C4B5B5C73B14FF080534B49D3F8302175
:10075000FB20C1F81805082AD3F834117FF473AFD1
:10076000052929D8454B5B5CBBB14FF080524FF057
:100770008040D2F85832D0F8E41ED2F8304121F04F
:100780000F0103F00F030B43C0F8E43E082CD2F82E
:1007900034117FF458AF05290ED8394B5B5C5BB13F
:1007A0004FF08053374AD3F830314FF40071082BA3
:1007B000C2F840167FF447AF4FF08043D3F80024CF
:1007C000D2077FF540AF6FF00102C3F800243AE78B
:1007D000D3F83431052B08D94FF010224FF0804365
:1007E000D2F80822C3F858253FE7274AD35C002BEC
:1007F0003FF43BAFF0E7254A0123C2F80435D2F8B5
:100800000034002BFBD04FF0102312211F4AC3F8F5
:100810000012D2F80034002BFBD04FF0102312212D
:100820001A4AC3F80412D2F80034002BFBD000237C
:100830001649C2F80435D1F80034002BFBD0BFF3C1
:100840004F8F0549124BCA6802F4E0621343CB6034
:10085000BFF34F8F00BFFDE700ED00E00000002078
:100860000090D00300C000404C0900000050004040
:10087000488103004C09000000F000404C090000D2
:100880004C090000009002404409000000E00140D3
:100890000400FA0508B5074B044613B10021AFF375
:1008A0000080054B1868836A03B19847204600F022
:1008B00031F800BF000000005409000070B50D4D74
:1008C0000D4C641BA4100026A64209D10B4D0C4C04
:1008D00000F022F8641BA4100026A64205D170BDCA
:1008E00055F8043B98470136EEE755F8043B984726
:1008F0000136F2E76400002064000020640000205C
:100900006800002002440346934200D1704703F878
:10091000011BF9E7FEE700BFF8B500BFF8BC08BC53
:100920009E467047F8B500BFF8BC08BC9E467047AD
:100930000D0E0F10000003060000000000800040B4
:1009400000040000000000000101000001000000A0
:0C09500000000000040000200000000077
:08095C00E4F8FF7F0100000038
:100964000090D00300000000000000000000000020
:100974000000000000000000000000000000000073
:100984000000000000000000000000000000000063
:100994000000000000000000000000000000000053
:1009A4000000000000000000000000000000000043
:1009B4000000000000000000000000000000000033
:0C09C400000000002502000001020000FD
:04000003000002BD3A
:00000001FF
