:020000022000DC
:1070000000000420BD720200E5720200E772020077
:10701000E9720200EB720200ED7202000000000053
:10702000000000000000000000000000EF720200FD
:10703000F172020000000000F3720200F57202001B
:10704000F7720200F7720200D5D80200F772020050
:10705000F7720200F7720200F7720200F772020084
:10706000F7720200F7720200F7720200F772020074
:10707000F7720200F7720200F7720200F772020064
:10708000F772020021980200F7720200F772020004
:10709000F7720200F7720200D1F30200F7720200E9
:1070A000F7720200F7720200F7720200F772020034
:1070B000F7720200F77202000000000000000000FA
:1070C000F7720200F7720200F7720200F772020014
:1070D000F7720200F7720200F7720200F772020004
:1070E000F7720200F7720200F7720200000000005F
:1070F00000000000F772020000000000F7720200BA
:10710000000000000000000000000000000000007F
:10711000000000000000000000000000000000006F
:10712000000000000000000000000000000000005F
:10713000000000000000000000000000000000004F
:10714000000000000000000000000000000000003F
:10715000000000000000000000000000000000002F
:10716000000000000000000000000000000000001F
:10717000000000000000000000000000000000000F
:1071800000000000000000000000000000000000FF
:1071900000000000000000000000000000000000EF
:1071A00000000000000000000000000000000000DF
:1071B00000000000000000000000000000000000CF
:1071C00000000000000000000000000000000000BF
:1071D00000000000000000000000000000000000AF
:1071E000000000000000000000000000000000009F
:1071F000000000000000000000000000000000008F
:1072000010B5054C237833B9044B13B10448AFF3E0
:1072100000800123237010BD4024002000000000E6
:10722000D021030008B5034B1BB103490348AFF35A
:10723000008008BD0000000044240020D02103008D
:10724000A3F5803A704700BF174B002B08BF134BC4
:107250009D46FFF7F5FF00218B460F461348144A61
:10726000121A08F0A1FA0E4B002B00D098470D4BD4
:10727000002B00D098470020002104000D000D488D
:10728000002802D00C48AFF3008008F05BFA200021
:10729000290007F0ABFC08F041FA00BF000008002D
:1072A0000000000000000000000004204024002036
:1072B000B42F002000000000000000000649074A2B
:1072C000074B9B1A03DD043BC858D050FBDC07F08A
:1072D00033FEFFF7B9FF0000802303006022002087
:1072E00040240020FEE7FEE7FEE7FEE7FEE7FEE7BC
:1072F000FEE7FEE7FEE7FEE7F0B595B0084600249E
:107300000E4617461D4605F0F3FF1A9A0D922346C6
:10731000082205A93046CDE9095408978DF82C407C
:107320000C9406F049F8DDE906219DF814308DF83B
:107330001140CDE9021203F00302012A28D0022AEB
:1073400004D0304605F0D8FF15B0F0BDBDF816509A
:10735000C3F3C203C5F389158DF810300827082D33
:107360002C4628BF08243B4622460EA9304606F08C
:1073700023F82D1B08AB02AA21460EA8274401F0D2
:10738000C1FD002DEBD1304605F0B6FF15B0F0BDC4
:10739000BDF814100598C1F38312C3F3C203C0F300
:1073A0009525C1F383148DF810300EA93046920054
:1073B000082306F001F808AB0093224602AB0EA9A1
:1073C000284601F029FD304605F096FF15B0F0BDC6
:1073D000704700BF00B583B0044B0093044A4023BC
:1073E000FFF78AFF03B05DF804FB00BFF5730200EE
:1073F0006024002038B50F480F4D03780F4CEB5C2C
:107400004FF0000C84F800C0D2B253B1043006F043
:10741000EDFF58B90A4B1B7813B12378002BFCD031
:1074200038BD0C3006F0F4FC0028F3D001F0ECFD80
:10743000F0E700BF60220020842C0020A024002060
:107440005C24002010B51548154A0378D35C88B039
:10745000C3B1043006F012FF124C0FCCEC46ACE87E
:107460000F0094E80F008CE80F0006230B480093F0
:107470000022694606F0F2F940B90B4B00221A705F
:1074800008B010BD0C3006F03DFCE5E701F0BCFD96
:10749000054B00221A7008B010BD00BF602200200A
:1074A000842C002044F902005C240020054A0023BB
:1074B0000428C1E90132CB609CBF034B53F8203054
:1074C0000B6070470CFF020030FF0200C368DB68EE
:1074D00000225A71704700BFC368DB6801225A71ED
:1074E000704700BF10B50F4B0F4CA4EB030E0022EA
:1074F0000E4CCA605FEA1E1EC1E900228C600DD0EE
:1075000003EB0E1EDC6894F804C0BCF1FF0F02D040
:10751000904204D0013210337345F3D110BD9B6803
:107520000B6010BD202303004023030044FF020032
:107530000129034604D08168D1F84811890704D590
:1075400000221146184604F0A1BD10B50549546843
:107550001368054A82B0CDE90014022104F0C0F995
:1075600002B010BD90F9020084F902008368D3F8DC
:1075700048319B0732D42DE9F0471A4C1A4E361B7E
:10758000360982B027D0DFF868A0DFF86890DFF80E
:107590006880074604EB06160EE093F805E0A36842
:1075A000BEF1000F14BFD446CC46CDE900C510345F
:1075B00004F096F9A6420ED0E3681D79FF2D4246ED
:1075C0004FF008013846E8D1A368084A103404F0A7
:1075D00087F9A642F0D102B0BDE8F087002211463B
:1075E00004F054BD2023030040230300BCF9020033
:1075F000A8F90200B0F90200DCF902002DE9F0411F
:10760000104C114D52F8046C2D1B2D09074610D05B
:1076100004EB051502E01034A5420AD0A1683046FB
:1076200008F0CAF80028F6D1E36801225A71BDE8D3
:10763000F08133463846054ABDE8F041022104F0A6
:107640004FB900BF202303004023030000FA0200CB
:107650002DE9F0410F4C104D52F8046C2D1B2D09F3
:1076600007460FD004EB051502E01034A54209D0FF
:10767000A168304608F0A0F80028F6D1E3685871F8
:10768000BDE8F08133463846044ABDE8F0410221A6
:1076900004F026B9202303004023030000FA02006F
:1076A000104A30B4104DA2EB050C00230F4ACB60FA
:1076B0005FEADC0C4B608A6011D00D4C02E00133B4
:1076C0009C4508D034F823209042F8D155F8333047
:1076D0000B6030BC7047002330BC0B6070476346C2
:1076E000F6E700BF18230300802203000CFF02000E
:1076F000A82300202DE9F04FCB68404EDFF82891F9
:107700005B79A6EB090685B08B468046F608002B10
:107710006FD03B4A3B4B0821404604F0E1F83A4A1F
:107720000821404604F0DCF886B3384DDFF8FCA0B1
:10773000B70000240023EA5A94423ED004339F420B
:10774000F9D1D446002335F82320A24245D0013395
:107750009E42F8D1002150468E46002335F8232062
:10776000944216D001339E42F8D18E45CDE900C037
:10777000274A4FF0000304F1010413D9254902916F
:107780004046082104F0ACF8A642D3D105B0BDE8CC
:10779000F08F8E45CDE900C059F833301C4A04F112
:1077A0000104EBD81C4902914046082104F098F8E6
:1077B000B442BFD105B0BDE8F08FDBF80C2017490B
:1077C0005958137903EB4302072393400B40D340EE
:1077D000DBB2134A52F823C0B4E709EBC30393F8B2
:1077E00006E00F4B7146032928BF032153F82100FF
:1077F000B3E70C4A022104F073F88AE71823030068
:1078000040FA020034FA020060FA0200A8230020C5
:10781000A0FA0200B8FA0200FCF90200F4230020EA
:107820001CFF020020FA02008022030018FA020066
:107830008C461346C1686246FFF75CBF2DE9F047EE
:10784000124C134D52F8049C2D1B2D09074615D0E0
:107850001646884604EB051502E01034A5420DD00B
:10786000A168484607F0A8FF0028F6D133464246F3
:1078700021463846BDE8F047FFF73CBF4B46384647
:10788000044ABDE8F047022104F02AB8202303008F
:107890004023030000FA020002B970472DE9F04FBF
:1078A0001F46CB687C4993F804B085B006469046E5
:1078B0003868072207F092FF00286BD1B8F1010F5A
:1078C00000F0DC80754D044655F8041B78680A22E8
:1078D00007F084FF58B10134052CF5D17B68704A5C
:1078E0000221304605B0BDE8F04F03F0F9BFE3B226
:1078F000B8F1020F019340F0BE806A4D6A4B5B1BEA
:10790000DB0844D00BEB4B0B04FA0BF405EBC3097B
:1079100007233046654FDFF8A481DFF898A126469B
:1079200003FA0BFB019C0CE02B6801900221083547
:1079300003F0D6FFA945019807F1040708F10408F0
:1079400025D0AB79A3425246EED33A6882EA0603C9
:1079500003EA0B035340C3F3C202C3F382118A420A
:1079600038BF0A4603F007018A423B6038BF0A4627
:10797000C3F34223934205F1080538BF1346A945D6
:10798000A8F8023007F1040708F10408D9D105B0BE
:10799000BDE8F08F46493868082207F01FFF00282D
:1079A00076D1B8F1010F044670D04FF00109019073
:1079B000C145ECD20BEB4B0B04FA0BF3039309F12B
:1079C0008043013B374C384D07EB830707232D1BC2
:1079D00003FA0BF3ED08029357F804AF1DB34FF011
:1079E000000B03E00BF1010B5D451AD0202254F887
:1079F0003B00514607F0F2FE04EBCB020028F1D128
:107A00009179019B994215D213682A4A0221304686
:107A100003F066FF09F10109C845DDD105B0BDE8F5
:107A2000F08FD7F800A0244A53460221304603F0D5
:107A300057FFEFE71D4B039A53F82B00029B1F499A
:107A400042401A40194B4240C2F3821043F82B20A7
:107A5000C2F3C203834238BF034602F007008342E9
:107A6000C2F3422238BF034601EB8B019A4238BF72
:107A70001A464A80CEE74FF0020999E7104A0221E0
:107A8000304605B0BDE8F04F03F02ABF019034E75F
:107A90003B680C4A24E700BFBCFA02001CFF02004E
:107AA00034FB02008022030018230300F42300208B
:107AB000DCFA0200FCFA020020FB0200A8230020EE
:107AC000C4FA0200E4FA02008C461346C16862461A
:107AD000FFF7E2BE2DE9F047124C134D52F8049C1B
:107AE0002D1B2D09074615D01646884604EB0515B3
:107AF00002E01034A5420DD0A168484607F05CFEB4
:107B00000028F6D13346424621463846BDE8F047C4
:107B1000FFF7C2BE4B463846044ABDE8F047022193
:107B200003F0DEBE202303004023030000FA02001E
:107B30002DE9F84F1F4B204800221A7005F08CFBEE
:107B4000824610B15046BDE8F88FDFF880801B4EAA
:107B50001B48A6EB080605F0D7FDF608F2D0DFF8C3
:107B600068B0554600273C4608EBC509A5424FF0D2
:107B7000140208D058F83410D9F8000007F02EFE8F
:107B80000028C8BF01370134A642EFD12BF8257079
:107B90000135AE42E6D10B4B0B4A03EB86060021C2
:107BA00043F8041BB342518002F10402F8D150465D
:107BB000BDE8F88F7425002040230300182303003C
:107BC00000FF0200F4230020A823002080220300ED
:107BD00030B499B10D490E4D491BC90813D00D4C55
:107BE000002302E0013399420AD034F82320824274
:107BF000F8D1184655F8300030BC7047044DF9E70D
:107C0000002030BC70470846F6E700BF1823030089
:107C100080220300A8230020094B013903EBC00098
:107C200003290BD8DFE801F004020806042070479E
:107C300002207047407970470079704700207047F4
:107C400080220300704700BF2DE9F04FBC4CD4E9FF
:107C500001239A4289B05BD00023C4F81834BFF3E3
:107C60004F8FA368D9B2CA1C04EB820514F82220F6
:107C7000560718D566682A7802F00302012A3DD01B
:107C8000022A03D16A88023303EB9213D9B2D4F8E3
:107C90001804CA1C04EB820528B99E4234D914F892
:107CA00022205007E7D404EB81015A1CD2B2C968E4
:107CB00004EB820201F00300D2680228CDE902122F
:107CC00003F1020728D0012800F07481D4F8105481
:107CD0003DB12B6828469B689847EB681D68002DCE
:107CE000F7D1984B5B88012B00F29780D4E90130E3
:107CF000C01A18BF012009B0BDE8F08F2A880233EE
:107D0000C2F383121344C1E7A66009B0BDE8F08F47
:107D1000002009B0BDE8F08FBDF80A308A489DF810
:107D20000860C3F389194D46502D28BF502505F131
:107D3000080165F38F13C1F30901ADF80A3005F0AE
:107D40008DFAC6F3C20680460028BFD005F0D0FAEF
:107D5000082200230DEB0201404605F0F9FAFB432F
:107D6000DBB20133B5EB830F4FEA830240F25E8151
:107D7000F9B25FFA82FA033104EB8101404608232D
:107D8000A5EB0A0505F0E4FAEDB20AF108036F4924
:107D900003F0FC032A46404605F0DAFA09F103092C
:107DA00007EB9907D4F81834002B40F04981D4F838
:107DB000105405B3DFF8A8A14FF00709EB685A7912
:107DC000B2B11A7902EB4201BDF80C205AF8220038
:107DD00009FA01F2052E02EA000208BF0326CA4092
:107DE000964205D82B6828461B6841469847EB68A1
:107DF0001D68002DE2D1404605F07EFA002305A85B
:107E00008DF8143001F056FBD4F8183403B9A7608C
:107E10009DF8140001F074FB68E74D4A4D4F0023B4
:107E20000DF10700BF1A8DF8073001F043FBD4E9CC
:107E3000019303F58073A3EB0903012B4FEAD707E6
:107E400000F20281444DA5F10408A5F108060121C4
:107E5000284603F0A7F8404603F0C8F8304603F080
:107E6000C5F8A368DAB2D11C04EB810C14F8211018
:107E700001F00400490710D59CF8001001F003013F
:107E8000012900F08880022903F1020E76D002F168
:107E9000030C04EB8C0C0028EED104EB82015A1C7D
:107EA000C9680591D2B201F0030004EB82020128F7
:107EB000D16803F1020B75D002285CD1BDF81630F1
:107EC000C3F3891303334FEA114A0BEB930B30468C
:107ED00003F098F808B1C4F808B05146284603F0FA
:107EE00061F8A368626803F580739B1A012BAED911
:107EF000D3B20333023205219DF8070044F8231062
:107F0000626001F0FDFA0021134803F035F880F3B8
:107F10001000124A09F10101C9B25FFA89F3033373
:107F200004EB8101BFB2920247EA004742F011021E
:107F3000CF6044F823202378A3B9FFF783FED5E66A
:107F400074250020B4230020402303008025002056
:107F500080220300982203009029002054FB020095
:107F6000F4230020FFF770FE0028E6D0FFF76CFE38
:107F70000028F7D1E1E74FF0000AA8E7BCF802308B
:107F80000EEB9313DAB2D11C04EB810C14F8211020
:107F900001F004007FE7BCF800200233C2F3831233
:107FA0001344EFE7BDF81430C3F383134FEA114ACB
:107FB0009B448CE7BDF808602448C6F38313062B66
:107FC00028BF062363F38916023303F00F018900EB
:107FD000ADF8086005F042F9C6F3C20680460028F5
:107FE0003FF474AE05F084F9082200230DEB020182
:107FF000404605F0ADF9BDF8083013F4707F3FF44A
:10800000D1AE0025F9B2AB000331083304EB810196
:108010000422404605F09CF9BDF808300135C3F351
:108020008313AB4207F10107ECD8BBE6F9B2033189
:108030002A4604EB81010823404605F089F9ADE6A4
:10804000404605F059F951E64A4651E740230300FE
:108050002DE9F04F89B0DFF8B4B103930646002351
:108060000DF113008DF81330CDE9011201F022FA61
:10807000DBF80830DBF8047003F58073DB1B042B9E
:1080800078D80BF21C450BF583680BF2144419E009
:10809000BDF81630C3F3891303334FEA114A09EBD5
:1080A0009309204602F0AEFF514608B1CBF8089084
:1080B000284602F077FFDBE9012303F580739B1A62
:1080C000042B58D80121284602F06CFF404602F0EC
:1080D0008DFF204602F08AFFDBF80830DAB2D11CAF
:1080E0000BEB810C1BF8211001F00400490721D48F
:1080F0000BEB820203F10209D26805920133DBB275
:108100000BEB830302F00302012AD9682AD0022A6A
:10811000BED04FF0000AC4E7BCF802300EEB931358
:10812000DAB2D11C0BEB810C1BF8210000F004002B
:108130000028DDD09CF8001001F0030101290AD0CD
:10814000022903F1020E02F10301E5D00BEB810CD1
:108150000028EFD1CCE7BCF800200233C2F3831231
:108160001344DDE7BDF81430C3F383134FEA114A1B
:10817000994496E73A46D3B203330532C5219DF8B8
:1081800013004BF82310CBF8042001F0B9F9BB1C05
:10819000DBB20BEB8303029ADA60FB1CDBB20BEB66
:1081A0008303039ADA603B1DDBB20BEB8303129A65
:1081B000DA600021144802F0DFFE80F31001F200C3
:1081C000019B02F0380242F0C102781C42EA83228D
:1081D000C0B2FBB2033309040BEB800041EA164145
:1081E000C1604BF823209BF8003023B9FFF72AFD2C
:1081F00009B0BDE8F08FFFF727FD0028F6D0FFF7A4
:1082000023FD0028F7D1F1E79029002074250020F4
:108210002DE9F04FDFF8BCB189B0002406460DF11E
:1082200013000393CDE901128DF8134001F042F9D8
:10823000DBF80830DBF8047003F58073DB1B032BDD
:1082400000F281800BF21C450BF583680BF214449D
:108250001AE0BDF81630C3F3891303334FEA11490E
:108260000AEB930A204602F0CDFE494600283AD098
:108270002846CBF808A002F095FEDBE9012303F5C0
:1082800080739B1A032B5FD80121284602F08AFED7
:10829000404602F0ABFE204602F0A8FEDBF80830B4
:1082A000DAB2D11C0BEB810C1BF8211001F0040099
:1082B000490728D40BEB82015A1CC9680591D2B238
:1082C00001F003000BEB82020128D16803F1020ADE
:1082D00031D00228BDD0204602F094FE4FF00009B4
:1082E00049460028C4D12846C5E7BCF802300EEB49
:1082F0009313DAB2D11C0BEB810C1BF8210000F0B8
:1083000004000028D6D09CF8001001F003010129D8
:108310000AD0022903F1020E02F10301E5D00BEBB2
:10832000810C0028EFD1C5E7BCF800200233C2F36E
:1083300083121344DDE7BDF81430C3F383134FEA0F
:1083400011499A448EE73A46D3B203330432852169
:108350009DF813004BF82310CBF8042001F0D0F85F
:10836000BB1CDBB20BEB8303029ADA60FB1CDBB2B3
:108370000BEB8303039ADA600021154802F0FCFD41
:1083800080F31001F300019A03F0380343F08103F6
:10839000781C43EA8223C0B2FAB209040BEB8000D6
:1083A000033241EA1641C1604BF822309BF800309D
:1083B00023B9FFF747FC09B0BDE8F08FFFF744FC95
:1083C0000028F6D0FFF740FC0028F7D1F1E700BF06
:1083D00090290020742500202DE9F04FDFF8B0B17E
:1083E00087B0002306460DF10B008DF80B30CDE968
:1083F000001201F05FF8DBE9018303F58073A3EB62
:108400000803022B00F281800BF21C450BF58367F9
:108410000BF214441AE0BDF80E20C2F389120332A5
:108420004FEA114A09EB9209204602F0EBFD514652
:1084300000283AD02846CBF8089002F0B3FDDBE9DB
:10844000012303F580739B1A022B5FD80121284674
:1084500002F0A8FD384602F0C9FD204602F0C6FD34
:10846000DBF80830DAB2D11C0BEB810C1BF82110C1
:1084700001F00400490728D40BEB82015A1CC9689B
:108480000391D2B201F003000BEB82020128D16804
:1084900003F1020931D00228BDD0204602F0B2FD1E
:1084A0004FF0000A51460028C4D12846C5E7BCF861
:1084B00002300EEB9313DAB2D11C0BEB810C1BF8DC
:1084C000211001F004000028D6D09CF8001001F023
:1084D000030101290AD0022903F1020E02F103016E
:1084E000E5D00BEB810C0028EFD1C5E7BCF80020EC
:1084F0000233C2F383121344DDE7BDF80C20C2F34C
:1085000083124FEA114A91448EE74246D3B20333B5
:10851000033245219DF80B004BF82310CBF80420C3
:1085200000F0EEFF08F10203DBB20BEB8303019ACC
:10853000DA600021154802F01FFD80F31001F300FE
:10854000009A03F0380343F0410308F1010043EAC5
:108550008223C0B25FFA88F209040BEB8000033279
:1085600041EA1641C1604BF822309BF8003023B934
:10857000FFF768FB07B0BDE8F08FFFF765FB002849
:10858000F6D0FFF761FB0028F7D1F1E79029002032
:10859000742500202DE9F04FDFF8A0A187B000235B
:1085A00006460DF10B008DF80B30019100F082FFB3
:1085B000DAE9018303F58073A3EB0803012B00F2D2
:1085C00081800AF21C450AF583670AF214441AE016
:1085D000BDF80E30C3F3891303334FEA11490BEB97
:1085E000930B204602F00EFD494600283AD028465B
:1085F000CAF808B002F0D6FCDAE9012303F580736B
:108600009B1A012B5FD80121284602F0CBFC38468B
:1086100002F0ECFC204602F0E9FCDAF80830DAB2AD
:10862000D11C0AEB810C1AF8211001F00400490753
:1086300028D40AEB82015A1CC9680391D2B201F016
:1086400003000AEB82020128D16803F1020B31D04A
:108650000228BDD0204602F0D5FC4FF00009494663
:108660000028C4D12846C5E7BCF802300EEB9313AE
:10867000DAB2D11C0AEB810C1AF8211001F00400C7
:108680000028D6D09CF8001001F0030101290AD07F
:10869000022903F1020E02F10301E5D00AEB810C7D
:1086A0000028EFD1C5E7BCF800200233C2F38312E3
:1086B0001344DDE7BDF80C30C3F383134FEA1149CF
:1086C0009B448EE74246D3B20333023205219DF824
:1086D0000B004AF82310CAF8042000F011FF002113
:1086E000154802F049FC80F31001F300019A03F0F1
:1086F000380343F0010308F1010043EA8223C0B2CA
:108700005FFA88F209040AEB8000033241EA16415D
:10871000C1604AF822309AF8003023B9FFF792FA84
:1087200007B0BDE8F08FFFF78FFA0028F6D0FFF70B
:108730008BFA0028F7D1F1E790290020742500205A
:108740002DE9F04F8368D3F8482194078DB0C2F328
:10875000400539D4044604AB06AA43F2274141F24E
:108760006E00CDE9075506950495059502F016FAB9
:1087700078B148F20963984203D1764B5B88012BAC
:1087800029D8754A022120460DB0BDE8F04F03F00C
:10879000A7B8CDE9090009A906A801F0FFFE002845
:1087A000EFD16E486E4A0A99121A06F0EFFF06A83A
:1087B00001F040FF0028E4D16A4A082120460DB0AC
:1087C000BDE8F04F03F08CB8002211460DB0BDE8B3
:1087D000F04F03F05BBC644B644ADFF89CA18DF85A
:1087E0000F50A3EB02084FEAD8030DF10F000193DD
:1087F00000F060FEDAE9017303F58073DB1B012BE7
:108800007AD80AF21C460AF583690AF214451BE07D
:10881000BDF82620C2F3891203324FEA114B08EB50
:108820009208284602F0EEFB08B1CAF808805946C3
:10883000304602F0B7FBDAF80830DAF8042003F526
:1088400080739B1A012B58D80121304602F0AAFBF5
:10885000484602F0CBFB284602F0C8FBDAF80830A5
:10886000DAB2D11C0AEB810C1AF8211001F00400D5
:10887000490721D40AEB82015A1CC9680991D2B276
:1088800001F003000AEB82020128D16803F102081B
:108890002AD00228BCD04FF0000BC2E7BCF802304F
:1088A0000EEB9313DAB2D11C0AEB810C1AF82110EB
:1088B00001F004000028DDD09CF8001001F0030155
:1088C00001290AD0022903F1020E02F10301E5D0C9
:1088D0000AEB810C0028EFD1CCE7BCF80020023372
:1088E000C2F383121344DDE7BDF82420C2F38312E0
:1088F0004FEA114B904494E73A46D3B20333023225
:1089000005219DF80F004AF82310CAF8042000F052
:10891000F7FD0021164802F02FFB80F31000BDF890
:108920000480144A7B1C48EA0041DBB2F8B20AEB2F
:1089300083030330920242F01102D9604AF82020EA
:108940009AF800301BB1FFF77FF90028FBD1FFF741
:1089500079F916E7B4230020A8FB0200F4230020D5
:108960004024002090FB0200982203008022030094
:108970009029002068FB02007425002038B5084BC0
:10898000D3F8104401251D704CB1E3685D71236874
:1089900020465B689847E3681C68002CF5D138BD19
:1089A000742500202DE9F04FC44BC54AC5488FB04F
:1089B000D21A9208002709930A92089003AB05AADD
:1089C00043F2274141F26E00CDE90577CDE9037707
:1089D000079702F0E3F80646002800F0B88048F256
:1089E0000963984204D0032528460FB0BDE8F08FF4
:1089F00008A905A801F048FEB34B5B88022B054689
:108A0000F2D9B24BB24AB34C8DF80B70A3EB02090A
:108A10004FEAD9030DF10B00019300F04BFDD4E9AF
:108A2000018303F58073A3EB0803022B00F28C8112
:108A300004F21C4704F5836A04F214460121384607
:108A400002F0B0FA504602F0D1FA304602F0CEFA07
:108A5000A368DAB2D11C04EB810014F8211001F0F4
:108A6000040C490710D5017801F00301012900F039
:108A70000F81022903F1020E00F0FE80D01C04EBEE
:108A80008000BCF1000FEED104EB820203F1020B77
:108A9000D2680B920133DBB204EB830302F00302D2
:108AA000012AD96800F00281022A40F0E280BDF874
:108AB0002E30C3F3891303334FEA11490BEB930BA9
:108AC000304602F09FFA08B1C4F808B0494638466B
:108AD00002F068FAA368626803F580739B1A022BA0
:108AE000ACD9D3B20333033245219DF80B0044F8CF
:108AF0002310626000F004FD08F10203DBB204EB16
:108B000083030021DD60744802F036FA80F3100020
:108B1000BDF80490714A08F1010349EA0041DBB253
:108B20005FFA88F004EB83030330920242F05902AB
:108B3000D96044F8202023781BB1FFF785F800287E
:108B4000FBD1FFF77FF828460FB0BDE8F08F08A9EA
:108B500005A801F067FE5C4B5B88022B05467FF69B
:108B600043AF5A4B5A4A5B4C8DF80B60A3EB02099A
:108B70004FEAD9030DF10B00019300F09BFCD4E9FF
:108B8000018303F58073A3EB0803022B00F2A88096
:108B900004F21C4704F5836A04F214461AE0BDF897
:108BA0002E30C3F3891303334FEA114B09EB9309BA
:108BB000304602F027FA08B1C4F808905946384602
:108BC00002F0F0F9A368626803F580739B1A022B28
:108BD00000F287800121384602F0E4F9504602F0A5
:108BE00005FA304602F002FAA268D1B2CB1C04EBBF
:108BF000830C14F8233003F004005B0721D404EB4A
:108C00008101531CC9680B91DBB201F0030004EB36
:108C100083030128D96802F102093FD00228BED09F
:108C20004FF0000BC4E7BCF802200EEB9212D1B259
:108C3000CB1C04EB830C14F8233003F00400002851
:108C4000DDD09CF8003003F00303012B0AD0022B87
:108C500002F1020E01F10303E5D004EB830C0028BE
:108C6000EFD1CCE7BCF800300232C3F383131A44CF
:108C7000DDE74FF0000923E743880EEB9313DAB2E8
:108C8000D11C04EB810014F8211001F0040CF8E66B
:108C900002880233C2F383121344F0E7BDF82C308C
:108CA000C3F383134FEA114B994481E7BDF82C308D
:108CB000C3F383134FEA11499B4401E7F4230020D7
:108CC000402400206E102734B42300209822030093
:108CD00080220300742500209029002000FC02005F
:108CE0004246D3B20333033245219DF80B0044F8CA
:108CF0002310626000F004FC08F10203DBB204EB15
:108D000083030021DD60114802F036F980F3100082
:108D1000BDF804900E4A08F1010349EA0041DBB2B4
:108D20005FFA88F004EB83030330920242F05902A9
:108D3000D96044F820202378002B3FF402AFFEF7DF
:108D400083FF0028FBD1FCE64246CAE690290020BA
:108D5000CCFB02008368D3F848319B0712D410B5CE
:108D60000446FFF71FFE30B92046084ABDE8104010
:108D7000082102F0B5BD2046054ABDE81040022199
:108D800002F0AEBD0022114603F080B934FC0200AF
:108D90004CFC020030B5C38885B004460D4623BBA9
:108DA000237A052B1FD0627A82B9144AA08852F820
:108DB000232003920021FEF70BFF039A104903467C
:108DC000284605B0BDE8304003F0FCBA1946A0883B
:108DD000FEF722FF0B4B0C4953F82020284603F0E6
:108DE000F1FA237AE1E705B030BD08490091084A5D
:108DF0000849284603F0E6FAD2E700BF3401030031
:108E0000B800030010010300B4000300AC0003002D
:108E10008C000300940003002DE9F04385B01D464B
:108E20000C9C002394F80C90237380460E46174642
:108E300021462846FFF7AEFF062F09D8DFE807F0E6
:108E4000042E343B444F1F004146204603F0BAFA3B
:108E50002B7A052B05D06B7A5BB92749204603F0A6
:108E6000B1FA204603F0A2FA84F80C9005B0BDE8F0
:108E7000F083224A2249204603F0A4FAEDE7736901
:108E8000039333690293F3680193B3680093D6E9BF
:108E900000234146204603F095FAD9E7326841465F
:108EA000204603F08FFAD3E7D6E900234146204657
:108EB00003F088FACCE7B3680093D6E90023414673
:108EC000204603F07FFAC3E7F3680193B368009389
:108ED000D6E900234146204603F074FAB8E7336927
:108EE0000293F3680193B3680093D6E900234146E7
:108EF000204603F067FAABE7D8F90200AC000300A4
:108F0000B4000300082900D970472DE9F04F1D4631
:108F100083B000241B7B2C730E460746294610465F
:108F200090460193DFF8D0B0DFF8D0A0FFF732FF12
:108F300005E03A5D013403F045FA082C09D0A64259
:108F400051462846F5D85946013403F03BFA082C1F
:108F5000F5D12449DFF8A8B0234CDFF8A8A02846B3
:108F600003F030FA4FF0000917E017F80910481C19
:108F70007E294FF02E02C0B206D810F80A2012F057
:108F8000970F14BF0A462E222146284609F10109EF
:108F900003F018FAB9F1080F0AD04E45E5D8594642
:108FA000284609F1010903F00DFAB9F1080FF4D1CF
:108FB00098F80830052B02D098F809305BB90B49B6
:108FC000284603F0FFF9284603F0F0F9019B2B73C4
:108FD00003B0BDE8F08F064A0649284603F0F2F9CF
:108FE000EDE700BFD0000300D4000300D8F9020071
:108FF000AC000300B4000300CC000300C400030075
:10900000C0000300C820030000B585B0034600215E
:1090100001AA44F20100CDE90111039300F004F824
:1090200005B05DF804FB00BF70B572B6FFF7A6FC93
:10903000FEF70AFE0028FBD1194D6B88FBB9194BCE
:10904000D3F8F030DB070DD5174C184E00BE6B88F7
:10905000012B07D9A01BC0080004154940F00200ED
:10906000FFF798FABFF34F8F0E49124BCA6802F40C
:10907000E0621343CB60BFF34F8F00BFFDE70A4CA4
:109080000A4E0D49A01BC008000440F00100FFF784
:1090900081FA044BD3F8F030DA07D8D5D6E700BF11
:1090A000B423002000ED00E098220300802203009A
:1090B000540103000400FA054801030030B48D6830
:1090C0008468C368CA68A54272EB03032CBF012001
:1090D000002030BC704700BF10B5044682B00023AA
:1090E0000DF107008DF8073000F0E4F923692BB982
:1090F0004FF0FF324FF0FF33C4E902239DF8070021
:1091000000F0FEF9D4E90530984700230DF107007F
:109110008DF8073000F0CEF92369BBB1D4E9021213
:10912000B2F1FF3F08BFB1F1FF3F0FD05B1842F132
:109130000002C4E902329DF8070000F0E1F9074897
:10914000214604F005FB012002B010BD9DF8070088
:1091500000F0D6F9002002B010BD00BF8801030066
:109160002DE9F04F2DED028B83B008EE100A00F0D0
:1091700027FB40B1AC4AD2E9003113F1807341F1D1
:109180000001C2E9003118EE100A002100F034FBA2
:10919000A64D60B32B6853B3A54B2C681B7823B343
:1091A0001CB3A44800F038FB9F4BA34A19685B68C6
:1091B0004018D2E9001243F10003884273EB020227
:1091C00003D210F1807043F10003D4E90212884207
:1091D000934180F02581B2F1FF3F08BFB1F1FF3F1D
:1091E00003D09648214604F0B3FA00232B6018EE12
:1091F000100A012100F000FB002840F0F1809048A7
:1092000001A901F077FE00283AD08D4C4FF0FF38CD
:109210004FF0FF3909E033B301A9204601F09CFE6D
:1092200001A9204601F066FE50B30378012B11D04E
:10923000022BF0D1814E304604F09EFA30B1C0E9E5
:109240000289304604F098FA0028F8D1784B0122C0
:109250001A70E1E72B684168994200F0B5807748C1
:1092600004F094FAD8E74168D1E90223B3F1FF3F53
:1092700008BFB2F1FF3FCFD0704804F069FACBE7E6
:109280006E4FDFF8B081DFF8A091384604F07AFA2B
:10929000002852D0D0E90223B3F1FF3F08BFB2F15A
:1092A000FF3F00F08D80296891B12968D1E9020162
:1092B00082428B4144D22B68D3E90223B3F1FF3FB2
:1092C00008BFB2F1FF3F03D02968384604F040FAE6
:1092D000384604F051FA04464046574ED4E902BAE3
:1092E00000F09AFAD9E900133268401843F10003FC
:1092F0009042726873EB020203D210F1807043F166
:109300000003BBEB00006AEB0303012873F10003C9
:1093100024DBB0F5350F4DD25A464FF496030021A9
:10932000404600F0C7F980B10D281BD00023384615
:109330002B6004F027FA0028ACD12B68002B66D0F4
:1093400003B0BDEC028BBDE8F08F2B68002B3ED044
:109350002C6003B0BDEC028BBDE8F08F00214046CD
:1093600000F03EFA324B1B78002BDFD0404600F075
:1093700053FAD9F80030D6E90012C018D9F80430F1
:1093800043F10003884273EB020203D210F18070B4
:1093900043F10003D4E90212884293411CD2B2F196
:1093A000FF3F08BFB1F1FF3FC0D02146384604F06F
:1093B000CFF9BBE7404600F02FFA224A0244ACE75F
:1093C000384604F0D9F960E700232B6024E718EE53
:1093D000100A00F03DF9BBE72046FFF77DFEA5E748
:1093E0001448154E00F018FA0F4B1A685B68801885
:1093F000D6E9001243F10003884273EB020203D264
:1094000010F1807043F10003C6E90003F7E618EE9F
:10941000100A03B0BDEC028BBDE8F04F00F01CB9A0
:109420002046FFF759FEE0E6302A0020A02A00205F
:10943000382A002090220020982A0020880103006A
:109440007C220020FFFFB40010B5134B13491C68A9
:10945000134882B008235822019401F0CFFC04463F
:1094600010B1204602B010BD0E4A0F4801A900F00D
:109470007DF804460028F4D10B48012100F096F94C
:1094800001231946094A084800F0EAF8084B01226E
:1094900020461A7002B010BD840103003C2A00204F
:1094A0007C2200206191020090220020FFFF7F00BB
:1094B000382A002070B4EFF3108472B60D4B9A680E
:1094C000AAB9012199600C490C4ED1F88050354061
:1094D0001D60C1F88060D1F884505D604FF0FF33AB
:1094E000C1F88430027004B962B670BC70470123C1
:1094F0000370F8E7A42A002000E100E0FC06FFBDAD
:10950000094B9A687AB170B910B4EFF3108172B652
:10951000064A1C6814605C685460986001B962B6C1
:109520005DF8044B70477047A42A002000E100E07A
:109530000346BAB11088A1B119445A1E013912F874
:10954000013F40BA80B25840C0F30313584080EA4C
:109550000033580100F4FF509BB2914280EA0300AF
:10956000EDD170474FF6FF70E5E700BF10B52F4C07
:10957000437944F823202E4C04EBC3031B79002BC2
:1095800041D103680A88C3F8082590F904308A7825
:10959000002B24DB03F16043520103F56143D2B297
:1095A00083F8002390F90430002B09DB21494FEAAE
:1095B000531C012203F01F0302FA03F341F82C307D
:1095C00043791D4A44F8330004EBC30153884FF03C
:1095D000010C022B81F804C009D8002010BD1749E6
:1095E00003F00F0352011944D2B20A76DAE7144BA2
:1095F00014481549C01AC008000440F00300FEF7E3
:10960000C9FF002010BD0C4B5B88012B01D808203E
:1096100010BD0B4B0B480D49C01AC008000440F0A8
:109620000200FEF7B7FF082010BD00BFB82A0020D7
:10963000B02A002000E100E0B8230020FCEC00E0AC
:1096400080220300A0220300B8010300940103005C
:10965000036801221A607047036801225A6070474C
:1096600070B405684FF480348C40C5F80843056831
:1096700001F1500CC5F848434FEA8C0C05681FFAFD
:109680008CFC002645F80C6083B055F80C50019511
:10969000019D056801F5A87122F07F4245F821205F
:1096A0000268C2F8444313B10368C3F8044303B02B
:1096B00070BC70472DE9F0474FF4803622F07F47A9
:1096C00002688E40C2F848630268C2F80863026804
:1096D00002EB810C044601F15005D2F80405DCF8D8
:1096E0004025CCF84005AD00ADB2121A20684FF00D
:1096F000000840F8058082B04059009022F07F4277
:10970000012A00988A46994641D02268D2F8045529
:10971000C2F844637A1B22F07F42012A0AF5A8713D
:1097200025D0236843F821702068D0F804557B1BAE
:10973000C9F1FF12013B02F57F4223F07F439A42B9
:1097400011D343B1C0F8446323680020C3F8046315
:1097500002B0BDE8F087013740F821702068D0F8EA
:1097600004359D42EED00D2002B0BDE8F08723689D
:10977000013743F821700C4B4FF4806043F0010334
:1097800098472068D0F804359D42DBD0EBE7064AC5
:109790004FF4806042F001029047226842F8058051
:1097A00052590192019AB0E7D001030002680223E6
:1097B000C2F8443311B10268C2F80433704700BFE5
:1097C0000368D3F8040100B97047002282B0C3F8DF
:1097D0000421D3F804310193019B012002B07047AA
:1097E00002684FF4803303FA01F1C2F848130368AA
:1097F000C3F80813704700BF50318900036889B26D
:10980000585800B9704700225A5082B05B580193F3
:10981000019B012002B070470368D3F8040570472C
:10982000024A034B10681B68184700BFB02A00208B
:10983000B82A00200223F0B50B8000F5805E0830C6
:1098400082B32A4D4FF6FF740126036801331FD0FF
:10985000478807F1030C00EB8C0CE6451CD383888A
:10986000A34216D00388A3B18368B3F1FF3F10D0A1
:10987000D5F800C09C4501D22B6047880B88033384
:109880003B440B804388033300EB83008645DCD8E0
:10989000F0BD16704788F1E7012313704FF4806321
:1098A0000B80F0BD114D4FF6FF7403680133EFD00C
:1098B0004388DA1C00EB82029645EFD38288A242ED
:1098C00009D002883AB18268561C04D02E68B24290
:1098D00084BF2A6043880A88033213440B8043887C
:1098E000033300EB83008645DFD8F0BDF42A002067
:1098F0002DE9F041436888461BB1334AD468A3423E
:109900003CD2324E0023A8F800307268012702F5DD
:10991000805C4FF6FF75083294450DD8022FA8F8E9
:10992000007006F114064CD0726802F5805C0832B3
:1099300094454FF00207F1D913680133EED05388F4
:10994000033302EB83039C45E8D3B2F804E0AE4551
:1099500009D014883CB19468611C04D00168A1420C
:1099600005D01A46D8E79C45D8D91A46E4E7184BE3
:1099700042601B8903810120BDE8F0811269934296
:10998000BFD813F00305BCD1114A0489128994424F
:10999000B7D104689A689442B3D10C4842689342A4
:1099A00003D902F58052934207D38269934208D9C2
:1099B00002F58052934204D20125A8F800500120FC
:1099C000DAE70020D8E700BF94230020FC2A00201B
:1099D000E02A00202DE9F04F9B4F8BB004464FF654
:1099E000FF783E68002E00F0BA803278531E052BB7
:1099F00000F26E82DFE803F058212103033E002CC1
:109A000040F0B4803379012B00F0B682022B00F0D5
:109A1000C580002B00F08E8205AD0594C5E9024497
:109A20002C6148F20E6406943378023B042B49D82B
:109A3000DFE803F0897569624500B6F814A0002CD0
:109A400040F05682814D0AEB8A0305EB83034FEA0F
:109A50008A091C895B6803EB8404B37D062B00F242
:109A60002C84DFE813F07901660199018801450132
:109A70002E010901002C79D1DFF8F0C19CF80C30DF
:109A8000002B00F0AA809CF800308CF80C40013BC1
:109A9000062B00F21D82DFE813F01903D502C20184
:109AA000AE011B0205039A01002C40F01A823379A3
:109AB000032B00F28780DFE803F0BA63789F052369
:109AC0008DF81430624C04F1100654F8043B28461B
:109AD00003B19847A642F8D15E495F4800243C6034
:109AE00001F03AFA5D48012101F068FA00287FF49C
:109AF00078AF0BB0BDE8F08F04238DF81430F388F5
:109B0000ADF82030DEE703238DF81430F388ADF88C
:109B100020303389ADF82230F3680793D2E702236F
:109B20008DF814303389ADF82030B388ADF8223089
:109B3000F3680793B37DA3F10603B3FA83F35B09DC
:109B40008DF82430BEE701238DF814303389ADF849
:109B50002030B388ADF82230F3680793B2E73D496F
:109B60003D4801F0C7F9064638603EE74FF4064429
:109B700005AD0023C5E90033C5E902332B6152E787
:109B8000324D2B78022B00F07C832B7D022B00F0D2
:109B90008883334B01221A7000225A6005AD0024DD
:109BA0000594C5E902442C613DE72E4A2E48022166
:109BB0000023337191801168012203F089F8002895
:109BC00097D03E68264A05AD002305935360C5E94A
:109BD00002332B6148F20D6425E79CF80030072B17
:109BE00000F2A282DFE813F0B602A002A002D102C6
:109BF000ED02F300F3009A021A4C1C4B21681A483C
:109C00000022327100925D8805EB85030F4D05F847
:109C1000232005EB8305A3882B816B682360022337
:109C2000A380134A6960082302F090FFC7E701236D
:109C30000C493371002309680E4A00930A4808232F
:109C400002F084FFBBE700BFF82A0020FC2A0020B6
:109C5000C82A0020F02A002098220020B02B0020E3
:109C6000D82A0020B42B002094230020E02A0020D2
:109C7000EC010300F4010300324641F61D5409EBE8
:109C80000A0105EB8101F3880889033303440B8142
:109C9000D144F38805EB89051646C3F57F436A89ED
:109CA000FD3313446B8105AD41F61D5200239442F0
:109CB000059308BF1C46C5E902332B613FF4B3AEE0
:109CC000C0E2A54BA54A5968A54BA6481C880623A7
:109CD000B37500230093042302F038FF10BB04EB9C
:109CE000840305EB830501232B740BB0BDE8F08FD3
:109CF0009948B3699A4903604FF0000BC0F804B06B
:109D0000FFF7F6FD002800F0AF820223B3750423AD
:109D10009448CDF800B02146F21802F017FF002851
:109D20003FF4E7AEB37D3A68022B48F20D64AFD939
:109D3000A5E7032A0CBF05230623B3750023009370
:109D40008848211D042306F1080202F0FFFE0028C6
:109D5000E8D10BB0BDE8F08F0223B3750023009368
:109D6000042380482146F21802F0F0FE0028D9D1E1
:109D70000BB0BDE8F08FF38832690120B075002088
:109D8000009004F10C0177489B0002F0DFFE0028F0
:109D9000C8D10BB0BDE8F08F33697248002B14BFF7
:109DA00003230123B3750023009304F10801042366
:109DB00006F10C0202F0CAFE00283FF49AAEB37D11
:109DC0003A68022B48F20D647FF662AF57E7664AA5
:109DD00064481168002307228CF800200093634A2E
:109DE000CCF80430082302F0B1FE0446002C3FF406
:109DF00080AE3E6857E7BCF802305D4D03EB83034D
:109E000005EB8305EB68002B54D1696855480422A3
:109E10008CF80020012202F05BFF0446E6E7DCF844
:109E200004205148538884880168033301EB84017E
:109E3000002003249BB200909B008CF8004049480E
:109E400002F084FE0446D1E701200346ACF802305C
:109E500000EB800305EB8303DCF8042059684FEA2C
:109E6000800E01F58056002A00F01D8253880333CE
:109E700002EB8302964217D91368013314D053883A
:109E8000033302EB83039E420ED39488444505D0EE
:109E900014881CB19468013440F001819E4203D9BA
:109EA0001A4613680133EAD1704405EB8005EB686C
:109EB000002BABD02C4A2B480523022191808CF833
:109EC000003011680023012202F002FF04468DE7F2
:109ED00005AD0023059348F20E64C5E902332B61FA
:109EE000A1E5244B00225A604FF4064405AD40E63C
:109EF000B37D1F4D022B08D90AEB8A0205EB8202C3
:109F0000F388118903330B4413814FEA8A09D14442
:109F1000F38805EB8905C3F57F436A89FD33134454
:109F20006B8105AD002305934FF40644C5E9023368
:109F30002B6178E502233371CDE9064405ADF36862
:109F400005930DF112012846FFF7D2FC002840F0DE
:109F50004D8148F209640CE6BC2A0020E8010300A8
:109F6000C02B002094230020B42B0020F401030018
:109F7000FC2A0020D82A0020B44B1B78002B00F0CC
:109F80005581DFF8D0E2BEF80490B9F1010F11D885
:109F9000AF4D039409EB890205EB8202137883B17C
:109FA00009F101091FFA89F3012BAEF8049002F1BF
:109FB0001402F3D9A7480822002105F0F5FB3E68FA
:109FC000ECE55368DEF8001003F5805C03F1080A45
:109FD000002900F029814B88033301EB83018C4574
:109FE00006D8039BCEF80030DAE79C45F9D919462C
:109FF0000B680133F5D04B88033301EB83039C4599
:10A00000EFD38C884445F0D0B1F800B0BBF1000F1D
:10A01000EBD088680130E8D0F388CEF80010A34276
:10A02000D6D1002300938C4A8C48042302F08EFD85
:10A03000002840F03B8109EB890905EB89050123E4
:10A040002B7456E5BCF80200814DDCF8042000EBCF
:10A05000800305EB83034FEA800E596801F58056B3
:10A06000002A40F0A98001F10802B242BFF41CAFFF
:10A07000136801333FF418AF5388033302EB8303B3
:10A08000B3423FF611AF9488444500F0C88014886D
:10A09000002C00F0C4809468013400F0C080CCF83B
:10A0A0000420BEE6BCF80220694D9300134405EB82
:10A0B0008305062400236968694A009367488CF881
:10A0C0000040082302F042FD04468FE69CF80A3067
:10A0D0004BB15F4DE86800238CF80A3018B92B7C2F
:10A0E000002B40F0E8809CF80B3053B1584D002312
:10A0F0008CF80B302B6A23B995F82430002B7FF4B1
:10A10000A3AE05AD002305938CF80030C5E90233FA
:10A11000ACF80230CCF804302B6184E401238CF8D5
:10A1200000309CF80A30D3E7013B062B3FF6D0AE57
:10A1300001A252F823F000BFCDA0020045A002000A
:10A140001F9E0200F79D0200D19E0200A5A0020002
:10A15000CF9D02003E4DBCF808302A7D0133ACF89B
:10A160000830B2FA82F22B785209B3FA83F38CF8F2
:10A170000B2000225B09ACF802208CF80C20012295
:10A180008CF80A308CF80020A2E7BCF80200304DB1
:10A19000344CDCF8042000EB800305EB8303568885
:10A1A0005968A38803333344A38002238CF800301A
:10A1B00000FA03FE01F580565388033302EB830255
:10A1C00053E7BCF80220224D264902EB820305EB3F
:10A1D00083038888188158680C680860022088808A
:10A1E00000215C60197402FA00F35FE706991A4ACD
:10A1F0008B88F3800B883381184800940423BDF8C2
:10A20000124002F0A3FC002837D1114B04EB840468
:10A2100003EB8404012323740BB0BDE8F08FB34239
:10A22000BFF442AE1A4623E75146D8E605AD2146B3
:10A230000848082205F0B8FA0594C5E902442C61E3
:10A2400048F201643E68FFF7EEBB00BFD82A002049
:10A25000FC2A0020C42B0020E801030094230020E6
:10A26000EC010300B42B002005AD059048F2096411
:10A27000C5E902002861FFF7D6BB3E6848F20D64CD
:10A2800077E4002303EB830305EB83020D48516859
:10A29000002205F82320009208230B4A02F056FC06
:10A2A0008DE40123EEE701F10802E3E53E6848F2A0
:10A2B0000D6405AD5DE40346C8E5324648F20E6420
:10A2C000DDE400BF94230020EC0103004068FFF7A9
:10A2D00081BB00BF094A116804290BD038B5084C6E
:10A2E000156803460121104644F8253000F05AFE57
:10A2F000002038BD48F20B60704700BFBC2B002027
:10A30000C82A00202DE9F04F974D89B02A78002304
:10A31000CDE90333CDE90533079372B1934C04F1D2
:10A32000100554F8043B03A803B19847A542F8D19F
:10A330000024204609B0BDE8F08F281D02F0FF0878
:10A3400000F048FE0028F3D1D8F8F83F5C1C42D05A
:10A350004FF0805211695269DFF838928449C9F888
:10A3600010300022A3F540534846C9F80C3002F0E3
:10A37000ABFB04460028DCD17E497F48DFF818A2F9
:10A380001C238C2200F03AFD26464FF0030B274693
:10A39000D9F80C30F018F35800F0DD80774A93427A
:10A3A00025D14368764A934273D00132934220D13B
:10A3B000B8F1000F40F09680724B7349186000228C
:10A3C0000193FFF737FA019B9B88022B0CBF0423F4
:10A3D00008231C4326E04FF010234FF080525B69A6
:10A3E00011695269581C08BF02FB01F3B4E701333D
:10A3F0000AD1031D00F5805101E099425FD01A682F
:10A40000013203F10403F8D007EB87030AEB830260
:10A410000BF1FF3B5060032201370AF823201FFA9B
:10A420008BFBBFB206F58056B6F5405FB0D1BBF1ED
:10A43000010F40F28A80E4B2062C0ED14B4C01226F
:10A4400000232A706B6004F1100554F8043B03A844
:10A4500003B19847A542F8D16AE702D814F0FD0F7E
:10A4600073D002A9444800F003FD1C2205460021D8
:10A4700005F09AF9002D62D00123013C2B700A2CC3
:10A4800048D8DFE804F04547454759475947565FE4
:10A49000560007EB87030AEB83029900506001F135
:10A4A000100208314FF0000C5244514401370AF8B1
:10A4B00023C044F00204FFF7BDF9BFB2B2E7314B4D
:10A4C0001A68FAB1314A07EB87010AEB810357801A
:10A4D000022201370AF821205860BFB21A8144F0E5
:10A4E00001049FE707EB870C0AEB8C020221254B46
:10A4F0000AF82C10118125494F80196851600137E5
:10A50000BFB25AE7022218609A804FF00108E6E7CE
:10A5100000232B7102A9184800F0DCFC1C48012123
:10A5200000F034FD044600287FF402AFFFF752FA32
:10A53000FFE603232B71EDE701232B71EAE748F2D5
:10A540000764F6E602232B71E4E700232B7048F240
:10A550000A646B60EDE65A1C3FF44BAF074A934226
:10A560003FF447AF50E700BFD82A0020C82A002098
:10A57000940B0300242B002098220020DEC0ADDEC7
:10A58000FE011EF1B42B0020B82B0020E02A002091
:10A59000B02B002094230020FC2A0020002843D068
:10A5A0002DE9F0410D4682B0002938D001A90446BA
:10A5B000FFF79EF920B948F2096002B0BDE8F081CA
:10A5C00066680022062130467788B6F80680FEF7D6
:10A5D000AFFF791CADF8060089000DF1060206F107
:10A5E0000800FEF7A5FF804504D048F20C6002B0D9
:10A5F000BDE8F081BDF804000D4B00EB800003EBDB
:10A60000800001210C3000F0CDFC2E606368012237
:10A610000C3300206B60A27202B0BDE8F08148F2FA
:10A62000046002B0BDE8F08148F20460704700BFEA
:10A63000FC2A002010B310B582B00DF106010446CB
:10A64000FFF756F9B0B1BDF806300E4A03EB8303AD
:10A6500002EB8303DA684AB1A27A3AB1DA680021E0
:10A66000013A0846DA60A17202B010BD48F20560F6
:10A6700002B010BD48F2096002B010BD48F204609B
:10A68000704700BFFC2A00202DE9F0475F4B82B0E5
:10A690001B780022ADF8022083B30C46002945D078
:10A6A0000A884FF6FF739A4222D04B8803B34D6855
:10A6B00015F0030534D1B1F8089009F103039BB2FA
:10A6C00040F2FE32934234D8514A1178074639B9E4
:10A6D000508911890144194489B2B1F5806F2BD991
:10A6E000117D89B148F20665284602B0BDE8F087C1
:10A6F00048F20365284602B0BDE8F08748F20165DC
:10A70000284602B0BDE8F087D08B918B01441944F4
:10A7100089B2B1F5806FE5D84FF00108C2460DE06F
:10A7200048F20265284602B0BDE8F08748F20465A9
:10A73000DAE748F20865D7E7A846AA460AEB8A0A8C
:10A7400002EB8A0A034401A93248AAF80A3000F051
:10A750008FFB1C220646002105F026F8002E48D06B
:10A76000A6F8148002234FF0000886F81680337094
:10A77000636833610121284800F014FCF0602388ED
:10A7800033816388B38042460621A6F80690301DC7
:10A79000FEF7CEFE0DF10202ADF80200042106F133
:10A7A0000C00FEF7C5FEADF80200D4E901010DF181
:10A7B00002028900FEF7BCFE01A97081ADF802001B
:10A7C000144800F087FB47B1C7F80480F268134BC8
:10A7D0003A601B8987F80A803B811148012100F00B
:10A7E000D5FB044600287FF47FAFFFF7F3F825463A
:10A7F0007AE7BAF80A30C9F57F4909F1FD099944A9
:10A80000AAF80A9048F207656EE700BFD82A002030
:10A81000FC2A002098220020F42A0020E02A0020B0
:10A82000B02B00202DE9F04782B080B3624B1B783B
:10A830000022ADF80220002B41D00C4639B30A8823
:10A840004FF6FF739A4234D04B8893B34E6816F09C
:10A8500003063AD1B1F808A00AF103039BB240F213
:10A86000FE32934234D8554A1178054639B9518998
:10A8700010890844184480B2B0F5806F2BD9117D3F
:10A8800059B148F20666304602B0BDE8F08748F29A
:10A890000466304602B0BDE8F087D18B908B084447
:10A8A000184480B2B0F5806FEBD84FF00109C8466C
:10A8B00013E048F20366304602B0BDE8F08748F284
:10A8C0000166304602B0BDE8F08748F20266DAE77A
:10A8D00048F20866D7E7B146B04608EB880802EBB5
:10A8E00088080B443648A8F80A3001A900F0C0FADD
:10A8F0001C220746002104F057FF002F4FD04FF0D5
:10A9000000080323A7F8149087F816803B7063684B
:10A910003B6101212B4800F045FBF86023883B8117
:10A920006388BB804FF00409A7F806A087F816904B
:10A930002B68BB614246062107EB0900FEF7F8FDD4
:10A940004946ADF802000DF1020207F10C00FEF7D6
:10A95000EFFDADF80200D4E901010DF1020289001A
:10A96000FEF7E6FD0DEB09017881ADF80200144811
:10A9700000F0B0FAC5F80480FA68134B2A601B890E
:10A98000124885F80A802B81012100F0FFFA044665
:10A9900000287FF478AFFFF71DF8264673E7B8F874
:10A9A0000A30CAF57F4A0AF1FD0A9A44A8F80AA0BB
:10A9B00048F2076667E700BFD82A0020FC2A00207B
:10A9C00098220020F42A0020E02A0020B02B00204A
:10A9D00070B51C4B1B7882B0FBB1044638B301A99B
:10A9E000194800F045FA1C220546002104F0DCFE5F
:10A9F00015B3042300262B702E712368EB6001A988
:10AA0000114800F067FA1148012100F0BFFA04462E
:10AA100040B13446204602B070BD48F20164204681
:10AA200002B070BDFEF7D6FF204602B070BD48F2FE
:10AA30000464204602B070BD48F20764204602B0AC
:10AA400070BD00BFD82A002098220020B02B002023
:10AA500010B5194B1B7882B0F3B101A9174800F06B
:10AA600007FA1C220446002104F09EFEF4B10623DE
:10AA70002370124801A900F02DFA114B1A780AB17F
:10AA800001221A730F48012100F080FA044640B1F8
:10AA90000024204602B010BD48F20164204602B0F6
:10AAA00010BDFEF797FF204602B010BD48F20764C4
:10AAB000204602B010BD00BFD82A002098220020F6
:10AAC000E02A0020B02B0020314B1B78002B50D007
:10AAD000002853D0002951D08B88012B54D8F0B5D1
:10AAE0002C4A03F1010E03EB830302EB830C1FFAE4
:10AAF0008EFE9CF800204FF6FF74002562B1BEF177
:10AB0000020FA1F804E00CF1140C3AD09CF80020DC
:10AB10004FF0020E002AF2D1DCF804300A6803F587
:10AB200080564AB35388033302EB8303B34204D302
:10AB30000D60E4E79642FBD913461A680132F7D05C
:10AB40005A88033203EB82029642F1D39F88A742D0
:10AB5000F0D01F88002FEDD09F680137EAD00B603E
:10AB60009B6803600A680C4B42601B8903810020CC
:10AB7000F0BD48F2016070470833D7E748F204603F
:10AB8000704748F20960F0BD48F20960704700BFA5
:10AB9000D82A0020FC2A0020E02A00202DE9F047D6
:10ABA000374C2478002C5FD0002A61D0002B5FD076
:10ABB0009C88012C60D8334D661C04EB840405EBA3
:10ABC00084058A462C78B6B24FF6FF774FF000081E
:10ABD00044B1022E9E8005F114054DD02C7802263A
:10ABE000002CF6D11C68D5F804C00CF5805E002C52
:10ABF00037D0B4F802C00CF1030C04EB8C0474459C
:10AC000005D3C3F80080E4E7E645FAD96446216835
:10AC10000131F6D0B4F802C00CF1030C04EB8C0C3B
:10AC2000E645EED3B4F80490B945EDD0B4F8009001
:10AC3000B9F1000FE8D0A1680131E5D01C60B4F88B
:10AC400004C08445CFD1B4F800C0D445CBD1A168AD
:10AC5000116019680C4B51601B8913810020BDE8FD
:10AC6000F0870CF10804CAE748F20160BDE8F087FC
:10AC700048F20460BDE8F08748F20960EFE700BFE2
:10AC8000D82A0020FC2A0020E02A00202DE9F84FD5
:10AC9000574B1B78002B00F0A3800446002800F0DF
:10ACA000A3801222002104F07FFDDFF84C81608830
:10ACB0002189B4F80AC0A7894E4A032323800025BE
:10ACC0004FF6FF7E5389B2F80890994453681FFAF3
:10ACD00089F9002B56D01E68464553D15B6803F1B5
:10ACE0006E6303F5FF330233012B4BD8414ECC4446
:10ACF000C9F5806305EB850906EB89099BB2D9F894
:10AD00000C90484480B26080B2F80A904944BB423B
:10AD10001FFA8CFC89B288BFA3812181A4F80AC0E4
:10AD2000D2F8049088BF1F4609F1080309F580593D
:10AD30001E68013621D0B3F802A00AF1030A03EB22
:10AD40008A0AD14538D3B3F804A0F2451ED0B3F82F
:10AD500000A0BAF1000F19D09E68013616D0B4F8E1
:10AD600004A00AF1010AA4F804A0B3F802A00AF1B1
:10AD7000030A03EB8A039945DAD8143275B300202D
:10AD8000BDE8F88F2388013B2380AFE7B4F806B015
:10AD9000B4F80EA00BF1010BA4F806B0B3F802B0A2
:10ADA0000AF1030ADA44A4F80EA0B3F802A00AF1EB
:10ADB000030A03EB8A03DEE7A9EB03094FF0010363
:10ADC000B4F806A02374E3890AF1010A03EBA9038E
:10ADD000A4F806A0E3811432002DD0D1012571E73B
:10ADE00048F20160BDE8F88F48F20460BDE8F88FD2
:10ADF000D82A0020FC2A0020DEC0ADDE99B110B4B4
:10AE0000B2FBF3F403FB1424A4B244B9C0E9001468
:10AE100084608281C38120465DF8044B704709201D
:10AE20005DF8044B70470E20704700BF82B050E8B9
:10AE3000022FC188B2EB324F4FF0000317BF92B21E
:10AE400041EA014142EA014104E04268B2EB324F7B
:10AE500008BF012340E80212002AE8D18DF807302C
:10AE60009DF80730002B0CBF1120002002B0704766
:10AE700010B483B050E8013F1FFA83FCC489A44496
:10AE80008489A44528BFACEB040C0489A44502BF07
:10AE9000BFF32F8F002207E0CCEA030C40E801C487
:10AEA000002CE7D14FF001028DF803200193019CA3
:10AEB0009DF803200C6032B1006810FA84F003B0F2
:10AEC0005DF8044B704702F0FF03184603B05DF8CD
:10AED000044B70470A884B889A4201D00020704783
:10AEE00050E8012FC2EA024240E80123002BF7D1CB
:10AEF0000120704710B483B050E8023F1FFAA3FC52
:10AF0000C488A44502BFBFF32F8F00220EE0C4897E
:10AF1000A4448489A44528BFACEB040CC3EA0C4CC0
:10AF200040E802C4002CE7D14FF001028DF8032065
:10AF30000193019C9DF803200C6032B1006800EB86
:10AF4000144003B05DF8044B704702F0FF0318464D
:10AF500003B05DF8044B70470A884B889A4201D0D1
:10AF60000020704750E8022FC2EA224240E8022344
:10AF7000002BF7D101207047034653E8000F0A4623
:10AF800043E8002C9CF0000FF7D17047034653E8CC
:10AF9000000F00EB010243E8002C9CF0000FF6D1FB
:10AFA000704700BF034653E8002F02EB010043E85F
:10AFB000000C9CF0000FF6D1704700BF034653E829
:10AFC000002FA2EB010043E8000C9CF0000FF6D12B
:10AFD000704700BF0346012253E8000F40EA020118
:10AFE00043E8001C9CF0000FF6D170470346012295
:10AFF00053E8001F41EA020043E8000C9CF0000FF8
:10B00000F6D170470346002253E8000F00EA020120
:10B0100043E8001C9CF0000FF6D170472DE9F04783
:10B020008368D3F84831C3F340059B0788B045D403
:10B0300001293CD8254C264B264A1B1B9F081B2B5D
:10B04000A2FB072730D9DFF894A006464FF0640929
:10B05000A8462368A268187919686368B4F818E0EC
:10B06000CDF800E0511AD21A00EB8003C9B203EB0D
:10B070008303CDE90602CDE9031209FB01FC9B0025
:10B08000BCFBF2FCB3FBF2F3CDF808C00593CDF89E
:10B0900004806369524608213046013500F020FCE7
:10B0A000AF4204F11C04D4D808B0BDE8F0870A4AC6
:10B0B000022108B0BDE8F04700F012BC00221146A2
:10B0C00008B0BDE8F04700F0E1BF00BF4023030037
:10B0D0007823030025499224FC0103001002030099
:10B0E000D0B110B4D0E90112521A0468D2B2531E82
:10B0F0002160DBB252B101680A6803F1FF3C541CC5
:10B100000C6013705FFA8CF3FF2BF4D103680020FE
:10B1100018715DF8044B70470E20704730B583B04E
:10B12000044600250DF107008DF80750FEF7C2F91F
:10B13000D4E900311A688A4210D9511E1960216879
:10B14000A3680D6812F8012C208B5B1BE56800FBDF
:10B1500002550A79DBB29A4238BF0B719DF807009D
:10B16000FEF7CEF9284603B030BD00BF30B5054626
:10B1700083B00DF1070000230C468DF80730FEF771
:10B1800099F92A681368591C1160E9682A8B641AB6
:10B19000B4FBF2F41C709DF80700FEF7B1F903B0A0
:10B1A00030BD00BF10B543689C686068036801212A
:10B1B0009B689847A36810B903221A7010BD042237
:10B1C0001A7010BD2DE9F041054680684C4E82B0E2
:10B1D000002480222146A0308DF8034004F0E4FAD8
:10B1E0004849286901F0EEF8286901F0DFF84FF4CA
:10B1F0007A7846F001066868076801AB0DF1030133
:10B200003F690122B847019B611CC3B19DF803202F
:10B21000AB681B2A05D093F8A0001B28EBD1522A5B
:10B220001CD02344CCB2092C83F8A020E3D9AB680E
:10B23000002283F8A020042002B0BDE8F0814FF680
:10B24000C010B047019B002BD5D108F1FF371FFA82
:10B2500087F8B8F1000FCED10D20EDE72344002090
:10B2600083F8A000AF6897F8A1305B2B42D107F1BB
:10B27000A106022302E0802B90B237D016F8014FCE
:10B2800000EB8002A4F130013B2C01EB4202D9B269
:10B2900003F10103EFD101310A065FFA81FC25D4E5
:10B2A0000CF1A0063E44002202E09AB223061DD40F
:10B2B00016F8011B02EB82030CF1010401EB4303BE
:10B2C000303B5FFA84FC0029EFD1FA2A28BFFA222A
:10B2D0003A75AB68FA288ABFFA2298759A75AB68F6
:10B2E000002083F8A00002B0BDE8F0810C2002B07D
:10B2F000BDE8F08187F8A0000B2002B0BDE8F08126
:10B30000F0070300D80703002DE9F04F804D0B78BC
:10B31000EB5C8BB013F0080302910746069200F035
:10B32000F4800B46C1F10101C81813F8012FAA5C83
:10B330001607F9D48346069AD3B205931346029AA8
:10B340009B1A0793D946B846029C204604F03EFA61
:10B35000D8F8083093F819C0069BA0EB0900ACEBB5
:10B36000030B584573D9079ACDF8049009F1FF33C0
:10B37000C4F101062344A6EB090AA2EB090E5A7890
:10B38000A95C0AEB030406EB0309090703F10103B7
:10B390000EEB030002D50A2A54D0A3468445EED80A
:10B3A000DDF80490029A09EB0B030493D31803937E
:10B3B0005C46D8F8100000F0F9FF2CB34FF0000BFA
:10B3C00009ABCA46D8F80400029902680193D7680D
:10B3D00051442246B8470999019B29B1641A8B440C
:10B3E00012D009EB0B0AEDE7D8F8082011780329F1
:10B3F000E8D0D2F848118906FBD5B2F848116FF3AE
:10B400004511A2F84811DDE7039B1B78EB5C180798
:10B4100063D5049C029B1C4406EB040914F8013F0D
:10B42000EB5C1B07F8D4D8F810003A4900F0CAFFCB
:10B43000059B002B88D03849D8F810001A4600F038
:10B44000C1FF81E7CDE90339DDF80490B1E7494652
:10B45000CB464746002834D0029A09F1FF33134403
:10B460004FF0000903E009F10109484529D013F81C
:10B47000012F0A2A01EB0904F5D1386900F096FF83
:10B48000B9F1000F15D04FF000080DF1240A5E4607
:10B490007868029902683144D56853464A46A847FD
:10B4A0000999E9B1B9EB0109884402D00BEB080610
:10B4B000EEE7631C174938699B4600F083FF059B44
:10B4C000EBB902993869594400F07CFF1149386999
:10B4D0000BB0BDE8F04F00F075BFDDF81090A2E7AB
:10B4E000B8680378032BD3D0D0F848319D06FBD53C
:10B4F000B0F848316FF34513A0F84831C8E7064962
:10B5000038691A4600F05EFFDBE79B4613E700BF91
:10B51000C92003009C020300240303000CB470B58F
:10B5200084B008AB816853F8045B0193D1F84831CB
:10B530005B07044601D5CB7E4BB9206901AA294699
:10B5400001F000F804B0BDE8704002B0704702227C
:10B550001B31684604F01AF9A3682C4A2C490026CE
:10B56000DE76206900F02EFF206901AA294600F04E
:10B57000E9FF9DF80030002B3BD0A268D17E9942B4
:10B5800011D02448029033218DF80C1003F12F00C4
:10B590006D218DF80D00ADF80E10D3761C49206991
:10B5A00002AA00F00FFF9DF80130002BCAD0A2685C
:10B5B000117F9942C6D01B205B218DF808008DF8C1
:10B5C0000910342003F12F018DF80A008DF80B10BB
:10B5D0006D2000218DF80C008DF80D1013770C49AB
:10B5E000206902AA00F0EEFE04B0BDE8704002B08F
:10B5F0007047A168054ACB762069054900F0E2FE54
:10B600009DF80130002B9DD0D1E700BFC807030093
:10B61000B40003001B5B313B0CB430B585B008AB04
:10B62000816853F8045B0193D1F848315B07044605
:10B6300002D5CB7E082B09D1206901AA294600F04A
:10B6400081FF05B0BDE8304002B0704702221B31D7
:10B65000684604F09BF8A368DA7E082A0AD02E49CF
:10B660002E4ACDE902120822DA762D4920696A4471
:10B6700000F0A8FE206901AA294600F063FF9DF8AA
:10B680000030002B3BD0A268D17E994211D02248D5
:10B69000029033218DF80C1003F12F006D218DF8ED
:10B6A0000D00ADF80E10D3761D49206902AA00F0F6
:10B6B00089FE9DF80130002BC3D0A268117F99420A
:10B6C000BFD01B205B218DF808008DF809103420B5
:10B6D00003F12F018DF80A008DF80B106D20002169
:10B6E0008DF80C008DF80D1013770D49206902AA12
:10B6F00000F068FE05B0BDE8304002B07047A168B8
:10B70000084ACB762069064900F05CFE9DF80130BE
:10B71000002B96D0D1E700BF1B5B313B33376D0068
:10B72000B4000300C80703002DE9F04F814687B03D
:10B73000524804F04BF80546514804F047F8D9F850
:10B740000830504A5B6800922D1A4F4A484608213B
:10B75000FFF762FFD9F808305868ADB2002800F052
:10B760008A8004F033F884B2464804F02FF8D9F800
:10B7700008309968204482B211B14846FFF7C4FDF1
:10B78000424A00214846FFF7C9FE3D4804F01EF832
:10B79000841C2C4439493E4A0091A4B22346082116
:10B7A0004846FFF739FFE21C3A4992B24846FFF794
:10B7B000ABFDD9F80830D3F80C80B8F1000F4FD0AA
:10B7C00000252E462F460EE0A047029802ACB8B1E5
:10B7D00003F0FCFFB84205D92068002843D003F0ED
:10B7E000F5FF87B2103598F80020D8F804403046AD
:10B7F00002A90136002AE7D160592C440028E7D17C
:10B80000012E2DD0244ADFF888B00021484607F1E8
:10B81000020AFFF783FE00251FFA8AFA12E0A0470A
:10B82000029E02ACE6B108215A46484653460096AD
:10B83000FFF7F2FE61687A1D92B24846A9B1FFF7A0
:10B8400063FD013598F80030D8F804402A0102A9B8
:10B850002846002BE3D1A65804EB0514002EE2D1B4
:10B8600007B0BDE8F08F0746BCE70C49D9F81000D7
:10B8700000F0A8FDE5E7044676E700BFF8070300FF
:10B8800068090300E0070300080503002C03030018
:10B890003803030040030300540303009C02030029
:10B8A000022910B5044604D18368D3F848319B07B8
:10B8B0000BD42069074A084900F084FD2069074A33
:10B8C0000549BDE8104000F07DBDBDE81040FFF720
:10B8D0002BBF00BFD4070300B4000300CC07030054
:10B8E0000CB470B584B008AB044653F8046B8068A0
:10B8F0000193D0F848315B0703D5C37E8B420D46D8
:10B9000009D1206901AA314600F01CFE04B0BDE84F
:10B91000704002B0704700F11B010222684603F03C
:10B9200035FFA368002D65D0DA7EAA4211D0354AD2
:10B93000029233228DF80C2005F12F028DF80D2094
:10B940006D22ADF80E20DD762F49206902AA00F0A5
:10B9500039FD206901AA314600F0F4FD9DF8003060
:10B96000002B3BD0A268D17E994211D0254802908D
:10B9700033218DF80C1003F12F006D218DF80D008F
:10B98000ADF80E10D3762049206902AA00F01AFD06
:10B990009DF80130002BB9D0A268117F9942B5D033
:10B9A0001B205B218DF808008DF80910342003F16D
:10B9B0002F018DF80A008DF80B106D2000218DF8F5
:10B9C0000C008DF80D1013770F49206902AA00F0C2
:10B9D000F9FC04B0BDE8704002B07047A1680B4AA2
:10B9E000CB762069084900F0EDFC9DF80130002B72
:10B9F0008CD0D1E7DD76054A0349206900F0E2FCEE
:10BA0000A7E700BF1B5B313BB4000300C80703007E
:10BA10002DE9F041C3685B6890B006468846186817
:10BA2000002203A901F0FCFD002840F0B280B8F12B
:10BA3000000F7BD1B4683068002800F0AE8003F0BE
:10BA4000C5FEC3B21846A376E37F657EA27F03449A
:10BA50001044B3FBF5F205FB12330133B0FBF5F1F3
:10BA6000DBB205FB11004D1C0021013063F307011F
:10BA700060F30F21501CC0B260F3174165F31F61E2
:10BA80000128616105D94A493069D2B200F09AFCB7
:10BA9000237D012B05D95A1E46493069D2B200F0E8
:10BAA00091FC454A4549306900F08CFCB8F1000F23
:10BAB0000ED074E0022A4ED0039801F01DFCF3680A
:10BAC0005B680022186803A901F0AAFD00283ED196
:10BAD00003980023082204A901F06EFC9DF81030A1
:10BAE0008DF82580DDE9051003F00302012ACDE978
:10BAF0000701DFD1C3F3C2038DF82430BDF8103045
:10BB0000049D0398C3F38312C3F383140AA992001C
:10BB1000082301F051FCC5F39525336900932246B3
:10BB2000284607AB0AA9FDF777F9C5E7039801F0A6
:10BB3000E3FBB268D2F838310133C2F83831B46867
:10BB4000D4F8383103F00703012B3FF474AF012020
:10BB500010B0BDE8F081BDF81250C3F3C2038DF8F8
:10BB60002430C5F389150827082D2C4628BF082442
:10BB70003B46039822460AA901F01EFC2D1B33699F
:10BB800007AA21460AA82744FDF7BCF9002DEBD1EE
:10BB900092E7002010B0BDE8F081034653E730463D
:10BBA000074A0221FFF79CFE404610B0BDE8F08135
:10BBB000740303006C030300C4070300B400030014
:10BBC0007C030300436801219868FFF721BF00BF91
:10BBD000F0B54468A56883B0AB6801911F78042F65
:10BBE00001D103B0F0BD206801A901F0A5FC60B14E
:10BBF000FE1E18BF012631462846FFF709FF2068C0
:10BC000001A901F099FC0028F5D1019801F070FB21
:10BC1000032FE6D100212846FFF7FAFEE1E700BF37
:10BC200001290AD0022904D18368D3F848319B073F
:10BC300003D4034A0221FFF753BEFFF775BD00BFCF
:10BC4000E8030300F0B5012983B0044611D08368EE
:10BC5000D3F84841A40744D4022947D854682A4954
:10BC600013682A4ACDE900140221FFF739FE03B018
:10BC7000F0BD8568FFF7A6FA28BBA36824492069B0
:10BC80001F7D9E7DFA2200F09DFB20692149FA224A
:10BC900000F098FB2046FFF795FAA0B9A3681A7D3B
:10BCA0006A76A368D21B9B7D2B7612F0FF0225D10A
:10BCB0009B1B13F0FF02DAD01749206903B0BDE8DF
:10BCC000F04000F07FBBA36850225A76A368134A65
:10BCD000182119762046042103B0BDE8F040FFF793
:10BCE000FFBD03B0BDE8F040FFF71EBD5B680C4A26
:10BCF000022103B0BDE8F040FFF7F2BD0949206919
:10BD000000F060FB2B7ED3E790F902009C04030057
:10BD100024030300640303007403030044040300CA
:10BD2000800403006C0303008368D3F84821C2F346
:10BD3000400C920708D4012908D1B3F848216CF3CC
:10BD40008202A3F848217047FFF7EEBC5B68024A05
:10BD50000221FFF7C5BD00BF800403008368D3F84C
:10BD60004821920708D4012908D1B3F8482142F0AC
:10BD70000402A3F848217047FFF7D6BC5B68024A6B
:10BD80000221FFF7ADBD00BF800403008368D3F834
:10BD90004821C2F3400C920708D4012908D1B3F816
:10BDA00048216CF3C302A3F848217047FFF7BCBCDD
:10BDB0005B68024A0221FFF793BD00BF80040300C5
:10BDC0008368D3F84821920708D4012908D1B3F831
:10BDD000482142F00802A3F848217047FFF7A4BCAD
:10BDE0005B68024A0221FFF77BBD00BF80040300AD
:10BDF00030B48468D4F848219307C2F3400509D4CD
:10BE000001290AD1C4F83851C3685B6830BC18688E
:10BE100001F076BC30BCFFF787BC6368024A30BCD7
:10BE20000221FFF75DBD00BF800403008368D3F8E3
:10BE3000482192070FD401290FD110B50446094AB1
:10BE40000949006900F0BEFAA36850225A76A36837
:10BE500018221A7610BDFFF767BC5B68034A0221FF
:10BE6000FFF73EBDBC070300B400030080040300DD
:10BE700030B58568D5F84841A30783B0C4F3400CBA
:10BE800011D4022914D81BD0D5F848211149124BDE
:10BE900012F0080F114A18BF0B46614603B0BDE807
:10BEA0003040FFF73BBB03B0BDE83040FFF73CBC80
:10BEB0006B680B4A022103B0BDE83040FFF710BDAC
:10BEC0005568084C1368084ACDE90045FFF708FD9E
:10BED00003B030BD641A0300A8040300AC040300DF
:10BEE0008004030090F902009C040300F0B584680C
:10BEF000D4F84821930785B0C2F340071DD4012927
:10BF000020D1C3685B681C680546204601F0F4FB3D
:10BF1000A668AB68C2B2642402FB04F4B4FBF6F476
:10BF2000E4B2D3F838310094CDE901263946094A04
:10BF30002846FFF7F3FA05B0F0BD05B0BDE8F040C4
:10BF4000FFF7F2BB6368044A022105B0BDE8F04088
:10BF5000FFF7C6BCC0040300800403000129844627
:10BF600020D030B58468D4F84851AB0783B00BD4E7
:10BF700002290FD155680C4C13680C4ACDE90045D5
:10BF8000FFF7AEFC03B030BD604603B0BDE8304003
:10BF9000FFF7CABB6368064A022103B0BDE8304020
:10BFA000FFF79EBCFFF7C0BB90F902009C040300A2
:10BFB00080040300F0B58368D3F84821C2F340043D
:10BFC000920787B029D401292CD1D3F84051FDB173
:10BFD000184F064628460023092203A901F0ECF970
:10BFE0009DF81420B168284609230132A03101F0E0
:10BFF000E3F9B268049DA0322346009200213A463C
:10C0000030460134FFF78AFA0DB1082CE2D1B3684B
:10C01000002283F8A02007B0F0BD07B0BDE8F040D3
:10C02000FFF782BB5B68044A022107B0BDE8F0401D
:10C03000FFF756BCF804030080040300012984467E
:10C040000AD002290B460FD08268D2F8481189071E
:10C0500002D4022B03D870476046FFF765BB5368D4
:10C06000074A0221FFF73CBC30B5064C55681368FF
:10C07000054A83B0CDE90045FFF732FC03B030BD7F
:10C080008004030090F902009C0403002DE9F04FA6
:10C0900005468BB0AA488846174603F097FB04462E
:10C0A000A84803F093FBAB68A74A5B680092201A8C
:10C0B000A64A84B208212846FFF7AEFAAB68586852
:10C0C000002800F03A8103F081FB86B29E4803F01D
:10C0D0007DFBAB689968304482B211B12846FFF706
:10C0E00013F99B4A00212846FFF718FAA7B3B8F1C5
:10C0F000000F00F03D8107EB47094FF0000B08F1FE
:10C10000040A1FE003F062FB58F82B2006461AB120
:10C11000104603F05BFB0644B4420ED25AF82B00E3
:10C12000002800F08F8003F051FB84B258F82B00F8
:10C1300018B103F04BFB204484B20BF1030BD9453B
:10C1400000F082805AF82B000028DBD158F82B2011
:10C15000002AF2D00646DBE77A4803F037FB0230CC
:10C160000444774B7B4A0093A4B223460821284617
:10C170000334FFF751FA7849A2B22846FFF7C4F812
:10C18000AB68D3F80C90B9F1000F51D000263746B8
:10C19000B0460FE0A047069806ACC0B103F016FB0E
:10C1A000804506D22068002845D003F00FFB1FFA17
:10C1B00080F8103699F80020D9F80440384606A9CE
:10C1C0000137002AE6D1A05934440028E6D1012FD6
:10C1D0002ED0624ADFF87CB10021284608F1020A1D
:10C1E000FFF79CF900261FFA8AFA13E0A047069F82
:10C1F00006ACEFB108215A46284653460097FFF790
:10C200000BFA616808F1050292B22846A9B1FFF75E
:10C210007BF8013699F80030D9F80440320106A9BC
:10C220003046002BE2D1A75804EB0614002FE1D1D1
:10C230000BB0BDE8F08F8046BBE74949286900F0A4
:10C24000C1F8E6E7044671E73E4803F0BFFA023062
:10C250002718BFB23A4B3F4A009307F1030B3B4606
:10C26000082128461FFA8BFBFFF7D6F93A495A46B0
:10C270002846FFF749F8BB1CDBB2023B059308F1E7
:10C2800008030024039332E001922E4A00922846CC
:10C29000344A0821FFF7C0F95AF82400002845D095
:10C2A00003F094FAC6B258F8240000283CD003F0FA
:10C2B0008DFAC3B22348049303F088FA059B9E1BB2
:10C2C000049BF61A301A10F0FF0231D12649286972
:10C2D0003A2200F077F8039B53F82410D1B15A4664
:10C2E0002846FFF711F803344C453FF449AF5AF89C
:10C2F0002430A3B158F82420002AC5D10093082186
:10C300003B46144A2846FFF787F9039B53F824104D
:10C310000029E4D11249286900F054F8E3E758F8FD
:10C320002430002BEAD1D6E70346C3E70646BAE736
:10C330000E49286900F046F8C8E70646C6E600BF81
:10C34000F807030068090300E0070300080503007D
:10C350002C030300380303004003030054030300CD
:10C360009C02030004050300D4000300240303001F
:10C370000A4803F02BFA02300444A4B2084B00939D
:10C380002846084A23460821FFF746F9E21C0649D9
:10C3900092B22846FEF7B8FFF2E600BF6809030034
:10C3A000F80703003803030040030300826842B12A
:10C3B00010B5044643690168006998470023A360EB
:10C3C00010BD70470EB400B582B0039921B104AB23
:10C3D00001AA019300F0B6F802B05DF804EB03B0D7
:10C3E000704700BF2DE9F04F154683B0A942DDF834
:10C3F00030900D9A0F4606469A46C0F09E800B4636
:10C400004FF00108B3FBF5F39D4208F10108F9D99B
:10C41000D04538BFD04612F00103019302D1B9F1E3
:10C42000000F67D1B268BAF1010F4FF0010406D9CD
:10C430000AF1FF3ABAF1010F05FB04F4F8D8B7FB93
:10C44000F4F39D4205D805FB04F4B7FBF4F39D42D9
:10C45000F9D9DFF8ECA007E0AC42B4FBF5F31AD34E
:10C46000B2681C46B7FBF3F31AF803B0BBF10A0F2E
:10C4700004FB137728D03368511CB16003F802B075
:10C48000D6E901329A42E7D33046FFF78FFFB4FB7B
:10C49000F5F3AC42E4D2019B9BB1B9F1000F10D08F
:10C4A0002024C84509F1FF390BD2B3683268591C02
:10C4B000B160D454D6E901329A4214D2B9F1000FD6
:10C4C000EFD103B0BDE8F08F511C3368B1604FF07D
:10C4D0000D019954D6E901329A42CCD33046FFF788
:10C4E00065FFB268C7E73046FFF760FFB9F1000F9C
:10C4F000D7D1E6E793071AD42024B268C84502F1E1
:10C50000010190D23368B1609C54D6E901329A425D
:10C5100009F1FF3903D2B9F1000FEFD183E73046BB
:10C52000FFF744FFB268B9F1000FE7D17BE7BAF13A
:10C53000000F0CBF30242024DFE74FF0010867E72D
:10C5400078090300002900F05C822DE9F04FDFF844
:10C5500070950D7885B0064690460C464FF00D0A52
:10C560000FE00A2DB36800F08E803268591CB1606C
:10C57000D554D6E901329A4280F081802578002D89
:10C5800069D00134002D66D0252DEAD1002723463D
:10C5900014F8012B2D2A6CD0302A6DD02B2A61D0B3
:10C5A0002A2A7FD0A2F1300109294FF000050BD8CB
:10C5B00005EB850502EB450513F8012FA2F13001CB
:10C5C0000929A5F13005F3D92E2A1C4675D0002380
:10C5D00001E014F8012F02F0FB016829F9D0252AA7
:10C5E00000F08681583AD1B2202930D8202A2ED89E
:10C5F000DFE812F021002D002D002D002D002D0070
:10C600002D002D002D002D002D00FE0079002D00A5
:10C610002D002D002D0079002D002D002D002D0066
:10C620002D002D00BD002D002D001A012D0016013A
:10C630002D002D002100D8F800101022081DC8F888
:10C64000000009683046CDE90057FFF7CBFE013402
:10C650002578002D95D1337B002B40F0438105B028
:10C66000BDE8F08F234614F8012B2D2A47F004076C
:10C6700092D147F001078AE747F0020787E7304683
:10C68000FFF794FE7AE73268591CB16002F803A004
:10C69000D6E901239342FFF468AF3046FFF786FEE8
:10C6A000B36862E7D8F80020111DC8F800101568BB
:10C6B0005A782E2A03F1010489D16278A2F130035D
:10C6C000092B04F101044FF0000384D803EB83032A
:10C6D00002EB430314F8012FA2F130010929A3F161
:10C6E0003003F3D977E7D8F80020111DC8F80010FF
:10C6F000D2F800B08BEAEB72A2EBEB72092A40F39E
:10C70000DB81DFF8C0C3012011466329ACFB02E2E4
:10C7100000F101004FEAD202F6DC9842024638BF2F
:10C720001A460292002D00F01E81BBF1000FC0F2EC
:10C730002E817A0700F12B81B80740F12A81002B66
:10C7400040F02781BBF1000FC0F27D817A0700F134
:10C750008D8107F00302022A00F05D81CDE90057C8
:10C7600059460A223046FFF73DFE013470E7D8F8FB
:10C7700000301A1DC8F800201F68B3683268581CC2
:10C780003021B060D154D6E90123934280F0FA8081
:10C79000591C3268B1607821D154D6E901329A42ED
:10C7A00080F0EB800F2F03D93B461B090F2BFCD8E1
:10C7B0004FF0805506E00F2D4FEA15137FF647AF77
:10C7C000B2681D46B7FBF5F319F803B0BBF10A0FC9
:10C7D00005FB137777D03368511CB16003F802B0C2
:10C7E000D6E901329A42E6D33046FFF7DFFDE2E7B1
:10C7F000D8F800301A1DC8F800201D78B3680A2D3B
:10C8000000F03A813268591CB160D554D6E9013242
:10C810009A42FFF41CAF3046FFF7C8FD013417E71A
:10C82000D8F800100A2209E7D8F800301A1DC8F815
:10C83000002017F00107D3F800B064D1BBF1000F5E
:10C8400003D0584602F0C2FF0746BD4215D9202248
:10C8500001E0BD4211D0B1683368481CB0605A5441
:10C86000D6E90130984205F1FF35F2D33046FFF7A3
:10C870009DFDBD424FF02002EDD19BF80050002DF0
:10C880003FF4E5AE0A2DB0680FD03368421CB260A9
:10C890001D54D6E90130984280F0B4801BF8015F46
:10C8A000002D3FF4D4AE0A2DEFD13368421CB260A4
:10C8B00003F800A0D6E901309842E6D33046FFF7EE
:10C8C00075FDB068E1E73368511CB16003F802A060
:10C8D000D6E901329A42FFF47EAF3046FFF766FD9B
:10C8E000B26878E7304605B0BDE8F04FFFF75EBDAF
:10C8F000B3683168581CB060CA54D6E901329A4214
:10C9000089D20134A4E69BF80030002B00F0D680D9
:10C91000B0685F46CBF101020A2B02EB070B5ED039
:10C92000411CB16031680B54D6E90130984248D2BD
:10C9300017F8013F002BEFD15D457FF688AE202729
:10C9400002E05D453FF483AEB2683368511CB160CC
:10C950009F54D6E901329A4205F1FF35F1D33046B2
:10C96000FFF724FDEDE7B80705D5002B3FF4EAAE4D
:10C97000F9073FF5E7AE0025E4E63046FFF716FD80
:10C98000B2680FE73046FFF711FDB36800E7013DDD
:10C99000D2E6F9073FF5D6AE002DECD02022029961
:10C9A000A942BFF4CFAEB168481CB06030684254B1
:10C9B000D6E90101814205F1FF356CD2002DEED19F
:10C9C000D9E730460292FFF7F1FC17F8013F002B40
:10C9D000B2D0029AB0680A2B02EB070BA0D1411C1F
:10C9E000B160316801F800A0D6E90110884297D300
:10C9F0003046CDE90232FFF7D9FCDDE90232B068FA
:10CA00008EE770473046FFF7D1FC1BF8015F002D21
:10CA10007FF438AF1BE6002B7FF4A0AE8DB130223F
:10CA200002998D427FF69AAEB168481CB0603068BA
:10CA30004254D6E90101814205F1FF3535D2002D7E
:10CA4000EED100258AE6B1683268481CB060CBF1AF
:10CA5000000B2D205054D6E901219142FFF479AE0C
:10CA600030460393FFF7A2FC039B72E6B16832687D
:10CA7000481CB0602B20EDE73268591CB16002F809
:10CA800003A0D6E901239342FFF4BCAE3046FFF782
:10CA90008DFCB368B6E630460393FFF787FC039B33
:10CAA0002022002D7FF47BAF65E730460393FFF72C
:10CAB0007DFC039B3022C2E701202EE69B463BE72C
:10CAC00078090300CDCCCCCC10B582B038B161B1BF
:10CAD00001600B68114602B0BDE810401847144BC6
