:1000000000000420750300005D0300005F03000092
:1000100061030000630300006503000000000000AE
:100020000000000000000000000000006703000066
:1000300069030000000000006B0300006D03000076
:100040006F0300006F0300006F0300006F030000E8
:100050006F0300006F030000550800006F030000ED
:10006000810A00006F0300006F0300006F030000AF
:100070006F0300006F0300006F0300006F030000B8
:100080006F0300006F0300006F0300006F030000A8
:100090006F0300006F0300006F0300006F03000098
:1000A0006F0300006F0300006F0300006F03000088
:1000B0006F0300006F03000000000000000000005C
:1000C0006F0300006F0300006F0300006F03000068
:1000D0006F0300006F0300006F0300006F03000058
:1000E0006F0300006F0300006F03000000000000BA
:1000F000000000006F030000000000006F0300001C
:1001000000000000000000000000000000000000EF
:1001100000000000000000000000000000000000DF
:1001200000000000000000000000000000000000CF
:1001300000000000000000000000000000000000BF
:1001400000000000000000000000000000000000AF
:10015000000000000000000000000000000000009F
:10016000000000000000000000000000000000008F
:10017000000000000000000000000000000000007F
:10018000000000000000000000000000000000006F
:10019000000000000000000000000000000000005F
:1001A000000000000000000000000000000000004F
:1001B000000000000000000000000000000000003F
:1001C000000000000000000000000000000000002F
:1001D000000000000000000000000000000000001F
:1001E000000000000000000000000000000000000F
:1001F00000000000000000000000000000000000FF
:10020000354936480A1A02D0072291438D463449AF
:1002100034480A1A06D00722914381F30988022242
:1002200082F3148830483149314A00F044F83148AB
:100230003149324A00F03FF831483249324A00F041
:100240003AF832483249334A00F035F832483349F7
:10025000334A00F030F833483349344A00F02BF881
:1002600033483449344A00F026F8344834490022EF
:1002700000F02CF833483449002200F027F83348C6
:100280003349091A082902DB002202604160314A21
:1002900090471F481F49884205D00268043003B4C4
:1002A000904703BCF7E700208646EC46002000217B
:1002B000294A9047FEE7884207D0521A05D00378B2
:1002C00001300B700131013AF9D17047884202D0F8
:1002D00002700130FAE770470000042000E00320BC
:1002E0000000042000000420CC0D000000000020CD
:1002F00004000020D0030000D0030000B80D00006F
:10030000CC0D00000000002000000020B80D00000F
:10031000B80D0000B80D0000B80D0000B80D0000C9
:10032000B80D0000B80D0000B80D0000CC0D0000A5
:10033000D00D000004000020040000200400002074
:10034000790000207C0000207C0000207C00002040
:100350007C2000209D030000D90A0000FEE7FEE794
:10036000FEE7FEE7FEE7FEE7FEE7FEE7FEE7FEE765
:1003700000F002B8FFF7FCBF0F484FF007018843B9
:1003800085460E4880470E48016841F470010160BF
:10039000BFF34F8FBFF36F8FFFF732BF09480A4992
:1003A0000A4A884207D0521A05D0037801300B70F0
:1003B0000131013AF9D1704700000420D10B00004F
:1003C00088ED00E0B80D00000000002000000020D3
:1003D0001FB50021039001AA44F20100CDE90111EB
:1003E00000F004F805B05DF804FB000072B6094B9C
:1003F000D3F8F020D20700D500BEBFF34F8FD968E5
:10040000054A01F4E0610A43DA60BFF34F8F00BF91
:10041000FDE700BF00ED00E00400FA0572B6024AF5
:10042000136801331360704704000020034A136807
:10043000013B136003B962B6704700BF040000209F
:10044000FFF7ECBFFFF7F2BF034B187810B901229A
:100450001A707047852070470800002000F1804026
:1004600000F5C040002382B0036003680193019B44
:1004700002B0704703681F2B83BF03F01F030360A4
:1004800001484FF0A04070470003005007B50190AD
:1004900001A8FFF7EFFF019B00EB8300D0F80037C6
:1004A00023F44033C0F80037D0F8003743EA014165
:1004B000C0F8001703B05DF804FB0000054B4FF0D7
:1004C000FF32072843F8202084BFC01880F84C2052
:1004D000704700BF0C00002038B51E4991F85B3012
:1004E000ABBB4FF6FF70FF245A09012A0CBF02462E
:1004F0004FF0FF3203F01F05EA40D20748BFCA1889
:1005000003F1010348BF82F82440302BECD10024D2
:10051000E0B20134FFF7D2FF092CF9D10E4B0022D3
:10052000C1F855209A800D4BC02083F80603402067
:1005300018604FF4BE70FFF791FF094B4FF0004079
:10054000C3F80403012381F85B30104638BD08204E
:10055000FCE700BF0C0000206100002000E100E08B
:100560000060004037B5354B1A18044692F9240054
:10057000013061D18878002852D01846002250F806
:10058000045B013546D1181980F82420002043F877
:100590002200920002F1804202F5C0420B78D2F8AC
:1005A0001055487825F499151B04000525F4F855D5
:1005B00000F4801003F44033C2F8105503432002C6
:1005C000D2F8105500F47C5003432B43C2F8103589
:1005D0004A780194012A01A826D1FFF74BFF019B1D
:1005E0009A40C0F8082501A80194FFF743FF019B3A
:1005F000134903F5E073032240F8232024FA02F2A2
:10060000012304F0070003FA00F08B5C18438854C0
:10061000002003E00132082AB1D1042003B030BD2C
:10062000FE2382F82430D3E7FFF724FF019A012349
:100630009340C0F80C35D6E70820EFE70C00002007
:1006400061000020074B184490F924309B0003F10F
:10065000804303F5C043D3F8102542F00302C3F8EA
:10066000102570470C000020054B184490F9240019
:100670008000C0B200F1804000F5C040704700BF6C
:100680000C000020F7B53D4F3B18044693F9243089
:10069000002B71DA8B78C3F34003002B0BBF0825C6
:1006A000002509200820854202D1042003B0F0BDB6
:1006B00057F82560013647D138196EB247F8252022
:1006C00080F8246013B97B1983F84C408B785A0763
:1006D0001AD4D8073AD501A80194FFF7CBFE019BA5
:1006E00000EB8300D0F8003723F00203C0F8003796
:1006F0002348E20804F0070C012303FA0CF310F876
:1007000002C043EA0C03835488780B7810F002008F
:1007100028D0AD0005F1804505F5C0452402D5F887
:10072000102522F44F3222F44072C5F810251B0424
:10073000D5F8102504F47C5403F440331C431443CF
:10074000C5F810450020B1E70135ACE701A84A78AB
:100750000194FFF78FFE019B03F5E073920040F8D0
:100760002320C5E7083E47FA86F797F8544044EA45
:10077000831387F8543099E7082097E70C0000208E
:100780006100002073B5244D2E18044696F92420EC
:10079000072A1DDD083A45FA82F595F854309B0981
:1007A000032B10D1019001A8FFF764FE019BD0F844
:1007B0001015D94001F001010231204602B0BDE818
:1007C0007040FFF763BE012B0CBF02210321F4E749
:1007D000D3B2072B1DD8930003F1804303F5C04328
:1007E000D3F8100540F00100C3F8100502F14000F5
:1007F00040B2800080B2FFF731FE51B196F924304B
:1008000055F823302BB1012303FA02F2034BC3F84E
:10081000042302B070BD00BF0C0000200060004047
:10082000074B034493F9240093F82430072B9FBF10
:10083000403040B2800080B288BF4FF4BE70704735
:100840000C00002008B5FFF7EBFF00F1804000F539
:10085000C04008BD2DE9FF410024CDE90244534DBD
:100860004FF48072012102F1804303F5C04390B23E
:100870001B68012B06D1D5F804330B4202D0FFF7D9
:10088000EDFD0C430432B2F5907F4FEA4101EAD10D
:10089000464BD3F87C31012B11D14FF4BE70FFF7DA
:1008A000DDFD4FF0A04344F00044D3F82025029230
:1008B000C3F82025D3F820280392C3F82028E3B2F8
:1008C000D3B13B4F01260025344210D0AB0003F1D9
:1008D000804303F5C043D3F81005D3F8101557F83B
:1008E000253023B1C1F30141C0F3052098470135FC
:1008F000082D4FEA4606E7D1002C4EDA2C4F2D4E3C
:1009000097F954305A1C3AD0C3F3C20110316944EC
:10091000DAB211F8081C03F03F04012503F00703C5
:1009200005FA03F319422AD001A80194FFF7A2FDAA
:10093000019B03F5E07350F82330C3F30148B8F18D
:10094000020F0CBF032102212046FFF79FFD01A8E3
:100950000194FFF78FFD019B9D403B19C0F8205586
:1009600093F9243057F823304BB19109032904D06F
:10097000B8F1020F14D1012901D1204698474FF058
:10098000A043D3F820250292C3F82025D6F82035BD
:100990000393C6F820351343B2D104B0BDE8F0810B
:1009A000B8F1030FEBD10229E6E700BF0060004079
:1009B0000C000020000300502DE9F84F134DDFF824
:1009C000508007464FF0000A04264FF001095FFAF5
:1009D0008AFB002009FA0BF4FFF732FD2C420AD003
:1009E000D8F8003014EA030201BF2343C8F80030EE
:1009F00087F800B016460020FFF724FD1EB1A5437E
:100A00000AF1010AE3D13046BDE8F88FFFFF0F007D
:100A10006800002010B5A1B19AB101238340C3F34F
:100A2000130484B10A4C246823420ED0C00000F1A4
:100A3000804000F5F830C0F81015C0F814250020EB
:100A400010BD0E20FCE70720FAE70820F8E700BFFA
:100A500068000020012303FA00F0C0F313031BB168
:100A6000054B1B68184204D0044BC3F80405002052
:100A700070470820704700BF6800002000F0014068
:100A80002DE9F341104C114F114E00254FF48038E1
:100A9000236883B1D7F8043308FA05F21A420AD062
:100AA0000023236023680193A4F50040019B80B2DA
:100AB000D6E9003198470135042D04F10404E7D14B
:100AC00002B0BDE8F08100BF4081004000800040DE
:100AD0006C000020704700001FB5FFF7FDFC08B157
:100AE000FFF776FC244C2288A378ADF808208DF817
:100AF0000A30224A032302A90B208DF80930FFF7A0
:100B0000C1FD08B1FFF764FC1D4BB4F803209B78CE
:100B1000ADF80C2003A90D208DF80E30FFF722FD53
:100B200008B1FFF755FC0D20FFF78CFD01210B20CC
:100B3000FFF728FEFFF788FC08B1FFF749FC1148D2
:100B4000FFF73AFF08B1FFF743FC0B20FFF77AFEEF
:100B500001900D20FFF788FD0A4C0199024620788C
:100B6000FFF758FF08B1FFF733FC2078FFF772FF5B
:100B700008B1FFF72DFCFEE7B80D0000D50A000014
:100B8000BB0D0000780000204FF08053D3F83001F7
:100B9000A0F1080358425841704700004FF08053BD
:100BA000D3F83021082A06D1D3F83431052B02D8E6
:100BB000024AD05C70470020704700BFC40D00009F
:100BC000024AD2F80034002BFBD0704700E001400D
:100BD00010B5FFF7D9FF40B14FF080430022C3F8B2
:100BE0000C21C3F81021C3F83825FFF7CDFF0028EA
:100BF00046D04FF08052654BD2F80414C3F820154C
:100C0000D2F80814C3F82415D2F80C14C3F8281528
:100C1000D2F81014C3F82C15D2F81414C3F83015F8
:100C2000D2F81814C3F83415D2F81C14C3F84015C0
:100C3000D2F82014C3F84415D2F82414C3F8481588
:100C4000D2F82814C3F84C15D2F82C14C3F8501558
:100C5000D2F83014C3F85415D2F83414C3F8601520
:100C6000D2F83814C3F86415D2F83C14C3F86815E8
:100C7000D2F84014C3F86C15D2F84424C3F8702598
:100C8000FFF78CFF18B1424B424AC3F88C26FFF79E
:100C900085FF18B1404BFB22C3F81825FFF77EFFF4
:100CA00070B14FF080414FF08053D1F8E42ED3F86B
:100CB000583222F00F0203F00F031343C1F8E43E51
:100CC000FFF76CFF20B1354B4FF40072C3F840269C
:100CD000FFF75AFF48B14FF08043D3F80024D20702
:100CE00044BF6FF00102C3F800242D4AD2F88830C7
:100CF00043F47003C2F88830BFF34F8FBFF36F8F98
:100D00004FF08053D3F83021082A0ED1D3F8343174
:100D1000052B02D8234AD35C3BB14FF01023D3F804
:100D200008224FF08043C3F858254FF01023D3F822
:100D30000022002A03DBD3F80432002B22DA1A49FE
:100D400001234FF01020C1F804351224FFF738FFBB
:100D5000C0F80042FFF734FFC0F80442FFF730FF4D
:100D60000023C1F80435FFF72BFFBFF34F8F0C4969
:100D70000E4BCA6802F4E0621343CB60BFF34F8F9F
:100D800000BFFDE70A4B0B4A1A6010BD00C00040CF
:100D9000005000404881030000F0004000900240F5
:100DA00000ED00E0BE0D000000E001400400FA0587
:080DB000000000200090D003B8
:100DB800020002030101000000000101010000001F
:040DC8000000000027
:040DCC000090D003C0
:040000030000037581
:00000001FF
