:020000022000DC
:1070000000000420BD720200E5720200E772020077
:10701000E9720200EB720200ED7202000000000053
:10702000000000000000000000000000EF720200FD
:10703000F172020000000000F3720200F57202001B
:10704000C9A20200F772020015AC0200F77202003A
:10705000F7720200F772020005A70200F772020041
:10706000F7720200F7720200F7720200F772020074
:10707000F7720200F7720200F7720200F772020064
:10708000F7720200998E0200F7720200F772020096
:10709000F7720200F7720200ADCB0200F772020035
:1070A000F7720200F7720200F7720200F772020034
:1070B000F7720200F77202000000000000000000FA
:1070C000F7720200F7720200F7720200F772020014
:1070D000F7720200F7720200F7720200F772020004
:1070E000F7720200F7720200F7720200000000005F
:1070F00000000000F772020000000000F7720200BA
:10710000000000000000000000000000000000007F
:10711000000000000000000000000000000000006F
:10712000000000000000000000000000000000005F
:10713000000000000000000000000000000000004F
:10714000000000000000000000000000000000003F
:10715000000000000000000000000000000000002F
:10716000000000000000000000000000000000001F
:10717000000000000000000000000000000000000F
:1071800000000000000000000000000000000000FF
:1071900000000000000000000000000000000000EF
:1071A00000000000000000000000000000000000DF
:1071B00000000000000000000000000000000000CF
:1071C00000000000000000000000000000000000BF
:1071D00000000000000000000000000000000000AF
:1071E000000000000000000000000000000000009F
:1071F000000000000000000000000000000000008F
:1072000010B5054C237833B9044B13B10448AFF3E0
:1072100000800123237010BDA01E0020000000008C
:1072200008DE020008B5034B1BB103490348AFF366
:10723000008008BD00000000A41E002008DE02003F
:10724000A3F5803A704700BF174B002B08BF134BC4
:107250009D46FFF7F5FF00218B460F461348144A61
:10726000121A05F07DFE0E4B002B00D098470D4BF7
:10727000002B00D098470020002104000D000D488D
:10728000002802D00C48AFF3008005F027FE200054
:10729000290004F0DFFB05F00DFE00BF0000080030
:1072A000000000000000000000000420A01E0020DC
:1072B0002829002000000000000000000649074ABD
:1072C000074B9B1A03DD043BC858D050FBDC02F08F
:1072D0008FFDFFF7B9FF000050DF0200C81D00203E
:1072E000A01E0020FEE7FEE7FEE7FEE7FEE7FEE762
:1072F000FEE7FEE7FEE7FEE7F0B595B0084600249E
:107300000E4617461D4602F03BFB1A9A0D92234685
:10731000082205A93046CDE9095408978DF82C407C
:107320000C9402F091FBDDE906219DF814308DF8F4
:107330001140CDE9021203F00302012A28D0022AEB
:1073400004D0304602F020FB15B0F0BDBDF8165059
:10735000C3F3C203C5F389158DF810300827082D33
:107360002C4628BF08243B4622460EA9304602F090
:107370006BFB2D1B08AB02AA21460EA8274400F088
:10738000C5FE002DEBD1304602F0FEFA15B0F0BD7F
:10739000BDF814100598C1F38312C3F3C203C0F300
:1073A0009525C1F383148DF810300EA93046920054
:1073B000082302F049FB08AB0093224602AB0EA95A
:1073C000284600F02DFE304602F0DEFA15B0F0BD82
:1073D000014B01221A707047001F0020704700BF48
:1073E00000B583B0044B0093044A4023FFF784FFA9
:1073F00003B05DF804FB00BF01740200C01E002052
:1074000038B50F480F4D03780F4CEB5C4FF0000C74
:1074100084F800C0D2B253B1043004F087F958B9EF
:107420000A4B1B7813B12378002BFCD038BD0C30ED
:1074300003F08EFE0028F3D001F0DAF8F0E700BF89
:10744000C81D002098250020001F0020BC1E002021
:1074500010B51548154A0378D35C88B0C3B1043021
:1074600004F0ACF8124C0FCCEC46ACE80F0094E8FA
:107470000F008CE80F0006230B480093002269469A
:1074800002F0B2FE40B90B4B00221A7008B010BDDA
:107490000C3003F0D7FDE5E701F0AAF8054B002218
:1074A0001A7008B010BD00BFC81D0020982500202C
:1074B000B0CF0200BC1E002010B50F4C0FCC88B01E
:1074C000EC46ACE80F0094E80F008CE80F000623B0
:1074D0000A4A0B480093694602F086FE20B9094B20
:1074E00001221A7008B010BD01F082F8054B01228C
:1074F0001A7008B010BD00BFB0CF0200D1730200F7
:10750000C81D0020BC1E002008B5FFF7D5FF0448A9
:10751000042100F001FD034B01225A7108BD00BF98
:1075200038DF0200DC1D0020064B074810B50022A2
:107530001A7002F0BBF9044610B9044802F0E2FBED
:10754000204610BDD41F0020E4DE020008D0020057
:1075500030B499B10D490E4D491BC90813D00D4CDB
:10756000002302E0013399420AD034F823208242FA
:10757000F8D1184655F8300030BC7047044DF9E793
:10758000002030BC70470846F6E700BFE4DE02008A
:107590004CDE02009C1E0020094B013903EBC000A9
:1075A00003290BD8DFE801F0040208060420704725
:1075B000022070474079704700797047002070477B
:1075C0004CDE0200704700BF2DE9F043904CD4E937
:1075D00001239A4285B060D00023C4F81834BFF369
:1075E0004F8FA568EAB2D31C04EB830114F8233053
:1075F000580718D566680B7803F00303012B42D0B7
:10760000022B03D14B88023505EB9315EAB2D4F86F
:107610001804D31C04EB830128B9AE4239D914F8FD
:1076200023305B07E7D404EB82026B1CDBB2D26829
:1076300004EB830302F00301DB680229CDE9012397
:1076400005F102062DD0012900F09280D4F81054E3
:107650003DB12B6828469B689847EB681D68002D54
:10766000F7D16C486C4B6D49C01AC008000440F05B
:10767000020000F07BFBD4E90130C01A18BF0120E2
:1076800005B0BDE8F0830B880235C3F383131D44B6
:10769000BCE7A66005B0BDE8F083002005B0BDE8FA
:1076A000F083BDF806305E48C3F389184546502D77
:1076B00028BF502505F1080165F38F13C1F30901B7
:1076C000ADF8063002F0F4F807460028BED002F00C
:1076D00057F90023082201A9384602F081F9F34343
:1076E000DBB20133B5EB830F4FEA83027ED9F1B2EF
:1076F0005FFA82F9033104EB810138460823A5EBD8
:10770000090502F06DF9EDB209F10803454903F0EE
:10771000FC032A46384602F063F908F1030806EB39
:107720009806D4F81834002B6ED1D4F8105465B1F3
:10773000EB685A7928463946002A61D02B681B68C5
:107740009847EB681D68002DF2D1384602F01CF90D
:1077500000230DF103008DF8033001F001FAD4F895
:10776000183403B9A6609DF8030001F01FFA82E700
:10777000BDF804202A48C2F38313062B28BF062332
:1077800063F38912023303F00F018900ADF804207E
:1077900002F08EF8074600283FF458AF02F0F0F8E8
:1077A0000023082201A9384602F01AF9BDF8043076
:1077B00013F4707FB5D06FF001094FF00808A9EB02
:1077C0000509F1B203314346042204EB8101384636
:1077D00002F006F9BDF804300136C3F3831309EB58
:1077E0000602934208F10408EBD89AE7F1B203319C
:1077F0002A4604EB81010823384602F0F1F88CE7B1
:107800001D68002D94D1A0E7384602F0BDF832E79C
:10781000D41F002074DE02004CDE0200F0CF020014
:10782000E4DE0200E01F00202DE9F04F89B0DFF810
:10783000B4B10393064600230DF113008DF8133005
:10784000CDE9011201F08CF9DBF80830DBF80470A7
:1078500003F58073DB1B042B78D80BF21C450BF56A
:1078600083680BF2144419E0BDF81630C3F3891392
:1078700003334FEA114A09EB9309204601F01AFC41
:10788000514608B1CBF80890284601F0EFFBDBE940
:10789000012303F580739B1A042B58D80121284635
:1078A00001F0E4FB404601F0F9FB204601F0F6FB55
:1078B000DBF80830DAB2D11C0BEB810C1BF821107D
:1078C00001F00400490721D40BEB820203F1020905
:1078D000D26805920133DBB20BEB830302F00302A3
:1078E000012AD9682AD0022ABED04FF0000AC4E784
:1078F000BCF802300EEB9313DAB2D11C0BEB810C07
:107900001BF8210000F004000028DDD09CF80010D6
:1079100001F0030101290AD0022903F1020E02F14C
:107920000301E5D00BEB810C0028EFD1CCE7BCF8CC
:1079300000200233C2F383121344DDE7BDF8143094
:10794000C3F383134FEA114A994496E73A46D3B2F8
:1079500003330532C5219DF813004BF82310CBF8F3
:10796000042001F023F9BB1CDBB20BEB8303029A6A
:10797000DA60FB1CDBB20BEB8303039ADA603B1D7E
:10798000DBB20BEB8303129ADA600021144801F09A
:107990004BFB80F31001F200019B02F0380242F031
:1079A000C102781C42EA8322C0B2FBB2033309044D
:1079B0000BEB800041EA1641C1604BF823209BF895
:1079C000003023B9FFF7FEFD09B0BDE8F08FFFF7E7
:1079D000FBFD0028F6D0FFF7F7FD0028F7D1F1E70F
:1079E000F0230020D41F00202DE9F04FDFF8BCB1B8
:1079F00089B0002406460DF113000393CDE901126E
:107A00008DF8134001F0ACF8DBF80830DBF80470B7
:107A100003F58073DB1B032B00F281800BF21C4506
:107A20000BF583680BF214441AE0BDF81630C3F36B
:107A3000891303334FEA11490AEB930A204601F0F8
:107A400039FB494600283AD02846CBF808A001F077
:107A50000DFBDBE9012303F580739B1A032B5FD831
:107A60000121284601F002FB404601F017FB2046A9
:107A700001F014FBDBF80830DAB2D11C0BEB810CFF
:107A80001BF8211001F00400490728D40BEB8201F8
:107A90005A1CC9680591D2B201F003000BEB8202B7
:107AA0000128D16803F1020A31D00228BDD0204656
:107AB00001F000FB4FF0000949460028C4D12846D8
:107AC000C5E7BCF802300EEB9313DAB2D11C0BEB16
:107AD000810C1BF8210000F004000028D6D09CF88F
:107AE000001001F0030101290AD0022903F1020E5E
:107AF00002F10301E5D00BEB810C0028EFD1C5E7C3
:107B0000BCF800200233C2F383121344DDE7BDF852
:107B10001430C3F383134FEA11499A448EE73A466F
:107B2000D3B20333043285219DF813004BF82310A0
:107B3000CBF8042001F03AF8BB1CDBB20BEB83035B
:107B4000029ADA60FB1CDBB20BEB8303039ADA6068
:107B50000021154801F068FA80F31001F300019A42
:107B600003F0380343F08103781C43EA8223C0B258
:107B7000FAB209040BEB8000033241EA1641C160FE
:107B80004BF822309BF8003023B9FFF71BFD09B0FA
:107B9000BDE8F08FFFF718FD0028F6D0FFF714FDC1
:107BA0000028F7D1F1E700BFF0230020D41F002008
:107BB0002DE9F04FDFF8B0B187B0002306460DF194
:107BC0000B008DF80B30CDE9001200F0C9FFDBE9A6
:107BD000018303F58073A3EB0803022B00F281807D
:107BE0000BF21C450BF583670BF214441AE0BDF849
:107BF0000E20C2F3891203324FEA114A09EB9209AF
:107C0000204601F057FA514600283AD02846CBF8D2
:107C1000089001F02BFADBE9012303F580739B1A2E
:107C2000022B5FD80121284601F020FA384601F0E6
:107C300035FA204601F032FADBF80830DAB2D11C0E
:107C40000BEB810C1BF8211001F00400490728D42C
:107C50000BEB82015A1CC9680391D2B201F00300F8
:107C60000BEB82020128D16803F1020931D002280E
:107C7000BDD0204601F01EFA4FF0000A5146002800
:107C8000C4D12846C5E7BCF802300EEB9313DAB234
:107C9000D11C0BEB810C1BF8211001F00400002813
:107CA000D6D09CF8001001F0030101290AD0022966
:107CB00003F1020E02F10301E5D00BEB810C002869
:107CC000EFD1C5E7BCF800200233C2F3831213449E
:107CD000DDE7BDF80C20C2F383124FEA114A91444C
:107CE0008EE74246D3B20333033245219DF80B00A1
:107CF0004BF82310CBF8042000F058FF08F10203E2
:107D0000DBB20BEB8303019ADA600021154801F026
:107D10008BF980F31001F300009A03F0380343F06D
:107D2000410308F1010043EA8223C0B25FFA88F2FE
:107D300009040BEB8000033241EA1641C1604BF8A5
:107D400022309BF8003023B9FFF73CFC07B0BDE8B8
:107D5000F08FFFF739FC0028F6D0FFF735FC00283C
:107D6000F7D1F1E7F0230020D41F00202DE9F04FD8
:107D7000DFF8A0A187B0002306460DF10B008DF8B7
:107D80000B30019100F0ECFEDAE9018303F580731A
:107D9000A3EB0803012B00F281800AF21C450AF5CF
:107DA00083670AF214441AE0BDF80E30C3F3891356
:107DB00003334FEA11490BEB930B204601F07AF99C
:107DC000494600283AD02846CAF808B001F04EF9D2
:107DD000DAE9012303F580739B1A012B5FD8012197
:107DE000284601F043F9384601F058F9204601F0E1
:107DF00055F9DAF80830DAB2D11C0AEB810C1AF81E
:107E0000211001F00400490728D40AEB82015A1C12
:107E1000C9680391D2B201F003000AEB8202012883
:107E2000D16803F1020B31D00228BDD0204601F009
:107E300041F94FF0000949460028C4D12846C5E75A
:107E4000BCF802300EEB9313DAB2D11C0AEB810CB2
:107E50001AF8211001F004000028D6D09CF8001078
:107E600001F0030101290AD0022903F1020E02F1F7
:107E70000301E5D00AEB810C0028EFD1C5E7BCF87F
:107E800000200233C2F383121344DDE7BDF80C3047
:107E9000C3F383134FEA11499B448EE74246D3B2A2
:107EA0000333023205219DF80B004AF82310CAF86B
:107EB000042000F07BFE0021154801F0B5F880F3A6
:107EC0001001F300019A03F0380343F0010308F1B5
:107ED000010043EA8223C0B25FFA88F209040AEB88
:107EE0008000033241EA1641C1604AF822309AF814
:107EF000003023B9FFF766FB07B0BDE8F08FFFF74E
:107F000063FB0028F6D0FFF75FFB0028F7D1F1E70D
:107F1000F0230020D41F002030B4154DD5F81014E4
:107F20000446002071B10B4601E01B6853B1DB68C9
:107F30001A798242F9D101300A28F3D14FF0FF308B
:107F400030BC7047E3681871D5F810344BB1DA686B
:107F5000E36812681A60D5F81034DB681C6030BC26
:107F60007047C5F81044E268136030BC704700BF2A
:107F7000D41F002038B5084BD3F8104401251D70DC
:107F80004CB1E3685D71236820465B689847E368FD
:107F90001C68002CF5D138BDD41F002030B5C38833
:107FA00085B004460D4623BB237A052B1FD0627A89
:107FB00082B9144AA08852F8232003920021FFF7C7
:107FC000C7FA039A10490346284605B0BDE8304079
:107FD00001F0EAB81946A088FFF7DEFA0B4B0C490E
:107FE00053F82020284601F0DFF8237AE1E705B0B6
:107FF00030BD08490091084A0849284601F0D4F8E4
:10800000D2E700BFE0D0020040D00200BCD00200A6
:108010003CD0020034D0020014D002001CD0020078
:108020002DE9F04385B01D460C9C002394F80C907C
:10803000237380460E46174621462846FFF7AEFFBB
:10804000062F09D8DFE807F0042E343B444F1F0009
:108050004146204601F0A8F82B7A052B05D06B7A13
:108060005BB92749204601F09FF8204601F090F8BF
:1080700084F80C9005B0BDE8F083224A22492046DE
:1080800001F092F8EDE77369039333690293F368A3
:108090000193B3680093D6E900234146204601F0DE
:1080A00083F8D9E732684146204601F07DF8D3E7EE
:1080B000D6E900234146204601F076F8CCE7B368C4
:1080C0000093D6E900234146204601F06DF8C3E74E
:1080D000F3680193B3680093D6E900234146204634
:1080E00001F062F8B8E733690293F3680193B3686B
:1080F0000093D6E900234146204601F055F8ABE74E
:108100004CD0020034D002003CD00200082900D933
:1081100070472DE9F04F1D4683B000241B7B2C7364
:108120000E4607462946104690460193DFF8D0B028
:10813000DFF8D0A0FFF732FF05E03A5D013401F02F
:1081400033F8082C09D0A64251462846F5D859469E
:10815000013401F029F8082CF5D12449DFF8A8B042
:10816000234CDFF8A8A0284601F01EF84FF00009C4
:1081700017E017F80910481C7E294FF02E02C0B2F4
:1081800006D810F80A2012F0970F14BF0A462E22C4
:108190002146284609F1010901F006F8B9F1080F56
:1081A0000AD04E45E5D85946284609F1010900F0A4
:1081B000FBFFB9F1080FF4D198F80830052B02D075
:1081C00098F809305BB90B49284600F0EDFF2846C6
:1081D00000F0DEFF019B2B7303B0BDE8F08F064A71
:1081E0000649284600F0E0FFEDE700BF5CD0020042
:1081F00060D002004CD0020034D002003CD002001B
:1082000058D0020050D0020048D0020000DD020029
:1082100038B5174B1D783DB3164A1168C0B200231C
:108220000C4604E00133AB4204F108041CD011F801
:1082300033209042F6D102F055FA6378A3F101039E
:10824000B3FA83F35B09834200D038BD0A4BD3E90C
:1082500000231343F9D1094B094819680022BDE8EE
:108260003840490800F020BC00231B78FFDE00BF27
:108270008C240020C024002098240020902400207A
:10828000E81D00202DE9F04FDFF8788298F80030E3
:1082900083B0002B00F02B81DFF86C92954F964E47
:1082A00000254FF0010AD7F800B01BF8350002F0A6
:1082B00019FA1BF835400BEBC50361085B7816F81B
:1082C00001C014F0010EA3F10103B3FA83F314BF4C
:1082D0004FEA1C120CF00F025B09042A00F2EA803C
:1082E000DFE802F0725F33200300834240F09F809A
:1082F000BEF1000F0CBFF0230F230CEA030C0CBFE0
:108300000323302343EA0C03735498F8002001350B
:108310009542C8DBD9E90023134340F0DE8003B067
:10832000BDE8F08F834200F0C580BEF1000F0CBFA6
:10833000F0230F230CEA030C0CBF0423402343EA71
:108340000C03735498F80020E1E7834240F0B580B5
:10835000BEF1000F0CBFF0230F230CEA030C98F8BA
:1083600000200CBF0323302343EA0C037354002A7C
:10837000D0D0D7F800C00023614603E0934201F15A
:108380000801C4D01CF83300A04203F10103F5D169
:108390004B68002BBBD020460121984798F800205D
:1083A000B5E7834219BF00231A4620230222BEF1FB
:1083B000000F16BF1A46F0230F230CEA03031A43DB
:1083C000725498F80020A2E7834273D14FF0000363
:1083D000BEF1000F8DF8073014BF0F23F0230CEA15
:1083E000030C14BF1023012343EA0C030DF1070013
:1083F000735400F0B5FBA4F12003C4F120022AFA63
:1084000002F20AFA03F31343D9F800209DF807009B
:108410000AFA04F42243C9F80020D9F804201343CF
:10842000C9F8043000F0C2FB98F800206FE7BEF1F5
:10843000000F14BF0F23F0230CEA030398F800C0C9
:108440007354BCF1000F12D038680023024603E0D9
:10845000634502F108020AD010F83310A14203F17B
:108460000103F5D1536813B10021204698474FF01E
:1084700000030DF107008DF8073000F071FBA4F147
:108480002003C4F120022AFA02F20AFA03F313438A
:10849000D9F800209DF807000AFA04F422EA040241
:1084A000C9F80020D9F8042022EA0303C9F80430EF
:1084B00000F07CFB98F8002029E7BEF1000F0CBF0C
:1084C000F0230F230CEA030C0CBF0123102343EA13
:1084D0000C03735498F8002019E7084B08481968F2
:1084E0000022490803B0BDE8F04F00F0DDBADFF824
:1084F00018900FE7C0240020A02400209024002022
:10850000E81D00208C24002098240020092A3FD94F
:10851000F0B583B0144605460E4601F067FF88B3F8
:10852000204B214A1E70214B1560002120481C6001
:10853000202204F015FD1F4B00200021741EC3E90A
:108540000001E4B236B31C4F05EBC404032602E07D
:10855000A5421FD01C469DF8063094F802C0207832
:108560008DF8046023F007033A4601A98DF8063020
:108570008DF805C001F044FFA4F108030028E7D0FE
:1085800003B0F0BD01F0D8FE0028C9D003B0F0BDA3
:1085900007207047094A0A48002103B0BDE8F040AF
:1085A00000F06ABA8C240020C0240020902400200F
:1085B000A02400209824002011820200858202005D
:1085C00000D1020070B5084D2B785BB1074E002436
:1085D0003368012113F8340002F014F82B780134C9
:1085E000A342F5D8002070BD8C240020C0240020B8
:1085F00000B585B00346002101AA44F20100CDE98F
:108600000111039300F004F805B05DF804FB00BF0E
:1086100010B572B6FFF7AEFCFEF7D6FF0028FBD10F
:10862000104B114C1149E41AE408240444F00100F1
:10863000FFF79CFB0E4BD3F8F030DB0700D500BEF4
:108640000C4944F00200FFF791FBBFF34F8F08493C
:10865000094BCA6802F4E0621343CB60BFF34F8F4B
:1086600000BFFDE74CDE020074DE020004D1020010
:1086700000ED00E010D102000400FA0530B48D686E
:108680008468C368CA68A54272EB03032CBF01204B
:10869000002030BC704700BF10B5044682B00023F4
:1086A0000DF107008DF8073000F05AFA23692BB955
:1086B0004FF0FF324FF0FF33C4E902239DF807006B
:1086C00000F074FAD4E90530984700230DF1070053
:1086D0008DF8073000F044FA2369BBB1D4E90212E7
:1086E000B2F1FF3F08BFB1F1FF3F0FD05B1842F17D
:1086F0000002C4E902329DF8070000F057FA07486B
:10870000214601F023FB012002B010BD9DF80700B7
:1087100000F04CFA002002B010BD00BF30D10200C2
:108720002DE9F04F2DED028B83B008EE100A00F01A
:1087300071FB40B1AC4AD2E9003113F1807341F1D1
:108740000001C2E9003118EE100A002100F07EFBA2
:10875000A64D60B32B6853B3A54B2C681B7823B38D
:108760001CB3A44800F082FB9F4BA34A19685B68C6
:108770004018D2E9001243F10003884273EB020271
:1087800003D210F1807043F10003D4E90212884251
:10879000934180F02581B2F1FF3F08BFB1F1FF3F67
:1087A00003D09648214601F0D1FA00232B6018EE41
:1087B000100A012100F04AFB002840F0F1809048A7
:1087C00001A900F0CDFB00283AD08D4C4FF0FF38C6
:1087D0004FF0FF3909E033B301A9204600F0F2FB66
:1087E00001A9204600F0BCFB50B30378012B11D047
:1087F000022BF0D1814E304601F0BCFA30B1C0E915
:108800000289304601F0B6FA0028F8D1784B0122EF
:108810001A70E1E72B684168994200F0B58077480B
:1088200001F0B2FAD8E74168D1E90223B3F1FF3F82
:1088300008BFB2F1FF3FCFD0704801F087FACBE715
:108840006E4FDFF8B081DFF8A091384601F098FA5A
:10885000002852D0D0E90223B3F1FF3F08BFB2F1A4
:10886000FF3F00F08D80296891B12968D1E90201AC
:1088700082428B4144D22B68D3E90223B3F1FF3FFC
:1088800008BFB2F1FF3F03D02968384601F05EFA15
:10889000384601F06FFA04464046574ED4E902BA12
:1088A00000F0E4FAD9E900133268401843F10003FC
:1088B0009042726873EB020203D210F1807043F1B0
:1088C0000003BBEB00006AEB0303012873F1000314
:1088D00024DBB0F5350F4DD25A464FF496030021F4
:1088E000404600F011FA80B10D281BD00023384615
:1088F0002B6001F045FA0028ACD12B68002B66D024
:1089000003B0BDEC028BBDE8F08F2B68002B3ED08E
:108910002C6003B0BDEC028BBDE8F08F0021404617
:1089200000F088FA324B1B78002BDFD0404600F075
:108930009DFAD9F80030D6E90012C018D9F80430F1
:1089400043F10003884273EB020203D210F18070FE
:1089500043F10003D4E90212884293411CD2B2F1E0
:10896000FF3F08BFB1F1FF3FC0D02146384601F0BC
:10897000EDF9BBE7404600F079FA224A0244ACE741
:10898000384601F0F7F960E700232B6024E718EE82
:10899000100A00F087F9BBE72046FFF77DFEA5E748
:1089A0001448154E00F062FA0F4B1A685B68801885
:1089B000D6E9001243F10003884273EB020203D2AE
:1089C00010F1807043F10003C6E90003F7E618EEEA
:1089D000100A03B0BDEC028BBDE8F04F00F066B9A1
:1089E0002046FFF759FEE0E6C82400204825002075
:1089F000D0240020081E00204025002030D1020095
:108A00002C250020FFFFB40010B5134B13491C6840
:108A1000134882B008235822019400F047FA044614
:108A200010B1204602B010BD0E4A0F4801A900F057
:108A3000D5F804460028F4D10B48012100F0E0F9F4
:108A400001231946094A084800F034F9084B01226D
:108A500020461A7002B010BD2CD10200D424002090
:108A60002C25002021870200081E0020FFFF7F0028
:108A7000D0240020000000006AB19FED097BA1F125
:108A800001010368B1FA81F1490983ED027BC3E971
:108A90000412002070470720704700BFAFF300802A
:108AA000FFFFFFFFFFFFFFFFF0B583B00446002587
:108AB00001A817460E468DF8045000F051F8D4E98D
:108AC0000223B3F1FF3F08BFB2F1FF3F06D09DF88C
:108AD000040000F06BF8284603B0F0BD1C4800F01D
:108AE000C5F91C4B1C4A19685B684018D2E9001292
:108AF00043F10003884273EB020224D3301843F1A0
:108B00000003A060E3609DF8040000F04FF82369C3
:108B1000A76103B12661114801A900F0DFF90346FE
:108B200070B100250D481D705C6001A900F008FAC5
:108B30000028D1D0064800F09DF9284603B0F0BDCA
:108B4000042003B0F0BD10F1807043F10003D5E7BD
:108B5000081E0020C8240020402500202C250020CD
:108B600070B4EFF3108472B60D4B9A68AAB9012164
:108B700099600C490C4ED1F8805035401D60C1F809
:108B80008060D1F884505D604FF0FF33C1F88430CD
:108B9000027004B962B670BC704701230370F8E735
:108BA0004C25002000E100E0FC06FFBD094B9A685F
:108BB0007AB170B910B4EFF3108172B6064A1C682E
:108BC00014605C685460986001B962B65DF8044B4B
:108BD000704770474C25002000E100E010B5294C9B
:108BE000437944F82320284C04EBC3031B79002B62
:108BF0003BD103680A88C3F8082590F904308A78C5
:108C0000002B2ADB03F16043520103F56143D2B22A
:108C100083F8002390F90430002B09DB1B494FEA4D
:108C2000531C012203F01F0302FA03F341F82C3016
:108C30004279174B44F832001648181A04EBC20167
:108C4000C0084FF0010C000481F804C040F003009C
:108C50001149FFF78BF8002010BD104903F00F03F6
:108C600052011944D2B20A76D4E70A4B08480C499B
:108C7000C01AC008000440F00200FFF777F808208F
:108C800010BD00BF602500205825002000E100E055
:108C900084DE02004CDE020060D10200FCEC00E049
:108CA0003CD10200036801221A6070470368012268
:108CB0005A60704770B405684FF480348C40C5F832
:108CC0000843056801F1500CC5F848434FEA8C0C85
:108CD00005681FFA8CFC002645F80C6083B055F837
:108CE0000C500195019D056801F5A87122F07F42A5
:108CF00045F821200268C2F8444313B10368C3F861
:108D0000044303B070BC70472DE9F0474FF4803640
:108D100022F07F4702688E40C2F848630268C2F8BA
:108D20000863026802EB810C044601F15005D2F899
:108D30000405DCF84025CCF84005AD00ADB2121AB0
:108D400020684FF0000840F8058082B0405900903C
:108D500022F07F42012A00988A46994641D0226833
:108D6000D2F80455C2F844637A1B22F07F42012AEC
:108D70000AF5A87125D0236843F821702068D0F83F
:108D800004557B1BC9F1FF12013B02F57F4223F022
:108D90007F439A4211D343B1C0F844632368002053
:108DA000C3F8046302B0BDE8F087013740F82170D2
:108DB0002068D0F804359D42EED00D2002B0BDE809
:108DC000F0872368013743F821700C4B4FF4806023
:108DD00043F0010398472068D0F804359D42DBD06A
:108DE000EBE7064A4FF4806042F0010290472268A8
:108DF00042F8058052590192019AB0E780D10200F1
:108E000002680223C2F8443311B10268C2F8043385
:108E1000704700BF0368D3F8040100B9704700220F
:108E200082B0C3F80421D3F804310193019B0120DF
:108E300002B0704702684FF4803303FA01F1C2F8C0
:108E400048130368C3F80813704700BF5031890006
:108E5000036889B2585800B9704700225A5082B04E
:108E60005B580193019B012002B070470368D3F85F
:108E70000405704790F90430002B09DB5A090548B6
:108E800003F01F030121403201FA03F340F82230BE
:108E9000704700BF00E100E0024A034B10681B6806
:108EA000184700BF582500206025002099B110B454
:108EB000B2FBF3F403FB1424A4B244B9C0E90014D8
:108EC00084608281C38120465DF8044B704709208D
:108ED0005DF8044B70470E20704700BF10B483B09C
:108EE00050E8013F1FFA83FCC489A4448489A44547
:108EF00028BFACEB040C0489A44502BFBFF32F8F3D
:108F0000002207E0CCEA030C40E801C4002CE7D1C2
:108F10004FF001028DF803200193019C9DF803207E
:108F20000C6032B1006810FA84F003B05DF8044BB5
:108F3000704702F0FF03184603B05DF8044B70471A
:108F40000A884B889A4201D00020704750E8012FD0
:108F5000C2EA024240E80123002BF7D1012070470A
:108F600010B483B050E8023F1FFAA3FCC488A445A4
:108F700002BFBFF32F8F00220EE0C489A44484896E
:108F8000A44528BFACEB040CC3EA0C4C40E802C477
:108F9000002CE7D14FF001028DF803200193019CD2
:108FA0009DF803200C6032B1006800EB144003B060
:108FB0005DF8044B704702F0FF03184603B05DF8FC
:108FC000044B70470A884B889A4201D000207047B2
:108FD00050E8022FC2EA224240E80223002BF7D1D8
:108FE000012070474B0901F01F024FF0010C0CFAF1
:108FF00002F100EB830000F021B800BF01F01F0276
:10900000012303FA02F24B0900EB8300D14300F085
:1090100021B800BF4B0901F01F0150F82300C840E0
:1090200000F00100704700BF034653E8000F0A46F6
:1090300043E8002C9CF0000FF7D17047034653E83B
:10904000002F42EA010043E8000C9CF0000FF6D12B
:10905000704700BF034653E8002F02EA010043E8CF
:10906000000C9CF0000FF6D1704700BF034653E898
:10907000002F02EB010043E8000C9CF0000FF6D13A
:10908000704700BF034653E8002FA2EB010043E8FE
:10909000000C9CF0000FF6D1704700BF0346012280
:1090A00053E8001F41EA020043E8000C9CF0000F67
:1090B000F6D170470346002253E8000F00EA020190
:1090C00043E8001C9CF0000FF6D17047D0B110B4FB
:1090D000D0E90112521A0468D2B2531E2160DBB2E9
:1090E00052B101680A6803F1FF3C541C0C60137014
:1090F0005FFA8CF3FF2BF4D10368002018715DF840
:10910000044B70470E20704730B583B004460025ED
:109110000DF107008DF80750FFF722FDD4E900316B
:109120001A688A4210D9511E19602168A3680D6817
:1091300012F8012C208A5B1BE56800FB02550A79B6
:10914000DBB29A4238BF0B719DF80700FFF72EFD86
:10915000284603B030BD00BF30B5054683B00DF1E1
:10916000070000230C468DF80730FFF7F9FC2A684A
:109170001368591C1160E9682A8A641AB4FBF2F476
:109180001C709DF80700FFF711FD03B030BD00BF54
:10919000826842B110B50446436901680069984786
:1091A0000023A36010BD70470EB400B582B00399D0
:1091B00021B104AB01AA019300F0B6F802B05DF84A
:1091C00004EB03B0704700BF2DE9F04F154683B0A4
:1091D000A942DDF830900D9A0F4606469A46C0F037
:1091E0009E800B464FF00108B3FBF5F39D4208F15A
:1091F0000108F9D9D04538BFD04612F001030193D8
:1092000002D1B9F1000F67D1B268BAF1010F4FF086
:10921000010406D90AF1FF3ABAF1010F05FB04F483
:10922000F8D8B7FBF4F39D4205D805FB04F4B7FB6F
:10923000F4F39D42F9D9DFF8ECA007E0AC42B4FBAF
:10924000F5F31AD3B2681C46B7FBF3F31AF803B070
:10925000BBF10A0F04FB137728D03368511CB160AF
:1092600003F802B0D6E901329A42E7D33046FFF75D
:109270008FFFB4FBF5F3AC42E4D2019B9BB1B9F193
:10928000000F10D02024C84509F1FF390BD2B36874
:109290003268591CB160D454D6E901329A4214D2D2
:1092A000B9F1000FEFD103B0BDE8F08F511C336866
:1092B000B1604FF00D019954D6E901329A42CCD3F6
:1092C0003046FFF765FFB268C7E73046FFF760FF3B
:1092D000B9F1000FD7D1E6E793071AD42024B2687A
:1092E000C84502F1010190D23368B1609C54D6E9BF
:1092F00001329A4209F1FF3903D2B9F1000FEFD1DF
:1093000083E73046FFF744FFB268B9F1000FE7D1B9
:109310007BE7BAF1000F0CBF30242024DFE74FF0C9
:10932000010867E788D10200002900F05C822DE97E
:10933000F04FDFF870950D7885B0064690460C46E4
:109340004FF00D0A0FE00A2DB36800F08E803268EE
:10935000591CB160D554D6E901329A4280F081801F
:109360002578002D69D00134002D66D0252DEAD155
:109370000027234614F8012B2D2A6CD0302A6DD0FB
:109380002B2A61D02A2A7FD0A2F1300109294FF07F
:1093900000050BD805EB850502EB450513F8012FF9
:1093A000A2F130010929A5F13005F3D92E2A1C4676
:1093B00075D0002301E014F8012F02F0FB016829A9
:1093C000F9D0252A00F08681583AD1B2202930D828
:1093D000202A2ED8DFE812F021002D002D002D00CC
:1093E0002D002D002D002D002D002D002D00FE0044
:1093F00079002D002D002D002D0079002D002D006D
:109400002D002D002D002D00BD002D002D001A0176
:109410002D0016012D002D002100D8F8001010227B
:10942000081DC8F8000009683046CDE90057FFF76D
:10943000CBFE01342578002D95D1337B002B40F0F5
:10944000438105B0BDE8F08F234614F8012B2D2A87
:1094500047F0040792D147F001078AE747F0020777
:1094600087E73046FFF794FE7AE73268591CB1600F
:1094700002F803A0D6E901239342FFF468AF304617
:10948000FFF786FEB36862E7D8F80020111DC8F820
:10949000001015685A782E2A03F1010489D16278E8
:1094A000A2F13003092B04F101044FF0000384D82A
:1094B00003EB830302EB430314F8012FA2F1300105
:1094C0000929A3F13003F3D977E7D8F80020111D5B
:1094D000C8F80010D2F800B08BEAEB72A2EBEB7286
:1094E000092A40F3DB81DFF8C0C30120114663295C
:1094F000ACFB02E200F101004FEAD202F6DC984236
:10950000024638BF1A460292002D00F01E81BBF1C0
:10951000000FC0F22E817A0700F12B81B80740F1CD
:109520002A81002B40F02781BBF1000FC0F27D8122
:109530007A0700F18D8107F00302022A00F05D81B5
:10954000CDE9005759460A223046FFF73DFE013467
:1095500070E7D8F800301A1DC8F800201F68B368FB
:109560003268581C3021B060D154D6E901239342AF
:1095700080F0FA80591C3268B1607821D154D6E964
:1095800001329A4280F0EB800F2F03D93B461B0932
:109590000F2BFCD84FF0805506E00F2D4FEA151326
:1095A0007FF647AFB2681D46B7FBF5F319F803B075
:1095B000BBF10A0F05FB137777D03368511CB160FC
:1095C00003F802B0D6E901329A42E6D33046FFF7FB
:1095D000DFFDE2E7D8F800301A1DC8F800201D783A
:1095E000B3680A2D00F03A813268591CB160D55435
:1095F000D6E901329A42FFF41CAF3046FFF7C8FDAE
:10960000013417E7D8F800100A2209E7D8F800302B
:109610001A1DC8F8002017F00107D3F800B064D174
:10962000BBF1000F03D0584603F0ACFC0746BD4227
:1096300015D9202201E0BD4211D0B1683368481C21
:10964000B0605A54D6E90130984205F1FF35F2D3A3
:109650003046FFF79DFDBD424FF02002EDD19BF853
:109660000050002D3FF4E5AE0A2DB0680FD03368EE
:10967000421CB2601D54D6E90130984280F0B4809B
:109680001BF8015F002D3FF4D4AE0A2DEFD13368F3
:10969000421CB26003F800A0D6E901309842E6D33C
:1096A0003046FFF775FDB068E1E73368511CB160E3
:1096B00003F802A0D6E901329A42FFF47EAF3046A9
:1096C000FFF766FDB26878E7304605B0BDE8F04FB9
:1096D000FFF75EBDB3683168581CB060CA54D6E964
:1096E00001329A4289D20134A4E69BF80030002B63
:1096F00000F0D680B0685F46CBF101020A2B02EB86
:10970000070B5ED0411CB16031680B54D6E90130C3
:10971000984248D217F8013F002BEFD15D457FF604
:1097200088AE202702E05D453FF483AEB26833681F
:10973000511CB1609F54D6E901329A4205F1FF35C0
:10974000F1D33046FFF724FDEDE7B80705D5002B30
:109750003FF4EAAEF9073FF5E7AE0025E4E6304610
:10976000FFF716FDB2680FE73046FFF711FDB3684B
:1097700000E7013DD2E6F9073FF5D6AE002DECD06B
:1097800020220299A942BFF4CFAEB168481CB06054
:1097900030684254D6E90101814205F1FF356CD2AF
:1097A000002DEED1D9E730460292FFF7F1FC17F811
:1097B000013F002BB2D0029AB0680A2B02EB070BD4
:1097C000A0D1411CB160316801F800A0D6E90110B8
:1097D000884297D33046CDE90232FFF7D9FCDDE964
:1097E0000232B0688EE770473046FFF7D1FC1BF8B5
:1097F000015F002D7FF438AF1BE6002B7FF4A0AE95
:109800008DB1302202998D427FF69AAEB168481C24
:10981000B06030684254D6E90101814205F1FF355C
:1098200035D2002DEED100258AE6B1683268481C99
:10983000B060CBF1000B2D205054D6E901219142AC
:10984000FFF479AE30460393FFF7A2FC039B72E668
:10985000B1683268481CB0602B20EDE73268591CB3
:10986000B16002F803A0D6E901239342FFF4BCAE35
:109870003046FFF78DFCB368B6E630460393FFF73A
:1098800087FC039B2022002D7FF47BAF65E73046E9
:109890000393FFF77DFC039B3022C2E701202EE6F5
:1098A0009B463BE788D10200CDCCCCCCFFF70EBC69
:1098B0002DE9F041058A0331043D4E198046B6FB7F
:1098C000F5F6FFF721FCA0B3F6B24FF48073013E2A
:1098D00004468380C580C0F800802BD00346002555
:1098E00008E06279AE4202F1010262713860C0F8AC
:1098F00000801FD040461F46FFF706FC0135034697
:109900000028EED16779791E17D02246013399429B
:109910001268FBD1D2F800805FB12668002501E013
:1099200034463668214640460135FFF715FCAF4204
:10993000F6D800242046BDE8F08120682146FFF7D4
:109940000BFCF6E7F8B546790146701E13D00A46BF
:109950000023013398421268FBD1176856B10D6895
:10996000002401E029462D6838460134FFF7F4FB56
:10997000A642F7D8F8BDBDE8F8400868FFF7ECBB91
:1099800001210430FFF772BB2DE9F04101210446AB
:109990000430FFF777FB10F0FF0301D0BDE8F08142
:1099A0006779791E16D02246013399421268FBD19D
:1099B000D2F80080002FF1D02668002501E034465F
:1099C0003668214640460135FFF7C6FBAF42F6D860
:1099D000BDE8F08120682146BDE8F041FFF7BCBB3F
:1099E0002DE9F8438846C788417907FB01F104391E
:1099F00002EB030C1E1D6145154638BFCD1AB74258
:109A00000446B6FBF7F207FB126002D8013A24685D
:109A1000FCD13E1AAE4228BF2E469DB14FF0000940
:109A20000430AD1B324608EB0901204403F08AFAEA
:109A3000AF42B14424683E464FF0000028BF2E4696
:109A4000002DEDD1BDE8F8832DE9F8430446C78821
:109A5000407907FB00F0043802EB030C1E1D604543
:109A6000154638BFC51AB7428846B6FBF7F107FB63
:109A7000116202D801392468FCD1BE1AAE4228BF57
:109A80002E469DB14FF00009111DAD1B32462144F9
:109A900008EB090003F056FAAF42B14424683E4691
:109AA0004FF0000228BF2E46002DEDD1BDE8F8830F
:109AB00041DF7047064A074B10B5002414701C6044
:109AC000BFF35F8F0449054800F02AF9204610BD16
:109AD0006C25002070250020A4D102006425002000
:109AE00000B583B000230DF107008DF80730FFF7B4
:109AF00037F8F1EE103A23F09F03E1EE103ABFF38E
:109B00005F8F0B4B4022C3F884219DF80700FFF7BD
:109B10004DF803F045F828B920BF40BF20BF03B07F
:109B20005DF804FB03B05DF804EBFFF7C1BF00BFB5
:109B300000E100E070B5044682B000250DF1070099
:109B40000E468DF80750FFF70BF82368A2681868D7
:109B50005968914238BF4D1CA84212D058685968C4
:109B60008A420BD800225A60E268531E072B19D88C
:109B7000DFE803F04540183B1818183301315960ED
:109B8000F2E7217C002941D158685D68AA423AD8A1
:109B900059602268A16813688B4234BF01330023E7
:109BA0001360E1E76368314600FB023003F0CAF955
:109BB0002268136851688B4282BFA068013009187F
:109BC000CB1A91689DF80700994238BF9360FEF761
:109BD000EDFF0024204602B070BD636896ED007B67
:109BE00003EBC00080ED007BE2E76368326843F876
:109BF0002020DDE76368328823F81020D8E7636807
:109C000032781A54D4E701355D60C2E79DF8070049
:109C1000FEF7CCFF0424204602B070BD70B50446A8
:109C200082B000230DF107000D468DF8073016466F
:109C3000FEF796FF236818685968884211D01968A2
:109C40002EB91A68A068824238BF561C1E60E268AE
:109C5000531E072B0DD8DFE803F0411A0C260C0C1D
:109C60000C329DF80700FEF7A1FF0524204602B044
:109C700070BD6368284601FB023103F063F99DF86B
:109C80000700FEF793FF0024204602B070BD636812
:109C90009DF8070033F811302B80FEF787FF002472
:109CA000204602B070BD63689DF8070053F821306C
:109CB0002B60FEF77BFF0024204602B070BD636876
:109CC0009DF8070003EBC101D1E90023C5E900239A
:109CD000FEF76CFF0024204602B070BD63689DF85B
:109CE00007005B5C2B70FEF761FF0024204602B08A
:109CF00070BD00BF036818685B68C01AB0FA80F0D6
:109D0000400970478268002393608268136182680B
:109D100053618268D36082685360826813607047C1
:109D200001600B6843604A68934204BF00234360AC
:109D3000704700BF436843B1026891680B444360B9
:109D40005268934204BF00234360704770B5446873
:109D5000064620680D4618B908E02468206828B136
:109D6000B368294698470028F7D120682860256005
:109D700070BD00BF4368186808B102681A60704778
:109D800043681868704700BF4368186818B908E04E
:109D90000346006828B18142FAD10A681A6001209E
:109DA000704770471049A1F5947205E052F83330BE
:109DB000984238BF61460CD2A1EB020C4FEADC732B
:109DC00003EBEC035B10914202EBC30CEED80748A7
:109DD000704702D90CF10802EEE7DCF80400034BEF
:109DE000002808BF18467047E4D60200A8D5020034
:109DF00010B44FF08053D3F83021082A23D0844A7E
:109E0000D2F8883043F47003C2F88830BFF34F8F24
:109E1000BFF36F8F4FF08053D3F83021082A00F042
:109E2000B3804FF01023D3F80022002AC0F2BF8085
:109E3000D3F80432002BC0F2BA80764B764A1A600F
:109E40005DF8044B70474FF080410020C1F80C01D1
:109E5000724AC1F81001C1F83805D3F80414C2F8E9
:109E60002015D3F80814C2F82415D3F80C14C2F83E
:109E70002815D3F81014C2F82C15D3F81414C2F80E
:109E80003015D3F81814C2F83415D3F81C14C2F8DE
:109E90004015D3F82014C2F84415D3F82414C2F89E
:109EA0004815D3F82814C2F84C15D3F82C14C2F86E
:109EB0005015D3F83014C2F85415D3F83414C2F83E
:109EC0006015D3F83814C2F86415D3F83C14C2F8FE
:109ED0006815D3F84014C2F86C15D3F83411D3F8D0
:109EE0004434C2F87035052942D84D4B5B5C1BB138
:109EF0004C4B4D4AC3F88C264C4B5B5C73B14FF016
:109F000080534B49D3F83021FB20C1F81805082AAB
:109F1000D3F834117FF473AF052929D8454B5B5C26
:109F2000BBB14FF080524FF08040D2F85832D0F899
:109F3000E41ED2F8304121F00F0103F00F030B4370
:109F4000C0F8E43E082CD2F834117FF458AF05294C
:109F50000ED8394B5B5C5BB14FF08053374AD3F876
:109F600030314FF40071082BC2F840167FF447AF30
:109F70004FF08043D3F80024D2077FF540AF6FF055
:109F80000102C3F800243AE7D3F83431052B08D98D
:109F90004FF010224FF08043D2F80822C3F8582522
:109FA0003FE7274AD35C002B3FF43BAFF0E7254A5D
:109FB0000123C2F80435D2F80034002BFBD04FF057
:109FC000102312211F4AC3F80012D2F80034002BCC
:109FD000FBD04FF0102312211A4AC3F80412D2F812
:109FE0000034002BFBD000231649C2F80435D1F809
:109FF0000034002BFBD0BFF34F8F0549124BCA68CA
:10A0000002F4E0621343CB60BFF34F8F00BFFDE764
:10A0100000ED00E0101E00200090D00300C00040C2
:10A02000ECD602000050004048810300ECD602004C
:10A0300000F00040ECD60200ECD602000090024096
:10A04000E4D6020000E001400400FA0510B568B94A
:10A050000E4CA368012262703BB1D3E900230020BB
:10A06000A2609847A368002BF7D110BD0128FCD14E
:10A07000064C2369A070002BF7D0D3E90023012000
:10A08000226198472369002BF7D110BD7425002069
:10A0900070B910B5074CA368012262703BB1D3E9D7
:10A0A00000230020A2609847A368002BF7D110BDC1
:10A0B000704700BF7425002030B5012883B004D05C
:10A0C000032821D0B0B103B030BD294C00230DF1DD
:10A0D00007008DF80730FEF743FD23786BB3E36884
:10A0E0009DF8070001221344E360A270FEF75EFDB5
:10A0F00003B030BD1F4B0122C3F88020BFF34F8F48
:10A10000BFF36F8F03B030BD194C00F0B5F80023DA
:10A110000DF107008DF80730FEF722FDE368013BE3
:10A12000E360E3681BB9144BD3F80054C5B19DF844
:10A130000700FEF73BFD03B030BD10486360A3602D
:10A140002361E36000F08CF802F02AFD60B10A4A56
:10A1500001232370D2F80024002AC0D0A370BEE7E8
:10A1600000F09CF8A570E2E700F086F8EFE700BF8A
:10A170007425002000E100E0000001404DA0020035
:10A1800030B50A4B0A4C53F8213054F821100278AC
:10A1900085B0D0E901548DF80020C26801958DF892
:10A1A000084003926846984705B030BD90250020CE
:10A1B0008825002030B50A4B0A4C53F8213054F85A
:10A1C0002110027885B0D0E901548DF80020C268D2
:10A1D00001958DF8084003926846984705B030BD58
:10A1E0009025002088250020F0B5184B067843F80C
:10A1F0002620174B0446487F98551546154A8E462B
:10A20000096942F8261022789F5CBEE80F0089B0E9
:10A21000EC46ACE80F009EE80F008CE80F000496B7
:10A220004FB1002D0C4A694608BF2A46201D01F097
:10A23000B7F809B0F0BD002D084A694608BF2A46A4
:10A2400004F10C0000F008FE09B0F0BD90250020DC
:10A25000982500208825002081A10200B5A10200D8
:10A26000044A137923B90121106091801846704780
:10A27000852070479C250020074B1A68D20704D41C
:10A28000C02283F8002301221A604FF0804301228C
:10A29000C3F81825704700BF00E100E04FF080428E
:10A2A00002210023C2F8081382B0C2F80431D2F8A8
:10A2B0000431019301230199D360D2F81834DB03F0
:10A2C000FBD402B0704700BF10B54FF0804382B09E
:10A2D000D3F8002162B10021164AC3F80011D3F867
:10A2E0000011507900910121009CC3F80813A8B116
:10A2F0004FF08043D3F80421CAB10022C3F80421EF
:10A30000D3F80421019202210A4A0198C3F80813E4
:10A310001368012002B0BDE810401847136851715E
:10A3200098474FF08043D3F80421002AE5D102B0CA
:10A3300010BD00BF9C25002030B5284C94F86A3031
:10A3400083B0002B46D14FF6FF704FF0FF0C5A0937
:10A35000012A18BF4FF0FF3103F01F0208BF01466A
:10A3600021FA02F2D20748BFE21803F1010348BF05
:10A3700082F830C0302BEAD14FF0FF304FF0FF3180
:10A380004FF0FF33C4E90001062200211448236680
:10A39000C4E90233C4E90433C4E90633C4E9083329
:10A3A000C4E90A3302F0DCFD0E4BC02283F8062319
:10A3B00040221A600C4B0020C3F87C01D3F87C21AA
:10A3C000019201214FF00042019D84F86A10C3F808
:10A3D000042300E0082003B030BD00BFA825002002
:10A3E0000C26002000E100E000600040034B93F8E1
:10A3F0006A00003818BF0120704700BFA825002060
:10A4000070B57D4B03EB000E9EF930C0BCF1000F20
:10A4100001DB082070BD91F802C01CF0020FCCF3E4
:10A4200040055DD11C6A013400F0DF805C6A0134B4
:10A4300000F0D1804FF00C0E4FF00A0C53F82C4076
:10A44000013459D00CF10104744547D253F824600B
:10A45000013600F0B8800CF1020474453ED253F886
:10A460002460013600F0AF800CF10306764535D24A
:10A4700053F8264001343ED00CF1040676452DD227
:10A4800053F82640013436D00CF10506764525D226
:10A4900053F8264001342ED00CF1060676451DD225
:10A4A00053F82640013426D00CF10706764515D224
:10A4B00053F8264001341ED00CF1080676450DD223
:10A4C00053F82640013416D00CF1090CF44505D29E
:10A4D000DC6A013408BF4FF00B0C0DD0042070BDB6
:10A4E0001C68013471D05C6801347BD04FF0080ED9
:10A4F0004FF0020CA2E7B44643F82C201A184FFA8A
:10A500008CFE82F830E015B99C448CF858008A78AB
:10A5100054071CD4D50747D51F2887BF374A00F0FA
:10A520001F0404464FF0A04202EB8402D2F8004719
:10A5300024F00204C2F80047314DC40800F0070CB3
:10A540002E5D012202FA0CF232432A558A7812F06B
:10A5500002021CD04FEA8E0303F1804303F5C0438F
:10A560000978D3F8104524F44F3424F44074C3F828
:10A57000104502020904D3F8100501F4403102F439
:10A580007C520A430243C3F81025002070BDAEF18F
:10A59000080E43FA8EF30C7893F86010104641EAE7
:10A5A000841283F8602070BD1F284C7887BF134D3C
:10A5B00000F01F0202464FF0A04502F5E072A40031
:10A5C00045F82240B8E7A44696E71A6000228EF8C4
:10A5D000302096469BE74FF0090C8EF830C05A6247
:10A5E000E64691E74FF0010C86E74FF0080C8EF835
:10A5F00030C01A62E64687E7A82500200003005015
:10A600000C26002030B4344C04EB000C82B09CF9D2
:10A610003030072B24DD083B44FA83F393F8603095
:10A620009B09032B47D0012B0CBF4FF400324FF492
:10A6300040321F288ABF294B4FF0A04300F01F0073
:10A6400003EB8000D0F8003723F44033C0F8003724
:10A65000D0F800371A43C0F8002702B030BC70476A
:10A66000DAB2072AF9D8980000F1804003F14002DD
:10A6700000F5C04052B29200D0F8105592B202F1EB
:10A68000804202F5C04245F00105C0F81055002097
:10A69000106012680192019A0029DED09CF93020E6
:10A6A00054F82220002AD8D00D49012202FA03F3DF
:10A6B000C1F80433D1E71F288ABF084A4FF0A042EF
:10A6C00000F01F03D2F8102598BF0346DA4002F0CD
:10A6D000010202321204ACE7A8250020000300505A
:10A6E000006000401F288ABF054B4FF0A04300F0D8
:10A6F0001F00D3F8103523FA00F000F00100704776
:10A70000000300502DE9F047002384B0CDE9023367
:10A710001C4AD2F80011012900F030821E46194B64
:10A72000D3F80421012A00F01A82164BD3F808212D
:10A73000012A00F00582134BD3F80C21012A00F006
:10A74000F081104BD3F81021012A00F0DB810D4B72
:10A75000D3F81421012A00F0C1810A4BD3F8182143
:10A76000012A00F0AC81074BD3F81C21012A0BD041
:10A77000044BD3F87C21012A00F0218256BB04B09F
:10A78000BDE8F08700600040D3F804231206EFD53F
:10A790000022C3F81C21D3F81C110091D3F87C11BE
:10A7A0000098012946F0800614D1C3F87C21D3F823
:10A7B0007C3101934FF0A042019BD2F82015CF4B82
:10A7C0000291C2F82015D3F820250392C3F8202562
:10A7D00046F00046CA4F00240125A30003F1804340
:10A7E000354203F5C0434FEA45050BD0D3F81005B9
:10A7F00057F82420D3F81015C0F30520C1F3014108
:10A8000002B190470134082CE7D1002EB7DABC4CD6
:10A81000BA4E01254FF0A04794F96000431C48D080
:10A82000C0F3C20202F110030DEB030200F00703B4
:10A8300012F8082C05FA03F31A42C1B200F03F00E7
:10A8400037D01F2800F22B8102464FF0A04909EBB8
:10A85000820305FA02F2D3F800C7D3F800E72EF41A
:10A86000403EC3F800E704EB000ECCF3014C9EF928
:10A8700030E0D3F800A754F82E80BCF1020F0CBFD3
:10A880004FF4403E4FF4003E4EEA0A0EC3F800E794
:10A89000C9F82025B8F1000F0BD08909032900F071
:10A8A0008281BCF1020F00F07B81BCF1030F00F04C
:10A8B000A68194F96100411C48D0C0F3C20202F1A4
:10A8C00010030DEB030200F0070312F8082C05FA41
:10A8D00003F31A42C1B200F03F0037D01F2800F244
:10A8E000E28002464FF0A04909EB820305FA02F22A
:10A8F000D3F800C7D3F800E72EF4403EC3F800E7D2
:10A9000004EB000ECCF3014C9EF930E0D3F800A725
:10A9100054F82E80BCF1020F0CBF4FF4403E4FF4B0
:10A92000003E4EEA0A0EC3F800E7C9F82025B8F148
:10A93000000F0BD08909032900F03A81BCF1020F06
:10A9400000F03381BCF1030F00F05D8194F96200E7
:10A95000421C48D0C0F3C20202F110030DEB030207
:10A9600000F0070312F8082C05FA03F31A42C1B2EB
:10A9700000F03F0037D01F2800F2998002464FF0C8
:10A98000A04909EB820305FA02F2D3F800C7D3F815
:10A9900000E72EF4403EC3F800E704EB000ECCF3D2
:10A9A000014C9EF930E0D3F800A754F82E80BCF19A
:10A9B000020F0CBF4FF4403E4FF4003E4EEA0A0E29
:10A9C000C3F800E7C9F82025B8F1000F0BD08909BA
:10A9D000032900F0F280BCF1020F00F0EB80BCF123
:10A9E000030F00F0088194F96300431C47D0C0F3C3
:10A9F000C20202F110030DEB030200F0070312F88C
:10AA0000082C05FA03F31A42C1B200F03F0036D019
:10AA10001F2850D802464FF0A04909EB820305FADF
:10AA200002F2D3F800C7D3F800E72EF4403EC3F893
:10AA300000E704EB000ECCF3014C9EF930E0D3F8B4
:10AA400000A754F82E80BCF1020F0CBF4FF4403E1B
:10AA50004FF4003E4EEA0A0EC3F800E7C9F820257D
:10AA6000B8F1000F0BD08909032900F09780BCF1E1
:10AA7000020F00F09080BCF1030F00F0B880D7F80F
:10AA800020250292C7F82025D6F820350393C6F872
:10AA9000203513437FF4C0AE04B0BDE8F08701F069
:10AAA0001F02B146D3E601F01F02B1461CE701F0D8
:10AAB0001F02B14665E701F01F02B146ADE7D3F8CA
:10AAC000042351067FF54FAE0022C3F81821D3F8B6
:10AAD00018310093009B46F0400644E6D3F8042367
:10AAE00090067FF53AAE0022C3F81421D3F8143152
:10AAF0000093009B46F020062FE600BF00030050A5
:10AB0000A8250020D3F80423D4067FF520AE002228
:10AB1000C3F81021D3F810310093009B46F01006C3
:10AB200015E6D3F8042315077FF50BAE0022C3F812
:10AB30000C21D3F80C310093009B46F0080600E688
:10AB4000D3F8042357077FF5F6AD0022C3F8082198
:10AB5000D3F808310093009B46F00406EBE5D3F8E8
:10AB6000042392077FF5E1AD0022C3F80421D3F856
:10AB700004310093009B46F00206D6E5D2F8046348
:10AB800016F001063FF4CBADC2F80031D2F8003127
:10AB90000093009BC3E501297FF471AFC0476EE7C6
:10ABA00001297FF486AEC04783E601297FF4CEAE4B
:10ABB000C047CBE601297FF416AFC04713E7002258
:10ABC000C3F87C21D3F87C3101934FF0A042019B64
:10ABD000D2F820150E4B0291C2F82015D3F820258B
:10ABE0000392C3F82025002E3FF411AEF0E50229B0
:10ABF0007FF445AFD2E702297FF4F5AEDDE7022905
:10AC00007FF457AECFE702297FF4A0AED0E700BFB4
:10AC100000030050014B1B68184700BF142600209A
:10AC2000104B98421BD130B583B000230DF10700C3
:10AC30008DF807300D46FDF793FF0B4B9DF807008D
:10AC40001C793CB901221D601A71FDF7AFFF204647
:10AC500003B030BDFDF7AAFF112003B030BD0020C6
:10AC6000704700BF0020004014260020034B98428C
:10AC700003D1034B00221A601A7170470020004074
:10AC8000142600200000000010B5714AD2F80433E9
:10AC900099058AB068D5D2F82431002B64D00023FE
:10ACA000C2F82431D2F8243101934FF40171694B79
:10ACB0000198C2F8081393F8291009B901215160CD
:10ACC000634902228DF81820D1F88024C1F880242D
:10ACD0009FED5D7B9969D868CDE9081283ED067B0D
:10ACE000D3E90012079006A89047594AD2F81C31C0
:10ACF000C3B1584B5869196A88426AD993F8281029
:10AD000001F0FF00002964D1C2F81C01D2F81C1127
:10AD1000039103999C68186A196A205C01311962D1
:10AD2000C2F81C054A4AD2F84431DBB10021494B34
:10AD3000C2F84411D2F8440193F829100090009809
:10AD400009B1012111609A6962B1D8685C6A002179
:10AD50000122CDE9070499618DF8182006A8D3E9EE
:10AD6000001290470AB010BD394AD2F804335B078D
:10AD7000BBD5D2F80831002BB7D0364B99690029E2
:10AD80003ED00021C2F80811D2F8081104910499AC
:10AD9000D868596AD2F8182542545A6A996901321A
:10ADA0005A625A6A8A42A0D1DA69002A31D09A617D
:10ADB0001A69D8685C6ADA60002101220894D961B6
:10ADC000596207905C6819688DF8182006A8A0479A
:10ADD0008BE71F4A0020C2F81C01D2F81C21029206
:10ADE000029A5A69002A9DD0D3E901215C698DF845
:10ADF0001800CDE907145861196806A8904791E733
:10AE0000C2F80811D2F8080105900598D2F8182563
:10AE1000C7E793F8292012B90D4A012151600C4A65
:10AE20004FF40171C2F80813D8685C6A002101224E
:10AE300099618DF81820D3E90012CDE9070406A81E
:10AE4000904752E7AFF300800000000000000000D0
:10AE500000200040202600202DE9F041734E90F89C
:10AE600004802C2303FB086382B093F82A30002B64
:10AE700040F09C8005460C4600686D491746FFF778
:10AE8000CFFE002840F08E802368591C19D01F2B5C
:10AE90004FF001028ABF67494FF0A04103F01F0342
:10AEA00002FA03F3C1F8083523681F2B86BF03F0AD
:10AEB0001F03604A4FF0A04203F5E073032142F8FC
:10AEC000231063685A1C0BD01F2B86BF03F01F038F
:10AED000584A4FF0A04203F5E073002142F82310D6
:10AEE0002B68A269C3F82425227D637D13432A6859
:10AEF000C2F86C35D4E900122B68C3F81425C3F8E6
:10AF00000C15237D012B5CD02C2303FB08F3F218D6
:10AF100057602269F25097B32A68237F0021C2F854
:10AF20001C11D2F81C210092009A2A68C2F8441120
:10AF3000D2F844210192019A2A683F49C2F80413C9
:10AF40002A6842F3073100294FEA123232DB01F15D
:10AF500060415B0101F56141DBB281F800332B6890
:10AF600043F30732002A4FEA133109DB334C52090D
:10AF7000012301F01F0103FA01F144F822102B68AC
:10AF80000422C3F800252C2303FB086601220023BA
:10AF9000C6E9063386F82930736186F82A2002B0A4
:10AFA000BDE8F081112002B0BDE8F081082002B0B8
:10AFB000BDE8F081224902F00F025B01DBB28B5445
:10AFC000CDE7A368591C0BD01F2B86BF03F01F03CE
:10AFD00018494FF0A04103F5E073002241F8232007
:10AFE000E3685A1C1AD01F2B8ABF12494FF0A041A8
:10AFF00003F01F03012202FA03F3C1F80835E368E6
:10B000001F2B88BF03F01F0303F5E0738CBF0949B2
:10B010004FF0A041032241F82320E3682A68A16889
:10B02000C2F80835C2F810156EE700BF20260020D0
:10B0300089AC0200000300508000020000E100E043
:10B0400014ED00E0F8B5036807793D4C0022C3F821
:10B0500000252C2303FB07435B68C3B10368394A0F
:10B06000C3F80823036843F30732002A4FEA133179
:10B070000EDB5209344D2032012301F01F0103FA87
:10B0800001F145F82210BFF34F8FBFF36F8F0368B4
:10B09000D3F80C65D3F81455D3F80825D3F8101558
:10B0A0004FF0FF3CC3F814C5C3F80CC503686645F0
:10B0B000C3F808C5C3F810C50CD01F2E86BF06F014
:10B0C0001F06224B4FF0A04306F5E0764FF0020C2E
:10B0D00043F826C06E1C0BD01F2D86BF05F01F0540
:10B0E0001A4B4FF0A04305F5E075022643F82560A2
:10B0F0004D1C0BD01F2986BF01F01F01134B4FF0D1
:10B10000A04301F5E071022543F82150531C0BD0F8
:10B110001F2A86BF02F01F020C4B4FF0A04302F51E
:10B12000E072022143F822100068FFF79FFD2C23F4
:10B1300003FB0744002384F82A306360F8BD00BF96
:10B14000202600208402020000E100E000030050FD
:10B150002DE9F041334C90F804E02C2303FB0E431F
:10B160008446586984B000284ED15A6199601862AB
:10B1700083F82800DCF80020C2F81C01D2F81C215A
:10B180000292029ADCF8002001219160DCF8002094
:10B190009D68C2F81C01D2F81C1101910199196A2D
:10B1A0006E5C196A01311962C2F81C655A6812B1E5
:10B1B00004B0BDE8F0815E691A6ADCF800109642BE
:10B1C0001BD9074602E093F828200ABBD1F81C21BE
:10B1D000002AF8D0C1F81C71D1F81C210392039AFF
:10B1E0001A6A15F802801A6A01321A62C1F81C85BF
:10B1F0001A6A9642EAD8DCF80010D1F81C31002B0C
:10B20000FBD00123CB6004E0112004B0BDE8F08145
:10B210000F202C2303FB0E440023636104B0BDE820
:10B22000F08100BF2026002010B55B4BD3F824210D
:10B230008AB0002A58D00022C3F82421D3F8241160
:10B24000049102228DF818200499544AD3F88014EE
:10B25000C3F880149FED4E7B0991D3F83C45D0682C
:10B2600082ED067BCDE90704D2E9001306A89847D2
:10B27000494BD3F8442152B10021484AC3F8441144
:10B28000D3F84401916903900398002961D1424B9E
:10B29000D3F8202162B10020C3F82001D3F8202187
:10B2A000029201213D4A029CD9605169002943D193
:10B2B000394BD3F85821AAB10020C3F85801D3F86C
:10B2C0005811364A01910199516959B1D3F84C4549
:10B2D0008DF81800D2E901315061CDE9071406A8B4
:10B2E000116898470AB010BDD3F810110029BFD0DB
:10B2F000C3F81021D3F81011284C05910599A169C4
:10B30000D3F83C058842B3D1E169002933D0C4E9C0
:10B310000612D3F8002222F02002C3F80022E268CD
:10B320000792012122698DF818100890636821683E
:10B33000E26006A898479BE7D3F84C458DF81800C3
:10B34000D2E901315061CDE9071406A81168984788
:10B35000AEE79FED0F7BD3F83C45D0684FF0010C72
:10B36000CDE9070482ED067BD2E900138DF818C001
:10B3700006A898478BE7E268A1610123CDE9072081
:10B380008DF8183006A8D4E90013984770E700BF7D
:10B3900000000000000000000020004050260020B7
:10B3A0002DE9F04307797F4E07EBC70306EB8303D4
:10B3B00087B093F82030002B40F0B58004460D464E
:10B3C000006879499046FFF72BFC002840F0A780E1
:10B3D0002B68591C4FEAC70919D01F2B4FF00102E7
:10B3E0008ABF72494FF0A04103F01F0302FA03F332
:10B3F000C1F808352B681F2B86BF03F01F036B4A6B
:10B400004FF0A04203F5E073032142F823106B686C
:10B410005A1C0BD01F2B86BF03F01F03634A4FF04B
:10B42000A04203F5E073002142F823102368AA69C3
:10B43000C3F824252B7D6A7D1A432368C3F86C2545
:10B44000D5E900312268C2F80C35C2F814152B7DFD
:10B45000012B73D009EB070206EB8203C3F80480CB
:10B460002B6946F82230B8F1000F47D021682B7FB6
:10B470000022C1F81021D1F8101101910199216821
:10B48000C1F82021D1F82011029102992168C1F858
:10B490002421D1F82411039103992168C1F8442192
:10B4A000D1F84411049104992168C1F85821D1F8C8
:10B4B00058210592059A22683D49C2F80413226872
:10B4C00042F3073100294FEA123230DB01F16041CB
:10B4D0005B0101F56141DBB281F80033226842F380
:10B4E0000733002B4FEA123109DB324D5B09012291
:10B4F00001F01F0102FA01F145F8231022684F44C0
:10B5000006EB87060121002386F820100821C2F8E7
:10B510000015C6E90633736107B0BDE8F08311205A
:10B5200007B0BDE8F083082007B0BDE8F0832249EA
:10B5300002F00F025B01DBB28B54CFE7AB68591C02
:10B540000BD01F2B86BF03F01F0318494FF0A041FB
:10B5500003F5E073002241F82320EB685A1C1AD04F
:10B560001F2B8ABF11494FF0A04103F01F03012296
:10B5700002FA03F3C1F80835EB681F2B88BF03F00C
:10B580001F0303F5E0738CBF08494FF0A04103226D
:10B5900041F82320EB682268A968C2F80835C2F890
:10B5A000101557E75026002029B202000003005072
:10B5B0001003420000E100E014ED00E02DE9F0414D
:10B5C0000579564C05EBC50304EB830301465B6824
:10B5D000006882B0EE00C3B1514BC0F808330B686D
:10B5E00043F30732002A4FEA13330EDB5209DFF828
:10B5F00038C12032012703F01F0307FA03F34CF888
:10B600002230BFF34F8FBFF36F8F731904EB8303A7
:10B610009A69D0F8003223F02003C0F8003242B11A
:10B620000023C0F84431D0F844310093009B01233B
:10B6300043600023C0F85831D0F858310193019B82
:10B640007319012204EB8303C2609A69D0F8583160
:10B65000002BFBD01AB1D0F84431002BF6D00023D8
:10B66000C0F800350B684FF0FF38D3F80CE5D3F87D
:10B6700014C5D3F80825D3F81075C3F80C85C3F8A2
:10B6800014850B68C645C3F80885C3F810850CD02F
:10B69000BEF11F0F86BF0EF01F0E22494FF0A041D2
:10B6A0000EF5E07E022341F82E30BCF1FF3F0CD0B6
:10B6B000BCF11F0F86BF0CF01F0C1A494FF0A041C0
:10B6C0000CF5E07C022341F82C30791C0BD01F2FA5
:10B6D00086BF07F01F0713494FF0A04107F5E07739
:10B6E000022341F82730531C0BD01F2A86BF02F0DB
:10B6F0001F020C494FF0A04102F5E072022341F80D
:10B700002230FFF7B3FA354404EB8504002384F8B4
:10B710002030636002B0BDE8F08100BF50260020F9
:10B72000100342000003005000E100E001F0604C13
:10B73000BCF1005F30D170B590F804E0264C0EEB00
:10B74000CE0C04EB8C0C0346DCF8140082B04FEAFC
:10B75000CE0500283BD1CCF81420CCF808101A688C
:10B76000C2F82001D2F820210192019A1A68C2F889
:10B770005801D2F858210092009A1A68DCF8146037
:10B78000C2F84415C2F848651A6801219160DCF8D6
:10B7900004201AB102B070BD102070471A6800E092
:10B7A000C0B9D2F82011D2F858010029F8D088B9D0
:10B7B0000121D1601B68D3F85821002AFBD005EB8A
:10B7C0000E0304EB830300225A6102B070BD112006
:10B7D00002B070BD0F20F2E750260020032806D8E3
:10B7E000012A06D001291BD0022908D071B10720F7
:10B7F0007047012911D002294FF00002F6D10B4BFE
:10B8000000EB4000034400205A707047074B00EBE8
:10B810004000034408469A70704700F10E02D2B20D
:10B8200000EB400301490020CA54704774260020F1
:10B8300010B50388102B07D0112B04D1254B1868A5
:10B840000138186030B110BD224C216811B30131AC
:10B85000216010BD01220221FFF7C0FF40B107287F
:10B8600006D01D4B1B68002BEDD0BDE810401847DB
:10B87000072202210120FFF7B1FF08B10728F0D10C
:10B8800000210A220846FFF7A9FF0028DBD007287D
:10B89000E7D1D8E701220846FFF7A0FF38B1072813
:10B8A00005D00D4B1B6803B198472168CFE70722ED
:10B8B00002210120FFF792FF08B10728F1D10422ED
:10B8C00002210020FFF78AFF0028EED00728E8D1E8
:10B8D000EBE700BF842600208026002075DF70473C
:10B8E00076DF70478FDF7047FCF782BE0B4B0C484A
:10B8F000C01AC008000410B50A460C4640F0030008
:10B900000849FCF755F90848214601F07DF800B9CF
:10B9100010BDBDE81040FCF76BBE00BF4CDE02005E
:10B9200074DE020020D70200142800200B78022BBE
:10B9300000D070470548064B0A790649C01AC0086E
:10B94000000440F00300FCF733B900BF74DE0200CE
:10B950004CDE02002CD702000378052B00D0704784
:10B9600040680028FBD0FCF743BE00BF10B5038839
:10B97000212B84B004460FD80F2B16D9103B112B66
:10B9800013D8DFE803F0144012121212121212122E
:10B9900012121212125012343B2B01D0562B04D12A
:10B9A000A0881321FFF79CFFE0B904B010BD224B23
:10B9B0002248A2882249C01AC008000440F00300AF
:10B9C0000190FCF7F5F8A2881E490198FCF7F0F801
:10B9D000A1881D48002201F049F81B4800F0DCFF57
:10B9E0000028E2D004B0BDE81040FCF701BE0023FF
:10B9F0008088ADF80C3003A9FFF774FF0028D4D07D
:10BA0000FCF7F6FDD1E70C4B0C481049C01AC008F2
:10BA1000000440F00300FCF7A9F90D4800F020FEF7
:10BA20000028C2D0DEE7808804F10801FFF756FF46
:10BA30000028BAD0D6E700BF4CDE020074DE020058
:10BA400038D702004CD702001428002064D7020027
:10BA50004028002010B54FF4804184B00020FBF74F
:10BA600063FDFBF751FDFCF7CFFF002861D1434890
:10BA700040F233320121FCF749FD00287AD1FCF76E
:10BA8000A1FDFEF717F8002871D100F0FBFF002898
:10BA90006AD1002369460120009301F0D3F8002801
:10BAA0005FD1684601F08CF9002857D100230120AE
:10BAB000019303938DF804008DF80C00304A31484F
:10BAC00000936946029300F075FD002843D12D488C
:10BAD0000022012100F05AFD002839D12A4A2948C4
:10BAE000002100F021FD80BB2848002100F08EF9E4
:10BAF00040BB274C274A284B284802936946CDE98A
:10BB0000004200F0E9FED0B91E4800F0A9FD98B946
:10BB10002348244B2449C01AC008000440F0030005
:10BB2000FCF724F9FBF750FD0028FBD1FDF7D8FF07
:10BB3000F8E7FCF75DFD9AE7FCF75AFDE8E7FCF74C
:10BB400057FDE1E7FCF754FDD3E7FCF751FDCBE7E8
:10BB5000FCF74EFDC2E7FCF74BFDB8E7FCF748FDEC
:10BB6000A4E7FCF745FD9CE7FCF742FD91E7FCF7F5
:10BB70003FFD8AE7FCF73CFD81E700BF141E002073
:10BB800059B902004028002098D702002C28002034
:10BB90002DB902001C1E0020E9B802001428002064
:10BBA00074DE02004CDE020074D7020032B3F8B536
:10BBB000054608B3012916464FF000030ADDEA18CE
:10BBC0005278092A06D0EC5C013423449BB25C1CF9
:10BBD0008C42F4DB8B420FD2EA5C6AB1013A97B235
:10BBE00057B102339CB2E3198B4205DC24B13046D5
:10BBF00001F0C8F9B84203D00020F8BD002070471A
:10BC000002462919304601F08DF9B0FA80F040095A
:10BC1000F8BD00BF2DE9F04F0388B0F80490103B49
:10BC200099B007460A2B12D8DFE803F028711111EA
:10BC3000111111111178140046484946FDF7D2F947
:10BC400045484946FDF7CEF9FB7B022B7CD019B065
:10BC5000BDE8F08F037A41483F2B4FEA1314494661
:10BC600065D9FDF7BFF93E484946FDF7BBF93D48A8
:10BC7000494619B0BDE8F04FFDF7B4B93A4A9368A8
:10BC8000DB43009351686846FDF7E4F9009B01939C
:10BC9000019B9BB34FF000084446214601A8FDF7E5
:10BCA000B9F930B118AB03EB480308F1010823F8E8
:10BCB000284C0134142CF0D1CDF834800DAD0FCDCB
:10BCC00002AC0FC40FCD0FC495E8070084E807004D
:10BCD000B8F1000F12D0254E0DF10A0B4FF0000AFB
:10BCE0003BF8025F1C4C204629460434FDF786F9D8
:10BCF000A642F8D10AF1010AC245F1D1B9F1130FF8
:10BD00009AD90420FCF774FC19B0BDE8F08F1148F3
:10BD1000494619B0BDE8F04FFDF770B9037A002B22
:10BD200095D1437A0D481B074946F2D5A1E7FDF7A7
:10BD300065F9032C97D00A484946FDF75FF9022CB4
:10BD400095D008484946E4E709484946FDF74AF9CD
:10BD50007DE700BFB0280020AC280020C0280020CC
:10BD6000BC280020B8280020A82800202429002072
:10BD7000B428002090DF7047A5DF7047B5DF70471B
:10BD800070B5002484B061F30F04002361F31F44F5
:10BD90006A4602A90294064603930093ADF8043064
:10BDA000FFF7E8FF044610B9204604B070BD124BFF
:10BDB000124DED1AED08FDF7F5FF2D0445F00105D4
:10BDC00003460F4932462846FBF70EFEBDF8002019
:10BDD000BDF8023052EA030103D00A492846FBF7B6
:10BDE00003FEBDF80420002ADED028460649FBF7F2
:10BDF000DFFE204604B070BD4CDE0200ACDE020067
:10BE0000B4D7020000D8020040D8020008B90E20C2
:10BE100070474FF01712002301614FF01B0C41F6E1
:10BE20001B31026080F804C0C0F806204381818184
:10BE3000184670478288002A3FD130B50388242BEA
:10BE400083B00C4611D80F2B33D9103B142B30D8AC
:10BE5000DFE803F074992F2F2F2F2F2F2F2F2F2F45
:10BE60002F2F2F2F2F2F2FA388003A2B46D0552B63
:10BE70001FD1C388C988A272172B38BF17238B42E2
:10BE800028BF0B4623811046FFF778FF002840F0BB
:10BE90008F80E37A6BB922695AB12189ADF8041019
:10BEA00040F67720ADF80000ADF802306946204634
:10BEB0009047A37A5BB903B030BD7047112840F0BA
:10BEC0009280237B627B01219A42A17245D3E18853
:10BED0000020FFF751FF60B31128ECD0FDF762FF9F
:10BEE000484B4949024649481B1ADB081B0443F0EA
:10BEF000010003B0BDE83040FBF75ABE4389C98852
:10BF000025698B4228BF0B46172B38BF1723238187
:10BF100065B1E17A51B140F67721ADF80010ADF886
:10BF20000220ADF8043069462046A847002363810B
:10BF3000C1E74FF48073638103B030BD0B790B739D
:10BF4000C27B012A42D0022A30D14988E18022896D
:10BF50008A423ED3627B9A42ABD219460020FFF759
:10BF60000FFFA6E70B69027A4A73002BA1D00020CD
:10BF70004DF67A218DF8050000918DF80420694670
:10BF80002046984795E74FF01711002241F61B33E2
:10BF9000C4F806106281A3818DE7017A237B994260
:10BFA00028BF19460020FFF7EBFE82E7C988CEE7DD
:10BFB000FDF7F8FE134B1649024614481B1ADB081E
:10BFC0001B0443F00100FBF7F3FD62E70988E18001
:10BFD000BDE70020FFF7D0FE00287FF46FAF0122FD
:10BFE000237BE272B6E7FDF7DDFE064B064902460B
:10BFF00006481B1ADB081B0443F00100FBF7D8FDC1
:10C00000237BA7E7ACDE020098D802004CDE0200DA
:10C01000CCD802009BDF70479DDF70479EDF7047E2
:10C02000A1DF7047A3DF7047AEDF704710B58B69A3
:10C030000C461988102913D8023189B2FDF738FC53
:10C04000606078B1A16900230222FDF7C9FCD4E940
:10C05000063160681A880223FDF7C2FC002010BD7B
:10C06000092010BD042010BD10B50C46C98A102946
:10C070000AD8FDF71DFC606040B1E28AA169002387
:10C08000FDF7AEFC002010BD092010BD042010BD3E
:10C0900070B58AB006460022C0680DF10601FDF7B2
:10C0A000BDFD08BB114DBDF80630B46803EB83033A
:10C0B00004EB830409E09DF8083055F8232002A919
:10C0C00020462AB10398FDF73DFC002202A9204634
:10C0D000FDF7A4FD0028EED0F06800220DF1060166
:10C0E000FDF79CFD0028DED00AB070BD80D90200AB
:10C0F000F0B591B00C46012208A90546FDF78EFD6A
:10C10000002836D19DF82030052B00F28680DFE82C
:10C1100003F003616F787E32BDF83220BDF8301035
:10C120002046FFF77DFF0646112E22D04A4B9DF890
:10C13000202053F8223013B10998FDF703FC0022A8
:10C1400008A92846FDF76AFD9EB1444B44489DF876
:10C15000202044490096C01AC0080004234640F03D
:10C160000100FBF761FB0A9B1BB10B99224630468D
:10C17000984711B0F0BD0DF10E0604AA314609989A
:10C180000F9200230222FDF75FFCBDF80E200F99ED
:10C1900009980E960223FDF757FC0CA92046BDF81E
:10C1A0000E70FFF741FF06460028BDD1BDF80E30E6
:10C1B000BB42BBD0284B9DF8202053F8223013B14E
:10C1C0000998FDF7BFFB324608A92846FDF726FD72
:10C1D0000C26BAE704A9BDF8362009980E91002371
:10C1E000FDF732FC0CA92046FFF71CFF06469BE733
:10C1F000BDF830100DF132022046FFF70BFF064666
:10C2000092E70CA92046FFF707FF06468CE70CA92A
:10C210002046FFF703FF064686E7104B10481249F9
:10C22000C01AC008000440F00200FBF79FFD0A4B53
:10C230009DF8202053F8222042B10998FDF782FB97
:10C24000002208A92846FDF7E9FC92E708A928463C
:10C25000FDF7E4FC8DE700BF80D902004CDE020050
:10C26000B4DE020028D902000CD902002DE9F04307
:10C2700083B0002855D00E46002952D007461546F7
:10C28000FFF706FF3988002946D07B684FF0000E83
:10C29000023B02E0A142E64637D933F8022F0EF105
:10C2A000010CAA421FFA8CF4F4D13378052B33D851
:10C2B000B8680EEB8E0E00EB8E004FEA8E08FDF78D
:10C2C00019FD98BBDFF83C91337859F823302BB136
:10C2D000386930B331469847044690B9B86831465A
:10C2E0004044FDF727FC044630B1337859F8233039
:10C2F00013B17068FDF726FBB86829464044FFF784
:10C30000F7FE204603B0BDE8F0833378052B03D851
:10C31000A14201D0A646CBE70724204603B0BDE8E2
:10C32000F0830E24204603B0BDE8F0833378052B5C
:10C3300055D8DFE803F04A433B342803B36906F1DC
:10C3400010012846B3F80090FFF76EFE044600285F
:10C3500042D1B3691B884B451FD00C24254B26487E
:10C360000094C01AC00800042B463278234940F0DC
:10C370000100FBF759FAB3687BB12046F1682A4601
:10C3800098470024BDE706F110012846FFF746FE56
:10C390000446112C96D0002CE0D10024B1E706F120
:10C3A00010012846FFF738FE0446F2E7318A06F10D
:10C3B00012022846FFF72EFE0446EAE706F11001B6
:10C3C0002846FFF72FFE0446E3E7728A318A2846A3
:10C3D000FFF726FE0446DCE71128BFD172E7054BC4
:10C3E00005480749C01AC008000440F00200FBF7E6
:10C3F000BDFCD2E74CDE0200B4DE020028D9020008
:10C400000CD9020080D90200B0B370B506460C46C4
:10C41000FFF73EFE318889B37568A5F1020E7246BA
:10C42000002301E08B4207D032F802CF0133A4454C
:10C430009BB2F7D1002070BD013B99B205EB4101E1
:10C440004FF6FF7001E0714518D03EF8022F82428E
:10C45000F9D09BB2AA1C294602EB43034FF6FF76A4
:10C4600002E0934212D00232084611460588B542D6
:10C47000F7D10480002070BD0E2070473069FDF7B1
:10C4800015FA318811B175684B1EE2E7042070BDC2
:10C49000002841D0F0B50E4683B049B30188112978
:10C4A00007D0A1F130031F2B03D9A1F150031F2B9B
:10C4B0001ED834888588DCB177680022A7F1020C89
:10C4C000104603E0013290B2844213D93CF802EFE7
:10C4D000431CAE459BB2F5D11129ADF8060010D032
:10C4E000B06802EB8202294600EB8200FFF700FEF3
:10C4F00003B0F0BD9C42ADF80630F9D011291A46C0
:10C50000EED14FF6FF7327F812300DF10601F068F7
:10C51000FDF710FB03B0F0BD704700BF8ADF704726
:10C520008BDF70478CDF704738B370B5154632B378
:10C5300009B1072070BD0446104600F023FD013804
:10C54000C3B21F2B1DD894F82060E6B929462046B7
:10C5500000F00EFD0028EDD094F82000431C84F874
:10C56000203004EB4014284600F00CFD294602461A
:10C57000204600F0E7FC304670BD0E2070470E20CC
:10C5800070BD0C2070BD042070BD00BF68B1CB062B
:10C590000DD011F0010116BF012380F8211080F8A1
:10C5A000213080F82220002070470E20704707209D
:10C5B000704700BF00284DD038B50D46C26300213A
:10C5C0002322044600F0CCFC0DB32B7984F82330F1
:10C5D0002B7B84F82C302B6853B319685A68986801
:10C5E000C4F83600C4F82E10C4F832209B89638743
:10C5F000AB684BB31868596804F1240303C304F112
:10C6000040021F232266A4F86430002038BDE38D69
:10C61000114A1249216303F0E30343F48273E38573
:10C620004FF0C873C4E90923A58684F82350E6E7D0
:10C63000E28D0A49216302F0E30242F48272E2854C
:10C64000A386AB68002BD5D1034A4FF0C873C4E969
:10C650000923D4E70E20704706001800A000500000
:10C6600010B310B5044686B01422002101A800F0D2
:10C6700077FCFFF755FF94F82E301B070BD404F11D
:10C68000600104F12E00FFF749FF044630F0080076
:10C690000CD106B010BDE36B002BF0D001228DF859
:10C6A000042001A89847EAE70E207047064B074888
:10C6B0000749C01AC0080004224640F00100FBF7F9
:10C6C00077FA204606B010BD4CDE020094DE020070
:10C6D00098D902002DE9F04F05468DB035F8083B9A
:10C6E0001B2B06460C4606D01D2B2FD0102B17D027
:10C6F0000DB0BDE8F08F1422002107A800F030FC37
:10C70000337A012BF4D1E26B002AF1D004212E34CC
:10C710008DF81C100B948DF8203007A89047E7E7A0
:10C720001422002107A800F01BFC06238DF81C3002
:10C73000E36BB28808952E34ADF824200B94002BBF
:10C74000D6D007A898470DB0BDE8F08F142200217D
:10C7500002A800F005FC94F82E3004F12E091B0706
:10C76000CDF8189019D494F8213094F822A0002B19
:10C770003FD10395BAF1000F40F083800322E36BB1
:10C780008DF808200BB102A8984704F16001002041
:10C79000FFF7C4FE0DB0BDE8F08F0222E36B8DF809
:10C7A000082002A80395984704F160010020FFF7D4
:10C7B000B5FE94F82330002B9AD094F82C300193D6
:10C7C000FFF7AEFE1422002107A800F0C9FB019B71
:10C7D000494606F10A0004F12402FFF7A3FE0523EF
:10C7E0008DF81C300890002882D0E36B002BA8D174
:10C7F0007EE794F82030B6F824B0002B3FD0013B00
:10C80000DBB204F1200808EB4318274601E0B845E5
:10C8100035D03A46306A59462037FFF7C7F9002825
:10C82000F5D09DF81030039543F001038DF81030DA
:10C83000BAF1000F25D194F823308DF808A0E3B1A8
:10C8400094F82C300193FFF76BFE5146142207A891
:10C8500000F086FB019B494606F10A0004F1240220
:10C86000FFF760FE05238DF81C300890E36B00286D
:10C8700088D0002B89D007A89847E36B82E70395FF
:10C880007CE794F8233000258DF80850002BF4D075
:10C8900094F82C300193FFF743FE2946D6E700BFFA
:10C8A00062DF704770B5094B094C1B1BDB081B048A
:10C8B0000C460546074943F00300FBF779F9E368A6
:10C8C0001BB12846BDE87040184770BD9CDE0200D1
:10C8D0004CDE0200C8D9020000B584460D4A0E485D
:10C8E0000E4BCCE900020A68CCF808204A68CCF864
:10C8F00014208A68CCF80C200FCB85B0EE468EE869
:10C900000F000CF110017046FFF7CAFF05B05DF88B
:10C9100004FB00BF0D001000FFFF0E0058DA0200FC
:10C92000002932D030B5044685B028B10388112BD8
:10C930000D4620D0392B01D005B030BD0A88838840
:10C940009A42F9D1114B1248227C1249C01AC008F0
:10C95000000440F00300FBF72BF92988227CADF896
:10C96000061002208DF80400AB688DF8082001A99C
:10C9700028469847E0E70A8883889A42DCD14FF638
:10C98000FF720023C1E90023D6E770474CDE0200A6
:10C990009CDE020000DA020003884FF6FF72934229
:10C9A00027D010B51449044614486288401AC008BC
:10C9B00000048AB0124940F00300FBF715F8114853
:10C9C000B4F802C02288ADF81AC001234FF4003138
:10C9D000CDE904040791ADF804308DF808308DF8E6
:10C9E0001830606901AB02A90893FFF73FFC0AB059
:10C9F00010BD0820704700BF4CDE02009CDE020024
:10CA00000CDA0200A5C8020030B58BB08DF8071013
:10CA100030B302884FF6FF739A4204461DD020229D
:10CA2000002102A800F09CFAE3880F4822880490B5
:10CA300001218DF808100594ADF81A3060690223C1
:10CA400002A90DF107054FF48034089507948DF87D
:10CA50001830FFF70BFC0BB030BD08200BB030BD19
:10CA60000E200BB030BD00BFA5C80200018022B16E
:10CA70001368C0F802309388C3804069FFF7C4BCD4
:10CA800010DF704770B53D4D2B7884B0002B67D117
:10CA90003B4E3C49012302A83370FDF741F9039B4B
:10CAA00023B90FE0FDF746F9039B5BB1D3E90031F1
:10CAB00000209847034602A8002BF3D11C462046CD
:10CAC00004B070BD304902A8FDF72AF9039B4BB1B1
:10CAD000D3E900310020984702A8FDF72BF9039B0A
