:020000022000DC
:1070000000000420BD720200E5720200E772020077
:10701000E9720200EB720200ED7202000000000053
:10702000000000000000000000000000EF720200FD
:10703000F172020000000000F3720200F57202001B
:10704000B1A20200F772020071AC0200F7720200F6
:10705000F7720200F772020061A70200F7720200E5
:10706000F7720200F7720200F7720200F772020074
:10707000F7720200F7720200F7720200F772020064
:10708000F7720200718F0200F7720200F7720200BD
:10709000F7720200F772020059D10200F772020083
:1070A000F7720200F7720200F7720200F772020034
:1070B000F7720200F77202000000000000000000FA
:1070C000F7720200F7720200F7720200F772020014
:1070D000F7720200F7720200F7720200F772020004
:1070E000F7720200F7720200F7720200000000005F
:1070F00000000000F772020000000000F7720200BA
:10710000000000000000000000000000000000007F
:10711000000000000000000000000000000000006F
:10712000000000000000000000000000000000005F
:10713000000000000000000000000000000000004F
:10714000000000000000000000000000000000003F
:10715000000000000000000000000000000000002F
:10716000000000000000000000000000000000001F
:10717000000000000000000000000000000000000F
:1071800000000000000000000000000000000000FF
:1071900000000000000000000000000000000000EF
:1071A00000000000000000000000000000000000DF
:1071B00000000000000000000000000000000000CF
:1071C00000000000000000000000000000000000BF
:1071D00000000000000000000000000000000000AF
:1071E000000000000000000000000000000000009F
:1071F000000000000000000000000000000000008F
:1072000010B5054C237833B9044B13B10448AFF3E0
:1072100000800123237010BD002400200000000026
:1072200024FE020008B5034B1BB103490348AFF32A
:10723000008008BD000000000424002024FE02009D
:10724000A3F5803A704700BF174B002B08BF134BC4
:107250009D46FFF7F5FF00218B460F461348144A61
:10726000121A07F0A1FD0E4B002B00D098470D4BD2
:10727000002B00D098470020002104000D000D488D
:10728000002802D00C48AFF3008007F05BFD20001F
:10729000290004F021FC07F041FD00BF00000800B8
:1072A0000000000000000000000004200024002076
:1072B000002F002000000000000000000649074ADF
:1072C000074B9B1A03DD043BC858D050FBDC02F08F
:1072D0002FFDFFF7B9FF00003CFF02000023002054
:1072E00000240020FEE7FEE7FEE7FEE7FEE7FEE7FC
:1072F000FEE7FEE7FEE7FEE7F0B595B0084600249E
:107300000E4617461D4602F0C3FB1A9A0D922346FD
:10731000082205A93046CDE9095408978DF82C407C
:107320000C9402F019FCDDE906219DF814308DF86B
:107330001140CDE9021203F00302012A28D0022AEB
:1073400004D0304602F0A8FB15B0F0BDBDF81650D1
:10735000C3F3C203C5F389158DF810300827082D33
:107360002C4628BF08243B4622460EA9304602F090
:10737000F3FB2D1B08AB02AA21460EA8274400F000
:10738000C5FE002DEBD1304602F086FB15B0F0BDF6
:10739000BDF814100598C1F38312C3F3C203C0F300
:1073A0009525C1F383148DF810300EA93046920054
:1073B000082302F0D1FB08AB0093224602AB0EA9D2
:1073C000284600F02DFE304602F066FB15B0F0BDF9
:1073D000014B01221A70704760240020704700BFE3
:1073E00000B583B0044B0093044A4023FFF784FFA9
:1073F00003B05DF804FB00BF0174020020240020EC
:1074000038B50F480F4D03780F4CEB5C4FF0000C74
:1074100084F800C0D2B253B1043004F0B3F958B9C3
:107420000A4B1B7813B12378002BFCD038BD0C30ED
:1074300003F0BAFE0028F3D001F008F9F0E700BF2E
:1074400000230020F82A0020602400201C240020B3
:1074500010B51548154A0378D35C88B0C3B1043021
:1074600004F0D8F8124C0FCCEC46ACE80F0094E8CE
:107470000F008CE80F0006230B480093002269469A
:1074800002F0A6FE40B90B4B00221A7008B010BDE6
:107490000C3003F003FEE5E701F0D8F8054B0022BD
:1074A0001A7008B010BD00BF00230020F82A002089
:1074B000E4ED02001C24002010B50F4C0FCC88B066
:1074C000EC46ACE80F0094E80F008CE80F000623B0
:1074D0000A4A0B480093694602F07AFE20B9094B2C
:1074E00001221A7008B010BD01F0B0F8054B01225E
:1074F0001A7008B010BD00BFE4ED0200D1730200A5
:10750000002300201C24002008B5FFF7D5FF044805
:10751000042100F001FD034B01225A7108BD00BF98
:1075200024FF020014230020064B074810B5002258
:107530001A7002F061FA044610B9044802F082FBA6
:10754000204610BD3425002090FE02003CEE0200D3
:1075500030B499B10D490E4D491BC90813D00D4CDB
:10756000002302E0013399420AD034F823208242FA
:10757000F8D1184655F8300030BC7047044DF9E793
:10758000002030BC70470846F6E700BF24FF020029
:10759000A4FE0200FC230020094B013903EBC000CC
:1075A00003290BD8DFE801F0040208060420704725
:1075B000022070474079704700797047002070477B
:1075C000A4FE0200704700BF2DE9F043904CD4E9BF
:1075D00001239A4285B060D00023C4F81834BFF369
:1075E0004F8FA568EAB2D31C04EB830114F8233053
:1075F000580718D566680B7803F00303012B42D0B7
:10760000022B03D14B88023505EB9315EAB2D4F86F
:107610001804D31C04EB830128B9AE4239D914F8FD
:1076200023305B07E7D404EB82026B1CDBB2D26829
:1076300004EB830302F00301DB680229CDE9012397
:1076400005F102062DD0012900F09280D4F81054E3
:107650003DB12B6828469B689847EB681D68002D54
:10766000F7D16C486C4B6D49C01AC008000440F05B
:10767000020000F07BFBD4E90130C01A18BF0120E2
:1076800005B0BDE8F0830B880235C3F383131D44B6
:10769000BCE7A66005B0BDE8F083002005B0BDE8FA
:1076A000F083BDF806305E48C3F389184546502D77
:1076B00028BF502505F1080165F38F13C1F30901B7
:1076C000ADF8063002F09AF907460028BED002F065
:1076D000DFF90023082201A9384602F009FAF34332
:1076E000DBB20133B5EB830F4FEA83027ED9F1B2EF
:1076F0005FFA82F9033104EB810138460823A5EBD8
:10770000090502F0F5F9EDB209F10803454903F066
:10771000FC032A46384602F0EBF908F1030806EBB1
:107720009806D4F81834002B6ED1D4F8105465B1F3
:10773000EB685A7928463946002A61D02B681B68C5
:107740009847EB681D68002DF2D1384602F0A4F985
:1077500000230DF103008DF8033001F06DFAD4F829
:10776000183403B9A6609DF8030001F08BFA82E794
:10777000BDF804202A48C2F38313062B28BF062332
:1077800063F38912023303F00F018900ADF804207E
:1077900002F034F9074600283FF458AF02F078F9B8
:1077A0000023082201A9384602F0A2F9BDF80430EE
:1077B00013F4707FB5D06FF001094FF00808A9EB02
:1077C0000509F1B203314346042204EB8101384636
:1077D00002F08EF9BDF804300136C3F3831309EBD0
:1077E0000602934208F10408EBD89AE7F1B203319C
:1077F0002A4604EB81010823384602F079F98CE728
:107800001D68002D94D1A0E7384602F045F932E713
:1078100034250020CCFE0200A4FE020024EE02006B
:1078200090FE0200402500202DE9F04F89B0DFF8DE
:10783000B4B10393064600230DF113008DF8133005
:10784000CDE9011201F0F8F9DBF80830DBF804703B
:1078500003F58073DB1B042B78D80BF21C450BF56A
:1078600083680BF2144419E0BDF81630C3F3891392
:1078700003334FEA114A09EB9309204601F0C0FC9B
:10788000514608B1CBF80890284601F089FCDBE9A5
:10789000012303F580739B1A042B58D80121284635
:1078A00001F07EFC404601F09FFC204601F09CFC6C
:1078B000DBF80830DAB2D11C0BEB810C1BF821107D
:1078C00001F00400490721D40BEB820203F1020905
:1078D000D26805920133DBB20BEB830302F00302A3
:1078E000012AD9682AD0022ABED04FF0000AC4E784
:1078F000BCF802300EEB9313DAB2D11C0BEB810C07
:107900001BF8210000F004000028DDD09CF80010D6
:1079100001F0030101290AD0022903F1020E02F14C
:107920000301E5D00BEB810C0028EFD1CCE7BCF8CC
:1079300000200233C2F383121344DDE7BDF8143094
:10794000C3F383134FEA114A994496E73A46D3B2F8
:1079500003330532C5219DF813004BF82310CBF8F3
:10796000042001F08FF9BB1CDBB20BEB8303029AFE
:10797000DA60FB1CDBB20BEB8303039ADA603B1D7E
:10798000DBB20BEB8303129ADA600021144801F09A
:10799000D9FB80F31001F200019B02F0380242F0A3
:1079A000C102781C42EA8322C0B2FBB2033309044D
:1079B0000BEB800041EA1641C1604BF823209BF895
:1079C000003023B9FFF7FEFD09B0BDE8F08FFFF7E7
:1079D000FBFD0028F6D0FFF7F7FD0028F7D1F1E70F
:1079E00050290020342500202DE9F04FDFF8BCB1EC
:1079F00089B0002406460DF113000393CDE901126E
:107A00008DF8134001F018F9DBF80830DBF804704A
:107A100003F58073DB1B032B00F281800BF21C4506
:107A20000BF583680BF214441AE0BDF81630C3F36B
:107A3000891303334FEA11490AEB930A204601F0F8
:107A4000DFFB494600283AD02846CBF808A001F0D1
:107A5000A7FBDBE9012303F580739B1A032B5FD897
:107A60000121284601F09CFB404601F0BDFB204669
:107A700001F0BAFBDBF80830DAB2D11C0BEB810C59
:107A80001BF8211001F00400490728D40BEB8201F8
:107A90005A1CC9680591D2B201F003000BEB8202B7
:107AA0000128D16803F1020A31D00228BDD0204656
:107AB00001F0A6FB4FF0000949460028C4D1284632
:107AC000C5E7BCF802300EEB9313DAB2D11C0BEB16
:107AD000810C1BF8210000F004000028D6D09CF88F
:107AE000001001F0030101290AD0022903F1020E5E
:107AF00002F10301E5D00BEB810C0028EFD1C5E7C3
:107B0000BCF800200233C2F383121344DDE7BDF852
:107B10001430C3F383134FEA11499A448EE73A466F
:107B2000D3B20333043285219DF813004BF82310A0
:107B3000CBF8042001F0A6F8BB1CDBB20BEB8303EF
:107B4000029ADA60FB1CDBB20BEB8303039ADA6068
:107B50000021154801F0F6FA80F31001F300019AB4
:107B600003F0380343F08103781C43EA8223C0B258
:107B7000FAB209040BEB8000033241EA1641C160FE
:107B80004BF822309BF8003023B9FFF71BFD09B0FA
:107B9000BDE8F08FFFF718FD0028F6D0FFF714FDC1
:107BA0000028F7D1F1E700BF50290020342500203C
:107BB0002DE9F04FDFF8B0B187B0002306460DF194
:107BC0000B008DF80B30CDE9001201F035F8DBE940
:107BD000018303F58073A3EB0803022B00F281807D
:107BE0000BF21C450BF583670BF214441AE0BDF849
:107BF0000E20C2F3891203324FEA114A09EB9209AF
:107C0000204601F0FDFA514600283AD02846CBF82C
:107C1000089001F0C5FADBE9012303F580739B1A94
:107C2000022B5FD80121284601F0BAFA384601F04C
:107C3000DBFA204601F0D8FADBF80830DAB2D11CC2
:107C40000BEB810C1BF8211001F00400490728D42C
:107C50000BEB82015A1CC9680391D2B201F00300F8
:107C60000BEB82020128D16803F1020931D002280E
:107C7000BDD0204601F0C4FA4FF0000A514600285A
:107C8000C4D12846C5E7BCF802300EEB9313DAB234
:107C9000D11C0BEB810C1BF8211001F00400002813
:107CA000D6D09CF8001001F0030101290AD0022966
:107CB00003F1020E02F10301E5D00BEB810C002869
:107CC000EFD1C5E7BCF800200233C2F3831213449E
:107CD000DDE7BDF80C20C2F383124FEA114A91444C
:107CE0008EE74246D3B20333033245219DF80B00A1
:107CF0004BF82310CBF8042000F0C4FF08F1020376
:107D0000DBB20BEB8303019ADA600021154801F026
:107D100019FA80F31001F300009A03F0380343F0DE
:107D2000410308F1010043EA8223C0B25FFA88F2FE
:107D300009040BEB8000033241EA1641C1604BF8A5
:107D400022309BF8003023B9FFF73CFC07B0BDE8B8
:107D5000F08FFFF739FC0028F6D0FFF735FC00283C
:107D6000F7D1F1E750290020342500202DE9F04F0C
:107D7000DFF8A0A187B0002306460DF10B008DF8B7
:107D80000B30019100F058FFDAE9018303F58073AD
:107D9000A3EB0803012B00F281800AF21C450AF5CF
:107DA00083670AF214441AE0BDF80E30C3F3891356
:107DB00003334FEA11490BEB930B204601F020FAF5
:107DC000494600283AD02846CAF808B001F0E8F938
:107DD000DAE9012303F580739B1A012B5FD8012197
:107DE000284601F0DDF9384601F0FEF9204601F0A1
:107DF000FBF9DAF80830DAB2D11C0AEB810C1AF878
:107E0000211001F00400490728D40AEB82015A1C12
:107E1000C9680391D2B201F003000AEB8202012883
:107E2000D16803F1020B31D00228BDD0204601F009
:107E3000E7F94FF0000949460028C4D12846C5E7B4
:107E4000BCF802300EEB9313DAB2D11C0AEB810CB2
:107E50001AF8211001F004000028D6D09CF8001078
:107E600001F0030101290AD0022903F1020E02F1F7
:107E70000301E5D00AEB810C0028EFD1C5E7BCF87F
:107E800000200233C2F383121344DDE7BDF80C3047
:107E9000C3F383134FEA11499B448EE74246D3B2A2
:107EA0000333023205219DF80B004AF82310CAF86B
:107EB000042000F0E7FE0021154801F043F980F3AB
:107EC0001001F300019A03F0380343F0010308F1B5
:107ED000010043EA8223C0B25FFA88F209040AEB88
:107EE0008000033241EA1641C1604AF822309AF814
:107EF000003023B9FFF766FB07B0BDE8F08FFFF74E
:107F000063FB0028F6D0FFF75FFB0028F7D1F1E70D
:107F1000502900203425002030B4154DD5F8101418
:107F20000446002071B10B4601E01B6853B1DB68C9
:107F30001A798242F9D101300A28F3D14FF0FF308B
:107F400030BC7047E3681871D5F810344BB1DA686B
:107F5000E36812681A60D5F81034DB681C6030BC26
:107F60007047C5F81044E268136030BC704700BF2A
:107F70003425002038B5084BD3F8104401251D7076
:107F80004CB1E3685D71236820465B689847E368FD
:107F90001C68002CF5D138BD3425002030B5C388CD
:107FA00085B004460D4623BB237A052B1FD0627A89
:107FB00082B9144AA08852F8232003920021FFF7C7
:107FC000C7FA039A10490346284605B0BDE8304079
:107FD00001F090B91946A088FFF7DEFA0B4B0C4967
:107FE00053F82020284601F085F9237AE1E705B00F
:107FF00030BD08490091084A0849284601F07AF93D
:10800000D2E700BF14EF020074EE0200F0EE0200AF
:1080100070EE020068EE020048EE020050EE020030
:108020002DE9F04385B01D460C9C002394F80C907C
:10803000237380460E46174621462846FFF7AEFFBB
:10804000062F09D8DFE807F0042E343B444F1F0009
:108050004146204601F04EF92B7A052B05D06B7A6C
:108060005BB92749204601F045F9204601F036F971
:1080700084F80C9005B0BDE8F083224A22492046DE
:1080800001F038F9EDE77369039333690293F368FC
:108090000193B3680093D6E900234146204601F0DE
:1080A00029F9D9E732684146204601F023F9D3E7A0
:1080B000D6E900234146204601F01CF9CCE7B3681D
:1080C0000093D6E900234146204601F013F9C3E7A7
:1080D000F3680193B3680093D6E900234146204634
:1080E00001F008F9B8E733690293F3680193B368C4
:1080F0000093D6E900234146204601F0FBF8ABE7A8
:1081000080EE020068EE020070EE0200082900D93D
:1081100070472DE9F04F1D4683B000241B7B2C7364
:108120000E4607462946104690460193DFF8D0B028
:10813000DFF8D0A0FFF732FF05E03A5D013401F02F
:10814000D9F8082C09D0A64251462846F5D85946F8
:10815000013401F0CFF8082CF5D12449DFF8A8B09C
:10816000234CDFF8A8A0284601F0C4F84FF000091E
:1081700017E017F80910481C7E294FF02E02C0B2F4
:1081800006D810F80A2012F0970F14BF0A462E22C4
:108190002146284609F1010901F0ACF8B9F1080FB0
:1081A0000AD04E45E5D85946284609F1010901F0A3
:1081B000A1F8B9F1080FF4D198F80830052B02D0D6
:1081C00098F809305BB90B49284601F093F8284626
:1081D00001F084F8019B2B7303B0BDE8F08F064AD1
:1081E0000649284601F086F8EDE700BF90EE020050
:1081F00094EE020080EE020068EE020070EE0200D3
:108200008CEE020084EE02007CEE02001CFD0200F7
:1082100038B5174B1D783DB3164A1168C0B200231C
:108220000C4604E00133AB4204F108041CD011F801
:1082300033209042F6D102F083FA6378A3F1010370
:10824000B3FA83F35B09834200D038BD0A4BD3E90C
:1082500000231343F9D1094B094819680022BDE8EE
:108260003840490800F04CBC00231B78FFDE00BFFB
:10827000EC290020202A0020F8290020F0290020E5
:10828000202300202DE9F04FDFF8788298F80030A5
:1082900083B0002B00F02B81DFF86C92954F964E47
:1082A00000254FF0010AD7F800B01BF8350002F0A6
:1082B00047FA1BF835400BEBC50361085B7816F8ED
:1082C00001C014F0010EA3F10103B3FA83F314BF4C
:1082D0004FEA1C120CF00F025B09042A00F2EA803C
:1082E000DFE802F0725F33200300834240F09F809A
:1082F000BEF1000F0CBFF0230F230CEA030C0CBFE0
:108300000323302343EA0C03735498F8002001350B
:108310009542C8DBD9E90023134340F0DE8003B067
:10832000BDE8F08F834200F0C580BEF1000F0CBFA6
:10833000F0230F230CEA030C0CBF0423402343EA71
:108340000C03735498F80020E1E7834240F0B580B5
:10835000BEF1000F0CBFF0230F230CEA030C98F8BA
:1083600000200CBF0323302343EA0C037354002A7C
:10837000D0D0D7F800C00023614603E0934201F15A
:108380000801C4D01CF83300A04203F10103F5D169
:108390004B68002BBBD020460121984798F800205D
:1083A000B5E7834219BF00231A4620230222BEF1FB
:1083B000000F16BF1A46F0230F230CEA03031A43DB
:1083C000725498F80020A2E7834273D14FF0000363
:1083D000BEF1000F8DF8073014BF0F23F0230CEA15
:1083E000030C14BF1023012343EA0C030DF1070013
:1083F000735400F021FCA4F12003C4F120022AFAF6
:1084000002F20AFA03F31343D9F800209DF807009B
:108410000AFA04F42243C9F80020D9F804201343CF
:10842000C9F8043000F02EFC98F800206FE7BEF188
:10843000000F14BF0F23F0230CEA030398F800C0C9
:108440007354BCF1000F12D038680023024603E0D9
:10845000634502F108020AD010F83310A14203F17B
:108460000103F5D1536813B10021204698474FF01E
:1084700000030DF107008DF8073000F0DDFBA4F1DB
:108480002003C4F120022AFA02F20AFA03F313438A
:10849000D9F800209DF807000AFA04F422EA040241
:1084A000C9F80020D9F8042022EA0303C9F80430EF
:1084B00000F0E8FB98F8002029E7BEF1000F0CBFA0
:1084C000F0230F230CEA030C0CBF0123102343EA13
:1084D0000C03735498F8002019E7084B08481968F2
:1084E0000022490803B0BDE8F04F00F009BBDFF8F7
:1084F00018900FE7202A0020002A0020F0290020F1
:1085000020230020EC290020F8290020092A3FD947
:10851000F0B583B0144605460E4601F05BFF88B304
:10852000204B214A1E70214B1560002120481C6001
:10853000202206F039FC1F4B00200021741EC3E9E5
:108540000001E4B236B31C4F05EBC404032602E07D
:10855000A5421FD01C469DF8063094F802C0207832
:108560008DF8046023F007033A4601A98DF8063020
:108570008DF805C001F038FFA4F108030028E7D00A
:1085800003B0F0BD01F0CCFE0028C9D003B0F0BDAF
:1085900007207047094A0A48002103B0BDE8F040AF
:1085A00000F096BAEC290020202A0020F0290020B3
:1085B000002A0020F8290020118202008582020092
:1085C00034EF020070B5084D2B785BB1074E0024E4
:1085D0003368012113F8340002F008F82B780134D5
:1085E000A342F5D8002070BDEC290020202A0020ED
:1085F00070B5124D2B7882B053B1114E0024336800
:1086000013F8340002F062F82B780134A342F6D854
:108610000DF1070000238DF8073000F00DFB094B2A
:108620009DF8070000240025C3E9004500F02AFB5F
:10863000054802B0BDE8704000F0BEBAEC29002049
:10864000202A0020F82900202023002000B585B032
:108650000346002101AA44F20100CDE90111039370
:1086600000F004F805B05DF804FB00BF10B572B669
:10867000FFF780FCFEF7A8FF0028FBD1104B114C40
:108680001149E41AE408240444F00100FFF76EFBEA
:108690000E4BD3F8F030DB0700D500BE0C4944F098
:1086A0000200FFF763FBBFF34F8F0849094BCA680D
:1086B00002F4E0621343CB60BFF34F8F00BFFDE7CE
:1086C000A4FE0200CCFE020038EF020000ED00E044
:1086D00044EF02000400FA0530B48D688468C36872
:1086E000CA68A54272EB03032CBF0120002030BCF6
:1086F000704700BF10B5044682B000230DF107009B
:108700008DF8073000F098FA23692BB94FF0FF324B
:108710004FF0FF33C4E902239DF8070000F0B2FADE
:10872000D4E90530984700230DF107008DF8073094
:1087300000F082FA2369BBB1D4E90212B2F1FF3F23
:1087400008BFB1F1FF3F0FD05B1842F10002C4E94E
:1087500002329DF8070000F095FA0748214601F023
:1087600095FA012002B010BD9DF8070000F08AFACA
:10877000002002B010BD00BF64EF02002DE9F04FF1
:108780002DED028B83B008EE100A00F0AFFB40B174
:10879000AC4AD2E9003113F1807341F10001C2E922
:1087A000003118EE100A002100F0BCFBA64D60B3AA
:1087B0002B6853B3A54B2C681B7823B31CB3A44878
:1087C00000F0C0FB9F4BA34A19685B684018D2E9D0
:1087D000001243F10003884273EB020203D210F14E
:1087E000807043F10003D4E902128842934180F083
:1087F0002581B2F1FF3F08BFB1F1FF3F03D096489A
:10880000214601F043FA00232B6018EE100A0121E3
:1088100000F088FB002840F0F180904801A900F0AA
:108820002DFC00283AD08D4C4FF0FF384FF0FF3927
:1088300009E033B301A9204600F052FC01A920460B
:1088400000F01CFC50B30378012B11D0022BF0D1A7
:10885000814E304601F02EFA30B1C0E9028930462F
:1088600001F028FA0028F8D1784B01221A70E1E7CC
:108870002B684168994200F0B580774801F024FAEE
:10888000D8E74168D1E90223B3F1FF3F08BFB2F155
:10889000FF3FCFD0704801F0F9F9CBE76E4FDFF81A
:1088A000B081DFF8A091384601F00AFA002852D0D2
:1088B000D0E90223B3F1FF3F08BFB2F1FF3F00F060
:1088C0008D80296891B12968D1E9020182428B41EA
:1088D00044D22B68D3E90223B3F1FF3F08BFB2F1C2
:1088E000FF3F03D02968384601F0D0F9384601F03F
:1088F000E1F904464046574ED4E902BA00F022FBA3
:10890000D9E900133268401843F1000390427268BD
:1089100073EB020203D210F1807043F10003BBEB52
:1089200000006AEB0303012873F1000324DBB0F5B8
:10893000350F4DD25A464FF496030021404600F0C1
:108940004FFA80B10D281BD0002338462B6001F070
:10895000B7F90028ACD12B68002B66D003B0BDEC72
:10896000028BBDE8F08F2B68002B3ED02C6003B04B
:10897000BDEC028BBDE8F08F0021404600F0C6FA46
:10898000324B1B78002BDFD0404600F0DBFAD9F8E1
:108990000030D6E90012C018D9F8043043F10003C2
:1089A000884273EB020203D210F1807043F100039E
:1089B000D4E90212884293411CD2B2F1FF3F08BFB2
:1089C000B1F1FF3FC0D02146384601F05FF9BBE767
:1089D000404600F0B7FA224A0244ACE7384601F0BC
:1089E00069F960E700232B6024E718EE100A00F015
:1089F000C5F9BBE72046FFF77DFEA5E71448154EF5
:108A000000F0A0FA0F4B1A685B688018D6E90012D4
:108A100043F10003884273EB020203D210F180702D
:108A200043F10003C6E90003F7E618EE100A03B0AD
:108A3000BDEC028BBDE8F04F00F0A4B92046FFF773
:108A400059FEE0E6282A0020A82A0020302A00202B
:108A500040230020A02A002064EF02008C2A00207E
:108A6000FFFFB40010B5134B13491C68134882B0C4
:108A700008235822019400F085FA044610B12046DC
:108A800002B010BD0E4A0F4801A900F013F90446C8
:108A90000028F4D10B48012100F01EFA01231946E9
:108AA000094A084800F072F9084B012220461A7062
:108AB00002B010BD60EF0200342A00208C2A002092
:108AC0007D87020040230020FFFF7F00302A002026
:108AD0006AB19FED097BA1F101010368B1FA81F14F
:108AE000490983ED027BC3E9041200207047072087
:108AF000704700BFAFF30080FFFFFFFFFFFFFFFFE6
:108B0000F0B583B00446002501A817460E468DF83F
:108B1000045000F091F8D4E90223B3F1FF3F08BFFD
:108B2000B2F1FF3F06D09DF8040000F0ABF82846F4
:108B300003B0F0BD1C4800F005FA1C4B1C4A196834
:108B40005B684018D2E9001243F10003884273EBDE
:108B5000020224D3301843F10003A060E3609DF8C3
:108B6000040000F08FF82369A76103B12661114862
:108B700001A900F041FA034670B100250D481D70AF
:108B80005C6001A900F06AFA0028D1D0064800F024
:108B9000DDF9284603B0F0BD042003B0F0BD10F1AC
:108BA000807043F10003D5E740230020282A0020ED
:108BB000A02A00208C2A002030B583B0044600256E
:108BC00001A88DF8045000F037F8D4E90223B3F17E
:108BD000FF3F08BFB2F1FF3F1CD04FF0FF334FF013
:108BE000FF32C4E902239DF8040000F04BF810485E
:108BF00001A900F001FA034648B10122027001A95F
:108C00000B485C6000F02AFA58B903B030BD04206C
:108C100003B030BD9DF8040000F034F8284603B0DE
:108C200030BD044800F092F9284603B030BD00BFC3
:108C30008C2A00204023002070B4EFF3108472B619
:108C40000D4B9A68AAB9012199600C490C4ED1F8D4
:108C5000805035401D60C1F88060D1F884505D605F
:108C60004FF0FF33C1F88430027004B962B670BCB3
:108C7000704701230370F8E7AC2A002000E100E010
:108C8000FC06FFBD094B9A687AB170B910B4EFF3D6
:108C9000108172B6064A1C6814605C685460986063
:108CA00001B962B65DF8044B70477047AC2A0020EA
:108CB00000E100E010B5294C437944F82320284C0A
:108CC00004EBC3031B79002B3BD103680A88C3F86C
:108CD000082590F904308A78002B2ADB03F16043E1
:108CE000520103F56143D2B283F8002390F90430B6
:108CF000002B09DB1B494FEA531C012203F01F0321
:108D000002FA03F341F82C304279174B44F8320051
:108D10001648181A04EBC201C0084FF0010C0004F9
:108D200081F804C040F003001149FFF71FF800204C
:108D300010BD104903F00F0352011944D2B20A7654
:108D4000D4E70A4B08480C49C01AC008000440F098
:108D50000200FFF70BF8082010BD00BFC02A00205A
:108D6000B82A002000E100E0DCFE0200A4FE0200C0
:108D700094EF0200FCEC00E070EF020003680122B7
:108D80001A607047036801225A60704770B4056822
:108D90004FF480348C40C5F80843056801F1500C4D
:108DA000C5F848434FEA8C0C05681FFA8CFC002676
:108DB00045F80C6083B055F80C500195019D05688D
:108DC00001F5A87122F07F4245F821200268C2F81F
:108DD000444313B10368C3F8044303B070BC704745
:108DE0002DE9F0474FF4803622F07F4702688E402D
:108DF000C2F848630268C2F80863026802EB810C9B
:108E0000044601F15005D2F80405DCF84025CCF801
:108E10004005AD00ADB2121A20684FF0000840F8CE
:108E2000058082B04059009022F07F42012A0098CC
:108E30008A46994641D02268D2F80455C2F8446364
:108E40007A1B22F07F42012A0AF5A87125D02368F7
:108E500043F821702068D0F804557B1BC9F1FF123C
:108E6000013B02F57F4223F07F439A4211D343B185
:108E7000C0F8446323680020C3F8046302B0BDE86F
:108E8000F087013740F821702068D0F804359D4202
:108E9000EED00D2002B0BDE8F0872368013743F81B
:108EA00021700C4B4FF4806043F001039847206819
:108EB000D0F804359D42DBD0EBE7064A4FF48060E2
:108EC00042F001029047226842F80580525901920F
:108ED000019AB0E7B0EF020002680223C2F84433FF
:108EE00011B10268C2F80433704700BF0368D3F8B9
:108EF000040100B97047002282B0C3F80421D3F8FE
:108F000004310193019B012002B0704702684FF4C5
:108F1000803303FA01F1C2F848130368C3F8081359
:108F2000704700BF50318900036889B2585800B9B2
:108F3000704700225A5082B05B580193019B012078
:108F400002B070470368D3F80405704790F9043005
:108F5000002B09DB5A09054803F01F0301214032A9
:108F600001FA03F340F82230704700BF00E100E04F
:108F7000024A034B10681B68184700BFB82A00203C
:108F8000C02A002099B110B4B2FBF3F403FB1424FF
:108F9000A4B244B9C0E9001484608281C381204630
:108FA0005DF8044B704709205DF8044B70470E20B4
:108FB000704700BF82B050E8022FC188B2EB324F39
:108FC0004FF0000317BF92B241EA014142EA01416A
:108FD00004E04268B2EB324F08BF012340E80212BE
:108FE000002AE8D18DF807309DF80730002B0CBF20
:108FF0001120002002B0704710B483B050E8013F48
:109000001FFA83FCC489A4448489A44528BFACEB1F
:10901000040C0489A44502BFBFF32F8F002207E090
:10902000CCEA030C40E801C4002CE7D14FF0010268
:109030008DF803200193019C9DF803200C6032B150
:10904000006810FA84F003B05DF8044B704702F03A
:10905000FF03184603B05DF8044B70470A884B883D
:109060009A4201D00020704750E8012FC2EA024224
:1090700040E80123002BF7D10120704710B483B0E2
:1090800050E8023F1FFAA3FCC488A44502BFBFF307
:109090002F8F00220EE0C489A4448489A44528BFF0
:1090A000ACEB040CC3EA0C4C40E802C4002CE7D142
:1090B0004FF001028DF803200193019C9DF80320DD
:1090C0000C6032B1006800EB144003B05DF8044B53
:1090D000704702F0FF03184603B05DF8044B704779
:1090E0000A884B889A4201D00020704750E8022F2E
:1090F000C2EA224240E80223002BF7D10120704748
:109100004B0901F01F024FF0010C0CFA02F100EBC9
:10911000830000F021B800BF01F01F02012303FA11
:1091200002F24B0900EB8300D14300F021B800BFED
:109130004B0901F01F0150F82300C84000F0010066
:10914000704700BF034653E8000F0A4643E8002C6F
:109150009CF0000FF7D17047034653E8002F42EA16
:10916000010043E8000C9CF0000FF6D1704700BFEF
:10917000034653E8002F02EA010043E8000C9CF08C
:10918000000FF6D1704700BF034653E8000F00EB15
:10919000010243E8002C9CF0000FF6D1704700BF9D
:1091A000034653E8002F02EB010043E8000C9CF05B
:1091B000000FF6D1704700BF034653E8002FA2EB23
:1091C000010043E8000C9CF0000FF6D1704700BF8F
:1091D0000346012253E8000F40EA020143E8001C65
:1091E0009CF0000FF6D170470346012253E8001FA0
:1091F00041EA020043E8000C9CF0000FF6D17047F2
:109200000346002253E8000F00EA020143E8001C75
:109210009CF0000FF6D17047D0B110B4D0E9011224
:10922000521A0468D2B2531E2160DBB252B10168F7
:109230000A6803F1FF3C541C0C6013705FFA8CF356
:10924000FF2BF4D10368002018715DF8044B7047C0
:109250000E20704730B583B0044600250DF107009D
:109260008DF80750FFF7E8FCD4E900311A688A420C
:1092700010D9511E19602168A3680D6812F8012CDD
:10928000208A5B1BE56800FB02550A79DBB29A4233
:1092900038BF0B719DF80700FFF7F4FC284603B0B8
:1092A00030BD00BF30B5054683B00DF10700002387
:1092B0000C468DF80730FFF7BFFC2A681368591C6D
:1092C0001160E9682A8A641AB4FBF2F41C709DF8F4
:1092D0000700FFF7D7FC03B030BD00BF826842B182
:1092E00010B5044643690168006998470023A360EC
:1092F00010BD70470EB400B582B0039921B104AB24
:1093000001AA019300F0B6F802B05DF804EB03B0D7
:10931000704700BF2DE9F04F154683B0A942DDF834
:1093200030900D9A0F4606469A46C0F09E800B4636
:109330004FF00108B3FBF5F39D4208F10108F9D99C
:10934000D04538BFD04612F00103019302D1B9F1E4
:10935000000F67D1B268BAF1010F4FF0010406D9CE
:109360000AF1FF3ABAF1010F05FB04F4F8D8B7FB94
:10937000F4F39D4205D805FB04F4B7FBF4F39D42DA
:10938000F9D9DFF8ECA007E0AC42B4FBF5F31AD34F
:10939000B2681C46B7FBF3F31AF803B0BBF10A0F2F
:1093A00004FB137728D03368511CB16003F802B076
:1093B000D6E901329A42E7D33046FFF78FFFB4FB7C
:1093C000F5F3AC42E4D2019B9BB1B9F1000F10D090
:1093D0002024C84509F1FF390BD2B3683268591C03
:1093E000B160D454D6E901329A4214D2B9F1000FD7
:1093F000EFD103B0BDE8F08F511C3368B1604FF07E
:109400000D019954D6E901329A42CCD33046FFF788
:1094100065FFB268C7E73046FFF760FFB9F1000F9C
:10942000D7D1E6E793071AD42024B268C84502F1E1
:10943000010190D23368B1609C54D6E901329A425E
:1094400009F1FF3903D2B9F1000FEFD183E73046BC
:10945000FFF744FFB268B9F1000FE7D17BE7BAF13B
:10946000000F0CBF30242024DFE74FF0010867E72E
:10947000B8EF0200002900F05C822DE9F04FDFF820
:1094800070950D7885B0064690460C464FF00D0A53
:109490000FE00A2DB36800F08E803268591CB1606D
:1094A000D554D6E901329A4280F081802578002D8A
:1094B00069D00134002D66D0252DEAD1002723463E
:1094C00014F8012B2D2A6CD0302A6DD02B2A61D0B4
:1094D0002A2A7FD0A2F1300109294FF000050BD8CC
:1094E00005EB850502EB450513F8012FA2F13001CC
:1094F0000929A5F13005F3D92E2A1C4675D0002381
:1095000001E014F8012F02F0FB016829F9D0252AA7
:1095100000F08681583AD1B2202930D8202A2ED89E
:10952000DFE812F021002D002D002D002D002D0070
:109530002D002D002D002D002D00FE0079002D00A6
:109540002D002D002D0079002D002D002D002D0067
:109550002D002D00BD002D002D001A012D0016013B
:109560002D002D002100D8F800101022081DC8F889
:10957000000009683046CDE90057FFF7CBFE013403
:109580002578002D95D1337B002B40F0438105B029
:10959000BDE8F08F234614F8012B2D2A47F004076D
:1095A00092D147F001078AE747F0020787E7304684
:1095B000FFF794FE7AE73268591CB16002F803A005
:1095C000D6E901239342FFF468AF3046FFF786FEE9
:1095D000B36862E7D8F80020111DC8F800101568BC
:1095E0005A782E2A03F1010489D16278A2F130035E
:1095F000092B04F101044FF0000384D803EB83032B
:1096000002EB430314F8012FA2F130010929A3F161
:109610003003F3D977E7D8F80020111DC8F80010FF
:10962000D2F800B08BEAEB72A2EBEB72092A40F39E
:10963000DB81DFF8C0C3012011466329ACFB02E2E5
:1096400000F101004FEAD202F6DC9842024638BF30
:109650001A460292002D00F01E81BBF1000FC0F2ED
:109660002E817A0700F12B81B80740F12A81002B67
:1096700040F02781BBF1000FC0F27D817A0700F135
:109680008D8107F00302022A00F05D81CDE90057C9
:1096900059460A223046FFF73DFE013470E7D8F8FC
:1096A00000301A1DC8F800201F68B3683268581CC3
:1096B0003021B060D154D6E90123934280F0FA8082
:1096C000591C3268B1607821D154D6E901329A42EE
:1096D00080F0EB800F2F03D93B461B090F2BFCD8E2
:1096E0004FF0805506E00F2D4FEA15137FF647AF78
:1096F000B2681D46B7FBF5F319F803B0BBF10A0FCA
:1097000005FB137777D03368511CB16003F802B0C2
:10971000D6E901329A42E6D33046FFF7DFFDE2E7B1
:10972000D8F800301A1DC8F800201D78B3680A2D3B
:1097300000F03A813268591CB160D554D6E9013243
:109740009A42FFF41CAF3046FFF7C8FD013417E71B
:10975000D8F800100A2209E7D8F800301A1DC8F816
:10976000002017F00107D3F800B064D1BBF1000F5F
:1097700003D0584605F020FB0746BD4215D92022EC
:1097800001E0BD4211D0B1683368481CB0605A5442
:10979000D6E90130984205F1FF35F2D33046FFF7A4
:1097A0009DFDBD424FF02002EDD19BF80050002DF1
:1097B0003FF4E5AE0A2DB0680FD03368421CB260AA
:1097C0001D54D6E90130984280F0B4801BF8015F47
:1097D000002D3FF4D4AE0A2DEFD13368421CB260A5
:1097E00003F800A0D6E901309842E6D33046FFF7EF
:1097F00075FDB068E1E73368511CB16003F802A061
:10980000D6E901329A42FFF47EAF3046FFF766FD9B
:10981000B26878E7304605B0BDE8F04FFFF75EBDAF
:10982000B3683168581CB060CA54D6E901329A4214
:1098300089D20134A4E69BF80030002B00F0D680DA
:10984000B0685F46CBF101020A2B02EB070B5ED03A
:10985000411CB16031680B54D6E90130984248D2BE
:1098600017F8013F002BEFD15D457FF688AE20272A
:1098700002E05D453FF483AEB2683368511CB160CD
:109880009F54D6E901329A4205F1FF35F1D33046B3
:10989000FFF724FDEDE7B80705D5002B3FF4EAAE4E
:1098A000F9073FF5E7AE0025E4E63046FFF716FD81
:1098B000B2680FE73046FFF711FDB36800E7013DDE
:1098C000D2E6F9073FF5D6AE002DECD02022029962
:1098D000A942BFF4CFAEB168481CB06030684254B2
:1098E000D6E90101814205F1FF356CD2002DEED1A0
:1098F000D9E730460292FFF7F1FC17F8013F002B41
:10990000B2D0029AB0680A2B02EB070BA0D1411C1F
:10991000B160316801F800A0D6E90110884297D300
:109920003046CDE90232FFF7D9FCDDE90232B068FA
:109930008EE770473046FFF7D1FC1BF8015F002D22
:109940007FF438AF1BE6002B7FF4A0AE8DB1302240
:1099500002998D427FF69AAEB168481CB0603068BB
:109960004254D6E90101814205F1FF3535D2002D7F
:10997000EED100258AE6B1683268481CB060CBF1B0
:10998000000B2D205054D6E901219142FFF479AE0D
:1099900030460393FFF7A2FC039B72E6B16832687E
:1099A000481CB0602B20EDE73268591CB16002F80A
:1099B00003A0D6E901239342FFF4BCAE3046FFF783
:1099C0008DFCB368B6E630460393FFF787FC039B34
:1099D0002022002D7FF47BAF65E730460393FFF72D
:1099E0007DFC039B3022C2E701202EE69B463BE72D
:1099F000B8EF0200CDCCCCCCFFF70EBC2DE9F04186
:109A0000058A0331043D4E198046B6FBF5F6FFF793
:109A100021FCA0B3F6B24FF48073013E044683806C
:109A2000C580C0F800802BD00346002508E062798D
:109A3000AE4202F1010262713860C0F800801FD0AE
:109A400040461F46FFF706FC013503460028EED1CD
:109A50006779791E17D02246013399421268FBD1EB
:109A6000D2F800805FB12668002501E034463668F0
:109A7000214640460135FFF715FCAF42F6D80024D9
:109A80002046BDE8F08120682146FFF70BFCF6E791
:109A900001210430FFF784BB2DE9F0410121044688
:109AA0000430FFF789FB10F0FF0301D0BDE8F0811F
:109AB0006779791E16D02246013399421268FBD18C
:109AC000D2F80080002FF1D02668002501E034464E
:109AD0003668214640460135FFF7E4FBAF42F6D831
:109AE000BDE8F08120682146BDE8F041FFF7DABB10
:109AF0002DE9F8438846C788417907FB01F104390D
:109B000002EB030C1E1D6145154638BFCD1AB74246
:109B10000446B6FBF7F207FB126002D8013A24684C
:109B2000FCD13E1AAE4228BF2E469DB14FF000092F
:109B30000430AD1B324608EB0901204405F026F93C
:109B4000AF42B14424683E464FF0000028BF2E4685
:109B5000002DEDD1BDE8F8832DE9F8430446C78810
:109B6000407907FB00F0043802EB030C1E1D604532
:109B7000154638BFC51AB7428846B6FBF7F107FB52
:109B8000116202D801392468FCD1BE1AAE4228BF46
:109B90002E469DB14FF00009111DAD1B32462144E8
:109BA00008EB090005F0F2F8AF42B14424683E46E4
:109BB0004FF0000228BF2E46002DEDD1BDE8F883FE
:109BC00041DF7047064A074B10B5002414701C6033
:109BD000BFF35F8F0449054800F042F8204610BDEE
:109BE000CC2A0020D02A0020D4EF0200C42A002072
:109BF00000B583B000230DF107008DF80730FFF7A3
:109C00001BF8F1EE103A23F09F03E1EE103ABFF398
:109C10005F8F0B4B4022C3F884219DF80700FFF7AC
:109C200031F803F093FA28B920BF40BF20BF03B03A
:109C30005DF804FB03B05DF804EBFFF7C1BF00BFA4
:109C400000E100E08268002393608268136182680B
:109C500053618268D3608268536082681360704782
:109C600001600B6843604A68934204BF002343606D
:109C7000704700BF436843B1026891680B4443607A
:109C80005268934204BF00234360704770B5446834
:109C9000064620680D4618B908E02468206828B1F7
:109CA000B368294698470028F7D1206828602560C6
:109CB00070BD00BF4368186808B102681A60704739
:109CC00043681868704700BF4368186818B908E00F
:109CD0000346006828B18142FAD10A681A6001205F
:109CE000704770471049A1F5947205E052F833307F
:109CF000984238BF61460CD2A1EB020C4FEADC73EC
:109D000003EBEC035B10914202EBC30CEED8074867
:109D1000704702D90CF10802EEE7DCF80400034BAF
:109D2000002808BF1846704714F50200D8F3020057
:109D300010B44FF08053D3F83021082A23D0844A3E
:109D4000D2F8883043F47003C2F88830BFF34F8FE5
:109D5000BFF36F8F4FF08053D3F83021082A00F003
:109D6000B3804FF01023D3F80022002AC0F2BF8046
:109D7000D3F80432002BC0F2BA80764B764A1A60D0
:109D80005DF8044B70474FF080410020C1F80C0192
:109D9000724AC1F81001C1F83805D3F80414C2F8AA
:109DA0002015D3F80814C2F82415D3F80C14C2F8FF
:109DB0002815D3F81014C2F82C15D3F81414C2F8CF
:109DC0003015D3F81814C2F83415D3F81C14C2F89F
:109DD0004015D3F82014C2F84415D3F82414C2F85F
:109DE0004815D3F82814C2F84C15D3F82C14C2F82F
:109DF0005015D3F83014C2F85415D3F83414C2F8FF
:109E00006015D3F83814C2F86415D3F83C14C2F8BE
:109E10006815D3F84014C2F86C15D3F83411D3F890
:109E20004434C2F87035052942D84D4B5B5C1BB1F8
:109E30004C4B4D4AC3F88C264C4B5B5C73B14FF0D6
:109E400080534B49D3F83021FB20C1F81805082A6C
:109E5000D3F834117FF473AF052929D8454B5B5CE7
:109E6000BBB14FF080524FF08040D2F85832D0F85A
:109E7000E41ED2F8304121F00F0103F00F030B4331
:109E8000C0F8E43E082CD2F834117FF458AF05290D
:109E90000ED8394B5B5C5BB14FF08053374AD3F837
:109EA00030314FF40071082BC2F840167FF447AFF1
:109EB0004FF08043D3F80024D2077FF540AF6FF016
:109EC0000102C3F800243AE7D3F83431052B08D94E
:109ED0004FF010224FF08043D2F80822C3F85825E3
:109EE0003FE7274AD35C002B3FF43BAFF0E7254A1E
:109EF0000123C2F80435D2F80034002BFBD04FF018
:109F0000102312211F4AC3F80012D2F80034002B8C
:109F1000FBD04FF0102312211A4AC3F80412D2F8D2
:109F20000034002BFBD000231649C2F80435D1F8C9
:109F30000034002BFBD0BFF34F8F0549124BCA688A
:109F400002F4E0621343CB60BFF34F8F00BFFDE725
:109F500000ED00E0482300200090D00300C0004046
:109F60001CF5020000500040488103001CF502006F
:109F700000F000401CF502001CF5020000900240B9
:109F800014F5020000E001400400FA05064B1A5CDB
:109F90001F2A86BF054902F01F024FF0A04101238E
:109FA0009340C1F80C35704724F5020000030050BF
:109FB000064B1A5C1F2A86BF054902F01F024FF0AC
:109FC000A04101239340C1F80835704724F50200F1
:109FD00000030050C20710B40FD483070AD54FF016
:109FE000A0430C22C3F82C27C3F83027C3F86027FE
:109FF000C3F864275DF8044B70474FF0A043032279
:10A000004FF40051C3F834274FF48044C3F8382785
:10A01000C3F83C27C3F84027C3F808154FF4803233
:10A020004FF40041C3F80845C3F80815C3F80825E4
:10A03000D3E700BF10B568B90E4CA3680122627067
:10A040003BB1D3E900230020A2609847A368002B0E
:10A05000F7D110BD0128FCD1064C2369A070002B5C
:10A06000F7D0D3E900230120226198472369002B10
:10A07000F7D110BDD42A002070B910B5074CA368E1
:10A08000012262703BB1D3E900230020A26098470F
:10A09000A368002BF7D110BD704700BFD42A002061
:10A0A00030B5012883B004D0032821D0B0B103B06B
:10A0B00030BD294C00230DF107008DF80730FEF765
:10A0C000BBFD23786BB3E3689DF8070001221344BE
:10A0D000E360A270FEF7D6FD03B030BD1F4B012236
:10A0E000C3F88020BFF34F8FBFF36F8F03B030BD35
:10A0F000194C00F0B5F800230DF107008DF807307A
:10A10000FEF79AFDE368013BE360E3681BB9144B7B
:10A11000D3F80054C5B19DF80700FEF7B3FD03B0B6
:10A1200030BD10486360A3602361E36000F08CF8E9
:10A1300003F00CF860B10A4A01232370D2F800241E
:10A14000002AC0D0A370BEE700F09CF8A570E2E73B
:10A1500000F086F8EFE700BFD42A002000E100E01D
:10A160000000014035A0020030B50A4B0A4C53F8FC
:10A17000213054F82110027885B0D0E901548DF8CF
:10A180000020C26801958DF8084003926846984700
:10A1900005B030BDF02A0020E82A002030B50A4B77
:10A1A0000A4C53F8213054F82110027885B0D0E9D8
:10A1B00001548DF80020C26801958DF80840039283
:10A1C0006846984705B030BDF02A0020E82A0020F4
:10A1D000F0B5184B067843F82620174B0446487F05
:10A1E00098551546154A8E46096942F82610227878
:10A1F0009F5CBEE80F0089B0EC46ACE80F009EE81B
:10A200000F008CE80F0004964FB1002D0C4A6946F0
:10A2100008BF2A46201D01F0EFF809B0F0BD002D5F
:10A22000084A694608BF2A4604F10C0000F040FEC7
:10A2300009B0F0BDF02A0020F82A0020E82A00200A
:10A2400069A102009DA10200044A137923B90121EA
:10A25000106091801846704785207047FC2A0020C6
:10A26000074B1A68D20704D4C02283F800230122C6
:10A270001A604FF080430122C3F81825704700BFD1
:10A2800000E100E04FF0804202210023C2F80813F1
:10A2900082B0C2F80431D2F804310193012301994C
:10A2A000D360D2F81834DB03FBD402B0704700BF90
:10A2B00010B54FF0804382B0D3F8002162B1002185
:10A2C000164AC3F80011D3F800115079009101210A
:10A2D000009CC3F80813A8B14FF08043D3F80421C1
:10A2E000CAB10022C3F80421D3F80421019202214B
:10A2F0000A4A0198C3F808131368012002B0BDE8A8
:10A30000104018471368517198474FF08043D3F8B5
:10A310000421002AE5D102B010BD00BFFC2A0020B4
:10A3200030B5284C94F86A3083B0002B46D14FF6F4
:10A33000FF704FF0FF0C5A09012A18BF4FF0FF3190
:10A3400003F01F0208BF014621FA02F2D20748BFFC
:10A35000E21803F1010348BF82F830C0302BEAD184
:10A360004FF0FF304FF0FF314FF0FF33C4E90001F1
:10A370000622002114482366C4E90233C4E90433E9
:10A38000C4E90633C4E90833C4E90A3304F00CFD18
:10A390000E4BC02283F8062340221A600C4B00208B
:10A3A000C3F87C01D3F87C21019201214FF00042D7
:10A3B000019D84F86A10C3F8042300E0082003B06C
:10A3C00030BD00BF082B00206C2B002000E100E016
:10A3D00000600040034B93F86A00003818BF01206A
:10A3E000704700BF082B002070B57D4B03EB000EBB
:10A3F0009EF930C0BCF1000F01DB082070BD91F860
:10A4000002C01CF0020FCCF340055DD11C6A013480
:10A4100000F0DF805C6A013400F0D1804FF00C0E58
:10A420004FF00A0C53F82C40013459D00CF10104C0
:10A43000744547D253F82460013600F0B8800CF11F
:10A44000020474453ED253F82460013600F0AF8018
:10A450000CF10306764535D253F8264001343ED040
:10A460000CF1040676452DD253F82640013436D03F
:10A470000CF10506764525D253F8264001342ED03E
:10A480000CF1060676451DD253F82640013426D03D
:10A490000CF10706764515D253F8264001341ED03C
:10A4A0000CF1080676450DD253F82640013416D03B
:10A4B0000CF1090CF44505D2DC6A013408BF4FF0F9
:10A4C0000B0C0DD0042070BD1C68013471D05C6889
:10A4D00001347BD04FF0080E4FF0020CA2E7B446D7
:10A4E00043F82C201A184FFA8CFE82F830E015B988
:10A4F0009C448CF858008A7854071CD4D50747D55B
:10A500001F2887BF374A00F01F0404464FF0A042BF
:10A5100002EB8402D2F8004724F00204C2F800479C
:10A52000314DC40800F0070C2E5D012202FA0CF236
:10A5300032432A558A7812F002021CD04FEA8E0369
:10A5400003F1804303F5C0430978D3F8104524F4A0
:10A550004F3424F44074C3F8104502020904D3F8C0
:10A56000100501F4403102F47C520A430243C3F85F
:10A570001025002070BDAEF1080E43FA8EF30C7862
:10A5800093F86010104641EA841283F8602070BD91
:10A590001F284C7887BF134D00F01F0202464FF072
:10A5A000A04502F5E072A40045F82240B8E7A446B1
:10A5B00096E71A6000228EF8302096469BE74FF00F
:10A5C000090C8EF830C05A62E64691E74FF0010C54
:10A5D00086E74FF0080C8EF830C01A62E64687E72F
:10A5E000082B0020000300506C2B002030B4344CAA
:10A5F00004EB000C82B09CF93030072B24DD083BC3
:10A6000044FA83F393F860309B09032B47D0012B66
:10A610000CBF4FF400324FF440321F288ABF294B41
:10A620004FF0A04300F01F0003EB8000D0F800378C
:10A6300023F44033C0F80037D0F800371A43C0F88D
:10A64000002702B030BC7047DAB2072AF9D8980068
:10A6500000F1804003F1400200F5C04052B2920088
:10A66000D0F8105592B202F1804202F5C04245F096
:10A670000105C0F810550020106012680192019A7F
:10A680000029DED09CF9302054F82220002AD8D0AE
:10A690000D49012202FA03F3C1F80433D1E71F2860
:10A6A0008ABF084A4FF0A04200F01F03D2F81025DD
:10A6B00098BF0346DA4002F0010202321204ACE70E
:10A6C000082B00200003005000600040194B034499
:10A6D00093F93030072B13DD1F288ABF164B4FF03C
:10A6E000A04300F01F0003EB8000D0F8003723F4F4
:10A6F0004033C0F80037D0F80037C0F80037704753
:10A70000DAB2072A14D810B49A0002F1804202F596
:10A71000C0420A4CD2F81005012120F0010001FAD4
:10A7200003F3C2F81005C4F808335DF8044B704712
:10A73000704700BF082B002000030050006000405D
:10A740001F288ABF054B4FF0A04300F01F00D3F82D
:10A75000103523FA00F000F00100704700030050AC
:10A760002DE9F047002384B0CDE902331C4AD2F82A
:10A770000011012900F030821E46194BD3F8042144
:10A78000012A00F01A82164BD3F80821012A00F0A2
:10A790000582134BD3F80C21012A00F0F081104BF5
:10A7A000D3F81021012A00F0DB810D4BD3F81421DE
:10A7B000012A00F0C1810A4BD3F81821012A00F0C8
:10A7C000AC81074BD3F81C21012A0BD0044BD3F8E2
:10A7D0007C21012A00F0218256BB04B0BDE8F0873D
:10A7E00000600040D3F804231206EFD50022C3F81E
:10A7F0001C21D3F81C110091D3F87C110098012979
:10A8000046F0800614D1C3F87C21D3F87C31019343
:10A810004FF0A042019BD2F82015CF4B0291C2F815
:10A820002015D3F820250392C3F8202546F00046D2
:10A83000CA4F00240125A30003F18043354203F5EC
:10A84000C0434FEA45050BD0D3F8100557F8242034
:10A85000D3F81015C0F30520C1F3014102B19047B0
:10A860000134082CE7D1002EB7DABC4CBA4E0125D2
:10A870004FF0A04794F96000431C48D0C0F3C202D7
:10A8800002F110030DEB030200F0070312F8082C8D
:10A8900005FA03F31A42C1B200F03F0037D01F2877
:10A8A00000F22B8102464FF0A04909EB820305FA22
:10A8B00002F2D3F800C7D3F800E72EF4403EC3F805
:10A8C00000E704EB000ECCF3014C9EF930E0D3F826
:10A8D00000A754F82E80BCF1020F0CBF4FF4403E8D
:10A8E0004FF4003E4EEA0A0EC3F800E7C9F82025EF
:10A8F000B8F1000F0BD08909032900F08281BCF167
:10A90000020F00F07B81BCF1030F00F0A68194F9E7
:10A910006100411C48D0C0F3C20202F110030DEBEC
:10A92000030200F0070312F8082C05FA03F31A4299
:10A93000C1B200F03F0037D01F2800F2E28002468B
:10A940004FF0A04909EB820305FA02F2D3F800C7E1
:10A95000D3F800E72EF4403EC3F800E704EB000E06
:10A96000CCF3014C9EF930E0D3F800A754F82E80C8
:10A97000BCF1020F0CBF4FF4403E4FF4003E4EEAD4
:10A980000A0EC3F800E7C9F82025B8F1000F0BD074
:10A990008909032900F03A81BCF1020F00F03381EC
:10A9A000BCF1030F00F05D8194F96200421C48D0B5
:10A9B000C0F3C20202F110030DEB030200F0070323
:10A9C00012F8082C05FA03F31A42C1B200F03F0056
:10A9D00037D01F2800F2998002464FF0A04909EBBA
:10A9E000820305FA02F2D3F800C7D3F800E72EF489
:10A9F000403EC3F800E704EB000ECCF3014C9EF997
:10AA000030E0D3F800A754F82E80BCF1020F0CBF41
:10AA10004FF4403E4FF4003E4EEA0A0EC3F800E702
:10AA2000C9F82025B8F1000F0BD08909032900F0DF
:10AA3000F280BCF1020F00F0EB80BCF1030F00F0DC
:10AA4000088194F96300431C47D0C0F3C20202F1AD
:10AA500010030DEB030200F0070312F8082C05FAAF
:10AA600003F31A42C1B200F03F0036D01F2850D87D
:10AA700002464FF0A04909EB820305FA02F2D3F82F
:10AA800000C7D3F800E72EF4403EC3F800E704EB1C
:10AA9000000ECCF3014C9EF930E0D3F800A754F837
:10AAA0002E80BCF1020F0CBF4FF4403E4FF4003E2D
:10AAB0004EEA0A0EC3F800E7C9F82025B8F1000FE6
:10AAC0000BD08909032900F09780BCF1020F00F038
:10AAD0009080BCF1030F00F0B880D7F820250292D7
:10AAE000C7F82025D6F820350393C6F82035134340
:10AAF0007FF4C0AE04B0BDE8F08701F01F02B1469C
:10AB0000D3E601F01F02B1461CE701F01F02B14677
:10AB100065E701F01F02B146ADE7D3F80423510603
:10AB20007FF54FAE0022C3F81821D3F818310093F7
:10AB3000009B46F0400644E6D3F8042390067FF5D8
:10AB40003AAE0022C3F81421D3F814310093009BCD
:10AB500046F020062FE600BF00030050082B00201F
:10AB6000D3F80423D4067FF520AE0022C3F81021C9
:10AB7000D3F810310093009B46F0100615E6D3F889
:10AB8000042315077FF50BAE0022C3F80C21D3F880
:10AB90000C310093009B46F0080600E6D3F804232E
:10ABA00057077FF5F6AD0022C3F80821D3F8083126
:10ABB0000093009B46F00406EBE5D3F804239207CC
:10ABC0007FF5E1AD0022C3F80421D3F804310093EE
:10ABD000009B46F00206D6E5D2F8046316F00106A3
:10ABE0003FF4CBADC2F80031D2F800310093009BA6
:10ABF000C3E501297FF471AFC0476EE701297FF4F7
:10AC000086AEC04783E601297FF4CEAEC047CBE6CF
:10AC100001297FF416AFC04713E70022C3F87C2157
:10AC2000D3F87C3101934FF0A042019BD2F820155C
:10AC30000E4B0291C2F82015D3F820250392C3F8D9
:10AC40002025002E3FF411AEF0E502297FF445AF38
:10AC5000D2E702297FF4F5AEDDE702297FF457AE93
:10AC6000CFE702297FF4A0AED0E700BF0003005079
:10AC7000014B1B68184700BF742B0020104B9842F3
:10AC80001BD130B583B000230DF107008DF80730DC
:10AC90000D46FDF7D1FF0B4B9DF807001C793CB921
:10ACA00001221D601A71FDF7EDFF204603B030BD93
:10ACB000FDF7E8FF112003B030BD0020704700BF52
:10ACC00000200040742B0020034B984203D1034B1B
:10ACD00000221A601A71704700200040742B002077
:10ACE00010B5714AD2F8043399058AB068D5D2F804
:10ACF0002431002B64D00023C2F82431D2F824314F
:10AD000001934FF40171694B0198C2F8081393F84D
:10AD1000291009B901215160634902228DF81820D8
:10AD2000D1F88024C1F880249FED5D7B9969D868B3
:10AD3000CDE9081283ED067BD3E90012079006A83F
:10AD40009047594AD2F81C31C3B1584B5869196A17
:10AD500088426AD993F8281001F0FF00002964D1D5
:10AD6000C2F81C01D2F81C11039103999C68186A5F
:10AD7000196A205C01311962C2F81C054A4AD2F8EE
:10AD80004431DBB10021494BC2F84411D2F84401EF
:10AD900093F829100090009809B1012111609A6977
:10ADA00062B1D8685C6A00210122CDE9070499618B
:10ADB0008DF8182006A8D3E9001290470AB010BDFC
:10ADC000394AD2F804335B07BBD5D2F80831002BDF
:10ADD000B7D0364B996900293ED00021C2F808113E
:10ADE000D2F8081104910499D868596AD2F8182544
:10ADF00042545A6A996901325A625A6A8A42A0D107
:10AE0000DA69002A31D09A611A69D8685C6ADA6016
:10AE1000002101220894D961596207905C68196881
:10AE20008DF8182006A8A0478BE71F4A0020C2F81B
:10AE30001C01D2F81C210292029A5A69002A9DD064
:10AE4000D3E901215C698DF81800CDE90714586138
:10AE5000196806A8904791E7C2F80811D2F80801CE
:10AE600005900598D2F81825C7E793F8292012B95C
:10AE70000D4A012151600C4A4FF40171C2F80813C8
:10AE8000D8685C6A0021012299618DF81820D3E905
:10AE90000012CDE9070406A8904752E7AFF30080FF
:10AEA000000000000000000000200040802B002077
:10AEB0002DE9F041734E90F804802C2303FB0863C6
:10AEC00082B093F82A30002B40F09C8005460C4657
:10AED00000686D491746FFF7D1FE002840F08E80CC
:10AEE0002368591C19D01F2B4FF001028ABF6749F4
:10AEF0004FF0A04103F01F0302FA03F3C1F8083535
:10AF000023681F2B86BF03F01F03604A4FF0A04247
:10AF100003F5E073032142F8231063685A1C0BD039
:10AF20001F2B86BF03F01F03584A4FF0A04203F5C2
:10AF3000E073002142F823102B68A269C3F824258E
:10AF4000227D637D13432A68C2F86C35D4E9001270
:10AF50002B68C3F81425C3F80C15237D012B5CD096
:10AF60002C2303FB08F3F21857602269F25097B3C1
:10AF70002A68237F0021C2F81C11D2F81C210092FC
:10AF8000009A2A68C2F84411D2F844210192019A29
:10AF90002A683F49C2F804132A6842F3073100299E
:10AFA0004FEA123232DB01F160415B0101F5614190
:10AFB000DBB281F800332B6843F30732002A4FEAF3
:10AFC000133109DB334C5209012301F01F0103FA4D
:10AFD00001F144F822102B680422C3F800252C2329
:10AFE00003FB086601220023C6E9063386F82930F0
:10AFF000736186F82A2002B0BDE8F081112002B00A
:10B00000BDE8F081082002B0BDE8F081224902F0DD
:10B010000F025B01DBB28B54CDE7A368591C0BD048
:10B020001F2B86BF03F01F0318494FF0A04103F503
:10B03000E073002241F82320E3685A1C1AD01F2B2A
:10B040008ABF12494FF0A04103F01F03012202FA08
:10B0500003F3C1F80835E3681F2B88BF03F01F0313
:10B0600003F5E0738CBF09494FF0A041032241F87A
:10B070002320E3682A68A168C2F80835C2F81015D1
:10B080006EE700BF802B0020E1AC020000030050FF
:10B090008000020000E100E014ED00E0F8B5036874
:10B0A00007793D4C0022C3F800252C2303FB0743FE
:10B0B0005B68C3B10368394AC3F80823036843F3E4
:10B0C0000732002A4FEA13310EDB5209344D203289
:10B0D000012301F01F0103FA01F145F82210BFF32B
:10B0E0004F8FBFF36F8F0368D3F80C65D3F81455F7
:10B0F000D3F80825D3F810154FF0FF3CC3F814C55A
:10B10000C3F80CC503686645C3F808C5C3F810C585
:10B110000CD01F2E86BF06F01F06224B4FF0A04317
:10B1200006F5E0764FF0020C43F826C06E1C0BD0FB
:10B130001F2D86BF05F01F051A4B4FF0A04305F5E4
:10B14000E075022643F825604D1C0BD01F2986BFF1
:10B1500001F01F01134B4FF0A04301F5E0710225F0
:10B1600043F82150531C0BD01F2A86BF02F01F0248
:10B170000C4B4FF0A04302F5E072022143F822107D
:10B180000068FFF7A1FD2C2303FB0744002384F88C
:10B190002A306360F8BD00BF802B002084020200CB
:10B1A00000E100E0000300502DE9F041334C90F83D
:10B1B00004E02C2303FB0E438446586984B0002826
:10B1C0004ED15A619960186283F82800DCF800209B
:10B1D000C2F81C01D2F81C210292029ADCF800206D
:10B1E00001219160DCF800209D68C2F81C01D2F8B2
:10B1F0001C1101910199196A6E5C196A0131196279
:10B20000C2F81C655A6812B104B0BDE8F0815E69ED
:10B210001A6ADCF8001096421BD9074602E093F840
:10B2200028200ABBD1F81C21002AF8D0C1F81C71D3
:10B23000D1F81C210392039A1A6A15F802801A6A3F
:10B2400001321A62C1F81C851A6A9642EAD8DCF803
:10B250000010D1F81C31002BFBD00123CB6004E09F
:10B26000112004B0BDE8F0810F202C2303FB0E4415
:10B270000023636104B0BDE8F08100BF802B002093
:10B2800010B55B4BD3F824218AB0002A58D0002295
:10B29000C3F82421D3F82411049102228DF8182038
:10B2A0000499544AD3F88014C3F880149FED4E7B60
:10B2B0000991D3F83C45D06882ED067BCDE90704BF
:10B2C000D2E9001306A89847494BD3F8442152B15C
:10B2D0000021484AC3F84411D3F84401916903900E
:10B2E0000398002961D1424BD3F8202162B100209C
:10B2F000C3F82001D3F82021029201213D4A029C8B
:10B30000D9605169002943D1394BD3F85821AAB1EA
:10B310000020C3F85801D3F85811364A0191019919
:10B32000516959B1D3F84C458DF81800D2E9013173
:10B330005061CDE9071406A8116898470AB010BDFE
:10B34000D3F810110029BFD0C3F81021D3F8101181
:10B35000284C05910599A169D3F83C058842B3D1E1
:10B36000E169002933D0C4E90612D3F8002222F0A3
:10B370002002C3F80022E2680792012122698DF8B9
:10B380001810089063682168E26006A898479BE758
:10B39000D3F84C458DF81800D2E901315061CDE960
:10B3A000071406A811689847AEE79FED0F7BD3F806
:10B3B0003C45D0684FF0010CCDE9070482ED067BD7
:10B3C000D2E900138DF818C006A898478BE7E26809
:10B3D000A1610123CDE907208DF8183006A8D4E932
:10B3E0000013984770E700BF000000000000000055
:10B3F00000200040B02B00202DE9F04307797F4E5C
:10B4000007EBC70306EB830387B093F82030002BCC
:10B4100040F0B58004460D46006879499046FFF734
:10B420002DFC002840F0A7802B68591C4FEAC70963
:10B4300019D01F2B4FF001028ABF72494FF0A04173
:10B4400003F01F0302FA03F3C1F808352B681F2B22
:10B4500086BF03F01F036B4A4FF0A04203F5E07371
:10B46000032142F823106B685A1C0BD01F2B86BF98
:10B4700003F01F03634A4FF0A04203F5E07300217D
:10B4800042F823102368AA69C3F824252B7D6A7D1E
:10B490001A432368C3F86C25D5E900312268C2F845
:10B4A0000C35C2F814152B7D012B73D009EB070264
:10B4B00006EB8203C3F804802B6946F82230B8F10A
:10B4C000000F47D021682B7F0022C1F81021D1F84E
:10B4D0001011019101992168C1F82021D1F82011A2
:10B4E000029102992168C1F82421D1F82411039115
:10B4F00003992168C1F84421D1F8441104910499B9
:10B500002168C1F85821D1F858210592059A22687E
:10B510003D49C2F80413226842F3073100294FEA7B
:10B52000123230DB01F160415B0101F56141DBB2B8
:10B5300081F80033226842F30733002B4FEA1231BF
:10B5400009DB324D5B09012201F01F0102FA01F112
:10B5500045F8231022684F4406EB8706012100239B
:10B5600086F820100821C2F80015C6E90633736179
:10B5700007B0BDE8F083112007B0BDE8F0830820D4
:10B5800007B0BDE8F083224902F00F025B01DBB295
:10B590008B54CFE7AB68591C0BD01F2B86BF03F031
:10B5A0001F0318494FF0A04103F5E073002241F852
:10B5B0002320EB685A1C1AD01F2B8ABF11494FF069
:10B5C000A04103F01F03012202FA03F3C1F808357A
:10B5D000EB681F2B88BF03F01F0303F5E0738CBFDC
:10B5E00008494FF0A041032241F82320EB6822686C
:10B5F000A968C2F80835C2F8101557E7B02B00202B
:10B6000081B20200000300501003420000E100E09C
:10B6100014ED00E02DE9F0410579564C05EBC5032A
:10B6200004EB830301465B68006882B0EE00C3B19F
:10B63000514BC0F808330B6843F30732002A4FEA36
:10B6400013330EDB5209DFF838C12032012703F033
:10B650001F0307FA03F34CF82230BFF34F8FBFF3F9
:10B660006F8F731904EB83039A69D0F8003223F0CB
:10B670002003C0F8003242B10023C0F84431D0F8B2
:10B6800044310093009B012343600023C0F85831EC
:10B69000D0F858310193019B7319012204EB830305
:10B6A000C2609A69D0F85831002BFBD01AB1D0F89B
:10B6B0004431002BF6D00023C0F800350B684FF062
:10B6C000FF38D3F80CE5D3F814C5D3F80825D3F820
:10B6D0001075C3F80C85C3F814850B68C645C3F80C
:10B6E0000885C3F810850CD0BEF11F0F86BF0EF081
:10B6F0001F0E22494FF0A0410EF5E07E022341F8D3
:10B700002E30BCF1FF3F0CD0BCF11F0F86BF0CF0F8
:10B710001F0C1A494FF0A0410CF5E07C022341F8C0
:10B720002C30791C0BD01F2F86BF07F01F07134941
:10B730004FF0A04107F5E077022341F82730531C72
:10B740000BD01F2A86BF02F01F020C494FF0A04108
:10B7500002F5E072022341F82230FFF7B5FA3544D2
:10B7600004EB8504002384F82030636002B0BDE858
:10B77000F08100BFB02B00201003420000030050F6
:10B7800000E100E001F0604CBCF1005F30D170B529
:10B7900090F804E0264C0EEBCE0C04EB8C0C034628
:10B7A000DCF8140082B04FEACE0500283BD1CCF87B
:10B7B0001420CCF808101A68C2F82001D2F8202111
:10B7C0000192019A1A68C2F85801D2F858210092E1
:10B7D000009A1A68DCF81460C2F84415C2F848658B
:10B7E0001A6801219160DCF804201AB102B070BD22
:10B7F000102070471A6800E0C0B9D2F82011D2F8C2
:10B8000058010029F8D088B90121D1601B68D3F80C
:10B810005821002AFBD005EB0E0304EB8303002222
:10B820005A6102B070BD112002B070BD0F20F2E766
:10B83000B02B002072DF704773DF704776DF7047F0
:10B840007ADF70477CDF70477FDF70478FDF70479C
:10B85000B1DF704741DF7047FCF7F8BE08B50378E9
:10B8600003B108BD054B3B211888FFF7E7FF00280F
:10B87000F7D0BDE80840FCF7E9BE00BF6623002012
:10B8800010B50378012B82B0044604D0032B02D0FC
:10B89000EBB102B010BD6368002BFAD1104B114818
:10B8A000A2681149C01AC008000440F003000190CA
:10B8B000FCF77EF9A28901980C49FCF779F9E28935
:10B8C0000B49019802B0BDE81040FCF771B943681C
:10B8D000002BDED1074B01221A7002B010BD00BF51
:10B8E000A4FE0200CCFE020054F5020068F502003E
:10B8F00078F50200132C00200B2801D0FCF7A6BE1F
:10B90000104B1148C01AC008000410B540F00300E5
:10B910000C460E49FCF72AFA0D4B0E4918882246B0
:10B9200001F0DCFA30F0080207D043F20202904244
:10B9300003D043F20142904200D110BDBDE8104057
:10B94000FCF784BEA4FE0200CCFE02008CF50200CF
:10B9500066230020282C002008B502206AB1FEF7DB
:10B9600015FB0948094B0A49C01AC0080004BDE884
:10B97000084040F00300FCF7F9B9FEF719FB024854
:10B98000024B0449F0E700BFCCFE0200A4FE020017
:10B99000A8F50200BCF50200FCF758BE10B50388FC
:10B9A000212B82B0044613D80F2B0FD9103B112B3B
:10B9B0000CD8DFE803F028450B650B0B0B0B0B0BCA
:10B9C0000B0B0B0B0B0B0B1C3B2B05D002B010BD54
:10B9D000522B5FD0562BF7D1A0881321FFF72EFFF3
:10B9E0000028F3D002B0BDE81040FCF72FBE0023C2
:10B9F0008088ADF8043001A9FFF728FF0028E5D0C2
:10BA0000FCF724FEE2E72D4B2D482E49C01AC00852
:10BA1000000440F00300FCF7A9F90120FEF7B6FA94
:10BA20000020FEF7C5FA284BA1882848198001F0AC
:10BA300053F900283ED1FCF7C5FD0028C6D0D1E758
:10BA40001E4B1F482249C01AC008000440F00300E2
:10BA5000FCF78CF90120FEF7ABFA1B4B4FF6FF7297
:10BA60001A80FCF7C5FD10BB1A4B01211878FFF7AF
:10BA7000E3FEC8B9002002B0BDE81040FEF786BA68
:10BA8000114A0023108885211A46FFF7DDFE0028A1
:10BA90009CD0A7E70C4A0023108819461A46FFF7E6
:10BAA000D7FE002892D09DE7FCF7D0FDE2E7FCF737
:10BAB000CDFDD9E7FCF7CAFDBDE700BFA4FE02003B
:10BAC000CCFE0200D0F5020066230020402C0020AE
:10BAD000DCF502006423002070B54FF48041A6B06D
:10BAE0000020FBF721FD002840F04F81FBF70CFD03
:10BAF0000120FEF76FFAFCF7B5FF002840F06081E7
:10BB0000BB4840F233320121FCF700FD002840F031
:10BB10005481FEF757F8002840F04C8101F002FAFA
:10BB2000002840F04481002317A90120179301F059
:10BB30005FFB002840F0908117A801F017FC002857
:10BB400040F053811123AB488DF8203003F034F9D5
:10BB5000A84982B208A8FFF775FE002840F042818C
:10BB60000822002117A803F01FF9A34A4FF0C87359
:10BB700017A8CDE91723FFF763FE002840F02F81B7
:10BB80009E48002100F08EFF002840F025819C4B4C
:10BB90009C481793002217A9089201F08BF80028FF
:10BBA00040F01781984B9948089308A901F02EF9A5
:10BBB000002840F00B81954B954C9B7C8DF806300E
:10BBC00041F223503C220021ADF8040008A803F004
:10BBD000EBF802233C2200218DF8203017A840F218
:10BBE0000163ADF8223003F0DFF8224601A90123FA
:10BBF0001C9108A852F8041BADF86C3000F0B2F9A3
:10BC0000002840F0E080834AA16817A800F0AAF954
:10BC1000002840F0C9801822002102A803F0C4F8CF
:10BC2000012200238DF808204FF48072ADF8143003
:10BC3000ADF81C20039376497748402302AA049369
:10BC4000FFF7F8FD002840F0AC801C22002117A867
:10BC500003F0AAF800234FF4A022CDE917324FF4E5
:10BC6000A032199203228DF86820ADF86A306B4A31
:10BC70008DF86C3017A86A4B1C921D9300F098FC4D
:10BC8000002840F08B80674B674C6849E41AE40851
:10BC9000240444F003042046FCF768F86449204675
:10BCA000FCF764F8634802F02BF963492046FCF77F
:10BCB0005DF802F03DF900286DD1604D2B784BB94D
:10BCC0005F4EFFF7C7FD31462046FCF74FF82B7853
:10BCD000002BF6D00023CDE91733CDE902331993B9
:10BCE00017AA02AB47F2100148F2100002F02CFC38
:10BCF000002838D1CDE9080008A917A802F064FA95
:10BD0000002840F0B2804F4D09991822284603F0D0
:10BD10003DF820462A684C49FBF74AFF2B6817A8D4
:10BD200001332B6002F07EFA002840F09B804749E7
:10BD300017A802F053FB48F20662904203461FD058
:10BD4000002B40F08C80344B01211878FFF774FDF4
:10BD5000F0B90020FEF71AF9FBF736FC0028FBD1FA
:10BD6000FDF746FFF8E73A492046FBF7FFFF374962
:10BD700017A802F081FA48F2066290420346DFD12A
:10BD800034492046FBF7F2FFDDE7FCF75FFCADE648
:10BD9000FCF75CFCDDE7FCF759FC8EE7FCF756FC92
:10BDA00071E7FCF753FC50E7FCF750FC33E7FCF776
:10BDB0004DFCB8E6FCF74AFCB0E6FCF747FCA8E609
:10BDC000FCF744FC9CE6FCF741FC1CE7FCF73EFC5E
:10BDD000F1E6FCF73BFCE5E6FCF738FCD7E6FCF7C0
:10BDE00035FCCDE6FCF732FCBAE6FCF72FFCA9E601
:10BDF0004C230020ECF502005000A000142C002081
:10BE000059B80200402C002059B90200282C00200B
:10BE10005423002060230020642300205DB802002A
:10BE200099B90200A4FE0200CCFE0200FCF502005B
:10BE300014F6020081B802002CF60200132C002038
:10BE400040F602006823002054F60200E0F60200EB
:10BE5000C8F6020084F60200FCF7F8FB6CE6FCF77B
:10BE6000F5FB70E7FCF7F2FB61E7FCF7EFFB4AE755
:10BE70006DDF704779DF70477DDF704764DF7047A3
:10BE80002DE9F04F85B099460E9E0388BDF83CA081
:10BE90000091174632880192002B53D04FF00008D2
:10BEA000C3464546804605E0B8F800200BF1010B7B
:10BEB0005A4529DDD8F8041051F82B0003900022D0
:10BEC0000DF10B0103A8FFF7D9FF044630BB9DF825
:10BED0000B20BA42E8D12DB33288D119514536DC56
:10BEE0004A440DF10B0103A80125FFF7C7FF002805
:10BEF00032D131889DF80B200A443280B8F80020F6
:10BF00000BF1010B5A45D5DCE5B13388019A013BB1
:10BF10009B1A9BB2FF2B1AD809F80230204605B0B5
:10BF2000BDE8F08F3288511C3A440232524589B242
:10BF30000DDC009B318009F801303288013292B269
:10BF40003280CDE70024204605B0BDE8F08F0C24F8
:10BF5000204605B0BDE8F08F0446204605B0BDE898
:10BF6000F08F00BF2DE9F04700231788138090F869
:10BF70002D3086B0144606460D46002B40F0FE805C
:10BF8000B278002A40F0F380F178A1B1DA1CBA420D
:10BF900000F2F0800222EA542388012213449BB26B
:10BFA0002380EA54238813449BB22380E9542388D6
:10BFB00013449BB223807268AAB1D91CB94200F223
:10BFC000D980022192F90020E954238801339BB2E1
:10BFD0000A212380E954238801339BB22380EA5449
:10BFE0002388013323803389002B40F0F180338A8A
:10BFF000002B40F02581338B002B40F03B81336ACE
:10C00000002B42D02088821DBA4200F2B3801A88E9
:10C01000052A40F28A816FF4486802EB080189B270
:10C020004FF27D3C614540F280815988052940F2FC
:10C030007C816FF4486E8E441FFA8EFEE64540F216
:10C0400074814FF6FF7C624502D08A4200F26D8116
:10C0500005222A542288013292B212212280A95448
:10C060002288013292B222801988A9542A44090AEE
:10C0700051702288023292B222805B88AB542A44EB
:10C080001B0A5370238802332380736A002B2FD03E
:10C090009988B4F800C0881C0CF102020244BA422C
:10C0A00068D8FE2866D8033105F80C1022880132C2
:10C0B00092B2FF212280A9542288013292B22280BA
:10C0C0001988A9542A44090A51702088023080B284
:10C0D00020809A8862B199680393002900F0258135
:10C0E000284402F053FE039B9A882388134423803C
:10C0F00096F82C30002B40F0D680307800283AD0CB
:10C100003388012B00F0118123889A1CBA4231D860
:10C11000012804D17178023119448F422AD3023F99
:10C12000FF1ABFB2A81804A9ADF81070FFF7A4FE5B
:10C1300008BB3378022B00F000817178BDF8102025
:10C140009142C0F0F6809742C0F0F3801746092272
:10C15000FE2F0FD82388791CE954238801339BB222
:10C160002380EA54238801331F44278003E00433EB
:10C17000BB4248D90C2006B0BDE8F087082FF9D99A
:10C1800004A8FFF775FE0028F5D123880822EA5499
:10C19000238801339BB21B222380EA54208801307C
:10C1A00080B22080062228440DF1110102F0EEFD3C
:10C1B00023889DF8102006339BB212F0FE0218BFB0
:10C1C00001222380EA54238801339BB22380D7E6DF
:10C1D00006F108080222CDE900472B4611464046E9
:10C1E000FFF74EFE0028C6D1CDE9004740462B465A
:10C1F00010220621FFF744FE0028BCD1338A002B11
:10C200003FF4F9AE1CE004A8FFF734FE0028B2D1D9
:10C2100023880322EA54238801339BB21922238006
:10C22000EA542388BDF8102001339BB22380EA54DE
:10C230002B44120A5A70238802339BB22380A3E650
:10C2400006F11008CDE900472B46022203214046A3
:10C25000FFF716FE00288ED1CDE9004740462B4659
:10C2600010220721FFF70CFE002884D1338B002B0E
:10C270003FF4C5AE06F11808CDE900472B4602226F
:10C2800014214046FFF7FCFD00287FF474AFCDE990
:10C29000004740462B4610221521FFF7F1FD0028EC
:10C2A0003FF4ADAE67E7B16A00293ED04FF0000918
:10C2B0004B464FF0160A2BE02388E85423880133BD
:10C2C0009BB2238005F803A0238801339BB223800F
:10C2D00031F82220EA542B44120A5A702088023086
:10C2E00080B22080B8F8042028444AB1D8F8081059
:10C2F000D9B102F04BFDB8F8042023881344238001
:10C3000096F82C205FFA89F39A427FF6F6AEB16A6E
:10C3100003EB430201EB820809F10109B8F804308C
:10C32000D81C0233FE2BC7D924E7072006B0BDE88E
:10C33000F087012B08D008220AE7BDF810309F4291
:10C34000F9D31F46092203E78F42F4D30F46082290
:10C35000FEE600BF75DF704776DF70477ADF704713
:10C360007BDF704770B51D4D2B8884B2A34282B02D
:10C3700011D11B4E297A327B91420ED3337C00229D
:10C380002A72F3B9736933B100228DF80420ADF835
:10C39000064001A8984702B070BD05F10A01184691
:10C3A000FFF7D8FF40B11128F5D0B369002BF2D0C8
:10C3B00002B0BDE8704018472B7A01332B7202B0EF
:10C3C00070BD3B212046FFF7C7FF30F00803D9D0EE
:10C3D000B369002BD6D09847D4E700BF682C002063
:10C3E0004C2C002070B50288122A82B003466DD012
:10C3F00015D8102A30D0112A0FD16A4C8288238890
:10C400009A420AD16068FCF7D7FB18B1664B9B696A
:10C4100003B198474FF6FF73238002B070BD502AD6
:10C42000FBD1614DC188EA899142F6D1028A022A84
:10C43000F3D15C4C828826889642EED1123000F00F
:10C44000A5F9002800F09880637A002B40F09B80CB
:10C45000D5E90113324667E090F80FC0BCF1010F37
:10C46000DBD1504C21884FF6FF7291427DD14F4D68
:10C47000828822800021217203CDC4F80A00C4F80A
:10C480000E10598A6089884260D8A08988425DD39D
:10C49000E1899B8A40F2F315A94294BF481A481BD0
:10C4A000984253D82944994250D33F4D84F809C04B
:10C4B000EB89002BB1D16B69002BAED001218DF837
:10C4C0000410ADF8062001A89847A6E7354C8288ED
:10C4D00021889142A1D14089658985421FD8A589CB
:10C4E00085421CD3E0899B8940F2F31C604594BFD0
:10C4F000051AA0EB0C059D4211D8604498420ED35A
:10C50000294B5B694FF480722281002B85D0012278
:10C510008DF80420ADF8061001A898477DE7224D5C
:10C52000002363726968AB68207A002818BF194637
:10C530006068FCF7E5FA00283FF46FAFAB69002BA9
:10C540003FF46BAF02B0BDE870401847164DEB8961
:10C5500000216172002B7FF460AF69686068FCF7AE
:10C56000CFFA00283FF459AFE8E70F4B9B69002B47
:10C570003FF453AF0420E5E76068FCF71DFB00289B
:10C580003FF44BAFDAE76B6900222272002B3FF4D5
:10C5900044AF01228DF80420ADF8066001A8984749
:10C5A0003BE700BF682C00204C2C00207C2C002096
:10C5B00070B3F8B586460768164E174D0446BEE8B8
:10C5C0000F00B446ACE80F009EE8070035608CE829
:10C5D0000700BFB13846FFF7C1FE90B9236818685D
:10C5E000596803C50D4B0E490E4A18464FF6FF74A5
:10C5F00040F8041F1C800021FCF76AFA002818BFCD
:10C600000320F8BD2846FFF7ABFE0028EAD0F8BDAE
:10C610000E2070474C2C00207C2C0020682C002021
:10C62000882C002065C302002DE9F04F0388B0F884
:10C630000490103B99B007460A2B12D8DFE803F0AC
:10C640002871111111111111117814004648494631
:10C65000FCF756FD45484946FCF752FDFB7B022B93
:10C660007CD019B0BDE8F08F037A41483F2B4FEAE8
:10C670001314494665D9FCF743FD3E484946FCF78B
:10C680003FFD3D48494619B0BDE8F04FFCF738BDC5
:10C690003A4A9368DB43009351686846FCF768FDAB
:10C6A000009B0193019B9BB34FF000084446214639
:10C6B00001A8FCF73DFD30B118AB03EB480308F1CE
:10C6C000010823F8284C0134142CF0D1CDF8348023
:10C6D0000DAD0FCD02AC0FC40FCD0FC495E8070010
:10C6E00084E80700B8F1000F12D0254E0DF10A0BB7
:10C6F0004FF0000A3BF8025F1C4C204629460434E8
:10C70000FCF70AFDA642F8D10AF1010AC245F1D1AF
:10C71000B9F1130F9AD90420FBF798FF19B0BDE8BF
:10C72000F08F1148494619B0BDE8F04FFCF7F4BC52
:10C73000037A002B95D1437A0D481B074946F2D561
:10C74000A1E7FCF7E9FC032C97D00A484946FCF71F
:10C75000E3FC022C95D008484946E4E709484946DD
:10C76000FCF7CEFC7DE700BFB02C0020AC2C0020F5
:10C77000C02C0020BC2C0020B82C0020A82C0020AD
:10C78000242D0020B42C0020AADF7047008800F080
:10C7900001007047F0B58B7891B0012B38BF0123B1
:10C7A0000C468DF80E3005460B88ADF80C30164659
:10C7B00000210322684602F0F7FA637C0022013B65
:10C7C0008DF80020042B09D8DFE813F0CF00D30048
:10C7D000D700DB00050022238DF80030A37C002267
:10C7E000013B8DF80120042B09D8DFE813F0CE00BF
:10C7F000D200D600DA00050022238DF80130E37B59
:10C80000217B41EAC301237C41EA03119DF80230F8
:10C8100001F0190123F019031943237D002B14BFE4
:10C820000223012363F342018DF802101C22002130
:10C8300009A802F0B9FA637B13F0300F74D1637B5F
:10C840008DF824301422A37B8DF82530002104A814
:10C8500002F0AAFAA288A368ADF81C2003AACDF8BA
:10C8600014D004921BB10893E388ADF81830A36983
:10C87000002B36D001AF03220021384602F094FA93
:10C88000A2691188ADF82C1000238DF8043053886C
:10C89000ADF82E3053680D970A93137B013B042BA0
:10C8A0002DD8DFE803F0969A9E8A290022238DF87E
:10C8B0000530917A137A43EAC103D17A927B002A38
:10C8C0009DF8062043EA011322F0190203F0190330
:10C8D00043EA020314BF0222012262F342038DF8ED
:10C8E0000630E36903B10C93334604AA09A928462C
:10C8F000FFF74AFF11B0F0BD22238DF80430537BBF
:10C900000021013B8DF80510042BD2D801A151F86C
:10C9100023F000BFC3C90200CBC90200ABC90200AB
:10C92000B3C90200ADC8020002AF0322002138469D
:10C9300002F03AFAE37C0022013B8DF80920042B37
:10C9400007D8DFE803F0525E5A56030022238DF821
:10C9500009309DF80A300E97012262F342038DF8E8
:10C960000A3011238DF8083069E711238DF8003063
:10C9700034E721238DF8003030E731238DF8003083
:10C980002CE712238DF8003028E711238DF80130B1
:10C9900035E721238DF8013031E731238DF801305F
:10C9A0002DE712238DF8013029E731238DF805306A
:10C9B0007FE712238DF805307BE712238DF80430D2
:10C9C0009DE711238DF8053073E721238DF805309D
:10C9D0006FE711238DF8043091E721238DF804309F
:10C9E0008DE731238DF8043089E711238DF8093064
:10C9F000AFE712238DF80930ABE731238DF809300A
:10CA0000A7E721238DF80930A3E700BF90DF704727
:10CA1000A5DF7047B5DF704770B5002484B061F3BF
:10CA20000F04002361F31F446A4602A902940646DC
:10CA300003930093ADF80430FFF7E8FF044610B904
:10CA4000204604B070BD124B124DED1AED08FDF7F3
:10CA500049F92D0445F0010503460F4932462846A1
:10CA6000FAF7C2FFBDF80020BDF8023052EA030118
:10CA700003D00A492846FAF7B7FFBDF80420002A78
:10CA8000DED028460649FBF793F8204604B070BD77
:10CA9000A4FE0200ECFE0200ECF6020038F70200F1
:10CAA00078F7020008B90E2070474FF017120023E4
:10CAB00001614FF01B0C41F61B31026080F804C08D
:10CAC000C0F8062043818181184670478288002A79
:10CAD0003FD130B50388242B83B00C4611D80F2BDF
