:1000000000000420750300005D0300005F03000092
:1000100061030000630300006503000000000000AE
:100020000000000000000000000000006703000066
:1000300069030000000000006B0300006D03000076
:100040006F0300006F0300006F0300006F030000E8
:100050006F0300006F030000850600006F030000BF
:10006000F90900006F0300006F0300006F03000038
:100070006F0300006F0300006F0300006F030000B8
:100080006F0300006F0300006F0300006F030000A8
:100090006F0300006F0300006F0300006F03000098
:1000A0006F0300006F0300006F0300006F03000088
:1000B0006F0300006F03000000000000000000005C
:1000C0006F0300006F0300006F0300006F03000068
:1000D0006F0300006F0300006F0300006F03000058
:1000E0006F0300006F0300006F03000000000000BA
:1000F000000000006F030000000000006F0300001C
:1001000000000000000000000000000000000000EF
:1001100000000000000000000000000000000000DF
:1001200000000000000000000000000000000000CF
:1001300000000000000000000000000000000000BF
:1001400000000000000000000000000000000000AF
:10015000000000000000000000000000000000009F
:10016000000000000000000000000000000000008F
:10017000000000000000000000000000000000007F
:10018000000000000000000000000000000000006F
:10019000000000000000000000000000000000005F
:1001A000000000000000000000000000000000004F
:1001B000000000000000000000000000000000003F
:1001C000000000000000000000000000000000002F
:1001D000000000000000000000000000000000001F
:1001E000000000000000000000000000000000000F
:1001F00000000000000000000000000000000000FF
:10020000354936480A1A02D0072291438D463449AF
:1002100034480A1A06D00722914381F30988022242
:1002200082F3148830483149314A00F044F83148AB
:100230003149324A00F03FF831483249324A00F041
:100240003AF832483249334A00F035F832483349F7
:10025000334A00F030F833483349344A00F02BF881
:1002600033483449344A00F026F8344834490022EF
:1002700000F02CF833483449002200F027F83348C6
:100280003349091A082902DB002202604160314A21
:1002900090471F481F49884205D00268043003B4C4
:1002A000904703BCF7E700208646EC46002000217B
:1002B000294A9047FEE7884207D0521A05D00378B2
:1002C00001300B700131013AF9D17047884202D0F8
:1002D00002700130FAE770470000042000E00320BC
:1002E0000000042000000420640D00000000002035
:1002F0000C000020D0030000D00300004C0D0000D3
:10030000640D000000000020000000204C0D0000E3
:100310004C0D00004C0D00004C0D00004C0D000079
:100320004C0D00004C0D00004C0D0000640D000051
:10033000700D00000C0000200C0000200C000020BC
:10034000800000208000002080000020800000202D
:10035000802000209D030000510A0000FEE7FEE718
:10036000FEE7FEE7FEE7FEE7FEE7FEE7FEE7FEE765
:1003700000F002B8FFF7FCBF0F484FF007018843B9
:1003800085460E4880470E48016841F470010160BF
:10039000BFF34F8FBFF36F8FFFF732BF09480A4992
:1003A0000A4A884207D0521A05D0037801300B70F0
:1003B0000131013AF9D1704700000420650B0000BB
:1003C00088ED00E04C0D000000000020000000203F
:1003D0001FB50021039001AA44F20100CDE90111EB
:1003E00000F004F805B05DF804FB000072B6094B9C
:1003F000D3F8F020D20700D500BEBFF34F8FD968E5
:10040000054A01F4E0610A43DA60BFF34F8F00BF91
:10041000FDE700BF00ED00E00400FA0572B6024AF5
:1004200013680133136070470C000020034A1368FF
:10043000013B136003B962B6704700BF0C00002097
:10044000FFF7ECBFFFF7F2BF034B187810B901229A
:100450001A707047852070471000002000F180401E
:1004600000F5C040002382B0036003680193019B44
:1004700002B0704703681F2B83BF03F01F030360A4
:1004800001484FF0A04070470003005007B50190AD
:1004900001A8FFF7EFFF019B00EB8300D0F80037C6
:1004A00023F44033C0F80037D0F8003743EA014165
:1004B000C0F8001703B05DF804FB0000054B4FF0D7
:1004C000FF32072843F8202084BFC01880F84C2052
:1004D000704700BF1400002038B51E4991F85B300A
:1004E000ABBB4FF6FF70FF245A09012A0CBF02462E
:1004F0004FF0FF3203F01F05EA40D20748BFCA1889
:1005000003F1010348BF82F82440302BECD10024D2
:10051000E0B20134FFF7D2FF092CF9D10E4B0022D3
:10052000C1F855209A800D4BC02083F80603402067
:1005300018604FF4BE70FFF791FF094B4FF0004079
:10054000C3F80403012381F85B30104638BD08204E
:10055000FCE700BF140000206900002000E100E07B
:100560000060004037B5354B1A18044692F9240054
:10057000013061D18878002852D01846002250F806
:10058000045B013546D1181980F82420002043F877
:100590002200920002F1804202F5C0420B78D2F8AC
:1005A0001055487825F499151B04000525F4F855D5
:1005B00000F4801003F44033C2F8105503432002C6
:1005C000D2F8105500F47C5003432B43C2F8103589
:1005D0004A780194012A01A826D1FFF74BFF019B1D
:1005E0009A40C0F8082501A80194FFF743FF019B3A
:1005F000134903F5E073032240F8232024FA02F2A2
:10060000012304F0070003FA00F08B5C18438854C0
:10061000002003E00132082AB1D1042003B030BD2C
:10062000FE2382F82430D3E7FFF724FF019A012349
:100630009340C0F80C35D6E70820EFE714000020FF
:1006400069000020074B184490F924309B0003F107
:10065000804303F5C043D3F8102542F00302C3F8EA
:100660001025704714000020054B184490F9240011
:100670008000C0B200F1804000F5C040704700BF6C
:10068000140000202DE9FF410024CDE90244534D20
:100690004FF48072012102F1804303F5C04390B210
:1006A0001B68012B06D1D5F804330B4202D0FFF7AB
:1006B000D5FE0C430432B2F5907F4FEA4101EAD1F6
:1006C000464BD3F87C31012B11D14FF4BE70FFF7AC
:1006D000C5FE4FF0A04344F00044D3F82025029219
:1006E000C3F82025D3F820280392C3F82028E3B2CA
:1006F000D3B13B4F01260025344210D0AB0003F1AB
:10070000804303F5C043D3F81005D3F8101557F80C
:10071000253023B1C1F30141C0F3052098470135CD
:10072000082D4FEA4606E7D1002C4EDA2C4F2D4E0D
:1007300097F954305A1C3AD0C3F3C20110316944BE
:10074000DAB211F8081C03F03F04012503F0070397
:1007500005FA03F319422AD001A80194FFF78AFE93
:10076000019B03F5E07350F82330C3F30148B8F15F
:10077000020F0CBF032102212046FFF787FE01A8CC
:100780000194FFF777FE019B9D403B19C0F820556F
:1007900093F9243057F823304BB19109032904D041
:1007A000B8F1020F14D1012901D1204698474FF02A
:1007B000A043D3F820250292C3F82025D6F820358F
:1007C0000393C6F820351343B2D104B0BDE8F081DD
:1007D000B8F1030FEBD10229E6E700BF006000404B
:1007E00014000020000300502DE9F84F134DDFF8EE
:1007F000508007464FF0000A04264FF001095FFAC7
:100800008AFB002009FA0BF4FFF71AFE2C420AD0EB
:10081000D8F8003014EA030201BF2343C8F80030BF
:1008200087F800B016460020FFF70CFE1EB1A54366
:100830000AF1010AE3D13046BDE8F88FFFFF0F004F
:100840007000002010B5A1B19AB101238340C3F319
:10085000130484B10A4C246823420ED0C00000F176
:10086000804000F5F830C0F81015C0F814250020BD
:1008700010BD0E20FCE70720FAE70820F8E700BFCC
:1008800070000020012303FA00F0C0F313031BB132
:10089000054B1B68184204D0044BC3F80405002024
:1008A00070470820704700BF7000002000F0014032
:1008B000F7B506792F4D0C237343EF183C7A002CC3
:1008C00055D1EA504B687B60477903682246A446BD
:1008D000D4B2A7423CD8CA7843F307345201002C63
:1008E000C3F30733D2B23DDB234F07EB040C8CF884
:1008F00000230122640903F01F0302FA03F347F8FF
:10090000243003684A78D3F8040502F0030220F08B
:1009100003000243C3F80425D3F808058A7820F0C1
:10092000030002F003020243C3F80825D3F81005C0
:100930000A7820F00F0102F00F020A43C3F81025D5
:100940000C2303FB065501232B72002003B0F0BDDE
:10095000940004F5A074013243F804C01C590194BA
:10096000019CB5E7054C03F00F03E254C9E70820EA
:10097000ECE700BF7400002000E100E014ED00E0AF
:10098000036801221A600279034B0C2101FB023338
:1009900002221A72704700BF7400002037B54FF46E
:1009A000803400688C407BB18B0003F5A073002578
:1009B000C550C3580193019BC0F8044301F5A871C9
:1009C00040F8212003B030BDC0F80843F6E770B40A
:1009D000046840F20116D4F800528E4025EA06055C
:1009E000C4F80052D4F800522B43C4F800329DF8EA
:1009F0000C3070BCFFF7D2BF2DE9F341104C114F02
:100A0000114E00254FF48038236883B1D7F80433A2
:100A100008FA05F21A420AD00023236023680193E2
:100A2000A4F50040019B80B2D6E90031984701351A
:100A3000042D04F10404E7D102B0BDE8F08100BF49
:100A4000408100400080004074000020704700009A
:100A500000B589B0FFF740FD08B1FFF7B9FCFFF71B
:100A6000F3FC08B1FFF7B4FC0DF11300FFF7BCFE77
:100A700008B1FFF7ADFC244B05A91A889B78ADF8A7
:100A800014200D208DF81630FFF76CFD08B1FFF72C
:100A90009FFC1E4A92E8030006AB83E803001C4A51
:100AA0001C481946FFF704FF08B1FFF791FC194CE9
:100AB00019492368D3F810250123D2B221FA02F292
:100AC000009300212046FFF782FF21680D2001F5E9
:100AD000A0710391FFF7C8FD039902469DF813002A
:100AE000FFF7B0FE08B1FFF773FC9DF81300FFF7A6
:100AF000C9FE08B1FFF76CFC0D20FFF7A3FD054808
:100B0000FFF73EFFFEE700BF4C0D0000500D000058
:100B10004D0A00000000002000127A004FF08053C0
:100B2000D3F83001A0F10803584258417047000043
:100B30004FF08053D3F83021082A06D1D3F834314E
:100B4000052B02D8024AD05C70470020704700BFD6
:100B50005E0D0000024AD2F80034002BFBD0704733
:100B600000E0014010B5FFF7D9FF40B14FF08043DE
:100B70000022C3F80C21C3F81021C3F83825FFF771
:100B8000CDFF002846D04FF08052654BD2F80414B8
:100B9000C3F82015D2F80814C3F82415D2F80C14A1
:100BA000C3F82815D2F81014C3F82C15D2F8141471
:100BB000C3F83015D2F81814C3F83415D2F81C1441
:100BC000C3F84015D2F82014C3F84415D2F8241401
:100BD000C3F84815D2F82814C3F84C15D2F82C14D1
:100BE000C3F85015D2F83014C3F85415D2F83414A1
:100BF000C3F86015D2F83814C3F86415D2F83C1461
:100C0000C3F86815D2F84014C3F86C15D2F8442420
:100C1000C3F87025FFF78CFF18B1424B424AC3F866
:100C20008C26FFF785FF18B1404BFB22C3F818252F
:100C3000FFF77EFF70B14FF080414FF08053D1F845
:100C4000E42ED3F8583222F00F0203F00F031343BF
:100C5000C1F8E43EFFF76CFF20B1354B4FF4007252
:100C6000C3F84026FFF75AFF48B14FF08043D3F84E
:100C70000024D20744BF6FF00102C3F800242D4ABC
:100C8000D2F8883043F47003C2F88830BFF34F8F36
:100C9000BFF36F8F4FF08053D3F83021082A0ED165
:100CA000D3F83431052B02D8234AD35C3BB14FF043
:100CB0001023D3F808224FF08043C3F858254FF093
:100CC0001023D3F80022002A03DBD3F80432002BD0
:100CD00022DA1A4901234FF01020C1F804351224FA
:100CE000FFF738FFC0F80042FFF734FFC0F80442B6
:100CF000FFF730FF0023C1F80435FFF72BFFBFF3E8
:100D00004F8F0C490E4BCA6802F4E0621343CB606C
:100D1000BFF34F8F00BFFDE70A4B0B4A1A6010BDAF
:100D200000C00040005000404881030000F0004037
:100D30000090024000ED00E0580D000000E001408E
:0C0D40000400FA05080000200090D00319
:100D4C000300010004000306000000000000000086
:080D5C0001010100000000008C
:0C0D640000800040000400000090D0035C
:040000030000037581
:00000001FF
