:1000000000000420750300005D030000F5200000DF
:1000100061030000630300006503000000000000AE
:100020000000000000000000000000006703000066
:1000300069030000000000006B0300006D03000076
:100040000D0900006F0300004D0900001D090000AC
:10005000290900006F030000AD040000210C00001E
:10006000A50E0000B90E0000CD0E0000E90B000047
:100070006F0300000D0B00006F0300006F03000012
:10008000B917000039190000290A000041090000D1
:10009000310E0000370E00003D0E0000430E000040
:1000A000490E00004F0E0000E10E0000F50E0000AA
:1000B000E9090000510700000000000000000000F6
:1000C0006F030000F9090000090A0000350900006B
:1000D000F90B0000290600006F030000391700002B
:1000E0006F030000E90A0000E5490000000000007D
:1000F00000000000190A000000000000FD0D0000D3
:1001000000000000000000000000000000000000EF
:1001100000000000000000000000000000000000DF
:1001200000000000000000000000000000000000CF
:1001300000000000000000000000000000000000BF
:1001400000000000000000000000000000000000AF
:10015000000000000000000000000000000000009F
:10016000000000000000000000000000000000008F
:10017000000000000000000000000000000000007F
:10018000000000000000000000000000000000006F
:10019000000000000000000000000000000000005F
:1001A000000000000000000000000000000000004F
:1001B000000000000000000000000000000000003F
:1001C000000000000000000000000000000000002F
:1001D000000000000000000000000000000000001F
:1001E000000000000000000000000000000000000F
:1001F00000000000000000000000000000000000FF
:10020000354936480A1A02D0072291438D463449AF
:1002100034480A1A06D00722914381F30988022242
:1002200082F3148830483149314A00F044F83148AB
:100230003149324A00F03FF831483249324A00F041
:100240003AF832483249334A00F035F832483349F7
:10025000334A00F030F833483349344A00F02BF881
:1002600033483449344A00F026F8344834490022EF
:1002700000F02CF833483449002200F027F83348C6
:100280003349091A082902DB002202604160314A21
:1002900090471F481F49884205D00268043003B4C4
:1002A000904703BCF7E700208646EC46002000217B
:1002B000294A9047FEE7884207D0521A05D00378B2
:1002C00001300B700131013AF9D17047884202D0F8
:1002D00002700130FAE770470000042000E00320BC
:1002E0000000042000000420785F0000300000209F
:1002F00048000020D0030000D0030000BC500000E4
:10030000785F0000300000203000002044510000E1
:100310004451000044510000445100004451000089
:10032000445100004451000044510000785F000037
:10033000905F000048000020480000204800002096
:100340001C2D00201C2D00201C2D00201C2D002009
:100350001C4D00209D030000E5170000FEE7FEE7AE
:10036000FEE7FEE7FEE7FEE7FEE7FEE7FEE7FEE765
:1003700000F002B8FFF7FCBF0F484FF007018843B9
:1003800085460E4880470E48016841F470010160BF
:10039000BFF34F8FBFF36F8FFFF732BF09480A4992
:1003A0000A4A884207D0521A05D0037801300B70F0
:1003B0000131013AF9D1704700000420B134000046
:1003C00088ED00E014510000000000203000002003
:1003D00010B5034653E8000F00EA010243E8002489
:1003E00094F0000FF6D110BD00F18040002382B0E0
:1003F000036003680193019B02B070474FF0804196
:1004000010B5D1F8003163B14FF48070FFF7ECFF05
:100410000D4B58790122C1F8082310B95A711B6895
:1004200098474FF08042D2F8043163B14FF48270A4
:10043000FFF7DAFF0223C2F80833034BBDE8104090
:100440001B680120184710BD9800002000F1804073
:1004500000F5C040002382B0036003680193019B54
:1004600002B0704703681F2B83BF03F01F030360B4
:1004700001484FF0A04070470003005007B50190BD
:1004800001A8FFF7EFFF019B00EB8300D0F80037D6
:1004900023F44033C0F80037D0F8003743EA014175
:1004A000C0F8001703B05DF804FB00002DE9FF471A
:1004B0000024CDE90244584D4FF48072012102F12D
:1004C000804303F5C04390B21B68012B06D1D5F8D9
:1004D00004330B4202D0FFF7B9FF0C430432B2F5EC
:1004E000907F4FEA4101EAD14B4BD3F87C31012B8D
:1004F00011D14FF4BE70FFF7A9FF4FF0A04344F0B5
:100500000044D3F820250292C3F82025D3F82028F0
:100510000392C3F82028E3B2D3B1404F012600254F
:10052000344210D0AB0003F1804303F5C043D3F84D
:100530001005D3F8101557F8253023B1C1F3014148
:10054000C0F3052098470135082D4FEA4606E7D14C
:10055000002C59DA314D324C324E4FF00008012751
:1005600016F9013B5A1C3CD0C3F3C2011031694457
:100570005FFA83F911F8081C03F03F0203F0070348
:1005800007FA03F319422CD001A80192FFF76AFF82
:10059000019B03F5E07350F82330C3F3014ABAF12D
:1005A000020F0CBF032102211046FFF767FF01A8CD
:1005B0000192FFF757FF019B07FA03F3C0F82035BC
:1005C000AB1893F9303055F8233053B14FEA9911F5
:1005D000032904D0BAF1020F19D1012901D1104623
:1005E000984708F10108B8F1040FB9D14FF0A043C2
:1005F000D3F820250292C3F82025D4F820350393A0
:10060000C4F820351343A7D104B0BDE8F087BAF190
:10061000030FE6D10229E1E700600040A0000020BE
:100620000003005000010020F0B53F4B3F4CD3F8D1
:10063000142185B08AB10022C3F81421D3F81431F3
:100640000093009B637943F0080303F01202122A1F
:10065000637104BF43F020036371334BD3F804216B
:100660008AB10022C3F80421D3F804310193019B1D
:10067000637943F0040303F01102112A637104BF8C
:1006800043F020036371284BD3F80821BAB1002549
:10069000C3F80851D3F808210292029A2448042290
:1006A000C3F808232946C3F80055236898472368F0
:1006B0002048294698470123237105B0F0BD63798E
:1006C00003F00F020F2A08D0D80701D4190704D469
:1006D00062799207F1D45B07EFD56279276802F05F
:1006E000F30312F020020BD023F0300343F0100389
:1006F0006371012100203B4605B0BDE8F04018477A
:100700000B4D95E8030002AE86E8030015E90300EF
:1007100043F0100385E80300C4E90222637101215C
:100720003046B847C9E700BF005002400C01002026
:100730001C0100201401002000F1804000F5E83089
:10074000002382B0036003680193019B02B07047ED
:100750001FB53C493C4CD1F80021002A47D04FF44A
:100760008070FFF7E9FFA37CDA4302F0010204EB9B
:100770008201496811B9617C02292DD1607C02286F
:1007800018BF04EB83034FF000010BBF012358682F
:10079000637459604FF001038DF80C10E1740EBFC3
:1007A00002910290A2748DF80430236801A8984742
:1007B000637C022B01D101236374237D53B1012398
:1007C0008DF80430002302938DF80C30237501A8B6
:1007D0002368984704B010BDE37C002BE8D18DF866
:1007E0000430029301238DF80C30E374DDE7D1F877
:1007F0000431002BE1D04FF48270FFF79DFFC1F868
:100800000025A37C627404EB83038DF80C205968E7
:100810008DF8042021B15A600291236801A89847FD
:10082000A37CDB4303F0010304EB83035A682AB182
:10083000029200225A6001A8236898470023A374FB
:10084000BBE700BF00D001402401002000F180433D
:1008500082B01A68002A14BF0120002004D00022B0
:100860001A601B680193019B02B070474FF08043F0
:1008700010B5D3F80443620707D54FF48470FFF72F
:10088000E5FF10B11E4B1B689847A30608D54FF42F
:100890008A70FFF7DBFF18B11A4B00201B689847DE
:1008A000600608D54FF48C70FFF7D0FF18B1154BD8
:1008B00001201B689847210608D54FF48E70FFF77A
:1008C000C5FF18B1104B00201B689847E20508D5FA
:1008D0004FF49070FFF7BAFF18B10B4B01201B6863
:1008E0009847A3050AD54FF49270FFF7AFFF28B1E0
:1008F000054BBDE810401B680220184710BD00BF23
:100900003C010020400100204401002008B5FFF711
:10091000ADFFBDE80840FFF771BD0000014B1B684B
:10092000184700BF48010020014B1B68184700BF53
:1009300050010020014B1B68184700BF58010020E0
:10094000014B1B68184700BF60010020014B1B686A
:10095000184700BF680100200023435082B043586D
:100960000193019B02B07047D0F8103170B5054675
:100970000C4653B14FF48871FFF7EEFF63795A07C5
:1009800003D523680BB101209847D5F814315BB12A
:100990004FF48A712846FFF7DFFF63791B0703D501
:1009A00023680BB102209847D5F81C315BB128466B
:1009B0004FF48E71FFF7D0FF607910F0100002D174
:1009C000236803B19847D5F8043163B14FF48271BD
:1009D0002846FFF7C1FF0123237123681BB1BDE83F
:1009E00070400320184770BD01490248FFF7BCBFA3
:1009F0007001002000C0014001490248FFF7B4BF68
:100A0000780100200010024001490248FFF7ACBF06
:100A1000800100200020024001490248FFF7A4BFE6
:100A20008801002000D0024010B52D4CD4F80031D0
:100A300086B0C3B1D4F80433D90714D50023C4F861
:100A40000031D4F800310193019B4FF48073ADF86D
:100A50001030D4F80C358DF81230224B06AA12E96A
:100A600003001B689847D4F80431E3B1D4F8043389
:100A70009A0718D50023C4F80431D4F8043102933E
:100A8000029B4FF48273ADF81030D4F81835ADF8EE
:100A90001230D4F84835ADF81430124B06AA12E9DA
:100AA00003001B689847D4F80831BBB1D4F804336D
:100AB0005B0713D50023C4F80831D4F80831039339
:100AC000039B4FF48473ADF8103006AA054B12E96E
:100AD00003001B6806B0BDE81040184706B010BD03
:100AE0000020014090010020064AD2F800313BB1BD
:100AF000054B002058719968C2F800011A68104728
:100B0000704700BF0090024094010020074B002274
:100B1000C3F8002182B0D3F800210192019AD3F8E2
:100B20000805034B1B68C0B202B0184700D0004054
:100B3000A00100200023435082B043580193019B41
:100B400002B070472DE9F047DFF8988004460D4663
:100B5000914600F5A07A4FF480370026D4F804338C
:100B6000B10001F5A0713B4289B20DD0DAF8003036
:100B700053B1C4F848732046C4F80873FFF7DAFF8E
:100B800058F82530F0B298470136B1454FEA47078B
:100B90000AF1040AE2D1D4F80433DA070CD5D4F808
:100BA00000314BB120464FF48071FFF7C3FF0D4B6E
:100BB000042053F825309847D4F804339B070ED50A
:100BC000D4F804315BB120464FF48271FFF7B2FFD5
:100BD000044B052053F82530BDE8F0471847BDE821
:100BE000F08700BFA4010020024803220021FFF784
:100BF000A9BF00BF00B00040024804220121FFF756
:100C0000A1BF00BF0040024000F1804000F5E0407D
:100C1000002382B0036003680193019B02B0704718
:100C2000F0B5524B524CD3F8043185B0002B3DD077
:100C300094F82E204FF48270FFF7E6FF2AB394F861
:100C40002F3013BB494AD2F80031002B32D04FF479
:100C50008070FFF7D9FF638B94F82D00834250D941
:100C600021891B1A9BB289B26383CB1A616801EB9D
:100C70004303C2F82C36C2F830064FF48270FFF7F7
:100C8000C3FF3A4B01225A6014E063680293238940
:100C9000ADF80C30E36800218DF8041033BB2374E9
:100CA000236801A89847002384F82F3094F82E3049
:100CB000002BC7D12D4BD3F810315BB14FF48870A6
:100CC000FFF7A2FF0023237402238DF8043001A84C
:100CD00023689847254BD3F81431EBB14FF48A7051
:100CE000FFF792FF0023237405B0F0BD208B6083D3
:100CF00063602081E160002AD2D11C4B01221A607E
:100D0000CEE7BAD1E368012184F82F1013B1002196
:100D10006183AEE76383B0E766694FF00047012562
:100D2000002EE1D0B6FA86F227FA02F3463292009C
:100D300026EA030602F1804303F5E0431B68002B1B
:100D4000EED01046A2F58C72FFF75EFFD30882F05A
:100D50000402C2F380028DF808308DF80450236835
:100D60008DF8092001A89847DAE700BF007000401D
:100D7000AC0100201F2886BF054A00F01F004FF07D
:100D8000A042012303FA00F0C2F80C05704700BF2F
:100D9000000300501F2886BF054A00F01F004FF0D7
:100DA000A042012303FA00F0C2F80805704700BF13
:100DB00000030050D0F8183107B5DBB10023C0F8AC
:100DC0001831D0F81831C87F0193FF28019B03D058
:100DD0008B7F63B1FFF7CEFF002308460B724B7782
:100DE00050F8083B496803B05DF804EB1847FFF77B
:100DF000D1FFF1E703B05DF804FB000001490248B0
:100E0000FFF7D8BF4802002000F0024030B4064A85
:100E100052F82040054A002532F8101022F81050F0
:100E2000234630BC184700BF780200206C02002027
:100E30000020FFF7EBBF0120FFF7E8BF0220FFF71C
:100E4000E5BF0320FFF7E2BF0420FFF7DFBF052067
:100E5000FFF7DCBF2DE9F347002406460F46904616
:100E600000F5A0754FF48039A2462B688BB1D6F8F7
:100E7000043309FA04F21A420BD0C5F800A02B681B
:100E80000193A000019B00F5A07398B2D7E900314F
:100E900098470134444505F10405E6D102B0BDE8A8
:100EA000F0870000024903480422FFF7D3BF00BFC8
:100EB0009002002000800040024903480422FFF70E
:100EC000C9BF00BF9C0200200090004002490348B7
:100ED0000422FFF7BFBF00BFA802002000A000400F
:100EE000024903480622FFF7B5BF00BFB402002045
:100EF00000A00140024903480622FFF7ABBF00BF34
:100F0000C002002000B0014010F0080F074B06D0CF
:100F1000D3F8C00410F4803F18BF0020704700F0E1
:100F20000F0000F5947053F82000704700700240E5
:100F30004FF08053D3F83001A0F1080358425841D4
:100F400070470000054B10F0800FA3F1900208BF1E
:100F5000134600F00F0003EB0010704768030020F9
:100F600010F0800F14BF0023102300F00F0018446E
:100F70007047000008B5FFF7DBFF18B1034B0022F4
:100F8000C3F81C2C024B00221A7008BD00700240EE
:100F9000CD02002007B5094A00231370084AADF8B6
:100FA000053013708DF8073001238DF80430054BA0
:100FB00001A81B68984703B05DF804FBCC02002031
:100FC000FC030020F80300207047000008B501462C
:100FD000FFF7D0FF0846FFF7B5FF827B032A0AD14F
:100FE0000846FFF7BDFF01218140BDE808400448E5
:100FF000C943FFF7EDB90368002BF1D008BD00BF6E
:10100000D00200208720FFF7E1BF8620FFF7DEBF78
:101010008520FFF7DBBF8420FFF7D8BF8320FFF7D1
:10102000D5BF8220FFF7D2BF8120FFF7CFBF0000DE
:1010300008B5FFF79FFF084B93F89E20032A06D1BF
:10104000BDE8084005486FF00101FFF7C1B9D3F8CA
:101050009030002BF4D008BDD8020020D002002030
:10106000012273B502FA01F51E491F4E0B6810F0FC
:10107000800F43EA050304460B6027D000F00F02FF
:101080001A4B33F8123003F1804303F51C331A680E
:101090004AB100221A60BFF36F8FBFF34F8F8028D1
:1010A00011D0FFF793FF316829400AD106238DF84C
:1010B00004308DF806408DF807100D4B01A81B6811
:1010C000984702B070BDFFF7B3FFECE733681D42ED
:1010D000F7D106238DF804308DF806008DF807202F
:1010E000EBE700BFD4020020D002002050510000E6
:1010F000F803002008B5054B1A781046FFF730FFBB
:10110000BDE8084001461046FFF7AABFFC030020D7
:10111000FFF78EBF07B500238DF804300B4BD3F8D3
:101120002025ADF80620D3F8C034094A002B1368F7
:101130000CBF4FF480714FF001210B431360054B3E
:1011400001A81B68984703B05DF804FB00700240DB
:10115000D4020020F803002007B5FFF70BFF0D4B6A
:1011600093F88E20032A11D0D3F8803073B90A483F
:101170006FF08071FFF72CF906238DF804300823F7
:10118000ADF80630054B01A81B68984703B05DF821
:1011900004FB00BFD8020020D0020020F80300208A
:1011A00007B5FFF7E7FE114B93F81E21032A07D17D
:1011B0000F486FF4807103B05DF804EBFFF708B9D6
:1011C000D3F8103173B90A486FF48071FFF700F952
:1011D00006238DF804308823ADF80630054B01A8AE
:1011E0001B68984703B05DF804FB00BFD8020020DD
:1011F000D0020020F80300202DE9F04F5D4E337837
:1012000085B0002B6DD15C4C5C4B1968236819408C
:1012100067D011F0012367D093FAA3F1002966D0BB
:10122000B1FA81F10F2964D9A1F110085FFA88F8A9
:101230004046FFF787FE4FF0010B4FFA88FA0BFA92
:1012400001F1BAF1000F81466FEA010B54DA03682D
:101250008289416802A8984708B9C9F80000FFF7D9
:1012600067FE18B1464B8222C3F81C2C012321686B
:10127000039A3370D9F8083001EA0B011344BAF12C
:10128000000F2160C9F8083008F0080002993C4BB3
:1012900008F00F085EDA002854D0C3F8A016C3F88F
:1012A000A426042303EB880303F1804303F51C33D6
:1012B00001221A60BFF36F8FBFF34F8F314B324A59
:1012C0002F4913EA2A0338BF134633F8183003F1C5
:1012D000804303F51C331A681AB9D1F80021002A9B
:1012E000F9D005B0BDE8F08F91FAA1F196E7202181
:1012F0009AE741F080089BE74046FFF705FEB9F802
:101300000C20D9F80410D9F800500346074602A86B
:10131000A847029A002A9FD0039A97429CD9022795
:1013200089F80E7059461548FFF752F806238DF8D4
:101330000430164B8DF806801B688DF8077001A8E5
:10134000984761E7142000FB0833C3F80016C3F880
:101350000426A6E728B1C3F8A017C3F8A4272823BA
:10136000A0E7142000FB0833C3F80017C3F80427D4
:10137000F5E700BFCD020020D4020020D0020020FB
:10138000007002405051000062510000F80300203C
:1013900037B50446FFF7EEFD2046FFF7D3FD837B0C
:1013A000032B0DD12046FFF7DBFD01218140C9430E
:1013B0000F48FFF70DF803B0BDE83040FFF71CBF42
:1013C0000568002DF7D12046FFF7CAFD01218140B5
:1013D000C9430748FEF7FCFF06238DF80430054B90
:1013E0008DF806401B688DF8075001A89847E2E782
:1013F000D0020020F80300200720FFF7C9BF062015
:10140000FFF7C6BF0520FFF7C3BF0420FFF7C0BF2B
:101410000320FFF7BDBF0220FFF7BABF0120FFF78F
:10142000B7BF000038B5134BD3F86C44C3F86C4415
:10143000BFF36F8FBFF34F8F01251CB9BDE8384054
:10144000FFF7DABE94FAA4F171B1B1FA81F30F2B70
:1014500019460BDDA1F11000C0B205FA01F324EA30
:101460000304FFF7FDFDE8E72021F3E743F08000E8
:10147000F3E700BF00700240254B13B5D3F80044DA
:10148000C3F80044BFF36F8FBFF34F8FBFF36F8F6D
:10149000BFF34F8FE1050ED51E4B01221A700023BA
:1014A000ADF805308DF8073002238DF804301A4B63
:1014B00001A81B689847A2050DD5164A0023137092
:1014C000ADF805308DF8073003238DF80430124B4A
:1014D00001A81B689847630518D50E4A1378ABB16D
:1014E000002313700A4A0121C2F808159165BFF361
:1014F0006F8FBFF34F8FADF805308DF807300423A1
:101500008DF80430044B01A81B68984702B010BD49
:1015100000700240CC020020F8030020034B01229F
:10152000DA64BFF36F8FBFF34F8F704700700240D4
:1015300013B5FFF71FFD114B9A7B032A07D1104803
:101540006FF4803102B0BDE81040FEF741BF1C6867
:101550007CB96FF480310A48FEF73AFF06238DF814
:101560000430084BADF806401B6801A8984702B04C
:1015700010BD02B0BDE81040FFF7D0BFD802002078
:10158000D0020020F803002010B50446002000F02F
:10159000CFF92046FFF7E4FC0D4901220B6802FA5F
:1015A00000F023EA000314F008020B600AD104F0F3
:1015B0000F04084B04F5947443F82420BFF36F8F95
:1015C000BFF34F8FBDE81040002000F0B3B900BF5B
:1015D000D402002000700240F7B50446002000F05D
:1015E000A7F92046FFF7AEFC05462046FFF7B8FCFA
:1015F000012214F0800F02FA00F22D4818D103687E
:1016000032EA03010AD02046FFF7BEFF0323AB7383
:10161000002003B0BDE8F04000F08CB923EA0203DB
:1016200029600360234B186820EA02001860EDE788
:10163000230715D4802C204B2ED004F00F0101F28B
:10164000DA314900C3F80018D3F80418D3F8046855
:10165000C9B241F002013143C3F80418D3F8043889
:10166000144E0168336861EA03071742D0D0134370
:1016700021EA02013360002301602B600323AB7376
:101680008DF807300D4B8DF8064006221B688DF84B
:10169000042001A89847BBE740F2B471C3F80018D2
:1016A000D3F80418D3F80468C9B241F00401D2E7B2
:1016B000D0020020D402002000700240F803002075
:1016C00073B5184B184CD3F880542368174EDA437F
:1016D000174B31781B6892B208461A43FFF740FC5B
:1016E000012303FA00F0104202D00846FFF774FF0E
:1016F0006FF0011105F080050D483570FEF768FEAA
:10170000236843F0010323600023ADF805308DF812
:10171000073005238DF80430064B01A81B68984755
:1017200002B070BD00700240D4020020FC03002013
:10173000D0020020F80300201C4BD3F80413002330
:101740002DE9F04101241D4671B9194F03F400063B
:1017500023F400044FF00108D4B9FFF74DFD1EB388
:10176000BDE8F041FFF7ACBF91FAA1F21148B2FA1F
:1017700082F29600304404FA02F206682EB1056047
:10178000BFF36F8FBFF34F8F134321EA0201DBE7F3
:1017900094FAA4F5B5FA85F557F8253008FA05F559
:1017A000984724EA0504D7E7BDE8F08100700240BD
:1017B000745100000071024013B5084CD4F8003198
:1017C0004BB1074B1B6898470023C4F80031D4F88D
:1017D00000310193019B02B010BD00BF0000014029
:1017E00000040020FEE7002110B5084601F002FECB
:1017F000044608B902F0D0FF204610BD08B5074BDB
:1018000000221A60BFF35F8F02F092FF014618B901
:10181000BDE8084001F0EEBD032008BD040400202F
:10182000002844D0A0F57000A0F54060352839D8D4
:10183000352837D8DFE800F0211E362427272A3341
:1018400030363636361E361E393939363636363665
:101850003636363636363636242A24271B2D362D94
:101860003636363636363636212A27361E1E48F2AA
:101870001750704748F20350704748F213507047B2
:1018800048F21050704748F21150704748F2145017
:10189000704748F20150704748F20250704748F2D2
:1018A0007150704748F21650704748F270507047B8
:1018B00008B50121044800F08EFCBFF35F8FB0FA39
:1018C00080F0400908BD00BF0404002013B5026881
:1018D0000C4B01919A4204460FD0FFF7E9FF70B11B
:1018E0000199201D02F03AFAFFF79AFFBFF35F8FCC
:1018F000054B00221A6002B010BD0020FBE748F241
:101900000450F8E76169614D0404002072B6024A90
:10191000136801331360704708040020034A1368FA
:10192000013B136003B962B6704700BF0804002092
:10193000FFF7ECBFFFF7F2BF024B034A1B681068CA
:10194000184700BF140400200C04002070B5064D99
:101950000646002455F8043B0BB130469847013445
:10196000042CF7D170BD00BF24040020438803334A
:1019700000EB830399420BD382884FF6FF739A42A0
:1019800008D0038833B18068431C584258417047DF
:1019900002207047012070470B4A0C4953881420DD
:1019A00000FB0311CB6833B9042049681070012291
:1019B000074801F071BB07490523137002238B8090
:1019C000012209680023F3E73C04002054040020AE
:1019D000000000209004002007B500230549009373
:1019E000054A09680548082301F028FB03B05DF8A3
:1019F00004FB00BF90040020E45100000000002020
:101A000007B5002301460093034A0448082301F068
:101A100015FB03B05DF804FBDC5100000000002062
:101A200013B500230C4600930146084A08480423D6
:101A300001F004FB38B9074B142101FB04310123E9
:101A40000B7402B010BD48F20D60FAE7D8510000E7
:101A5000000000205404002037B50A480A4B4268B1
:101A60009C88196853880325033305709BB20020B6
:101A700000909B0001EB8401044801F0DFFA03B001
:101A800030BD00BF3C040020900400200000002076
:101A900038B5144B14220D4602FB00302B68446805
:101AA00004F58051A3B15C88033403EB84048C42B9
:101AB00015D22368013312D02046FFF757FF0128C3
:101AC00008D002280BD00028F1D12C60012038BDAD
:101AD0000834ECE76388033304EB8304E7E7002072
:101AE000F5E700BF54040020426873B504460D4674
:101AF0006AB3234BD9688A4229D31B699A4226D8F4
:101B000012F0030323D11F490089098988421ED19D
:101B10002068916888421AD11B4841688A4203D9DB
:101B200001F580518A420DD381698A420CD901F5B1
:101B300080518A4208D201222A80B3FA83F04009F8
:101B400002B070BD1A46F7E748F20963F5E70026D0
:101B50002E800196288801A9FFF79AFF30B92B88BB
:101B600001339BB2012B2B80F3D9E9E7019B22685B
:101B700099689142EED16360024B1B892381DFE7B4
:101B8000000000203C040020540400202DE9F8430C
:101B90001C461D4B1B7806460F46154673B382B391
:101BA0007CB3DFF86C804FF01409A388012B02D9B5
:101BB00048F2096020E009FB03F318F803302BB961
:101BC000A0882146FFF764FF20B92060A388013375
:101BD000A380EAE723681EB1998832889142EFD149
:101BE0001FB119883A889142EAD19A68C5E9002361
:101BF000064B1B892B810020BDE8F88348F2016069
:101C0000FAE748F20460F7E7340400203C040020BF
:101C10005404002008B5074B5888191DFFF738FFFA
:101C200018B1BDE80840FFF717BFBDE80840FFF74F
:101C3000B3BE00BF3C0400202DE9F0479F4FDFF802
:101C4000A08288B006463B6823B99D48414600F013
:101C500087FA38603D6829784B1E052B07D8DFE8E6
:101C600013F0200074007400060106015D0148F2C3
:101C70000E641422002103A801F094FD41F61D53C7
:101C80009C4208BF00243B6804941A78023A042A54
:101C900000F2FC81DFE812F0DD01E9010B02130222
:101CA0001A022EB1874B00225A604FF40644E0E737
:101CB0002B79032B1CD8DFE803F014022A35824A63
:101CC0001378022B1AD0137D022B4FF0010317D18A
:101CD00014214B43D1180020D0544868FFF790FEE0
:101CE00003E001232B71FFF777FE002800F0B98095
:101CF000744B00225A6048F20D64BAE70023E7E70C
:101D0000704A13700023536041F61D54B1E76F49C8
:101D10006F48002302222B718A800968012201F09A
:101D2000BBF9E2E76B4B684C5B88684A14214B4374
:101D3000E11800262E714D6810681560958848607E
:101D40000D810221E6549180C8E7B5F814A0AA7D60
:101D5000DFF87491AEB1022AEB8806D9142101FB99
:101D60000A91DA1C088902440A81142202FB0A99AA
:101D7000C3F57F43B9F80A20FD331344A9F80A30AC
:101D800093E7142303FB0A9318895C6804EB80042F
:101D9000062A69D8DFE802F0274E36441D5A0400AF
:101DA00041F61D54AA7DEB88022A06D9142101FBB5
:101DB0000A91DA1C088902440A81142202FB0A995A
:101DC000C3F57F43B9F80A20FD331344A9F80A305C
:101DD0004FE74148414900234360AB690360FFF787
:101DE00083FE00285BD00223AB75002300930423FD
:101DF000EA182146364801F021F9002831D048F28E
:101E00000D64CFE72B69002B14BF03230123AB75AF
:101E10000023009305F10C02042304F10801E9E713
:101E20000123AB750022EB8800922A699B0004F124
:101E30000C01DFE703290CBF05230623AB75002344
:101E40000093042305F10802E118D3E70623AB75DC
:101E5000224B1988204B5868FFF7E2FD0446002802
:101E6000A0D108B0BDE8F08748F20E649AE7002ED2
:101E70007FF41BAF2B79012B34D0022B3FF444AFFE
:101E8000002B7FF4F4AE02232B710DF10A01EB68F5
:101E9000039303A8CDE90466FFF726FE10B948F2C4
:101EA0000964E6E60498BDF80A108388EB8003888D
:101EB0002B81FFF7B5FD044629E000BF5004002048
:101EC0007C040020340400205404002090040020EE
:101ED000000000203C04002018040020980400208A
:101EE0004C040020DFF8009203AA4B463146A81D9F
:101EF000FFF74CFE044670B9B9F804100498FFF7D8
:101F00008FFD044648F209639C423FF4FDAE002C6D
:101F10007FF4AFAEA5E7C9E90066F3E7002E7FF4D2
:101F2000C4AE6C4B1A7BBAB11E731A78013A062AFA
:101F30003FF69DAE01A151F822F000BFE71F00005F
:101F40000D2000002B200000312000006F1C00003D
:101F500037200000492000001A78072AE5D801A19F
:101F600051F822F0851F00002B1F00002B1F0000DE
:101F7000AB1F0000BF1F0000E31F0000E31F0000B5
:101F8000A71F00001A89544901321A8100225A8081
:101F90001A730A78B2FA82F252099A720A7DB2FA78
:101FA00082F25209DA72012207E04C4958688A88A5
:101FB0004088033202448A8002221A70B5E75C88A6
:101FC000454A4649142505FB0422086854685060B8
:101FD0008888108102200C608880002111740622FC
:101FE000EBE70722E9E79A7A32B9DA7A8AB900226E
:101FF0001A705A805A6087E6374900229A72CA6876
:10200000002AF2D1097C0029EFD05A80FFF702FEA6
:1020100051E70022DA72304A116A0029E7D192F8BA
:102020002420002AE3D00122EFE7FFF715FD42E765
:10203000FFF7B2FC3FE75A88274B142101FB02331C
:102040005868FFF7DDFC36E700225A60FFF7C4FC52
:1020500031E701228DF80C201A89ADF818209A88F2
:10206000DB68ADF81A20059310E002228DF80C20F1
:102070001A89ADF818209A88ADF81A20DA689B7D85
:1020800005929A1F534253418DF81C3003A8FFF765
:102090005DFC0026414612483E6000F08CF8114875
:1020A000012100F0A3F800287FF4CDADD9E603228A
:1020B0008DF80C20DA88ADF818201A89D0E70422B0
:1020C0008DF80C20DB88ADF81830DFE705238DF89C
:1020D0000C30DBE73C040020540400209004002076
:1020E0007C0400208C0400209C0400204068FFF742
:1020F000A3BD00001EF0040F1CBFEFF309800AE02F
:10210000EFF308800549064A884201D8904202D878
:102110008D464FF00000034B1847000000000420DC
:1021200000E003204D210000BFF34F8F0549064B0F
:10213000CA6802F4E0621343CB60BFF34F8F00BF65
:10214000FDE700BF00ED00E00400FA0508B5034B11
:102150009A6ADB6AFFF7E8FF08BD00BF00ED00E008
:1021600037B550E8023F1FFAA3F5C488A54202BF65
:10217000BFF32F8F00220DE0C48925448489A54236
:1021800028BF2D1BC3EA054540E80254002CE8D1C6
:102190004FF001028DF803200193019A0A609DF827
:1021A000031001F0FF0321B1006800EB124003B0FF
:1021B00030BD1846FBE70A884B889A4209D150E89F
:1021C000022FC2EA224240E80223002BF7D101206D
:1021D00070470020704710B5034653E8000F0A46C9
:1021E00043E8002494F0000FF7D110BD10B503466A
:1021F00053E8002FA2EB010043E8000494F0000F25
:10220000F6D110BD2DE9F0478368D3F84831C3F308
:1022100040059B0788B0074606D50022114608B046
:10222000BDE8F04700F062BA012906D91E4A022132
:1022300008B0BDE8F04700F02DBA1C4C1C4EDFF88A
:1022400074A04FF06408A946361B1823B6FBF3F6BA
:10225000AE4204F1180402D108B0BDE8F08754F88A
:10226000180C54E90523017900689A1A1B1ADBB28D
:10227000039308FB03F3B3FBF2F3CDE9019334F8C6
:10228000043C0093CDE9061254F8083C11FB08F118
:102290003846B1FBF2F1CDE904215246082100F0A5
:1022A000F9F90135D4E700BFEC510000D45000002B
:1022B000D4500000FF5100002DE9F843089E1D4650
:1022C0000C46F1B9194E1A49891BB2EBD10F4FEAEE
:1022D000D10905D2174F043607EB8207A14502D179
:1022E00000232B6009E056F834803868D8F80010D5
:1022F00001F08BFA18B9C5F80080BDE8F883013405
:10230000ECE70028ECD00178436839B1314610463B
:1023100098473368002BE3D02E60EEE7110103EB02
:1023200002125B58002BDBD02A60E6E7DC5000008D
:10233000145100001400002008B101F08DBA70475C
:1023400007B58368DA7E8A421ED01B228DF80020F2
:102350005B228DF8012031228DF802203B228DF87E
:10236000032033228DF8042001F12F028DF805207F
:102370006D22D9768DF8062000228DF807200449B9
:1023800000696A4600F091FC03B05DF804FB00BFF1
:10239000B55300000A4609B1FFF7D2BF8168CA767B
:1023A0000069024A024900F080BC00BF5557000096
:1023B000B553000007B583681A7F8A4218D01B22E4
:1023C0008DF800205B228DF8012034228DF8022048
:1023D00001F12F028DF803206D2219778DF804206A
:1023E00000228DF80520044900696A4600F05DFC72
:1023F00003B05DF804FB00BFB55300002DE9F341C5
:1024000005460F461446002614B902B0BDE8F08117
:10241000686803682246D3F80C80B91901ABC0473D
:10242000019B1E44E41A002BEED1AB681A78032AF4
:10243000EAD0D3F848219206FBD5B3F848216FF3D0
:102440004512A3F84821DFE70A46014900F02DBCF8
:102450001453000011B10069FFF7F6BF7047000088
:10246000014900F022BC00BF8B5200000A4619B19E
:102470000249006900F019BC704700BF1A53000000
:102480000A4619B10249006900F00FBC704700BF4D
:10249000205300002DE9F04F044685B00E469046CB
:1024A0000025705D01F050F920BB5FFA88FA3046D4
:1024B000FFF742FFA3685B7E401BA3EB080B584568
:1024C00006EB050918D94A46002712F8011B0393A9
:1024D00008460292019101F037F9DDE9022318B1B3
:1024E00001990A2931D0BB4608EB07018B422BD951
:1024F0000137EAE70135D4E74B460027B84217D049
:1025000013F8012B0A2A05EB070A1BD1206900F0FA
:10251000C1FB49463A462046FFF770FF2069FFF7A6
:102520009FFF5FFA88F120460AF10105FFF792FF4D
:102530002069711900F0B9FB206905B0BDE8F04FC2
:10254000FFF78EBF0137D9E75F46206900F0A2FB95
:102550003A4649462046FFF751FF3D44705D01F081
:10256000F3F838B92069FFF77BFF51462046FFF7A3
:1025700071FF9CE70135F1E72DE9F34105468068DD
:10258000424F002480222146A0308DF8034001F004
:1025900009F93F49286900F088FB286900F07AFBB7
:1025A0004FF47A7647F00107686803680122D3F890
:1025B00010800DF1030101ABC047019B5BB94FF6E1
:1025C000C010B847019B002BEED1013EB6B2002EE1
:1025D000EAD10D2035E09DF80330AA681B2B48D0C6
:1025E00092F8A0101B29EDD1522B42D114440023A4
:1025F00084F8A03092F8A1105B291FD102F1A20645
:1026000002211D4616F8010B4C1C3B28E1B264B2B6
:102610001AD1002C20DB01F1A0041444002314F88B
:10262000010BD8B9FA2B28BFFA23FA2D13752B46C4
:1026300028BFFA23937582F8A00002E082F8A03048
:102640000B2002B0BDE8F08105EB850300EB4303EE
:10265000303B80299DB2D5D10C20F2E703EB8303F8
:1026600000EB43004E1C303883B23006F1B2F3D495
:10267000D5E711190134E4B2092C81F8A030A1D9B1
:10268000002382F8A0300420DBE700BF7057000071
:10269000625700000CB473B506AB044653F8046BE4
:1026A00001938368D3F848516D0719D5DD7E8D42BB
:1026B00016D0B3F81B50FFF76DFE206901AA314612
:1026C00000F072FBE9B22046FFF764FE290A02D04F
:1026D0002046FFF76FFE02B0BDE8704002B07047C1
:1026E000206901AA314600F05FFBF4E72DE9F04FC5
:1026F0008BB0836817466C4A009204466B4A5B684D
:102700000D460821FFF7C6FFA6687068FFF714FEA4
:10271000B168033082B211B12046FFF7BBFE644AB4
:1027200000212046FFF7B6FF002F3DD0002D3BD003
:102730004FF00C0AA9460AFB075A0826D9F80400EC
:10274000FFF7FAFD8046D9F80000FFF7F5FD404499
:10275000B04209F10C0988BF86B2CA45EED106F134
:102760000408544B544A00931FFA88F806F10709ED
:102770000821204643461FFA89F9FFF78BFF4F498E
:102780004A462046FFF786FE2DB1DFF82CB14FF008
:10279000000ABA450AD1A368D3F80C80B8F1000F3B
:1027A0003ED10BB0BDE8F08F0826D8E7D5E900236D
:1027B00073B32AB30192424A00920821414A20464B
:1027C000FFF768FF6868FFF7B7FD03902868FFF719
:1027D000B3FD0399B31C591A091AC9B22046FFF771
:1027E00039FE394920693A2200F05FFAA96899B1A7
:1027F0004A462046FFF74EFE0AF1010A0C35C8E7AB
:10280000009343465A4608212046FFF743FFEDE771
:10281000002AEBD00092F4E72069FFF721FEEBE7F6
:1028200000220592174606AE009605AB01214046F0
:1028300002F10109FFF740FD059D3DB12868FFF752
:102840007BFDB84200D987B24A46EDE7B9F1010FE6
:10285000A7D01E4ADFF860A029462046FFF71AFFDE
:102860002A46BD1CADB205AB00960121404602F1DF
:102870000109FFF721FD059B002B92D01B680093F7
:1028800008212B4652462046FFF704FF059B596856
:1028900031B17A1D92B22046FFF7FCFD4A46E2E7CD
:1028A0002069FFF7DDFDF9E767570000AF5300002F
:1028B000B853000076570000C2530000CA5300000E
:1028C000DC580000DD5300002C530000E6530000EC
:1028D00000221146FFF70ABF022910B5044608D1AD
:1028E0008368D3F848319B0703D5BDE81040FFF754
:1028F000EFBF2069054A064900F0D7F92069054A6B
:102900000349BDE8104000F0D0B900BF5E57000099
:10291000B553000059570000012906D0022906D1FD
:102920008368D3F848319B0701D5FFF7D1BF024A2E
:102930000221FFF7AFBE00BF6153000038B58368C6
:10294000D3F84821C2F3400592070C4606D5002271
:102950001146FFF7CBFE2C46204638BD0029FBD0A0
:102960005B68024A0221FFF795FEF5E7F453000089
:10297000012937B50546144604D103B0BDE83040FF
:10298000FFF7A6BF023918BF0121FFF7D7FF48B9EB
:1029900063680193044B0093044A2368022128468C
:1029A000FFF778FE03B030BD185400000F5400004C
:1029B000012907B504D103B05DF804EBFFF788BF28
:1029C00002290AD153680193084B00931368084AFF
:1029D000FFF760FE03B05DF804FB8CBF012100210E
:1029E00003B05DF804EBFFF7A9BF00BF1854000067
:1029F0000F540000013910B518BF01210446FFF73C
:102A00009DFF40B9044A0549206900F04EF9A368CA
:102A100045F218021A8310BD4F570000B55300004D
:102A20000129F7B50446154633D18568FFF7A4FDA3
:102A300018BBA36820691F7D9E7DFA21FFF704FD66
:102A400020691D49FA2200F030F92046FFF794FD75
:102A500098B9A368197D6976A368C91B9B7D2B76FD
:102A60002046C9B2FFF702FD297E891BC9B2204664
:102A700003B0BDE8F040FFF703BDA36845F21802BC
:102A80001A830E4A0421204603B0BDE8F040FFF748
:102A900001BE022994BF00210121FFF74FFF48B971
:102AA0006B680193064B00932B68064A022120466F
:102AB000FFF7F0FD03B0F0BD265300002D540000D9
:102AC000185400000F5400002DE9F041013986B080
:102AD00018BF01210546FFF731FF40BBAB68DFF8A7
:102AE0005480D3F840610446EEB1082C1BD0304628
:102AF0000023092203A900F038FB9DF81420A968DF
:102B0000304609230132A03100F02FFBAB68049E50
:102B1000A0330093671C2346424600212846FFF756
:102B2000B9FD3C46E0E7AB68002283F8A02006B080
:102B3000BDE8F08167540000013910B518BF0121CC
:102B40000446FFF7FBFE30B9A368B3F8482160F3F1
:102B50008202A3F8482110BD013910B518BF012128
:102B60000446FFF7EBFE30B9A268B2F8483143F0F3
:102B70000403A2F8483110BD013910B518BF012176
:102B80000446FFF7DBFE30B9A368B3F8482160F3D1
:102B9000C302A3F8482110BD013910B518BF0121A7
:102BA0000446FFF7CBFE30B9A268B2F8483143F0D3
:102BB0000803A2F8483110BD022973B50D4694BF31
:102BC0000021012104461646FFF7B8FE014658B918
:102BD000022D0BD1736801930C4B00930C4A3368A0
:102BE00029462046FFF756FD02B070BDA368094A8A
:102BF000D3F8483113F0080F074B18BF1346074AA4
:102C0000204602B0BDE87040FFF744BD18540000F4
:102C10000F540000715400007454000078540000F8
:102C2000013910B518BF01210446FFF787FE48B9E6
:102C3000A368C3F83801E3685B68BDE81040186812
:102C400000F01DBB10BD00007FB5013918BF012188
:102C50000446FFF773FE0546B8B9E3685B681E6873
:102C6000304600F009FBB268A168C3B2CDE9013279
:102C700064204343B3FBF2F3DBB20093D1F8383165
:102C8000034A29462046FFF705FD04B070BD00BF8A
:102C900089540000826810B504462AB1436901686E
:102CA000006998470023A36010BD0EB403B50399D3
:102CB00021B104AB01AA019300F076F802B05DF8EF
:102CC00004EB03B070470A2938B504460D4602D11B
:102CD0000D21FFF7F8FFA3682268591CA160D554A5
:102CE000D4E901329A4204D32046BDE83840FFF7C8
:102CF000D1BF38BD2DE9F84F9846DDE90A431546A6
:102D000082460F460A464FF00109AA420FD2C1453A
:102D100038BFC14613F0010B01D16CB90024012664
:102D2000B8F1010F1BD908F1FF386E43F8E709F13C
:102D30000109B2FBF5F2E8E79B070ED5B8F1000FE9
:102D40000CBF30262026A145E9D2013C3146504631
:102D5000FFF7B9FF002CF6D1E0E72026F3E7B7FB39
:102D6000F6F39D42E1D9DFF83C80B7FBF6F350461D
:102D700018F8031006FB1377FFF7A5FF3346AB42A5
:102D8000B6FBF5F6F1D2BBF1000F02D00CB1A145B4
:102D900001D3BDE8F88F20215046013CFFF793FF97
:102DA000F4E700BFDF5800002DE9F74F054617464E
:102DB0008846002900F03E8118F8011B49B92B7B99
:102DC000002B00F03781284603B0BDE8F04FFFF735
:102DD00061BF252940F0B780002698F800302D2BE0
:102DE000424608F1010823D0302B24D02B2B25D0CC
:102DF00000242A2B02F1010123D13B681A1D1B6814
:102E00003A601C440A4613782E2B26D101324FF02B
:102E1000000A104610F8011BA1F1300CBCF1090F9B
:102E20001DD80A2303FB0A13A3F1300A0246F0E778
:102E300046F00106D1E746F00206CEE746F004066A
:102E4000CBE711F8013CA3F130000928DBD80A22B6
:102E500002FB0434303C0A46CBE74FF0000A12F87C
:102E6000011B01F0FB0068289046F8D0782909D8AA
:102E70006F290CD8632962D022D8252963D058291C
:102E800000F0888098F80030002B95D197E77039D2
:102E90000829F7D801A353F821F000BF0F30000034
:102EA000852E0000852E0000A52F0000852E000035
:102EB000832F0000852E0000852E0000952F000036
:102EC000642901D06929DDD13A68D2F80090111D3A
:102ED00089EAE9723960A2EBE9724FF0010B092A25
:102EE00035DCD34538BFD3462CB1B9F1000F01DB37
:102EF000720700D5013CB30702D5BAF1000F03D029
:102F0000F00701D44CBB0024B9F1000F2DDAC9F150
:102F100000092D212846FFF7D6FE06F00302022AFB
:102F200004D1BAF1000F01D11CBB0024CDE9004649
:102F300053460A2249462846FFF7DCFEA2E73B68D3
:102F40001A1D19783A602846FFF7BDFE9AE70A2352
:102F50000BF1010BB2FBF3F2C1E7A345D4D2202160
:102F60002846013CFFF7AFFECCE77107D5D52B21F2
:102F7000D0E7A345DAD230212846013CFFF7A3FE73
:102F8000D2E73968CDE900460A1D3A6053460A2265
:102F90000968D0E739680A1D3A60CDE90046534612
:102FA0001022F5E73B681A1D3A6016F00106D3F8C7
:102FB000009024D1B9F1000F03D0484600F04CFC3A
:102FC0000646B4421DD809F1FF3919F8011F00293E
:102FD0003FF458AF2846FFF776FEF6E7284601365D
:102FE000FFF771FE19F806100029F7D1A642BFF4C9
:102FF00049AF20212846013CFFF765FEF6E7002691
:10300000F0E720212846013CFFF75DFED9E73B6849
:103010001A1D3A60302128461C68FFF754FE7821BB
:103020002846FFF750FE00220823CDE90032214652
:10303000102280E703B0BDE8F08F00BF2DE9F04318
:1030400008B302B3D0F800E0BEF1000F1ED0FBB110
:103050004568D5F80490B3FBF9F509FB1535BDB902
:1030600042EA010C1CF0030F14D1C568A94211D328
:103070004D1EEC180569AC420CD8DEF80C40A44695
:10308000BDE8F04360470E20BDE8F0830820FBE771
:103090000920F9E71020F7E7F0B5D8B1D0F800C063
:1030A000BCF1000F18D0CAB14568D5F800E00EF1A8
:1030B000FF350D4214D1C568A94211D34D1E0EFB38
:1030C00002540569AC420BD8DCF81040A446BDE8B8
:1030D000F04060470E20F0BD0820FCE70920FAE729
:1030E0001020F8E72DE9F84FB0F806A04579D2F89E
:1030F00000B09DF828900AFB05F5043D88460BEBCF
:103100000301A94203F1040488BFA5EB030BB4FB40
:10311000FAF607460AFB1644C2F800B04EB9AAEB0D
:1031200004055D4528BF5D46BBF1000F04D1BDE835
:10313000F88F3F68013EF1E7043408EB06003C4499
:103140002A46B9F1000F0DD02146ABEB050B00F07C
:1031500000FBDA452E443F6855464FF0000428BF77
:103160005D46E1E701462046EFE71FB503920122E5
:10317000009203AAFFF7B6FF05B05DF804FB0268F2
:1031800013685268934291BFD01A8068013080184A
:1031900088BFC01A704710B504460020FEF7C8FB70
:1031A0002046FFF7ECFF04460020FEF7C3FB204655
:1031B00010BD00002DE9F04F8368D3F84831C3F308
:1031C00040059B078BB0064606D5002211460BB082
:1031D000BDE8F04FFFF78ABA012906D9204A02213B
:1031E0000BB0BDE8F04FFFF755BA1E4C1E4BDFF891
:1031F0008090DFF880A01B1B1822B3FBF2F8A845D3
:1032000002D10BB0BDE8F08FE36809932368A7688B
:10321000D3F808B02046FFF7BEFF94F810E0134A39
:10322000642303FB00F1BEF1000F18BF4A4603FB05
:103230000BF3B3FBF7F3CDE9043BB1FBF7F1099BCB
:103240000191CDE90672CDE9020700935246636908
:1032500008213046FFF71EFA01351834CFE700BFCA
:10326000EC510000BC500000D4500000EF580000AA
:10327000F858000004590000036898687047036814
:1032800000229A60704700004FF4A06300FB0330F7
:10329000084B1A18A0F5806030B50344064C03F5BE
:1032A00080619342A1EB030003D253F8045BA54273
:1032B000F7D030BD000500200ED0ADDE2DE9F04F77
:1032C000DFF8FC90DFF80881DFF808B185B005462B
:1032D00000260020FEF72CFBD9F800705FFA86FA72
:1032E0002FB1D9F804702E4B002F08BF1F460020C5
:1032F000FEF720FB002F3FD05046FFF7C5FF3346B7
:103300005A46082104462846FFF7C4F93B46254A99
:1033100008212846FFF7BEF908F2FF33002C35D00C
:103320004FF480626420CDE902424443A40ACDE90F
:1033300000341D4A434608212846FFF7ABF91B4BD2
:103340001B7853452AD01A4B1A684FF00043F340BC
:103350001342184A184B08BF1346184A082128463A
:10336000FFF798F9164A0C2303FB062308219B68F4
:10337000144A2846FFF78EF90136032E09F10C098D
:1033800008F5A068A5D105B0BDE8F08F00930E4AFE
:10339000434608212846FFF77DF9D0E70B4BDCE7D1
:1033A000E05900000D5A00001B5A0000A404002040
:1033B000A8040020F8590000EF5900006D5A0000E1
:1033C000001400207A5A0000555A0000E759000006
:1033D00000060020025A0000054B1A78022A04D089
:1033E0001878431E5842584170470120704700BF6B
:1033F0002414002070B506460D466A46134B9A42C7
:1034000019D3FFF7E9FFC8B1114C236823B1114B61
:103410001A68114B9A4214D0AEB9A5B90F48104999
:103420002060FEF753FA28B90A4B0B4A1A6023684A
:103430000C4A1A6070BD48F21950FBE74FF4054082
:10344000F8E70020F6E748F21750F3E700E0032022
:10345000F42C0020101500206572E54B2814002084
:10346000141500206169614D4FF08053D3F830018D
:10347000A0F1080358425841704700004FF08053B4
:10348000D3F83021082A06D1D3F83431052B02D8DD
:10349000024AD05C70470020704700BFFE5A00000F
:1034A000024AD2F80034002BFBD0704700E0014004
:1034B00010B5FFF7D9FF40B14FF080430022C3F8A9
:1034C0000C21C3F81021C3F83825FFF7CDFF0028E1
:1034D00046D04FF08052654BD2F80414C3F8201543
:1034E000D2F80814C3F82415D2F80C14C3F8281520
:1034F000D2F81014C3F82C15D2F81414C3F83015F0
:10350000D2F81814C3F83415D2F81C14C3F84015B7
:10351000D2F82014C3F84415D2F82414C3F848157F
:10352000D2F82814C3F84C15D2F82C14C3F850154F
:10353000D2F83014C3F85415D2F83414C3F8601517
:10354000D2F83814C3F86415D2F83C14C3F86815DF
:10355000D2F84014C3F86C15D2F84424C3F870258F
:10356000FFF78CFF18B1424B424AC3F88C26FFF795
:1035700085FF18B1404BFB22C3F81825FFF77EFFEB
:1035800070B14FF080414FF08053D1F8E42ED3F862
:10359000583222F00F0203F00F031343C1F8E43E48
:1035A000FFF76CFF20B1354B4FF40072C3F8402693
:1035B000FFF75AFF48B14FF08043D3F80024D207F9
:1035C00044BF6FF00102C3F800242D4AD2F88830BE
:1035D00043F47003C2F88830BFF34F8FBFF36F8F8F
:1035E0004FF08053D3F83021082A0ED1D3F834316C
:1035F000052B02D8234AD35C3BB14FF01023D3F8FC
:1036000008224FF08043C3F858254FF01023D3F819
:103610000022002A03DBD3F80432002B22DA1A49F5
:1036200001234FF01020C1F804351224FFF738FFB2
:10363000C0F80042FFF734FFC0F80442FFF730FF44
:103640000023C1F80435FFF72BFFBFF34F8F0C4960
:103650000E4BCA6802F4E0621343CB60BFF34F8F96
:1036600000BFFDE70A4B0B4A1A6010BD00C00040C6
:10367000005000404881030000F0004000900240EC
:1036800000ED00E0F85A000000E001400400FA05F7
:10369000300000200090D0037F2805D8034B185C31
:1036A000034B5B5C1840704700207047105B0000C4
:1036B000905B0000A0F16103192B98BF2038704780
:1036C000A0F14103192B98BF203070477F2805D8FF
:1036D000034B185C034B5B5C18407047002070473D
:1036E000105B0000905B0000A0F16103192B98BFF4
:1036F00020387047A0F14103192B98BF2030704744
:103700007F299ABF017001206FF02E0070475AB1D7
:103710000A787F2A0AD800B1026000211960596036
:10372000501A18BF01207047002070476FF02E001C
:103730007047000008B5034B5B689B681B6898479F
:1037400008BD00BF3400002008B50821FFF7F2FFD4
:1037500008BD844640EA010313F0030F18D18446E4
:10376000202A0BD32DE9F007B1E8F807A0E8F80705
:10377000A2F12002202AF7D2BDE8F007042A07D3DD
:1037800051F8043B40F8043BA2F10402042AF7D2AA
:10379000002A05D011F8013B00F8013B013AF9D1AC
:1037A000604670478446002A2DD010F0030F04D0E5
:1037B00000F8011B013A26D0F7E7C9B241EA01211E
:1037C00041EA0141202A12D3A2F120022DE9F0039F
:1037D0000B460C460D460E460F4688468946A0E825
:1037E000FA03203AFBD2BDE8F00320320BD0042AC2
:1037F00005D340F8041B043A05D0042AF9D200F896
:10380000011B013AFBD16046704710F0030F19D13C
:1038100011F0030F16D12DE970004FF001364FF073
:10382000803350F8044B51F8045BAC4205D1A4EB53
:10383000060525EA04051D40F3D0A0F10400A1F11E
:10384000040170BC10F8012B11F8013BD21A01D110
:10385000002BF7D11046704700F1010110F0030F63
:1038600011D010F8012B002A23D010F0030F0AD03A
:1038700010F8012B002A1CD010F0030F03D010F811
:10388000012B002A15D02DE970004FF001324FF0C6
:10389000803350F8044BA4EB020525EA04051D40D3
:1038A00000D1F6E7A0F1040070BC10F8012B002A4B
:1038B000FBD1A0EB01007047F0B5054699B01F465B
:1038C00000230E46144605A819460322D5F8D05009
:1038D00000F096FD38BB0146AD00082303AA05A8F9
:1038E000CDE9034500F0CCFDE8B9611905A800F069
:1038F000EBFDC0B937B923461022314605A800F0C8
:10390000FBFD80B905F1100302A90191009419464D
:10391000324605A8029300F02DFE044B002818BF84
:10392000184619B0F0BD014819B0F0BD360CF000D2
:103930002DE9F04F864C80469E460F4694460FCCAC
:10394000B7B00DF11C0A55460FC594E80F0004F1FD
:10395000100685E80F000FCE0FAD0FC596E80F00DB
:10396000303485E80F000FCC17AD0FC50FCC0FC555
:1039700094E80F00D8F8D040CDF80CE0042C85E88E
:103980000F0001D0082C6BD1409A231DB2EB830F9E
:103990004FEA830B03D06F4837B0BDE8F08F07EBD9
:1039A0000C019CFA8CF30CF118060CF109003B6039
:1039B0009BFA8BF5802326F00F06321A7D6038447F
:1039C0000B72002100F078FF409B1B09ABF1100B3C
:1039D00000F0BB80042C47D0DDF80C90CDF808B087
:1039E0004B4617ADB1464FF0000823ACBB461E4610
:1039F00024E0029FCDF814A0069700F041FD034695
:103A00002946204610353BBB00F05EFD84464FF052
:103A1000100E4B465A4649462046BCF1000F1BD1BA
:103A20000DEB0E07CDE90067CDF810E000F0A2FD28
:103A3000103688B9409BB8EB131F58D200231946A3
:103A40000222204600F0DCFC014608F101080823B0
:103A500005AA20460029CCD03F4837B0BDE8F08FFA
:103A60003E4837B0BDE8F08FDDF80C90CDF808B0D7
:103A700033460FAD4E464FF0000823ACBB46994687
:103A800026E0029FCDF814A0069700F0F9FC03464B
:103A9000294620461035002BDED100F015FD844666
:103AA0004FF0100E4B465A4649462046BCF1000FD7
:103AB000D2D10DEB0E07CDE90067CDF810E000F094
:103AC00059FD10360028C7D1409BB8EB131F0ED20A
:103AD000002319460222204600F092FC014608F11C
:103AE0000108082305AA20460029CAD0B4E7DDF85A
:103AF00008B0039D0023194601222046CDE9055B4D
:103B000000F07EFC01460028A6D1082305AA204625
:103B100000F0B6FC00289FD105EB0B01204600F019
:103B2000D3FC0146002897D1409A284600F0C4FEF5
:103B3000409B009540A901912A462046194600F075
:103B400019FD00283FF428AF86E723ACD1E700BF7A
:103B5000B45D0000230CF000360CF000210CF000E6
:103B60002DE9F0438FB0884607A91746044600F0B8
:103B700075FD054600284ED1D4F8D050042D01D053
:103B8000082D4ED1D4F8C4300C2B62D8B8F1000FF8
:103B900045D02E1D760106AA04ABCDE9003202976E
:103BA00007A905AB00222046059600F00FFC00286F
:103BB0003CD1069B0498D4F8C42023F003030833B7
:103BC00004F1840918449200494600F073FED4F8C9
:103BD000C400069A04992B1D9E0002EB80020096F9
:103BE0004B4620460692FFF7A3FE054650B9B8F1B2
:103BF000010F33D00346224649462046FFF75CFEBC
:103C0000B0B105462046E42100F058FE38464FF496
:103C1000BF5100F053FE28460FB0BDE8F0836E019F
:103C2000B9E71B4D28460FB0BDE8F083194DE9E711
:103C3000D4F8D430012243F00103C4F8D430C4F8DE
:103C4000CC2000234846C4F8C430402100F036FEA2
:103C5000DCE7114D28460FB0BDE8F0833146204621
:103C600000F02CFE2B46224649462046FFF724FE54
:103C70000028C6D1D4F8D430084AC4F8CC8023F444
:103C8000803343F00103C4F8D430C4F8DC20D8E713
:103C9000210CF000260CF000040CF000CDAB230149
:103CA00070B5002849D00D46002943D0244E044663
:103CB0004FF0FF31306800F021FE90BB002000F093
:103CC000B1FE50BB20462A460121FFF749FF0446BA
:103CD000012000F0A7FEB8B9306800F029FE50B905
:103CE000012000F09FFE08B9204670BD154800F085
:103CF000CDFD204670BD144800F0C8FD012000F045
:103D000091FE0028F0D0F1E70E4800F0BFFD3068CA
:103D100000F00EFE0028E3D0EDE70C4800F0B6FD01
:103D2000D0E70B4800F0B2FD002000F07BFE002839
:103D3000C8D0F2E7074C204670BD074C204670BD46
:103D4000102D0020945D00005C5D0000745D00009B
:103D5000445D0000200CF000250CF00000284CD041
:103D6000F0B50D4689B0002938D00446E42100F0B2
:103D7000A5FD01A9204600F071FC10B1204809B052
:103D8000F0BD204F4FF0FF31386800F0B7FD80BB29
:103D9000002000F047FE40BB01A92A46204600F063
:103DA00021FB0646012000F03DFED0B9386800F046
:103DB000BFFD78B9002EE1D12046E42100F07EFD60
:103DC00029462046FFF76CFF0F4B002818BF184606
:103DD00009B0F0BD0D4800F059FDEBE70C4809B003
:103DE000F0BD0C4800F052FDE0E70B4800F04EFD3E
:103DF000D2E70A4800F04AFDCAE70948704700BF09
:103E0000110CF000102D0020120CF0005C5D000081
:103E1000200CF000945D0000745D0000445D000023
:103E2000250CF00038B504464FF4806000F0A6FD84
:103E3000054D06480649074A00232B6003600B68BE
:103E40002360136038BD00BFC8B102502CB10250CE
:103E500004B1025008B102500138072805D8DFE844
:103E600000F00A0E041204040406094870478B6926
:103E70008B6000207047CB688B60002070470B6917
:103E80008B60002070474B698B600020704700BF3B
:103E9000310CF1000B6802E0082B0B6006D8426879
:103EA00013424FEA4303F7D00020704700487047A1
:103EB000310CF100084B094A002119601368002BEE
:103EC000FCD107480749084A03604FF480604FF06F
:103ED000FF330860136070472CB1025010B90250D4
:103EE000C4B1025008BA025008B10250002877D07D
:103EF000F8B50C46002971D01D46002B6ED0064641
:103F000022B1012200232A60C0F8D8302B68002B90
:103F100062D029462046FFF7BDFF00285BD1286804
:103F20002146FFF799FF002855D1364B3649374ACD
:103F300001271F609C460F60CCF80070A3681360D7
:103F400011688B42F8D1324F3249334A334B4FF02C
:103F5000000CC7F800C004270F600A2111606FF041
:103F60003A021A60079B012B4FF080533AD0D3F8E6
:103F7000002C013243D0D3F8002C294BA3FB023292
:103F80001209A368274C2849284F03FB02F303EBCF
:103F90004303DB039B092360254B2C680C601A60EC
:103FA000069A244C3A604FF48062226001224FF05E
:103FB000FF3441F8C44C43F80C2CD6F8D8302A68AA
:103FC00023F07F4343EA0263C6F8D8302A6843EA05
:103FD0000223C6F8D830F8BD1748F8BD1748F8BD19
:103FE00016487047D3F80C2C013206D0D3F80C2CAD
:103FF0000B4BA3FB0232FA40C3E71622C1E70622AD
:10400000BFE700BFC4B1025040B1025030B102500E
:104010002CB102500CB1025038B1025000B1025024
:10402000ABAAAAAAD8B10250CCB10250D0B102506A
:10403000D4B1025008BA0250310CF100350CF10035
:10404000F0B4C900002401F1FF3C2646274606E0F3
:104050009F4216D00126654519D82C461F46630994
:1040600004F01F0150F823301F2923FA01F304F153
:10407000010518BF03F00103002CE9D101263546E4
:10408000EBE701369642E6D10248F0BC70470020CB
:10409000F0BC7047360CF100002861D02DE9F041EA
:1040A0004C1EB4F5047F27D233B32AB3CD00012BC5
:1040B00005F1FF3E30D000218C460F460E4603F13D
:1040C000FF384C0901F01F0550F824401F2D24FA39
:1040D00005F418BF04F0010421B90126B4463146A5
:1040E0002746EEE7B34213D0A74201D10CF1010CF1
:1040F000464504D1624502D21A48BDE8F0813C46EB
:1041000001318E4506F10106EAD20020BDE8F081BA
:1041100000264FF0010CF3E70026B446374634463C
:10412000610904F01F0350F821101F2B21FA03F13D
:1041300018BF01F001013CB15FB98C4501D0614667
:1041400008E00136614605E0012634468C46012729
:10415000E6E73E46B242CFD30134AC42F6D1D4E7D3
:1041600000487047370CF1002DE9F04F89B01D462B
:10417000149BDDF84CA004460E4617464BB94FF091
:104180008053D3F8002C013200F0A980D3F800BC92
:1041900008E04FF08053D3F80C2C013200F0A280DD
:1041A000D3F80CBC7C480AF5C1622A60129A00233D
:1041B0004FF0FF31136000F0A1FB002840F0868033
:1041C000764A774B7749106004321960136806937A
:1041D000069BD907FAD5714A714B002111601B6803
:1041E0000793043213680793079BDB07FAD56C4BE0
:1041F0006D4A1B680793DDF81C9013680793079BB3
:10420000D807FAD5644800F093FB00285AD1654BD3
:10421000994540F0B680D4F8D43013F400790ED12B
:10422000D90512D52B68129A1B6813603BB1D4F8DC
:10423000D4309B055BD5484609B0BDE8F08FDFF868
:104240007C91484609B0BDE8F08F002F00F08780D0
:10425000564A574B1168B2681B689A4245D10A29E1
:1042600043D194F8DB3005930AF5C26A0425002790
:104270004FF0805804A8FFF7D5FD0498820602D5B8
:1042800010F01A0039D0D4F8D810059A0B0A03F4AC
:104290007F030B4323F07F43082AC4F8D83077D03C
:1042A000149B4FEA420CCDE90073002205AB314666
:1042B0002046CDF814C0FFF719FE00285FD1013D5C
:1042C000D8D1B4E73B4800F0E1FAA0E73A48DFF87C
:1042D000F09000F0DBFA484609B0BDE8F08F4FF0EF
:1042E000900B5FE74FF4047B5CE7DFF8D890FFF7B3
:1042F000E1FD484609B0BDE8F08F129B5246C3F875
:1043000000B0594600F0DCF9002838D1D8F8043C58
:10431000129A013318BFD8F8043C116808BF512322
:104320000293D8F8083C01332ED0D8F8083C039308
:104330004B1EB3F5047F0FD2029A02915046FFF74D
:104340007FFE48B90299039A4FF480635046FFF705
:10435000A3FE00283FF46BAF129B1F6093E723F08E
:104360000F03C4F8D430149B0122CDE900933146E9
:1043700005AB2046FFF7BAFD00283FF475AF814634
:1043800055E7DFF83C9056E740F237330393CFE729
:10439000DFF834904BE700BF182D002004BF025017
:1043A00000BF025012FA12FA08BF025038B1025090
:1043B00030B102505C5D0000445D0000330CF00041
:1043C000350CF000300CF100320CF10030B4DDE9B6
:1043D0000234049D02940024CDE9035430BCFFF75D
:1043E000C3BE00BF10B586B005AB0124CDE90124E2
:1043F0000093002204ABFFF7B7FE06B010BD00BF6C
:1044000078B3032A70B50E461546044601D9052A2D
:104410001CD1012E18D8ABB9022D19D0052D17D0FB
:104420004C21204600F04AFA052D88BF4FF0FF329C
:1044300013D900200123C4E90826C4E90B00C4E90C
:104440000D3370BD094870BD094870BD094870BD85
:1044500056B94C21204600F031FA074B53F825207D
:10446000E7E74FF470007047044870BD0E00F0009D
:104470000600F0000200F000245E00001200F000D0
:10448000C8B110B50C4682B18CB9082B0DD1536858
:10449000102B0ED1136843B101238362D2E90012BD
:1044A000103000F007FA204610BD044810BD044843
:1044B00010BD044810BD4FF4700070470400F000B8
:1044C0000500F0000300F00070B108B5036A013B7D
:1044D000022B05D831B1102200F0ECF9002008BD04
:1044E000034808BD034808BD4FF47000704700BF83
:1044F0000200F0000100F00038B349B31AB338B538
:1045000012F00F051BD1046A24F00404032C01D01F
:1045100003B31D4613462A4600F02CFB58B1A0F504
:104520007100052818D8052816D8DFE800F0050323
:104530000A0303080A4838BD4FF4700038BD094823
:1045400038BD094838BD074870474FF470007047C0
:1045500006487047064838BD4FF4750038BD00BFA7
:104560000200F0000A00F0000600F0000800F00071
:104570000900F000F8B5079F48B30E460546002A2B
:1045800035D0994239D8002F41D02B6A23F004014D
:10459000032906991FD0002932D03968B14233D39C
:1045A000300703D0012B1CD8EB6A23B311463346E6
:1045B000069A284600F0EAFB044660B3A0F57104B1
:1045C000052C37D8DFE804F00310251010174FF43E
:1045D00070042046F8BDA9B139680F2914D93107F4
:1045E000E4D0032BE2D1DFE7144C2046F8BD0029CC
:1045F000C9D0134CEDE7134CEBE7134C2046F8BD44
:10460000002ED3D0114CE4E7114C2046F8BD114CDC
:10461000DFE7114CDDE72B6A23F00403032B01D005
:104620003E60D6E706982946102200F043F9102391
:104630003B60CEE74FF47504CBE700BF0200F0000B
:104640000800F0000A00F0000C00F0000900F00083
:104650000D00F0001100F0000600F00030B504225B
:1046600085B00123C0F8D0200B6068460023CDE957
:104670000033CDE902330C4600F04EF80546C8B9C8
:10468000DDE90030DDE90212E360003BC4E904012A
:1046900018BF0123A26108B143F0020309B143F03E
:1046A00004030AB143F00803002228466360A260B5
:1046B00005B030BD014800F0E9F8E1E73C5E0000DC
:1046C00030B585B004460D46104803924FF0FF31D7
:1046D00000F014F9039A68B92046009501230021DF
:1046E00000F086FC0446094800F022F938B920465B
:1046F00005B030BD064800F0C9F8039AECE705485C
:1047000000F0C4F8204605B030BD00BF182D0020D1
:10471000445D00005C5D000000234FF4FA714FF42B
:104720007A72C0E900228160C3601846704700BFFA
:1047300010B500F039F8A0B900F00CF920B103244D
:1047400000F078F8204610BD00F06CF9034680B9FF
:104750000D4A1268120EF02A06D0052400F000F966
:10476000EEE70424204610BD0849094A0968914231
:1047700001D00624F2E7074A0120136000F052F945
:1047800004460028DED0E8E728B9025024BA0250D7
:104790000000E0200CBA025008B500F0E1F8BDE8D6
:1047A000084000F047B800BF08B5184800F08AF884
:1047B00098B9174800F086F8B8B9164800F082F8A2
:1047C000D8B9154B124A15481A6000F07BF8C0B9E9
:1047D000134B124A1A60002008BD124800F056F828
:1047E0000B4800F06FF80028E7D00F4800F04EF8B3
:1047F000084800F067F80028E3D00C4800F046F8BD
:10480000DFE70B4800F042F8E2E700BF182D002078
:10481000082D0020142D0020102D00200C2D00202C
:10482000002D00206C5E0000885E0000A45E000089
:10483000C45E000008B500F03BF80F4800F050F8E7
:1048400004210D4800F03AF80C4800F049F80B48F4
:10485000042100F033F80A4800F042F840B9094852
:1048600000F03EF8BDE808400648042100F026B8F4
:10487000054800F00BF8F2E7182D0020082D002065
:10488000142D00200C2D0020A45E0000BFF34F8FDC
:104890000549064BCA6802F4E0621343CB60BFF3DC
:1048A0004F8F00BFFDE700BF00ED00E00400FA05F8
:1048B000704700BFFEF74DBFFEF774BF0A460021E8
:1048C000FEF770BF10B5044610B10020206010BD87
:1048D0000248FFF7DBFF0020206010BDE45E00000F
:1048E00010B5044610B10020206010BD0248FFF74B
:1048F000CDFF0020206010BDE45E000010B504462E
:1049000080B10123BFF35B8F54E8002F44E80031EE
:104910000029F9D1BFF35B8F012AF3D0BFF35F8F7A
:10492000002010BD0148FFF7B1FFEAE7085F000073
:1049300010B5044620B1BFF35F8F0020206010BD8A
:104940000348FFF7A3FFBFF35F8F0020206010BD77
:10495000285F0000014B002018607047F82C0020F1
:1049600000207047014B1860704700BF08BA025022
:10497000014B1860704700BF04BA025010B50446DE
:1049800082B0C0B1124A134BC14311601B6801933E
:10499000019B18420AD1104A20BFBFF35B8F1368F6
:1049A000BFF35B8F0193019B2342F5D00B4B1C603F
:1049B000019802B010BD0A48FFF768FF044A054B92
:1049C0004FF0FF3111601B680193019BE3E700BFCB
:1049D00004BA025000BA0250F82C002008BA025063
:1049E000485F00000B490C4B0C4A4FF0FF30086049
:1049F0001B68BFF35B8F52E8001F42E800300028BD
:104A0000F9D1BFF35B8F9942F3D1BFF35F8F044AB3
:104A10001360704704BA025000BA0250F82C00200C
:104A200008BA025038B54FF0FF3104461E48FFF770
:104A300065FF08BB1D4A54B11368C3B1012B1CD0DC
:104A4000013B1360BDE838401748FFF771BF10689D
:104A500058B9174C174B18490125C4F800554FF4A5
:104A600080645C600B68002BFCD101301060BDE8F5
:104A700038400D48FFF75CBF38BD0F490B68002B6D
:104A8000FCD10B480B49C0F800354FF48063C1F8E6
:104A90008430BFF34F8FBFF36F8F084B6FF07E41B1
:104AA00019601368CCE700BF142D0020FC2C0020F7
:104AB00000A0025000E100E010B9025004BA025018
:104AC00038B5224B224A0121054619601368002B94
:104AD000FCD1204A1368002BFCD11F4A1368002B1D
:104AE000FCD11E4A1368002BFCD11D4B1C68002C06
:104AF000FCD14FF0FF30FFF735FF2B6A23F00403A2
:104B0000032B184B18680CBF20F0400020F08000E9
:104B1000FFF72EFF144B00221A602B6A23F00402C9
:104B2000032A18BF6C6A114A4FEA830318BF04F0C6
:104B3000010403F01C031C4314602B6A072B02D1F1
:104B40000B4B01221A60002038BD00BF00B9025093
:104B500070B4025020BD025020BC025038BD02503B
:104B600038BC025004BA0250BCB40250C0B4025067
:104B70007CB40250002800F0BF80F8B51D46436B9E
:104B80000E4617460446002B35D0012B02D1B5F551
:104B9000803F33D265484FF0FF31FFF7AFFE00286A
:104BA00057D10020FFF73EFF00284ED1604B012275
:104BB0001A60236A032B28DC002B28DA5D4A13686D
:104BC000002BFCD15A4A1360236A23F00403032B01
:104BD000594B18680CBF40F0400040F08000FFF7D0
:104BE000C7FE0120FFF71EFF002836D14F48FFF710
:104BF0009FFE28B9F8BDB5F5805FCBD34F48F8BD0F
:104C00004F48FFF743FE0020F8BD072BD6D1636A5B
:104C1000012BD3D8636B012BD0D8A36B012BCDD83C
:104C20002046FFF74DFF0028C8D1A36A012B6CD0A6
:104C300033F0020263D0236A5A1E062A1BD8DFE82B
:104C400002F0104B101A1A1A10003E48FFF71EFE11
:104C5000ACE73D48FFF71AFEA3E73C48FFF716FE16
:104C6000C4E73B4B22681A6062685A60A2689A6087
:104C7000E268DA60236A23F00403032B31D0A36BCC
:104C8000012B4CD0334A344B176020201D60636BDE
:104C9000012B2CD0314A324B16601D60FFF76EFE9F
:104CA000244A1368002BFCD1236A013B062B10D841
:104CB000DFE803F00414040F0F0F0400244A294B0B
:104CC000126822601A6862605A68A26008331B6822
:104CD000E3600123236371E7234BC3E7224A234B9D
:104CE000EEE7636B012B01D01020D3E74020204A70
:104CF000204B16601D60D1E74FF4710070471E49CC
:104D00001E4A0B600123136095E71D4B22691A6050
:104D100062695A60A2699A60E269DA608BE7194AAF
:104D2000194B176080201D60B1E700BF182D0020CF
:104D300010B8025010B9025004BA02500500F10038
:104D40005C5D0000745D0000445D0000945D000047
:104D500040B4025030BD025034BD025030BC02504D
:104D600034BC025044B4025060B4025064B40250E7
:104D700028BC02502CBC025038BA025078B4025001
:104D800000B4025028BD02502CBD02502DE9F04164
:104D9000002800F081801D46036A072B0F46044659
:104DA00016D055B9032B0FD1036B6BB9C0E90F5562
:104DB000C0E9115500F13C0710252B463946204625
:104DC000BDE8F041FFF7D6BE2E463046BDE8F08183
:104DD000436B002B37D1B5F5805F39D215B9236B02
:104DE000002B35D167484FF0FF31FFF787FD0028D2
:104DF00040F097800020FFF715FE002840F09980D2
:104E0000614B01221A60236A032B23DC002B23DA77
:104E10005E4E5F4A1368002BFCD15B495D4A0B6014
:104E2000106840F04000FFF7A3FD0120FFF7FAFDF6
:104E300000287AD15348FFF77BFD0028C5D056489B
:104E4000FFF724FDC1E7012BC8D1B5F5803FC5D3DD
:104E5000524EBAE7072BDBD1636A012B78D8636B1C
:104E6000012B57D8A36B012B00F284802046FFF75B
:104E700027FE06460028CCD1A36A012B6AD033F066
:104E8000020271D0236A013B062B13D8DFE803F03E
:104E900009440912121209004FF471063046BDE8A8
:104EA000F0813F4B22681A6062685A60A2689A607B
:104EB000E268DA603B493C4A01230B601560002D33
:104EC0003BD1226B0AB9394A1360314B1E68002E60
:104ED000FCD1236A013B062B9BD801A252F823F098
:104EE000FD4E00001D4F0000FD4E0000134E00005F
:104EF000134E0000134E0000FD4E0000284A2C4BBC
:104F0000126822601A6862605A68A26008331B68DF
:104F1000E3607EE7274E7CE7274BC3E7264A274B13
:104F2000EEE72748FFF7B2FC64E72648FFF7AEFC40
:104F300080E72548FFF7AAFC62E7636B012B1BD0D3
:104F4000224A234B176010201D60FFF717FDBCE7B6
:104F5000204E5EE7204B22691A6062695A60A2699E
:104F60009A60E269DA608DE71C491D4A0B600123F3
:104F7000136087E71B4E4CE71B4A1C4B1760402011
:104F80001D60E2E7182D002010B802500100F1006A
:104F900010B9025004BA02505C5D00000500F10037
:104FA00040B402507CB40250BCB4025024B502504C
:104FB00044B402500300F10060B4025064B40250E3
:104FC000445D0000945D0000745D000030BC025040
:104FD00034BC02500200F10000B4025038BA025052
:104FE00078B402500400F10028BC02502CBC0250DE
:104FF000F8B5069E002E33D001292FD8012B31D8C9
:105000001C4C074600251C4825600468002CFCD178
:105010001A4D2C68002CFCD1194D2C68002CFCD1A9
:10502000184D2C68002CFCD1174D2C68002CFCD19D
:10503000012B19D01548164B026020201E60012953
:105040000BBF144B144B154A154A17601E60FFF72F
:1050500095FC144B18680028FCD1F8BD1248F8BD27
:105060001248F8BD1248F8BD1248134B0260802068
:105070001E60E4E700B9025070B4025020BD025037
:1050800020BC025038BD025038BC025030BD025026
:1050900034BD02502CBC025034BC025028BC02501B
:1050A00030BC025010B902500200F4000100F400BC
:0C50B0000300F40028BD02502CBD02508B
:1050BC008C0000204800002040000000010000008F
:0850CC00000000004451000047
:0850D400FD170000E7170000C2
:1050DC00000000000453000000000000CC58000049
:1050EC0000000000BC58000000000000AC5800009C
:1050FC00000000009C58000000000000A8590000AF
:08510C0000000000E85A000059
:105114000000000000000000ED200000000000007E
:045124000000000087
:105128000000000000000000000000000000000077
:0C5138000000000000000000000000006B
:105144006D5F72616E645F706F6F6C0008010C01BB
:105154001001140118011C01200124012C0130014B
:10516400340138013C014001440148014C01500123
:10517400950F0000C90F0000111100002910000054
:10518400231000001D100000171000001110000073
:105194000B10000005100000F5100000A111000024
:1051A400311500001D140000171400001114000034
:1051B4000B14000005140000FF130000F913000095
:1051C400591100001511000079140000C1160000E7
:1051D400251400000000FFFFDEC0ADDEFE011EF15D
:1051E400DEC0ADDEFF011EF14261642061726775AD
:1051F4006D656E7420636F756E740025730D0A09F6
:105204002D20456C656D656E742073697A653A0965
:105214002564202B202564206279746573206F66D1
:1052240020646562756720696E666F726D6174696A
:105234006F6E0D0A092D2055736167653A0925754E
:10524400252520282575206F7574206F6620257507
:1052540020656C656D656E7473290D0A092D204DEA
:105264006178696D756D3A092575252520282575A0
:10527400206F7574206F6620257520656C656D65DB
:105284006E7473290D0A0D0A0062616C6C6F630001
:10529400436F6D6D616E647320666F722042414C82
:1052A4004C4F43206D616E6167656D656E7400736C
:1052B4007461747573005072696E742073746174D0
:1052C4007573206F662062616C6C6F6320696E7306
:1052D40074616E6365732E0000000000E4520000E8
:1052E400B3520000BA520000000000000522000082
:1052F40000000000000000000000000000000000AA
:105304008D52000094520000DC520000052200007F
:105314001B5B256443001B5B256444001B5B256405
:1053240041001B5B256442002563006E6F7420748A
:1053340065726D696E617465643A2025630A003A8A
:1053440020636F6D6D616E64206E6F7420666F757F
:105354006E64002D68002D2D68656C7000506C65BE
:105364006173652073706563696679206120737564
:1053740062636F6D6D616E642E0A00546162206613
:10538400756E6374696F6E3A20636F6D6D616E64E0
:105394007320636F756E746572206F766572666CC8
:1053A4006F7765642E0A002020000A257325730098
:1053B4000A2573004F7074696F6E733A0A002020D7
:1053C400252D2A733A0053686F7720636F6D6D61E2
:1053D4006E642068656C702E00202025732573256B
:1053E4007300537562636F6D6D616E64733A0A0086
:1053F40025733A2077726F6E6720706172616D65F4
:1054040074657220636F756E740A0025733A257390
:1054140025730A0020756E6B6E6F776E2070617253
:10542400616D657465723A20004E6F207265737009
:105434006F6E73652066726F6D2074686520746585
:10544400726D696E616C2C20617373756D65642077
:1054540038307832342073637265656E2073697AEC
:10546400650A005B2533645D2025730A006F6E00B6
:105474006F6666004563686F207374617475733A70
:105484002025730A004C6F7374206C6F67733A2085
:1054940025750A4D6178206C6F6720717565756597
:1054A400207574696C697A6174696F6E3A20257528
:1054B4002525205B25752F25755D0A0072657369A6
:1054C4007A6500436F6E736F6C6520676574732033
:1054D4007465726D696E616C2073637265656E20AC
:1054E40073697A65206F7220617373756D657320BB
:1054F400383020696E20636173652074686520729A
:105504006561646F7574206661696C732E204974DB
:10551400206D7573742062652065786563757465A4
:1055240064206166746572206561636820746572C5
:105534006D696E616C207769647468206368616E5C
:10554400676520746F20656E7375726520636F7272
:1055540072656374207465787420646973706C6117
:10556400792E00686973746F727900436F6D6D6191
:105574006E6420686973746F72792E00636C6900BD
:1055840055736566756C2C206E6F7420556E697842
:105594002D6C696B6520434C4920636F6D6D616EA2
:1055A40064732E00636C65617200436C65617220E4
:1055B40073637265656E2E0064656661756C740054
:1055C400417373756D652038302063686172732090
:1055D40073637265656E20776964746820616E64B4
:1055E4002073656E642074686973207365747469CC
:1055F4006E6720746F20746865207465726D696EBF
:10560400616C2E00636F6C6F727300546F67676C0C
:105614006520636F6C6F7265642073796E74617852
:105624002E006563686F00546F67676C6520434C98
:1056340049206563686F2E00737461747300434C72
:105644004920737461746973746963732E0072659D
:1056540073657400526573657420434C49207374F8
:10566400617469737469637320666F72207468650A
:10567400204C6F67676572206D6F64756C652E00D2
:1056840073686F770047657420434C4920737461D5
:105694007469737469637320666F7220746865201B
:1056A4004C6F67676572206D6F64756C652E00447E
:1056B400697361626C6520434C49206563686F2E91
:1056C400204172726F777320616E64206275747406
:1056D4006F6E733A204261636B73706163652C2053
:1056E40044656C6574652C20456E642C20486F6D90
:1056F400652C20496E7365727420617265206E6F2B
:10570400742068616E646C65642E00456E61626C21
:105714006520434C49206563686F2E0044697361BA
:10572400626C6520636F6C6F7265642073796E744C
:1057340061782E00456E61626C6520636F6C6F72D8
:1057440065642073796E7461782E001B5B3F336C43
:10575400001B5B6D001B5B324A001B5B48001B5B3C
:10576400366E00202D200000000000000338FDD814
:1057740070472D682C202D2D68656C70000000008A
:10578400000000008C570000085600000F5600006F
:105794000458000071290000265600002B56000012
:1057A4003C580000B92B00003C5600004256000053
:1057B400CC570000B12900000000000000000000E8
:1057C400000000000000000000000000D4570000AA
:1057D400525600005856000000000000212C000022
:1057E400845600008956000000000000492C000087
:1057F40000000000000000000000000000000000A5
:10580400000000000C5800007454000020570000F1
:1058140000000000392B00007154000038570000CC
:1058240000000000592B00000000000000000000F0
:1058340000000000000000000000000044580000C8
:1058440074540000B356000000000000792B0000DF
:10585400715400000F57000000000000992B000055
:105864000000000000000000000000000000000034
:10587400000000007C580000BC550000C455000026
:1058840000000000F52900000000000000000000F6
:105894000000000000000000A8550000AE55000004
:1058A40000000000D9280000805500008455000045
:1058B4008457000019290000675500006F55000047
:1058C40000000000C92A0000C0540000C7540000B2
:1058D40074580000212A00002C2000303132333467
:1058E40035363738394142434445464F766572660A
:1058F4006C6F77004E6F206F766572666C6F770001
:1059040025730D0A092D20456C656D656E74207331
:10591400697A653A0925640D0A092D205573616772
:10592400653A092575252520282575206F7574206D
:105934006F6620257520656C656D656E7473290D21
:105944000A092D204D6178696D756D3A0925752513
:105954002520282575206F7574206F6620257520F5
:10596400656C656D656E7473290D0A092D204D6F84
:1059740064653A090925730D0A0D0A007175657588
:1059840065005072696E7420737461747573206F4E
:105994006620717565756520696E7374616E6365E3
:1059A400732E00008059000094520000B859000082
:1059B400B531000000000000C0590000B3520000DF
:1059C4008659000000000000B5310000000000000E
:1059D4000000000000000000000000003C4E554C98
:1059E4004C3E0052756E6E696E670052756E6E6144
:1059F400626C650053757370656E64656400546110
:105A0400736B2025753A0D0A00094E616D653A09DC
:105A1400272573270D0A0009537461636B3A093013
:105A240078253038582D30782530385820757365EE
:105A34006420696E202575252520282575206F751D
:105A440074206F66202575206279746573290D0AA8
:105A54000009537461636B3A093078253038582D46
:105A64003078253038580D0A000953746174653A4A
:105A74000925730D0A0009466C6167733A09307889
:105A8400253038580D0A0D0A007461736B5F6D611F
:105A94006E6167657200636F6D6D616E647320661D
:105AA4006F72207461736B206D616E616765720043
:105AB4007461736B7320696E666F000000000000F0
:105AC400C85A0000BA5A0000B45A0000000000008E
